:100000000C942B040C9453040C9453040C9453043C
:100010000C9453040C9453040C9453040C94851ABC
:100020000C9453040C9453040C9453040C945304F4
:100030000C9453040C9453040C9453040C945304E4
:100040000C94391B0C9453040C94071B0C94E11A68
:100050000C9453040C9453040C9453040C945304C4
:100060000C94831B0C94530400407A10F35A00A0A4
:10007000724E18090010A5D4E80000E87648170071
:1000800000E40B54020000CA9A3B000000E1F505B1
:10009000000080969800000040420F000000A086FB
:1000A00001000000102700000000E803000000002D
:1000B0006400000000000A000000000001000000D1
:1000C00000002C76D888DC674F0823DFC1DFAE59EB
:1000D000E1B1B796E5E3E453C63AE651997696E87E
:1000E000E6C28426EB898C9B62ED407C6FFCEFBC02
:1000F0009C9F40F2BAA56FA5F490055A2AF75C932D
:100100006B6CF9676DC11BFCE0E40D47FEF520E662
:10011000B500D0ED902E0300943577050080841E45
:10012000080000204E0A000000C80C333333330FA0
:10013000986E12831141EF8D2114893BE65516CF3D
:10014000FEE6DB18D1844B381BF77C1D901DA4BB49
:10015000E424203284725E228100C9F124ECA1E5FE
:100160003D27200044776E20557020204573632082
:100170004F6B20002D2D2D202D2D2D20457363201C
:10018000476F20002D2D2D202D2D2D204E787420F1
:10019000476F20002D2D2D202D2D2D204573632000
:1001A00052756E002D2D2D202D2D2D204E6F2020CF
:1001B000596573002D2D2D20446573204E6F20202E
:1001C000596573002D2D2D202D2D2D204573632075
:1001D000456E64002D2A2D202D2A2D202D2A2D201C
:1001E0002D2A2D00524546494C4C20204573632052
:1001F000476F2000457865637574653F2020202097
:1002000020202020205265706561742050726F6339
:100210006573733F2020202020466C6F7720466155
:1002200063746F722020202020204E4557202050DC
:10023000524F43455353202020202057616974209A
:1002400020506C6561736520202020202050524F83
:10025000434553532020202020002020494E544560
:1002600052525550544544202020002050524F43B4
:100270004553534F20454E444544200020464F529D
:100280004D4154202043484F494345200020466FAC
:10029000726D617420202020202020202000424FF9
:1002A00054544C452020202020202020202000498C
:1002B0004E495449414C495A45202044415441003B
:1002C000494E495449414C495A5A4154494F4E208C
:1002D00000202020434F4D504C45544544202020C1
:1002E00020004163746976652050686173653A2027
:1002F0002020002020202053746F72616765202029
:1003000020202000202020436F6D706C6574656490
:10031000202020200020204E6F742020416C6C6F24
:100320007765642020004E756D626572206F6620CF
:100330004379636C657300202052656D6F7665208C
:10034000426F74746C6520002020205072657373B6
:100350002061206B65792020002057616974696EE7
:100360006720526566696C6C2000203132350020B0
:100370003235300020333330002035303000203625
:1003800036300020373530003130303000313530F4
:10039000300000000000004D414E550054494D45CD
:1003A00000464C4F57004155544F00526F6F740038
:1003B00000000000000000000000000050726F67A5
:1003C00072616D73000000000000000000546F6F48
:1003D0006C73000000000000000000000000436F8C
:1003E0006E66696775726174696F6E000000004324
:1003F0007265646974730000000000000000000072
:100400004D616E75616C000000000000000000008E
:100410000054696D656400000000000000000000E9
:10042000000054696D65202B20466C6F770000003A
:100430000000004175746F6D617469630000000015
:1004400000000000436C65616E696E67000000008B
:100450000000000000506861736573000000000038
:10046000000000000000426F74746C6573000000AF
:100470000000000000000050726573737572652003
:1004800053656E736F720000496E697469616C69BF
:100490007A7A6174696F6E000050757267652043E7
:1004A00079636C6573000000000056616375756DBB
:1004B0000000000000000000000000526566696C4A
:1004C0006C00000000000000000000005661637531
:1004D000756D000000000000000000000050726513
:1004E00073737572697A6500000000000000466948
:1004F0006C6C696E670000000000000000000044A2
:100500006573617475726174696F6E00000000003C
:10051000506F736974697665000000000000000088
:10052000004E656761746976650000000000000098
:1005300000004D6574686F6400000000000000005A
:1005400000000057616974696E672054696D650029
:1005500000000000442E2043616E746F6E6900003D
:1005600000000000000000636865727279706869BD
:100570006C6970000000000000004D2E4E65766929
:10058000000000000000000000000000004D2E529E
:100590006F6D697469000000000000000000000039
:1005A0004D2E2047656E74696C696E69000000000D
:1005B0000000004C2E2043617A7A616E69000000D1
:1005C0000000000000004F2E4E617374726F000037
:1005D000000000000000000000502E2050697261F1
:1005E000730000000000000000000000452E566966
:1005F0006E63656E7A690000000000000000004D27
:100600002E204E6576692020202020202849544144
:1006100029006368657272797068696C6970202856
:10062000454E4729004D2E204E657669202020201A
:1006300020202849544129004D2E204E65766920FE
:10064000202020202028454E4729006368657272CB
:10065000797068696C69702028454E472900436F9E
:100660006E6365707400000000000053747275635F
:1006700074757265000000005043420000000000E5
:100680000000000000536F6674776172650000001F
:100690000000416C70686120546573740000004272
:1006A00065746120205465737400000046696E61B2
:1006B0006C20546573740000004C6F63616C697A40
:1006C0006174696F6E004D616E75616C730000003E
:1006D00000000033442052656E646572696E6700E5
:1006E000466F756E646572205465616D0000000090
:1006F00000240027002A0000000000230026002913
:1007000000000000080002010000030407000000D0
:1007100000000000007265737375726500726420DA
:10072000005072657373203E20202020204D454EDE
:100730005500507265737320203E202020204D45C7
:100740004E550050726573732020203E2020204DAE
:10075000454E55005072657373202020203E2020A6
:100760004D454E5500507265737320202020203E69
:10077000204D454E55004E6F626F647900000000B9
:100780000000000053657061726174650000000034
:100790000000446973636F6E74696E756F757300E2
:1007A000436F6E74696E756F7573000000004E6F55
:1007B00020005965730020202020202020202020A8
:1007C00020200056414355554D2020202020200058
:1007D00050524553535552495A4520200046494CE2
:1007E0004C494E4720202020200044455341545579
:1007F000524154494F4E004A455454494E472020D7
:100800002020200057415348494E472020202020D7
:1008100000434C45414E494E472020202000010214
:10082000040810204080010204081020010204087E
:10083000102000000000250028002B000404040400
:10084000040404040202020202020303030303037A
:100850000200A21C2D2511241FBECFEFD8E0DEBF61
:10086000CDBF25E0A2E3B3E001C01D92A333B207E0
:10087000E1F713E0A0E0B1E0E8EAFEE502C0059090
:100880000D92A233B107D9F714E0CAE2D4E004C054
:100890002197FE010E94A62AC932D107C9F70E94FA
:1008A000031D0C94472F0C940000FC01538D448DC4
:1008B000252F30E0842F90E0821B930B541710F00B
:1008C000CF96089501970895FC01918D828D981718
:1008D00061F0A28DAE0FBF2FB11D5D968C91928DF0
:1008E0009F5F9F73928F90E008958FEF9FEF089521
:1008F000FC01918D828D981731F0828DE80FF11DEA
:10090000858D90E008958FEF9FEF0895FC01918D04
:10091000228D892F90E0805C9F4F821B91098F73FD
:1009200099270895FC01A48DA80FB92FB11DA35AD2
:10093000BF4F2C91848D90E001968F739927848FFF
:10094000A689B7892C93A089B1898C918370806422
:100950008C93938D848D981306C00288F389E02DC3
:1009600080818F7D80830895EF92FF920F931F9374
:10097000CF93DF93EC0181E0888F9B8D8C8D981352
:100980001AC0E889F989808185FF15C09FB7F8945E
:10099000EE89FF896083E889F989808183708064AA
:1009A00080839FBF81E090E0DF91CF911F910F91F5
:1009B000FF90EF900895F62E0B8D10E00F5F1F4F04
:1009C0000F731127E02E8C8D8E110CC00FB607FC13
:1009D000FACFE889F989808185FFF5CFCE010E94A1
:1009E0009204F1CFEB8DEC0FFD2FF11DE35AFF4F79
:1009F000F0829FB7F8940B8FEA89FB89808180622F
:100A0000CFCFCF93DF93EC01888D8823B9F0AA89EB
:100A1000BB89E889F9898C9185FD03C0808186FDB9
:100A20000DC00FB607FCF7CF8C9185FFF2CF808108
:100A300085FFEDCFCE010E949204E9CFDF91CF91E7
:100A400008958EE694E00E94860421E0892B09F443
:100A500020E0822F089580E090E0892B29F00E9409
:100A6000210581110C940000089508950895AF9216
:100A7000BF92CF92DF92EF92FF920F931F93CF938B
:100A8000DF936C017B018B01040F151FEB015E01ED
:100A9000AE18BF08C017D10759F06991D601ED9182
:100AA000FC910190F081E02DC6010995892B79F721
:100AB000C501DF91CF911F910F91FF90EF90DF90D3
:100AC000CF90BF90AF900895FC0144815581608123
:100AD000718183E295E00C943705833081F028F42E
:100AE000813099F08230A9F008958730A9F08830DC
:100AF000C9F08430B1F4809180008F7D03C0809173
:100B000080008F7780938000089584B58F7784BDAF
:100B1000089584B58F7DFBCF8091B0008F7780934F
:100B2000B00008958091B0008F7DF9CFCF93DF930F
:100B3000282F30E0F901EF5FF84F8491F901E25E70
:100B4000F74FD491F901E45CF74FC491CC23A1F0A5
:100B500081110E946D05EC2FF0E0EE0FFF1FE950B0
:100B6000F94FA591B491EC91ED2381E090E009F467
:100B700080E0DF91CF91089580E090E0FACF1F935D
:100B8000CF93DF93282F30E0F901EF5FF84F849186
:100B9000F901E25EF74FD491F901E45CF74FC4919B
:100BA000CC23A9F0162F81110E946D05EC2FF0E0E7
:100BB000EE0FFF1FEE5CF74FA591B4918FB7F8943D
:100BC000EC91111108C0D095DE23DC938FBFDF912B
:100BD000CF911F910895DE2BF8CF90914801891392
:100BE0000BC0E0E5F8E0E4919FEF90934801E1301D
:100BF00049F028F0E23061F060E00C94BF051092FB
:100C00006E00FACF90916F009D7F90936F00F4CFAC
:100C1000909170009D7F9093700091E09093B00050
:100C20009091B100987F94609093B1001092B300BE
:100C3000E3CFCF93DF9390E0FC01E25EF74F249186
:100C4000845C974FFC0184918823C9F090E0880F61
:100C5000991FFC01E351F94FA591B491FC01EE5CA1
:100C6000F74FC591D49161110DC09FB7F8948C9145
:100C7000209582238C938881282328839FBFDF912E
:100C8000CF910895623051F49FB7F8943C91822F30
:100C9000809583238C93E8812E2BEFCF8FB7F89428
:100CA000EC912E2B2C938FBFEACF4F925F926F92D5
:100CB0007F928F929F92AF92BF92CF92DF92EF92EC
:100CC000FF920F931F93CF938C014A015B01809198
:100CD00048018A3099F08F3F09F455C0CF911F9198
:100CE0000F91FF90EF90DF90CF90BF90AF909F90CB
:100CF0008F907F906F905F904F900895E0E5F8E0BF
:100D0000C491C7FDEBCF61E08AE00E941906CC23B5
:100D100019F0C23009F0E9C02801712C612C68E497
:100D200078EE81E090E0A30198010E94872A690192
:100D30007A0181E0C81AD108E108F108CC2309F44E
:100D40000FC1C23009F08EC08FEFC816D104E10484
:100D5000F10409F00CF4C7C064E274EF80E090E0A5
:100D6000A30198010E94872A69017A0181E0C81ACB
:100D7000D108E108F10895E08091B100887F892BC6
:100D80008093B1008DC08AE080934801E0E5F8E0EF
:100D9000C491CF3F09F4A2CFC13021F150F0C2304D
:100DA00009F43EC0C7FD9ACF61E08AE00E941906AF
:100DB000B0CF14BC15BC84B5826084BD85B581609C
:100DC00085BDE6E4F8E0E491F0E0EE0FFF1FEE5C95
:100DD000F74F85919491E8E2F8E0E491E0936104A3
:100DE000C0E091CF1092800010928100809181002C
:100DF0008860809381008091810081608093810070
:100E0000E6E4F8E0E491F0E0EE0FFF1FEE5CF74F50
:100E100085919491E8E2F8E0E491E093600473CF67
:100E20001092B0001092B1008091B0008260809367
:100E3000B0008091B10081608093B100E6E4F8E0F9
:100E4000E491F0E0EE0FFF1FEE5CF74F8591949177
:100E500090935F0480935E04E8E2F8E0E491E0930D
:100E60005D0451CF8FEFC816D104E104F104D9F12C
:100E7000D4F162E17AE780E090E0A30192010E9460
:100E8000872A69017A0181E0C81AD108E108F108CE
:100E9000C11170C094E085B5887F892B85BDC0E005
:100EA000D801AA0FBB1FA50194010E94CD2828EEEE
:100EB00033E040E050E00E94652AC13079F1C23051
:100EC00009F43EC0C1110ACFC7BC20936A04309315
:100ED0006B0440936C0450936D0480916E008260AB
:100EE00080936E00FBCE94E047CF980150E040E045
:100EF00060E072E18AE790E00E94872A69017A0146
:100F000081E0C81AD108E108F108C13049F68091A2
:100F10008100887F816080938100C2CFD092890058
:100F2000C09288002093660430936704409368045D
:100F30005093690480916F00826080936F00CECEE1
:100F4000C092B3002093620430936304409364041E
:100F50005093650480917000826080937000BECED3
:100F600093E08FEFC816D104E104F10411F00CF006
:100F700080CF91CF96E000CF3FB7F8948091F603F1
:100F80009091F703A091F803B091F90326B5A89BBF
:100F900005C02F3F19F00196A11DB11D3FBFBA2F0B
:100FA000A92F982F8827BC01CD01620F711D811DCB
:100FB000911D42E0660F771F881F991F4A95D1F750
:100FC00008958F929F92AF92BF92CF92DF92EF924D
:100FD000FF926B017C010E94BC074B015C01C114B4
:100FE000D104E104F104B9F00E94BC076819790941
:100FF0008A099B09683E73408105910580F321E0D1
:10100000C21AD108E108F10888EE880E83E0981E24
:10101000A11CB11CE4CFFF90EF90DF90CF90BF9068
:10102000AF909F908F9008952FB7F8946091F2033E
:101030007091F3038091F4039091F5032FBF08950D
:1010400085ED8093BC008091BC0084FDFCCF1092A4
:10105000000408952091AA03260F3327331F21325D
:101060003105ECF420910004FC0190E080E0243094
:1010700069F082E00895A091AA032191AC0146573E
:101080005C4FA40FB52FB11D2C930196861798F3D2
:101090008091AA03680F6093AA0380E0089581E01D
:1010A00008950895E091040480910304E81730F452
:1010B000F0E0E659FC4F808190E008958FEF9FEFBC
:1010C000089590910404809103042FEF3FEF981747
:1010D00048F4E92FF0E0E659FC4F208130E09F5FB3
:1010E00090930404C901089580910304909104042D
:1010F000891B990B0895CF92DF92EF92FF920F9385
:101100001F93CF93DF937C01CB018A012091690368
:10111000222389F0EB016B01C40ED51ECC15DD0531
:1011200069F06991D701ED91FC910190F081E02D7A
:10113000C7010995F3CF642F0E942A08C801DF91E7
:10114000CF911F910F91FF90EF90DF90CF90089576
:10115000CF93DF931F92CDB7DEB7698320916903E8
:101160002223F9F020910104203258F021E030E0F0
:10117000FC013383228390E080E00F90DF91CF91D8
:10118000089580910204E82FF0E0E75BFC4F99811D
:1011900090838F5F809302048093010481E090E04C
:1011A000ECCF61E0CE0101960E942A08F7CFCF93E1
:1011B000FC01C48121E020936903C093480310928D
:1011C0000204109201048385682B8BE095E00E9455
:1011D000A80890910104913208F03FC0809100046A
:1011E0008111FCCF82E08093000481E08093FF03B3
:1011F0008FEF8093CD031092EF039093EE03A9E459
:10120000B3E0EEECF3E080E098132FC01092F0030F
:101210008091F003CC0FC82BC093F0038091FE03A4
:10122000813039F51092FE038091F0038093BB006A
:101230008091BC0083FDF8CF85EC8093BC00809149
:1012400000048230E1F38091CD038F3F31F0809133
:10125000CD03803211F08091CD03109202041092E0
:10126000010410926903CF9108952D9121938F5F0E
:10127000CBCF85EEE2CF089590E080E00895CF9344
:10128000C4E060E08C2F0E94BF05CF5FCA30C9F771
:10129000CF910895CF9383E00E949605C1E0009717
:1012A00009F4C0E0892B59F44EEE52E060E070E0A2
:1012B00084EF91E00E9455068C2FCF9108958AE02B
:1012C0000E94ED05F9CFCF92DF92EF92FF92CF937C
:1012D000DF93EB0169017A01BC01990F880B990B2F
:1012E0000E949A2760933C0470933D0480933E04CF
:1012F00090933F04BE01DD0F880B990B0E949A2743
:10130000609338047093390480933A0490933B04BB
:10131000C0924401D0924501E0924601F09247010B
:1013200010924804DF91CF91FF90EF90DF90CF9023
:10133000089510924A0410924004109241041092B1
:1013400042041092430410924804109249040895F4
:101350004F925F926F927F928F929F92AF92BF92C5
:10136000CF92DF92EF92FF920F931F93CF93DF9371
:10137000782E07E911E0C6E3D3E0F12CE12C812CB3
:10138000912C54018394CC24C394D12C4E2CF8017D
:1013900051908F01852D0E94960560904804892BFD
:1013A00009F059C00E9414086093440470934504E6
:1013B000809346049093470488819981009709F4AB
:1013C00016C101969983888361100AC00E9414088F
:1013D0006093320370933303809334039093350307
:1013E00088819981892B71F4D501C40104C0880FCB
:1013F000991FAA1FBB1F4A94D2F7862980934804DD
:10140000D982C882F1E07F1236C0852D0E949605F0
:10141000892BD9F30E9414082091320330913303B1
:10142000CB01821B930B68EE73E00E943D2AC1E062
:10143000C60F8C2FDF91CF911F910F91FF90EF90EE
:10144000DF90CF90BF90AF909F908F907F906F90E4
:101450005F904F90089519821882D501C4010E2C17
:1014600004C0880F991FAA1FBB1F0A94D2F780954A
:101470008621809348048FEFE81AF80A2296E4E068
:10148000EE16F10409F082CFC0914804F2E07F1219
:101490009EC08FEF8C0F823008F099C00E94140814
:1014A00000913203109133032091340330913503BE
:1014B000601B710B820B930B28EE33E040E050E091
:1014C0000E94652A4901C0903804D0903904E09008
:1014D0003A04F0903B04229F8001239F100D100DD1
:1014E000112420E030E543EC56E4C701B6010E9428
:1014F000932787FF48C0B80190E080E00E949827BA
:1015000020E030E040E250E40E948B290E94FD2957
:101510006F5F7F4F072E000C880B990B0E949A2754
:10152000209144013091450140914601509147017D
:101530000E94F9278090400490904104A0904204BA
:10154000B0904304C13039F59B01AC01C501B40131
:101550000E941E296B017C0180903C0490903D0408
:10156000A0903E04B0903F04A50194010E949327EF
:1015700087FF1FC08092400490924104A0924204D1
:10158000B09243041EC0089DB001099D700D189DC6
:10159000700D1124BDCFA50194010E941F294B019C
:1015A0005C01AC019B01C701B6010E94932787FF34
:1015B000E1CFC0924004D0924104E0924204F09204
:1015C000430461E470E080E090E00E94E10761E4A0
:1015D00070E080E090E00E94E107CC2309F429CF7D
:1015E0006CE370E080E090E00E94E10722CF6110A0
:1015F000FBCEECCE0F931F93CF938C01C62F0E948E
:10160000D7086C2F6460C8010E94D7086C2F6B7FCD
:10161000C8010E94D70883EC90E00197F1F7CF91C1
:101620001F910F9108950F931F93CF93DF938C0118
:10163000D62FC42F607F642B0E94FA0A80E1D89FC6
:10164000B00111246C2BC801DF91CF911F910F9134
:101650000C94FA0ACF93DF93CDB7DEB728970FB675
:10166000F894DEBF0FBECDBF98E0EFE4F1E0DE01FD
:10167000119601900D929A95E1F790912B0596178E
:1016800010F46FEF690F262F30E0220F331F41E077
:1016900050E04C0F5D1F240F351FF9016081680F6A
:1016A000606840E083E295E028960FB6F894DEBFCC
:1016B0000FBECDBFDF91CF910C94130B41E00E9480
:1016C000130B81E090E00895CF93C82F862F642FED
:1016D0000E942A0B6C2F83E295E0CF910C945E0B55
:1016E0000F931F93CF93DF938C01D0E0C0E0F801FC
:1016F000EC0FFD1F6491662339F041E083E295E031
:101700000E94130B2196F3CFCE01DF91CF911F9151
:101710000F910895CF93DF93D82F862F642F0E94C7
:101720002A0BC0E0CD1731F082E691E00E94700BE9
:10173000CF5FF8CFDF91CF9108954F925F926F9274
:101740007F928F929F92AF92BF92CF92DF92EF9251
:101750000F931F93CF93DF9300D000D01F92CDB78C
:10176000DEB769837A838B839C8329013A01D12C6C
:10177000B6010D2C000C880B990B0E949A2720E0D3
:1017800030E040EA50E40E94F9274B015C01A301DC
:10179000920169817A818B819C810E948B29A501AC
:1017A00094010E94F9270E94FD299B0101110FC09D
:1017B000072E000C880B990B0E949A279B01AC0105
:1017C000C501B4010E941E290E94FD299B01C90187
:1017D00065E070E00E94512A062FB82E6D83898340
:1017E000662359F010E06E2D610F42E086E00E9402
:1017F000640B1F5F8D811817B0F38981811110C0B0
:10180000C01AD1088D818E0D8D8389818C151D04A0
:1018100014F58F5F898342E06D810E948A0BF5CFBA
:101820006E2D600F42E081E08B0D0F900F900F90B6
:101830000F900F90DF91CF911F910F91EF90DF905C
:10184000CF90BF90AF909F908F907F906F905F9060
:101850004F900C94640B0F900F900F900F900F907F
:10186000DF91CF911F910F91EF90DF90CF90BF90BC
:10187000AF909F908F907F906F905F904F90089562
:101880004F925F926F927F92AF92BF92CF92EF9200
:101890000F93CF93DF938530C0F55B01C0910604B1
:1018A0008150990B24E0C29FE0011124C95FDB4FF6
:1018B000C80FD91F688170E090E080E00E949827EF
:1018C0002B013C01B5010B2C000C880B990B0E94DD
:1018D0009A2728E0C22E37E0E32E01E0A30192010F
:1018E0000E949D0B988181E09A151B0409F00CF46D
:1018F00080E0DF91CF910F91EF90CF90BF90AF90AC
:101900007F906F905F904F90089581E0F2CF41E01B
:1019100061E083E10E948A0B42E061E083E10E9482
:101920008A0B43E061E083E10C948A0B482F60E06E
:1019300084E10C948A0B82E00E94960C60914A0428
:1019400070E090E080E00E949827609340047093DC
:10195000410480934204909343040E9414086093CE
:10196000440470934504809346049093470408957B
:1019700082E00E94960C83E00C94960C0F931F93C8
:10198000CF93DF938B0198E0899FB00111246064AD
:1019900040E083E295E00E94130BE801085F1F4FCF
:1019A000699183E295E00E945E0BC017D107C1F7F1
:1019B000DF91CF911F910F9108951F93CF93DF93E4
:1019C000CDB7DEB728970FB6F894DEBF0FBECDBFF8
:1019D000182F88E0E7E5F1E0DE01119601900D9205
:1019E0008A95E1F7BE016F5F7F4F87E00E94BE0CD2
:1019F00060E0812F0E942A0B67E083E295E00E945D
:101A00005E0B28960FB6F894DEBF0FBECDBFDF91F8
:101A1000CF911F91089540E061E083E295E00E943C
:101A2000130B8BE39FE10197F1F7089591E1899FF3
:101A3000B001112465557C4F42E150E08BE494E005
:101A40000C945325FC0180819181009711F00C9436
:101A5000482B089586E490E00E94B72880932804DC
:101A600008950F931F93CF93DF9300E314E0C8E230
:101A7000D0E0CE010E94B728F80181938F01219612
:101A8000C033D105B1F788E090E0DF91CF911F918D
:101A90000F910895EF92FF920F931F93CF93DF93CF
:101AA0008B010C5F1F4FEB017C01E61AF70AC7019F
:101AB0008C0F9D1F0E94B7288993C017D107B9F7D3
:101AC00084E090E0DF91CF911F910F91FF90EF9014
:101AD00008950F931F93CF93DF9300E314E0C8E2C0
:101AE000D0E0F80161918F01CE010E94BF282196BC
:101AF000C033D105B1F788E090E0DF91CF911F911D
:101B00000F9108950F931F93CF93DF9309E214E091
:101B1000C2E3D0E0F80161918F01CE010E94BF289D
:101B20002196C933D105B1F787E090E0DF91CF91DD
:101B30001F910F910895EF92FF920F931F93CF93F0
:101B4000DF937C018B01D0E0C0E0F80161918F014F
:101B5000C7018C0F9D1F0E94BF282196C430D1055C
:101B6000A1F784E090E0DF91CF911F910F91FF905A
:101B7000EF900895FB0101900020E9F73197AF0144
:101B8000461B570BDC01ED91FC910280F381E02DA7
:101B900009948F929F92AF92BF920F931F93CF930E
:101BA000DF93CDB7DEB7A1970FB6F894DEBF0FBEB7
:101BB000CDBF19A2423008F44AE08E010F5D1F4FDD
:101BC000842E912CB12CA12CA50194010E94652A90
:101BD000E62FB901CA01EA3004F5E05DD801EE93C1
:101BE0008D01232B242B252B79F790E080E0109793
:101BF00029F0BD0183E295E00E94BA0DA1960FB6CF
:101C0000F894DEBF0FBECDBFDF91CF911F910F9132
:101C1000BF90AF909F908F900895E95CDFCFCF92F7
:101C2000DF92EF92FF926C01990FEE08FF08F7FE2A
:101C300016C041E06DE283E295E00E94130B662737
:101C40007727CB016C197D098E099F094AE00E9414
:101C5000C90D0196FF90EF90DF90CF9008954AE074
:101C6000C701B601FF90EF90DF90CF900C94C90DA3
:101C70004F925F926F927F928F929F92AF92BF929C
:101C8000CF92DF92EF92FF920F931F93CF936B014E
:101C90007C01742EAC019B010E94382A61EB72E03A
:101CA000811126C046015701E894B7F82FEF3FEFA6
:101CB0004FE75FE7C501B4010E94382A81110CC0CB
:101CC0002FEF3FEF4FE75FE7C501B4010E94932775
:101CD00065EB72E0181664F02FEF3FEF4FE75FE41B
:101CE000C701B6010E94332A1816ACF469EB72E002
:101CF00083E295E0CF911F910F91FF90EF90DF90DD
:101D0000CF90BF90AF909F908F907F906F905F909B
:101D10004F900C94BA0D2FEF3FEF4FE75FECC701E8
:101D2000B6010E94932787FDE1CF20E030E0A901B2
:101D3000C701B6010E94932710E000E087FF0CC0A6
:101D400041E06DE283E295E00E94130BF7FAF09414
:101D5000F7F8F09401E010E0C0E060E070E080E0AF
:101D60009FE37C1641F020E030E040E251E40E9425
:101D70008B29CF5FF6CFA70196010E941F294B0147
:101D80005C010E94042A2B013C014AE00E94C90D1B
:101D9000080F191FCC23C9F1C301B2010E94982773
:101DA0009B01AC01C501B4010E941E294B015C01DD
:101DB00041E06EE283E295E00E94130B0F5F1F4F3C
:101DC000C15018F120E030E040E251E4C501B40117
:101DD0000E94F9272B013C010E94042A4B01B12CDF
:101DE000A12C4AE0C501B4010E94C90D080F191FBA
:101DF000C501B4010E9498279B01AC01C301B20147
:101E00000E941E294B015C01DBCFC801CF911F91BD
:101E10000F91FF90EF90DF90CF90BF90AF909F9089
:101E20008F907F906F905F904F9008950C94BA0DB3
:101E3000CF93C82F6DEB72E08EE694E00E94160FF0
:101E40006C2F86E490E00E94BF28CF910C942A0D5D
:101E5000CF93DF93EC01862F642F0E942A0BBE01E3
:101E600083E295E0DF91CF910C94160FCF93C82FAA
:101E700042E066E08AE00E948A0B8DE0C89FB001D4
:101E800011246A54784F42E150E08BE494E00E94C0
:101E9000532541E062E08BE494E0CF910C94280F4D
:101EA000FF920F931F93CF93DF9300D000D000D009
:101EB000CDB7DEB7F42E1A821982FE01339624E0E4
:101EC000DF011D922A95E9F72CE330E040E050E075
:101ED0000E94652A9F938F937F936F933F932F93D5
:101EE00081ED92E09F938F938E010F5F1F4F1F93A1
:101EF0000F930E94A62C42E06F2DC8010E94280F6C
:101F00000FB6F894DEBF0FBECDBF26960FB6F8947D
:101F1000DEBF0FBECDBFDF91CF911F910F91FF901C
:101F2000089540E062E088E391E00E94280F40E0DD
:101F30006DE081E391E00E94280F83E10C94DD0CB9
:101F4000CF92DF92EF92FF920F931F93CF93DF9385
:101F5000D82E61110E94360F80912B0441E061E080
:101F600081113BC081E0D81238C08AED92E00E9416
:101F7000280FC6E0DC9E80011124F12CE12CE80141
:101F800082E1C82E84E08E0D92E09D1548F190917B
:101F90002B04911125C020912C042150330BC29E9B
:101FA000F001C39EF00D1124EC0FFD1FE754FE4F0E
:101FB000EE0DFF1D60810E94BF058FEFE81AF80A41
:101FC00096E0E916F104F1F6DF91CF911F910F91A0
:101FD000FF90EF90DF90CF9008958FEC92E0C7CF05
:101FE000F801EE0DFF1DE556FE4FE4CF0E94160DE1
:101FF00083E00E94960C43E061E08BE494E00C9453
:10200000280FCF93DF93C82FD62F6091060485E069
:10201000689FB001112466597C4F42E150E08BE487
:1020200094E00E9453254D2F6C2F8BE494E00E9486
:10203000280F6CED72E083E295E0DF91CF910C9474
:10204000160FCF93DF93C82FD42F8230B9F083308F
:1020500011F181E1689FB0011124675B7D4F42E17E
:1020600050E08BE494E00E945325C2E04D2F6C2F8A
:102070008BE494E0DF91CF910C94280F81E1689F6D
:10208000B00111246C507E4F42E150E08BE494E0AB
:102090000E945325EBCF80E1689FB00111246C5959
:1020A0007E4FF2CF42E06CE081E00E9421106CEDA7
:1020B00075E080E090E00E94E10782E00C94960CCD
:1020C000CF92DF92EF92FF920F931F93CF931092D4
:1020D00047030E940B0D0E94910F87E00E94360F6C
:1020E00043E061E083E00E9421100E943F0980E00C
:1020F0000E94A809809148048823C9F38150823046
:1021000010F41092480480914804843009F46BC0A4
:10211000883069F70FEE11E0C4E0F80161918F019A
:102120008C2F0E94BF0580912B04813021F461E047
:1021300089E00E94BF05CF5FC93079F70E9414087B
:102140006093430370934403809345039093460345
:1021500088EEC82E83E0D82EE12CF12C43E066E017
:1021600083E00E9421100E94140800914303109103
:1021700044032091450330914603601B710B820B91
:10218000930BA70196010E94652AB901330F880BB2
:10219000990B4FE00E94500F1092480480E00E947B
:1021A000A809809148048823C9F28150823010F434
:1021B0001092480480914804843001F1883071F60F
:1021C0000E943F09C0E01092480442E060E184E0D0
:1021D0000E948A0B43E061E083E00E942110C1115C
:1021E00002C00E9460100E943F09CF911F910F9181
:1021F000FF90EF90DF90CF900C949909C1E0E3CF6E
:102200004F925F926F927F928F929F92AF92BF9206
:10221000CF92EF920F93CF93DF9300D000D0CDB742
:10222000DEB70E94870C86E00E94360F43E064E030
:1022300082E00E9421100E94140869837A838B83B4
:102240009C8360E081E00E94A00F48EE442E43E0B2
:10225000542E612C712C0E94140829813A814B81E3
:102260005C81621B730B840B950BA30192010E948E
:10227000652A4901330FAA08BB08C501B4010E94B1
:10228000982720E1C22E32E0E32E01E020E030E08A
:1022900040EA50E40E949D0B35E083169104A104AE
:1022A000B104C8F20F900F900F900F90DF91CF9173
:1022B0000F91EF90CF90BF90AF909F908F907F90B5
:1022C0006F905F904F900C943F094F925F926F9286
:1022D0007F928F929F92AF92BF92CF92EF920F9385
:1022E000CF93DF93CDB7DEB728970FB6F894DEBF54
:1022F0000FBECDBF0E943F090E94870C86E00E945E
:10230000360F43E064E082E00E9421108091420396
:10231000882309F459C00E94140869837A838B8347
:102320009C83809147034CE3442E512C612C712CEB
:10233000882369F0E091060424E0E29FF001112473
:10234000E95FFB4F8381482E512C712C612C61E099
:1023500084E00E94A00F80914203882399F10E949B
:10236000140829813A814B815C81621B730B840BB9
:10237000950B28EE33E040E050E00E94652A4901C9
:10238000330FAA08BB08C301B2010E9498276D83CE
:102390007E838F839887C501B4010E94982720E12E
:1023A000C22E32E0E32E01E02D813E814F8158851F
:1023B0000E949D0B84149504A604B70460F2109249
:1023C0004203C9CF0E943F0980912904813011F452
:1023D0000E9400110E94870C809128048130B9F47A
:1023E00090E080E028960FB6F894DEBF0FBECDBF18
:1023F000DF91CF910F91EF90CF90BF90AF909F90D2
:102400008F907F906F905F904F900C94180F28964C
:102410000FB6F894DEBF0FBECDBFDF91CF910F9105
:10242000EF90CF90BF90AF909F908F907F906F90E4
:102430005F904F9008954F925F926F927F928F922C
:102440009F92AF92BF92CF92DF92EF92FF920F9343
:102450001F93CF93DF9300D000D000D01F92CDB751
:10246000DEB7182F0E943F0942E066E08AE00E9432
:102470008A0B41E062E08FED92E00E94280F42E07B
:1024800062E084E00E948A0B43E064E082E00E9404
:1024900021100E94140869837A838B839C8361E0F6
:1024A00088E0111101C086E00E94BF0568EE862E0B
:1024B00063E0962EA12CB12C0E941408112309F47C
:1024C0005BC029813A814B815C81621B730B840B59
:1024D000950BA50194010E94652A2901330F660816
:1024E0007708C301B2010E9498274EE0C42E52E043
:1024F000E52E01E020E030E040E050E40E949D0B3A
:1025000031E03D8342E0441651046104710408F057
:102510001D820E941408C0904303D0904403E090B1
:102520004503F09046036C197D098E099F09A501AA
:1025300094010E94652AB901330F880B990B4FE073
:102540000E94500F5D815111B7CF27960FB6F894B6
:10255000DEBF0FBECDBFDF91CF911F910F91FF90D6
:10256000EF90DF90CF90BF90AF909F908F907F9033
:102570006F905F904F90089581E090E09F838E83ED
:102580002E813F81B901330F880B990B0E949A2746
:102590002EE0C22E32E0E32E01E020E030E040E801
:1025A00050E40E949D0B3E81313021F061E086E0D5
:1025B0000E94BF056EE571E080E090E00E94E107B7
:1025C00060E086E00E94BF056EE571E080E090E08B
:1025D0000E94E1074E815F814F5F5F4F5F834E83B3
:1025E0004530510569F694CF6091060470E090E0A3
:1025F00080E00E9498276093400470934104809388
:1026000042049093430441E063E081E00E94211082
:1026100043E060E083E00E94211020E030E040E8E9
:102620005FE367E070E090E080E00E946309609102
:1026300040047091410480914204909143040E94AF
:10264000042A6093060462E087E00E94011082E0A1
:102650000E94A80980914804882349F38830B9F47E
:102660008091060490E0BC01660F771F660F771F0C
:10267000695F7B4F880F991FFC01EB50FE4F8081F3
:1026800091810E944A0D81E080932704089584304F
:1026900071F642E062E082E10E948A0B80E00895D8
:1026A000BF92CF92DF92EF92FF920F931F93CF933F
:1026B000DF93B82E6A01EA0109900020E9F721971B
:1026C0007E01E41AF50A262F30E089010E1911095E
:1026D00017FF02C00F5F1F4F159507951E2D117034
:1026E000100FC4E1D0E0C21BD30BD595C7954B2D7D
:1026F0006C2F802F0E948A0BB60183E295E00E9426
:10270000160F6C2F6E0D600F4B2D812FDF91CF9127
:102710001F910F91FF90EF90DF90CF90BF900C949E
:102720008A0B40E062E088E391E00E94280F81E19B
:102730000E94DD0C41E064E08AEE92E00E94280FE6
:1027400061E371E083E295E00E94160F40E051E002
:1027500064E182E00C9450131F93CF93DF93182F02
:10276000EA01882399F023E1629FC001112412300D
:1027700049F1133059F1BC016B5D794F42E150E0F2
:102780008BE494E00E94532513E00DC08DE0689F18
:10279000B0011124625A794F42E150E08BE494E099
:1027A0000E94532512E04BE454E064E1812F0E9423
:1027B0005013BE01DD0F880B990BDF91CF911F9154
:1027C0000C94E107BC0161507A4FD8CFBC016C5A20
:1027D0007A4F42E150E08BE494E00E945325E3CF2E
:1027E000CF930E94B80C42E150E063EF72E08BE4BB
:1027F00094E00E9453254BE454E064E182E00E949F
:102800005013C3E043E06C2F81EF92E00E94280F49
:102810006EE571E080E090E00E94E107CD5FC2319B
:1028200089F742E150E064E073E08BE494E00E94B9
:1028300053254BE454E064E183E00E94501366E4C6
:1028400075E080E090E0CF910C94E1074F925F92A9
:102850006F927F928F929F92AF92BF92CF92DF92B0
:10286000EF92FF920F931F93CF93DF93CDB7DEB715
:10287000982E862EE42EADB6BEB6F82EF60E4090FB
:10288000400450904104609042047090430420E062
:1028900030E0A901C301B2010E94932787FD57C010
:1028A000F3948DB79EB78F1991090FB6F8949EBF18
:1028B0000FBE8DBFEDB7FEB731966F0160ED72E0D0
:1028C000CF010E949F2CF60101900020E9F78F01B3
:1028D00001501109282D492DC301B2010E9435254F
:1028E000F60101900020E9F73197EC19FD09FE1A75
:1028F00020E030E0A9016091400470914104809192
:102900004204909143040E94332A87FFF39442E0EB
:102910006E2D8F2D0E948A0BB60183E295E00E94F6
:10292000160F0FB6F894BEBE0FBEADBEDF91CF91AD
:102930001F910F91FF90EF90DF90CF90BF90AF90DD
:102940009F908F907F906F905F904F900895F39439
:10295000F394A7CFEF92FF920F931F93CF93DF9340
:10296000EC017B018A0188819981009729F02A81F5
:102970003B812417350788F4B8016F5F7F4F0E94B1
:10298000D12B009791F0998388831B830A832C8134
:102990003D81232B11F4FC0110821D830C83B701B0
:1029A000888199810E949F2C0CC088819981009711
:1029B00011F00E94482B198218821D821C821B82F2
:1029C0001A82CE01DF91CF911F910F91FF90EF906E
:1029D0000895FB0101900020E9F73197AF01461BF4
:1029E000570B0C94AA14FB0101900020E9F73197D2
:1029F000AF01461B570B0C94AA14FF920F931F9321
:102A0000CF93DF93CDB7DEB72C970FB6F894DEBF28
:102A10000FBECDBF0E94160D18861F821A8619861A
:102A20001C861B866BE474E0CE0107960E94F314AB
:102A30000F8118850115110571F0F80181918F0141
:102A4000882349F0082E000C990B0E948E2CF80167
:102A500031978083F2CF1A8219821C821B821E82D8
:102A60001D826F8178856115710531F04B855C851C
:102A7000CE0101960E94AA14FD8084E190E08F1996
:102A8000910997FD01968C01159507951F2D1170E1
:102A9000100F41E060E0802F0E948A0BCE0101966A
:102AA0000E946405602F6F0D41E0812F0E948A0B08
:102AB000CE0101960E94220DCE0107960E94220DA2
:102AC0002C960FB6F894DEBF0FBECDBFDF91CF912D
:102AD0001F910F91FF900895CF92DF92EF92FF9296
:102AE000CF93DF93E0914A0424E0E29FF0011124A8
:102AF000EB5DFD4F82810E94FD1481E080934904CB
:102B000080914904882309F447C163E081E00E9471
:102B10002A0B20E030E040E85FE3609140047091D0
:102B2000410480914204909143040E941E29209107
:102B30003C0430913D0440913E0450913F040E947A
:102B4000932765EF72E087FD02C067EF72E08DE1C9
:102B500095E00E94E9148DE195E00E946405609182
:102B600040047091410480914204909143040E947A
:102B7000FD29862F0E94160D4BE454E060E183E0AE
:102B80000E94501363E082E10E942A0B20E030E0B3
:102B900040E85FE3609140047091410480914204F9
:102BA000909143040E941F292091380430913904E8
:102BB00040913A0450913B040E94332A65EF72E041
:102BC000181614F069EF72E087E195E00E94E914AD
:102BD00087E195E00E946405C0914A0484E0C89FA3
:102BE000E0011124CB5DDD4F688170E090E080E072
:102BF0000E94982760933C0470933D0480933E04A8
:102C000090933F04698170E090E080E00E949827F3
:102C1000609338047093390480933A0490933B0492
:102C200080E090E0A0E8BFE38093440190934501E9
:102C3000A0934601B09347011092480482E00E949D
:102C4000A8090E941408C0904404D0904504E09064
:102C50004604F09047046C197D098E099F09693874
:102C600073418105910510F00E94990980914804F3
:102C7000882309F445CF843039F1883009F040CFFA
:102C8000C0904004D0904104E0904204F09043048E
:102C9000C701B6010E94FD29E0914A0424E0E29FA9
:102CA000F0011124EB5DFD4F238126171706B9F5BE
:102CB000C701B6010E94042A862FDF91CF91FF90B1
:102CC000EF90DF90CF900895E0914A0424E0E29FD6
:102CD000F0011124EB5DFD4FC281C0934A046C2FBB
:102CE00070E090E080E00E94982760934004709329
:102CF00041048093420490934304C11103C00E9495
:102D00009909FECE82E00E94960C84E0C89FF001F3
:102D10001124EB5DFD4F82810E94FD14F1CE660F00
:102D2000771F660F771F6B5D7D4FFB01C381C093DB
:102D30004A046C2F70E090E080E00E949827609336
:102D400040047093410480934204909343048C2F79
:102D500090E0EC01CC0FDD1FCC0FDD1FFE01EB5D21
:102D6000FD4F60816817190699F094F021812817AA
:102D7000190671F06CF070E090E080E00E949827F6
:102D80006093400470934104809342049093430401
:102D9000CB5DDD4F8A81C0CF90CF80914A040E94E5
:102DA000FD140E94B80C43E060E083E00C94211015
:102DB000AF92BF92CF92DF92EF92FF920F931F9349
:102DC000CF93DF93CDB7DEB72C970FB6F894DEBF65
:102DD0000FBECDBF182F0E940B0D0E94910F1F3FF9
:102DE00009F465C085E0189FB001112469567C4F35
:102DF00042E150E08BE494E00E94532518861F8244
:102E00001A8619861C861B866BE474E0CE01079631
:102E10000E94F31410E000E0602F80E00E942A0B73
:102E20006801EFEFCE1ADE0A5601C016D10610F483
:102E3000580186011A8219821C821B821E821D8201
:102E400060ED72E0CE0101960E94F314EB84FC84E5
:102E50000E151F05D8F4AE14BF0408F47501EF81F8
:102E6000F885EE0DFF1DB08010826F817885600FB0
:102E7000711F6115710561F1CE0101960E94E9147F
:102E80008F819885E80EF91EF701B082CE01019678
:102E90000E946405CE0101960E94220D8601043035
:102EA000110509F0B9CFCE0107960E94220D2C968C
:102EB0000FB6F894DEBF0FBECDBFDF91CF911F914B
:102EC0000F91FF90EF90DF90CF90BF90AF9008955B
:102ED00089819A81009711F00E94482B1A821982E9
:102EE0001E821D821C821B82CBCF2F923F924F925B
:102EF0005F926F927F928F929F92AF92BF92CF928A
:102F0000DF92EF92FF920F931F93CF93DF93CDB792
:102F1000DEB729970FB6F894DEBF0FBECDBF8F8303
:102F2000109242038550809347030E94D81680E098
:102F30000E94360F80914703882391F080912704E7
:102F400081110EC00E94F412882309F43CC141E0B3
:102F500062E082E10E948A0B61E08EE00E94011033
:102F600043E063E083E00E94211081E090E0209143
:102F70002B04222311F090E080E022243324281A2D
:102F8000390A61E080E00E94A00F42E063E082E045
:102F90000E94211010E021E0298718860E94140861
:102FA0004B015C018091430390914403A091450340
:102FB000B091460389839A83AB83BC830E94140833
:102FC00040903E0350903F03609040037090410357
:102FD000641975098609970928EE33E040E050E04E
:102FE0000E94652A29016901330FEE08FF088091CC
:102FF00047038823B9F098859730B9F0C701B60127
:1030000025E030E040E050E00E94652A6330710521
:103010008105910518F4A885A33020F061E08EE0C9
:103020000E940110B885B11102C001E036C02885A8
:103030002730D8F7C501B40129813A814B815C81E1
:10304000621B730B840B950B28EE33E040E050E0DD
:103050000E94652AB901330F880B990B4FE00E943B
:10306000500F3885353008F741E0C701B6010E949E
:10307000500F80914703823051F0833009F496C09D
:10308000813099F6B20188850E94400C05C04885C0
:103090004330C1F70E944A09082F81E00E94A80925
:1030A00080914804811189C0011178CF80912B044F
:1030B000811104C0111102C081E0888743E061E002
:1030C00083E00E9421109985992351F041E06EE040
:1030D0008BEF92E00E94280FC10101960E940F0E13
:1030E00011110AC00E9414086093430370934403B3
:1030F0008093450390934603A885A23071F4809194
:103100002B04813051F480912A048150990B2816A8
:1031100039061CF481E00E941B1281E08093420377
:1031200080912804811104C081E090E00E94180F72
:10313000B885BF5FB8870E94140860933E03709300
:103140003F03809340039093410342E067E088E0AF
:103150000E948A0B2985222309F462C080912A04E7
:1031600090E0281639060CF059C03885333009F044
:1031700052C051014FEFA41AB40A41E06EE0A81604
:10318000B906DCF186E00E948A0B15011986809150
:103190002B04811145C080912C04833009F040C07C
:1031A000A885A130E9F552E05887BBC05885533057
:1031B00009F470CFB201852F67CF843021F08830B9
:1031C00009F474CFEBCE29960FB6F894DEBF0FBE8C
:1031D000CDBFDF91CF911F910F91FF90EF90DF90C6
:1031E000CF90BF90AF909F908F907F906F905F90A7
:1031F0004F903F902F900C9465118BEF92E00E94BE
:10320000280FC10102960E940F0E150151E0598747
:1032100081E08887BCCF91E09987B9CFB1E0B987C9
:103220002885243009F07DC00E943F090E94870C48
:103230000E9414084B0180912D04882309F460C07A
:1032400040912E0450912F045A834983F12C8D8193
:103250009E8164EF71E00E94512AF61617064CF425
:1032600046E950E060E070E084EF91E00E9455068E
:10327000F39441E060E181E00E94211043E068E0C6
:1032800083E00E9421101092480480E00E94A80967
:1032900080914804882341F0843009F494CF30F4BD
:1032A0008150823008F45AC011E003C010E0883029
:1032B000D9F70E941408DB01A819B909BE83AD83B0
:1032C00029813A81A217B307DCF4B901330F880BC7
:1032D000990B0E949A272B013C014D815E81BA0116
:1032E000550F880B990B0E949A2720E1C22E32E0DD
:1032F000E32E00E0A30192010E949D0B1111A7CFC4
:103300000E94870C80E00E941B120E943F090E94CD
:10331000140860933E0370933F038093400390939F
:10332000410343E061E083E00E94211088858530FD
:1033300098F580912B0481112CC080912C0483304E
:1033400041F580912A048150990B8215930509F566
:1033500061E081E00E94A00F11E020CE0E94870C66
:1033600061E083E00E94A00F8EE00E949605892B09
:10337000D9F38FE00E949605892BB1F30E943F0993
:103380000E9414084B01F12C8CEA9DE09A838983FA
:103390008BCF61E08885DECF0E943F098091470393
:1033A0000E94D8160E941408009143031091440310
:1033B0002091450330914603601B710B820B930BE8
:1033C00028EE33E040E050E00E94652AB901330F57
:1033D000880B990B4FE00E94500F0E94870C41E030
:1033E00062E081E00E94211042E061E082E00E9400
:1033F000211043E065E083E00E94211093E099836F
:103400004BEB50E060E070E087E891E00E945506E9
:1034100068EC70E080E090E00E94E107A981A15093
:10342000A983A111EDCF4AEF50E060E070E086E2A1
:1034300091E00E94550641E062E081E00E94211087
:1034400042E061E082E00E94211043E065E083E019
:103450000E94211080E00E94A809809148048823DE
:1034600051F38430C9F0883009F440C0823019F734
:103470000E94870C84E00E94360F8FE00E94960520
:10348000892B29F461E088E00E94BF05F6CF0E94F5
:103490003F090E94870CCFCF80912904813011F41D
:1034A0000E94001180912804813021F490E080E096
:1034B0000E94180F1092270429960FB6F894DEBFC9
:1034C0000FBECDBFDF91CF911F910F91FF90EF9075
:1034D000DF90CF90BF90AF909F908F907F906F9034
:1034E0005F904F903F902F900C94990980914703E3
:1034F000882339F081E00E94A809833010F01092EF
:1035000027048F810E947517CDCF1F920F920FB69F
:103510000F9211242F933F934F935F936F937F9359
:103520008F939F93AF93BF93EF93FF938091620428
:1035300090916304A0916404B0916504892B8A2B57
:103540008B2BD1F190915D04E0915E04F0915F04CA
:103550008081892780838091620490916304A09187
:103560006404B0916504181619061A061B069CF42B
:103570008091620490916304A0916404B091650409
:103580000197A109B1098093620490936304A09309
:103590006404B0936504FF91EF91BF91AF919F9147
:1035A0008F917F916F915F914F913F912F910F90EC
:1035B0000FBE0F901F901895809148010E94ED0555
:1035C000EACF1F920F920FB60F9211242F933F93C1
:1035D0004F935F936F937F938F939F93AF93BF931B
:1035E000EF93FF938EE694E00E949204FF91EF9197
:1035F000BF91AF919F918F917F916F915F914F910B
:103600003F912F910F900FBE0F901F9018951F9212
:103610000F920FB60F9211242F938F939F93EF93D6
:10362000FF93E0917E04F0917F048081E091840417
:10363000F091850482FD1BC09081809187048F5F8B
:103640008F7320918804821741F0E0918704F0E0A5
:10365000E259FB4F958F80938704FF91EF919F91E3
:103660008F912F910F900FBE0F901F901895808112
:10367000F4CF1F920F920FB60F9211242F933F9306
:103680008F939F93AF93BF938091F2039091F30335
:10369000A091F403B091F5033091F10323E0230FDF
:1036A0002D3758F50196A11DB11D2093F10380938C
:1036B000F2039093F303A093F403B093F503809186
:1036C000F6039091F703A091F803B091F9030196E6
:1036D000A11DB11D8093F6039093F703A093F80307
:1036E000B093F903BF91AF919F918F913F912F912B
:1036F0000F900FBE0F901F90189526E8230F02968B
:10370000A11DB11DD2CF1F920F920FB60F9211249F
:103710002F933F934F935F936F937F938F939F93D9
:10372000AF93BF93EF93FF938091B900887F80366A
:1037300009F44AC0F0F5883209F4A7C018F58031C1
:1037400009F49BC0B8F4882309F4F9C0883009F45F
:1037500094C0FF91EF91BF91AF919F918F917F9115
:103760006F915F914F913F912F910F900FBE0F90EE
:103770001F901895883109F488C0803251F78093E2
:10378000CD0314C0803409F49DC040F48033B9F3F4
:103790008833F9F68093CD0385ECB0C0803509F409
:1037A00085C0883509F496C0883499F60E942008AF
:1037B000D0CF883909F48CC038F5883729F050F417
:1037C000883611F0803729F683E080930004109248
:1037D000CC0357C0883809F47BC0803919F0803891
:1037E00009F0B7CF8091CC03803208F071C0E0912E
:1037F000CC0381E08E0F8093CC038091BB00F0E07E
:10380000E455FC4F80833DC0803B39F0E0F4803AC2
:1038100009F479C0883A09F09CCF84E080930004D1
:103820001092AB031092AA03E091FC03F091FD0308
:1038300009958091AA0381110FC081E08093AA03AA
:1038400010928A0309C0803C09F4A6CF883C09F491
:10385000A3CF883B09F07DCFE091AB0381E08E0FD1
:103860008093AB03F0E0E657FC4F80818093BB0070
:103870009091AB038091AA0329C08091F0038093BB
:10388000BB0085EC8093BC0064CF9091EF038091E6
:10389000EE03981758F5E091EF0381E08E0F8093C7
:1038A000EF03F0E0E253FC4F8081E9CFE091EF03BA
:1038B00081E08E0F8093EF038091BB00F0E0E25334
:1038C000FC4F80839091EF038091EE039817C8F22C
:1038D00085E8D8CFE091EF0381E08E0F8093EF036E
:1038E0008091BB00F0E0E253FC4F80838091FF03A6
:1038F00081115CCF81E08093FE0384EA8093BC0059
:103900001092000426CF85EC8093BC001092000436
:103910008091CC03803230F4E091CC03F0E0E455A8
:10392000FC4F10826091CC0370E0E091FA03F091BB
:10393000FB038CEA93E009951092CC030ACF109216
:10394000CD0334CFEEE6F4E01382128288EE93E0EA
:10395000A0E0B0E084839583A683B78325E832E0B6
:103960003183208325EC30E03587248724EC30E058
:103970003787268720EC30E0318B208B21EC30E03C
:10398000338B228B22EC30E0358B248B26EC30E01D
:10399000378B268B118E128E138E148EEBE0F5E092
:1039A0001382128284839583A683B78387E992E08A
:1039B00091838083E3E2F5E01382128289EA92E048
:1039C0009183808387E2848384E1818784E0828796
:1039D0001386EDE1F5E011821082138212821582C6
:1039E000148260ED72E0CF010E94F314E7E1F5E08C
:1039F00011821082138212821582148260ED72E0AD
:103A0000CF010C94F314CF93DF93CDB7DEB7C2543C
:103A1000D1090FB6F894DEBF0FBECDBF789484B540
:103A2000826084BD84B5816084BD85B5826085BDBA
:103A300085B5816085BD80916E00816080936E0048
:103A4000109281008091810082608093810080913A
:103A500081008160809381008091800081608093EB
:103A600080008091B10084608093B1008091B000AB
:103A700081608093B00080917A00846080937A00A6
:103A800080917A00826080937A0080917A008160D0
:103A900080937A0080917A00806880937A001092F7
:103AA000C10007E0E02E04E0F02E05EF11E0B701C1
:103AB000D8018D919D918D010E944A0DB4E0EB0ECD
:103AC000F11CE2E005301E0791F70E94310D19E26A
:103AD000E12E14E0F12E02E310E0C8010E94B728A5
:103AE000D7018D937D010F5F1F4F09331105A9F792
:103AF0000E942A0D109204041092030410920204F2
:103B0000109201041092000481E08093FF03109250
:103B1000FE0361E082E10E94BF0561E083E10E9453
:103B2000BF058091B9008E7F8093B9008091B90064
:103B30008D7F8093B90088E48093B80085E48093FA
:103B4000BC0085E395E09093FD038093FC0386E33E
:103B500095E09093FB038093FA03109228058091DF
:103B60002D05823018F098E09093280580932B055E
:103B700062E370E080E090E00E94E10760912E0532
:103B800083E295E00E94D70868EE73E080E090E061
:103B90000E94E10760E383E295E00E94FA0A0BE4E9
:103BA00016E4C8010197F1F760E383E295E00E9413
:103BB000FA0AC8010197F1F760E383E295E00E94F9
:103BC000FA0A83E592E00197F1F760E283E295E07B
:103BD0000E94FA0A60912805606240E083E295E065
:103BE0000E94130B84E08093290540E06CE083E29F
:103BF00095E00E94130B0E940B0D82E080932A0532
:103C000040E066E083E295E00E94130B40E062E052
:103C100083E295E00E94130B8BE39FE10197F1F79C
:103C200018E010932E0560E083E295E00E94D7082B
:103C30006AEF70E080E090E00E94E10710922E05AC
:103C400060E083E295E00E94D7086AEF70E080E0D0
:103C500090E00E94E10710932E0560E083E295E07A
:103C60000E94D70862E083E00E94190661E084E0C8
:103C70000E94190661E085E00E94190661E086E075
:103C80000E94190661E087E00E94190661E088E061
:103C90000E94190661E089E00E94190661E08AE04D
:103CA0000E94190662E08EE00E94190662E08FE031
:103CB0000E94190662E080E10E94190662E081E13B
:103CC0000E94190660E084E10E94190660E085E127
:103CD0000E941906EFE5F1E0DE01D996812F0190EF
:103CE0000D928A95E1F7E7E6F1E0DE01D196812FAA
:103CF00001900D928A95E1F7EFE6F1E0DE019996E9
:103D0000812F01900D928A95E1F7E7E7F1E0DE015E
:103D10009196812F01900D928A95E1F7EFE7F1E0FE
:103D2000DE015996812F01900D928A95E1F7E7E81F
:103D3000F1E0DE015196812F01900D928A95E1F715
:103D4000EFE8F1E0DE011996812F01900D928A953E
:103D5000E1F7FE0131967F01DF011D921A95E9F727
:103D60008CE18983BE01675C7F4F80E00E94BE0CBE
:103D7000BE016F5C7F4F81E00E94BE0CBE01675D9B
:103D80007F4F82E00E94BE0CBE016F5D7F4F83E0DB
:103D90000E94BE0CBE01675E7F4F84E00E94BE0C95
:103DA000BE016F5E7F4F85E00E94BE0CBE01675F63
:103DB0007F4F86E00E94BE0CB70187E00E94BE0CD8
:103DC00040E063E080E00E94640B61E083E295E004
:103DD0000E945E0B40E068E084E00E94640B65E0B6
:103DE00083E295E00E945E0B41E063E082E00E9486
:103DF000640B63E083E295E00E945E0B8DE197E047
:103E00000E94700B66E083E295E00E945E0B67E023
:103E100083E295E00E945E0B85E197E00E94700BC3
:103E200043E060E081E093E00E94280F60EA7FE0D9
:103E300080E090E00E94E1070E940B0D69E271E0D2
:103E400082E00E94BE0C61E271E083E00E94BE0C41
:103E500069E171E084E00E94BE0C61E171E085E0FF
:103E60000E94BE0C69E071E086E00E94BE0CA5E2F3
:103E70002A2EA2E03A2E412C512CB0E86B2EBFE343
:103E80007B2E80912804813009F052C00E941408D2
:103E90004B015C0140E060E088E391E00E94280F64
:103EA00040E06CE081E391E00E94280F83E10E94F2
:103EB000DD0C43E064E082E00E94211046E153E023
:103EC00064E181E00E94501360E084E00E94A00F52
:103ED000AA24BB240E941408681979098A099B093D
:103EE00028EE33E040E050E00E94652A23963FAF81
:103EF0002EAF2397B90190E080E00E949827EAE076
:103F0000CE2EF5E0EF2E00E020E030E040E752E476
:103F10000E949D0B2396EEADFFAD2397FC97D0F248
:103F20000E943F0990E080E00E94180F0E940B0D54
:103F30000E94911380910504843008F41DC11092F1
:103F4000050460910504F1E16F9FB00111246F5DDC
:103F5000784F42E150E08BE494E00E9453254BE41B
:103F600054E062E183E00E94501366E970E080E073
:103F700090E00E94E1070E94990980E00E94A80950
:103F800080914804813009F0C2C00E94870C83E010
:103F90000E94FD148CE00E94160D4BE454E064E195
:103FA00082E00E94501385E10E94F60F63E08FE0EB
:103FB0000E942A0B60913004709131048091320488
:103FC0009091330442E00E94380E64EC79E080E086
:103FD00090E00E94E10786E10E94F60F63E08EE028
:103FE0000E942A0B6091340470913504809136044C
:103FF0009091370442E00E94380E64EC79E080E052
:1040000090E00E94E1078AE00E94160D4BE454E024
:1040100064E182E00E94501383E00E94960C43E02A
:1040200061E081E293E00E94280F8091290443E03F
:1040300061E18111A5C089E293E00E94280F64EC40
:1040400079E080E090E00E94E1078EE00E94F60FA8
:1040500063E082E10E942A0B60912A0470E090E004
:1040600080E04AE00E94C90D64EC79E080E090E0D5
:104070000E94E1078FE00E94F60F63E081E10E9459
:104080002A0B80912B0481117EC069E273E083E2E8
:1040900095E00E94160F64EC79E080E090E00E94C9
:1040A000E10787E10E94F60F60912C048EE0689F83
:1040B000B00111246A58784F42E150E08BE494E05B
:1040C0000E94532543E068E08BE494E00E94280FAF
:1040D00064EC79E080E090E00E94E10780E10E94DA
:1040E000F60F63E081E10E942A0B80912D0481117B
:1040F00051C069E273E083E295E00E94160F64EC20
:1041000079E080E090E00E94E1070E94870C8091B6
:104110004804883009F08FC481E080934A044092BB
:1041200040045092410460924204709243040E9401
:104130006C155EE0C52EDD24D394ECEFE80FE5317D
:1041400008F07CC0F0E0E955FF4D0C94A62AE4206D
:10415000802180218021852188211E218B211E2103
:10416000A2224B23952395231E211E211E211E21B1
:10417000B524B5241E2185218F5F80930504E1CEEF
:104180008CE293E05ACF6CE273E083E295E00E9408
:10419000160F9ECF6CE273E083E295E00E94160F4B
:1041A00064EC79E080E090E00E94E10788E10E9401
:1041B000F60F63E08FE00E942A0B80912E0490910D
:1041C0002F040E940F0E9BCF0E940B0D0E94910F97
:1041D00084E00E94FD1468EE73E080E090E00E94AD
:1041E000E10710E044EF51E0612F80E00E94AC1342
:1041F000EFEFE10FEA3060F5F0E0EF5FFE4D0C9479
:10420000A62A322132212E21372140214E215C2144
:104210000B216F2173214CED55E060E082E00E949C
:10422000AC134CED55E061E082E00E94AC130E94BB
:10423000B80C1F5F1B30B1F60E94990980914A04A7
:10424000882309F4F6C30E9491130E946C1575CF60
:1042500040ED57E061E083E00E94AC1340ED57E091
:1042600062E003C040ED57E061E083E0DECF4CED5B
:1042700055E061E083E00E94AC134CED55E0F0CFD7
:1042800000E04CED55E0602F83E00E94AC130F5F1F
:104290000430B9F70E94B80C1F5FA4CF00E00430CF
:1042A00009F405E04CED55E0602F83E00E94AC136B
:1042B0000F5F0830A1F7EECF4CED55E060E081E0F4
:1042C0000E94AC134CED55E061E081E00E94AC131C
:1042D0004CED55E062E081E00E94AC13DBCF4CED89
:1042E00055E065E0C2CF10E048EE53E0612F83E077
:1042F0000E94AC131F5F1530B9F70E94B80C9CCF19
:10430000109227040E94751797CF0E94521096CFE3
:104310000E94601093CF82E00E94960C0E94F412DB
:10432000182F82E00E94960CF12CE12C01E10E0D79
:1043300094E0E916F10409F4EAC0112309F47AC003
:1043400043E060E083E00E94211020E030E040E89C
:104350005FE3A2E0EA16F10409F47FC0B3E0EB16D4
:10436000F10409F48AC06CE370E090E080E0E1E0E1
:10437000EE16F10409F465C00E946309E091060499
:1043800084E0E89FF0011124E95FFB4F608170E059
:1043900090E080E00E94982760934004709341046D
:1043A0008093420490934304802F0E94160D42E0B4
:1043B00061E08BE494E00E94280F609140047091CA
:1043C000410480914204909143040E94042A4DE0EC
:1043D0000E94500F82E00E94A8098091480488231F
:1043E00061F3883009F034C300910604E2E0EE1670
:1043F000F10409F465C0F3E0EF16F10409F474C0A8
:1044000081E0E816F10409F448C094E0099F8001B6
:104410001124095F1B4F6091400470914104809109
:104420004204909143040E94042AD8016C9311E045
:104430000E949B0C82E00E94960CFFEFEF1AFF0A8D
:1044400075CF0E946309E091060494E0E99FF001B2
:104450001124E95FFB4F61819ACF6CE271E090E03B
:1044600080E00E946309E0910604A4E0EA9FF00165
:104470001124E95FFB4F62818ACF64EB70E090E02A
:1044800080E00E946309E0910604B4E0EB9FF00134
:104490001124E95FFB4F63817ACFB4E00B9F800169
:1044A0001124095F1B4F6091400470914104809179
:1044B0004204909143040E94042AF8016183B7CF1B
:1044C000F4E00F9F80011124095F1B4F60914004AD
:1044D0007091410480914204909143040E94042A07
:1044E000D80112966C93A3CFB4E00B9F80011124E6
:1044F000095F1B4F60914004709141048091420418
:10450000909143040E94042AF801638390CF112301
:10451000B1F0109106040E94F013812F90E0BC01CD
:10452000660F771F660F771F695F7B4F880F991F94
:10453000FC01EB50FE4F808191810E949B0D0E94F7
:104540009B0C7CCE83E00E94960C41E066E081E00B
:104550000E94211063E081E00E942A0B05E012E036
:1045600095EFA92E91E0B92E27E0E22E24E0F22E5D
:10457000D8018C91F701808311968C9111978183DA
:1045800012968C911297828313968C918383B70134
:10459000D5018D919D915D010E949B0D6FE273E0AD
:1045A00083E295E00E94160F6AE872E080E090E0F6
:1045B0000E94E1070C5F1F4FB4E0EB0EF11C2016C8
:1045C0003106B1F610923004109231041092320488
:1045D0001092330480E090E0A0E0BFEB80933404BD
:1045E00090933504A0933604B09337040E94690D6C
:1045F00060E373E083E295E00E94160F6AE872E0E0
:1046000080E090E00E94E107D092290482E080934C
:104610002A04D0922B0410922C04D0922D04ACEAE0
:10462000BDE0B0932F04A0932E040E94820D60E39E
:1046300073E083E295E00E94160F6AE872E080E082
:1046400090E00E94E10790E080E00E94180F41E0B6
:1046500067E081E00E94211042E068E081E00E9472
:10466000211083E00E94960C6CED75E080E090E0F4
:104670000E94E10781E00E94960C82E00E94960C65
:104680000E94140860934404709345048093460488
:1046900090934704D3CD0E94CD1642E06DE081E0B7
:1046A0000E94211020E030E040E85FE365E070E028
:1046B00081E090E00E94630960912A0470E090E03C
:1046C00080E00E949A276093400470934104809395
:1046D0004204909343044FE060E081E00E9426147E
:1046E00082E00E94A809809148048823A1F38830C1
:1046F000D1F4609140047091410480914204909102
:1047000043040E94042A60932A040E94F0130E942A
:10471000820D80E090914804943009F410CF8823F2
:1047200009F40DCFD8CF81E0F5CF11EF180F6091CC
:104730002B04113011F460912D0470E090E080E0C2
:104740000E949A276093400470934104809342042E
:10475000909343040E94CD1642E069E081E00E94FC
:10476000211020E030E040E85FE361E070E090E09D
:1047700080E00E946309609140047091410480913F
:104780004204909143040E94FD29660F771F660F33
:10479000771F6255784F42E150E08BE494E00E942D
:1047A000532542E060E18BE494E00E94280F82E010
:1047B0000E94A809809148048823E9F2883009F012
:1047C000D2C0609140047091410480914204909164
:1047D00043040E94042A113009F482C060932B0420
:1047E000662389F080912B04809329040E94F013A2
:1047F0000E94820D80E090914804943009F49FCE8D
:104800008111B9CF9CCE0E94CD1620E030E040E867
:104810005FE363E070E081E090E00E9463096091F3
:104820002C0470E090E080E00E949A274B015C012C
:1048300020E030E0A9010E949327882309F442C0B8
:104840008092400490924104A0924204B0924304AA
:10485000609140047091410480914204909143041E
:104860000E94FD29C69E9001C79E300D1124B901FA
:104870006A58784F42E150E08BE494E00E9453255F
:104880004BE454E064E182E00E94501382E00E9415
:10489000A809809148048823D9F28830E1F4609116
:1048A00040047091410480914204909143040E941D
:1048B000042A60932C0401E00E949B0C002309F45D
:1048C00099CF90CF409240045092410460924204AC
:1048D00070924304BDCF843009F0BACF00E0ECCF32
:1048E00060932D04613009F07DCF0E94CD1620E049
:1048F00030E04AEF53E460E47FE188EB9BE00E9404
:10490000630960912E0470912F04072E000C880B10
:10491000990B0E949A2760934004709341048093FE
:104920004204909343044DE060E084E00E9426142A
:1049300082E00E94A809809148048823A1F388306E
:1049400079F4609140047091410480914204909107
:1049500043040E94FD2970932F0460932E04ABCF73
:10496000843009F7BBCF81E046CF1BEE180F0E94C1
:10497000CD162DEC3CEC4CEC5DE370E060E08FEF8D
:104980009FEF0E946309113009F43FC08091300409
:1049900090913104A0913204B0913304809340048B
:1049A00090934104A0934204B093430447E062E033
:1049B00081E00E94261482E00E94A80980914804A8
:1049C0008823A1F3883099F58091400490914104A7
:1049D000A0914204B0914304113001F1809330045E
:1049E00090933104A0933204B09333040E94F013E7
:1049F0000E94690D0E94310D80E09091480494302E
:104A000009F49DCD8111D2CF9ACD8091340490913B
:104A10003504A0913604B0913704C0CF809334049C
:104A200090933504A0933604B0933704DFCF81E030
:104A3000E4CF0E940B0DE0E0F0E0EF2B09F421CA77
:104A40000E942105882309F41CCA0E94000019CA8B
:104A5000843009F0B2CC10E0EBCC87E195E00E9405
:104A6000220D8DE195E00C94220DEF920F931F9390
:104A7000CF93DF93E80134E047FD34E1042E000CCE
:104A8000550B57FF03C0519541955109E32E022F55
:104A9000242FAE010E945C25CE01DF91CF911F91A2
:104AA0000F91EF900895FB01DC0102C005900D927B
:104AB00041505040D8F70895A9E0B0E0E2E6F5E2B1
:104AC0000C94DE286A01F22EB02E102FFBE3AF2EDD
:104AD000A01608F41BE31F5F012F27E0AE014F5F14
:104AE0005F4F0E94BB26BC018981982F997091303D
:104AF00009F43FC09BE2E1FC04C09E2D9170E0FCF4
:104B00003AC05E2D5071E82FE87083FF46C084E004
:104B1000911101C083E0EF2DE81B8F1508F0E0E054
:104B2000D6018E2F20E2552351F1992329F0D60189
:104B30009C93C60101966C0196012D5F3F4FE2FEEA
:104B400024C08EE4D6018C9391E411969C93119726
:104B500012968C93D9018E2F90E281111BC0E20F27
:104B6000F32FF11D10828EEF9FEF2996ECE00C944D
:104B7000FA289DE2C6CF90E2C4CF2D9381508111D7
:104B8000FCCFCE0ED11CE0E0D0CF8EE6D6018C93C8
:104B900091E6DBCF9D938150E0CF482F447082FF98
:104BA0003DC084E0911101C083E08F1510F4EF2D1A
:104BB000E81BD6018E2F20E2552309F1992329F015
:104BC000D6019C93C60101966C0196012D5F3F4F63
:104BD000E2FE1BC089E4D6018C938EE411968C937F
:104BE000119786E412968C93D9018E2F90E2882338
:104BF00009F4B5CF9D938150FACF2D938150811147
:104C0000FCCFCE0ED11CE0E0D9CF89E6D6018C9343
:104C10008EE611968C93119786E6E4CF9B0177FF81
:104C200002C030E020E0A1E0B0E0911102C0B0E0AD
:104C3000A0E0F9013196AE0FBF1F8B2C912CBB2049
:104C400009F461C05401EFEFAE1ABE0AAA0DBB1DF4
:104C5000FA161B0619F014F04F2D4A1B511188C08B
:104C6000E3FC59C07601A42FB0E2A1114FC0C40EDD
:104C7000D11C992309F45BC040E0D6011196F601DE
:104C800090836D01552309F448C0012F060F9A81C6
:104C9000582F507184FF03C0913309F4015010164E
:104CA0000CF047C0093008F008E0EEE2FE2E5B0190
:104CB000A01AB10885019194819491082F3F320781
:104CC00029F4D601FC92F60131966F016217730741
:104CD00094F1021713077CF5DB01A21BB30BAA2486
:104CE000A394B12CAC0EBD1EAA0DBB1D11968C91C8
:104CF00021503109D601119628153905F4F0F60135
:104D000080836D01DBCFB12CA12CA0CFF701B19333
:104D10007F01A150AACF9111B0CFD601942F50E3BB
:104D200002C05D9391509111FCCFC40ED11C40E0A4
:104D3000ACCF01E0BACF80E3DBCF6217730731F469
:104D4000963388F4953311F4552369F0F601808386
:104D5000FD01842F90E2811108C0A40FB11D1C92A7
:104D600090E080E002CF81E3F1CF91938150F3CFC7
:104D7000911183CF8ACF283008F027E03327DA015A
:104D8000990F311D87FD916000966105710539F419
:104D900032602E5F3D9330E32A95E1F708959F3FFF
:104DA00030F080387105610509F03C5F3C5F3D9350
:104DB000913008F08068911DDF93CF931F930F937C
:104DC000FF92EF92192F987F9695E92F96959695D9
:104DD000E90FFF27EE53FF4F99273327EE24FF24D7
:104DE000A701E70105900894079428F4360FE71E01
:104DF000F81E491F511D660F771F881F991F0694C3
:104E0000A1F70590079428F4E70EF81E491F561FD6
:104E1000C11D770F881F991F661F0694A1F7059083
:104E2000079428F4F80E491F561FC71FD11D880F7D
:104E3000991F661F771F0694A1F70590079420F429
:104E4000490F561FC71FD81F990F661F771F881F4E
:104E50000694A9F784911095177041F0D695C795DF
:104E600057954795F794E7941A95C1F7E8E6F0E06F
:104E700068941590159135916591959105907FE213
:104E80007395E118F10A430B560BC90BD009C0F713
:104E9000E10CF11E431F561FC91FD01D7EF4703355
:104EA00011F48A95E6CFE894015030F0080F0AF427
:104EB0000027021708F4202F2395022F7A3328F0B9
:104EC00079E37D932A95E9F710C07D932A9589F6B9
:104ED000069497956795379517951794E118F10AF9
:104EE000430B560BC90BD00998F023957E9173950F
:104EF0007A3308F070E37C932013B8F77E917061E9
:104F00007D9330F0839571E37D9370E32A95E1F70B
:104F10001124EF90FF900F911F91CF91DF9199276E
:104F200087FD909508950E94D52708F481E00895A3
:104F3000E89409C097FB3EF4909580957095619533
:104F40007F4F8F4F9F4F9923A9F0F92F96E9BB27E9
:104F50009395F695879577956795B795F111F8CF65
:104F6000FAF4BB0F11F460FF1BC06F5F7F4F8F4FD0
:104F70009F4F16C0882311F096E911C0772321F0C6
:104F80009EE8872F762F05C0662371F096E8862F5E
:104F900070E060E02AF09A95660F771F881FDAF7B5
:104FA000880F9695879597F90895990F0008550FE2
:104FB000AA0BE0E8FEEF16161706E807F907C0F09F
:104FC00012161306E407F50798F0621B730B840BA7
:104FD000950B39F40A2661F0232B242B252B21F481
:104FE00008950A2609F4A140A6958FEF811D811D21
:104FF00008950E940C280C947D280E946F2838F098
:105000000E94762820F0952311F00C9466280C94C9
:105010006C2811240C94B1280E948E2870F3959F5F
:10502000C1F3950F50E0551F629FF001729FBB279F
:10503000F00DB11D639FAA27F00DB11DAA1F649F3B
:105040006627B00DA11D661F829F2227B00DA11DEE
:10505000621F739FB00DA11D621F839FA00D611D74
:10506000221F749F3327A00D611D231F849F600D95
:10507000211D822F762F6A2F11249F5750409AF0BE
:10508000F1F088234AF0EE0FFF1FBB1F661F771F4A
:10509000881F91505040A9F79E3F510580F00C9415
:1050A00066280C94B1285F3FE4F3983ED4F38695CC
:1050B00077956795B795F795E7959F5FC1F7FE2BB5
:1050C000880F911D9695879597F9089597F99F6791
:1050D00080E870E060E008959FEF80EC0895002480
:1050E0000A941616170618060906089500240A944D
:1050F00012161306140605060895092E0394000CD3
:1051000011F4882352F0BB0F40F4BF2B11F460FF61
:1051100004C06F5F7F4F8F4F9F4F089557FD90588A
:10512000440F551F59F05F3F71F04795880F97FB6B
:10513000991F61F09F3F79F0879508951216130625
:105140001406551FF2CF4695F1DF08C01616170654
:105150001806991FF1CF8695710561050894089589
:10516000E894BB2766277727CB0197F90895F9992B
:10517000FECF92BD81BDF89A992780B50895262F5C
:10518000F999FECF1FBA92BD81BD20BD0FB6F8942C
:10519000FA9AF99A0FBE019608950E940F29A59FC9
:1051A000900DB49F900DA49F800D911D1124089522
:1051B0002F923F924F925F926F927F928F929F9227
:1051C000AF92BF92CF92DF92EF92FF920F931F9315
:1051D000CF93DF93CDB7DEB7CA1BDB0B0FB6F894C6
:1051E000DEBF0FBECDBF09942A88398848885F8406
:1051F0006E847D848C849B84AA84B984C884DF8077
:10520000EE80FD800C811B81AA81B981CE0FD11D5A
:105210000FB6F894DEBF0FBECDBFED010895A29F7B
:10522000B001B39FC001A39F700D811D1124911D7A
:10523000B29F700D811D1124911D08955058BB27F8
:10524000AA270E9436290C947D280E946F2838F0E6
:105250000E94762820F039F49F3F19F426F40C942C
:105260006C280EF4E095E7FB0C946628E92F0E9469
:105270008E2858F3BA17620773078407950720F042
:1052800079F4A6F50C94B0280EF4E0950B2EBA2F05
:10529000A02D0B01B90190010C01CA01A00111243C
:1052A000FF27591B99F0593F50F4503E68F11A16E8
:1052B000F040A22F232F342F4427585FF3CF469579
:1052C00037952795A795F0405395C9F77EF41F169B
:1052D000BA0B620B730B840BBAF09150A1F0FF0F65
:1052E000BB1F661F771F881FC2F70EC0BA0F621F51
:1052F000731F841F48F4879577956795B795F79541
:105300009E3F08F0B0CF9395880F08F09927EE0FD5
:105310009795879508950E949F290C947D280E9457
:10532000762858F00E946F2840F029F45F3F29F05A
:105330000C94662851110C94B1280C946C280E948E
:105340008E2868F39923B1F3552391F3951B550BE0
:10535000BB27AA2762177307840738F09F5F5F4F48
:10536000220F331F441FAA1FA9F335D00E2E3AF087
:10537000E0E832D091505040E695001CCAF72BD09F
:10538000FE2F29D0660F771F881FBB1F26173707F0
:105390004807AB07B0E809F0BB0B802DBF01FF2722
:1053A00093585F4F3AF09E3F510578F00C94662871
:1053B0000C94B1285F3FE4F3983ED4F3869577953B
:1053C0006795B795F7959F5FC9F7880F911D9695DB
:1053D000879597F90895E1E0660F771F881FBB1F37
:1053E000621773078407BA0720F0621B730B840BE4
:1053F000BA0BEE1F88F7E09508950E94042A68947E
:10540000B1110C94B12808950E94962888F09F57F6
:1054100098F0B92F9927B751B0F0E1F0660F771FD8
:10542000881F991F1AF0BA95C9F714C0B13091F0CE
:105430000E94B028B1E008950C94B028672F782F0F
:105440008827B85F39F0B93FCCF386957795679593
:10545000B395D9F73EF490958095709561957F4FFF
:105460008F4F9F4F08950E94D52708F48FEF08951E
:105470000E94D527880B990B0895AA1BBB1B51E1ED
:1054800007C0AA1FBB1FA617B70710F0A61BB70BB4
:10549000881F991F5A95A9F780959095BC01CD0159
:1054A000089597FB072E16F4009407D077FD09D0D6
:1054B0000E943D2A07FC05D03EF4909581959F4FB0
:1054C0000895709561957F4F0895A1E21A2EAA1B49
:1054D000BB1BFD010DC0AA1FBB1FEE1FFF1FA217A4
:1054E000B307E407F50720F0A21BB30BE40BF50BA1
:1054F000661F771F881F991F1A9469F7609570952A
:10550000809590959B01AC01BD01CF010895052EBA
:1055100097FB1EF400940E949E2A57FD07D00E941C
:10552000652A07FC03D04EF40C949E2A50954095B2
:10553000309521953F4F4F4F5F4F0895909580953F
:10554000709561957F4F8F4F9F4F0895EE0FFF1F0E
:105550000590F491E02D09940F931F93CF93DF935F
:105560008230910510F482E090E0E0913105F091F5
:10557000320530E020E0B0E0A0E0309799F421154A
:10558000310509F44AC0281B390B24303105D8F500
:105590008A819B816115710589F1FB019383828367
:1055A000FE0111C0408151810281138148175907C2
:1055B000E0F04817590799F4109761F012960C9390
:1055C000129713961C933296CF01DF91CF911F91C2
:1055D0000F9108950093310510933205F4CF2115F2
:1055E000310551F04217530738F0A901DB019A0148
:1055F000BD01DF01F801C1CFEF01F9CF9093320572
:1056000080933105CDCFFE01E20FF31F819391937B
:105610002250310939832883D7CF20912F0530912B
:105620003005232B41F420914B0130914C013093F4
:10563000300520932F052091490130914A01211511
:10564000310541F42DB73EB740914D0150914E01C7
:10565000241B350BE0912F05F0913005E217F3077D
:10566000A0F42E1B3F0B2817390778F0AC014E5FD2
:105670005F4F2417350748F04E0F5F1F50933005DA
:1056800040932F05819391939FCFF0E0E0E09CCF72
:10569000CF93DF930097E9F0FC01329713821282D7
:1056A000A0913105B0913205ED0130E020E0109776
:1056B000A1F420813181820F931F20912F05309119
:1056C00030052817390709F061C0F0933005E093E1
:1056D0002F05DF91CF910895EA01CE17DF07E8F596
:1056E0004A815B819E0141155105B1F7E901FB83B8
:1056F000EA8349915991C40FD51FEC17FD0761F456
:10570000808191810296840F951FE9019983888396
:10571000828193819B838A83F0E0E0E012968D91F1
:105720009C9113970097B9F52D913C911197CD015C
:105730000296820F931F20912F0530913005281774
:10574000390739F6309751F510923205109231052C
:10575000B0933005A0932F05BCCFD383C283408183
:105760005181840F951FC817D90761F44E5F5F4FB1
:1057700088819981480F591F518340838A819B8179
:10578000938382832115310509F0B0CFF093320560
:10579000E09331059ECFFD01DC01C0CF1382128260
:1057A000D7CFB0E0A0E0E7EDFBE20C94DA288C0163
:1057B000009751F4CB010E94AC2A8C01C801CDB7EF
:1057C000DEB7E0E10C94F628FC01E60FF71F9C0120
:1057D00022503109E217F30708F49DC0D901CD9199
:1057E000DC911197C617D70798F0C530D10530F373
:1057F000CE0104978617970708F3C61BD70B22978D
:10580000C193D1936D937C93CF010E94482BD6CF47
:105810005B01AC1ABD0A4C018C0E9D1EA091310596
:10582000B0913205512C412CF12CE12C109731F51F
:1058300080912F05909130058815990509F05CC07D
:105840004616570608F058C08091490190914A01C8
:10585000009741F48DB79EB740914D0150914E0194
:10586000841B950BE817F90708F055C0F093300535
:10587000E0932F05F90171836083A0CF8D919C91F6
:10588000119712966C90129713967C901397A81507
:10589000B90559F56C0142E0C40ED11CCA14DB04F1
:1058A00020F1AC014A195B09DA011296159780F0D4
:1058B0006282738251834083D9016D937C93E1149A
:1058C000F10471F0D7011396FC93EE93129776CF03
:1058D00022968C0F9D1FF90191838083F301EFCFF6
:1058E000F0933205E093310569CF4816590608F464
:1058F0002C017D01D3019ACFCB010E94AC2A7C01FF
:10590000009749F0AE01B8010E94962CC8010E9490
:10591000482B870153CF10E000E050CF911108953C
:1059200081568A5108F4805285580895FB01DC01A4
:1059300002C001900D9241505040D8F70895FB01EC
:10594000DC0101900D920020E1F70895AEE0B0E097
:10595000ECEAFCE20C94E6280D891E8986E08C8333
:105960001A8309838FEF9FE79E838D83AE01475E85
:105970005F4F6F89788DCE0101960E94C92C2F81CF
:105980003885020F131FF80110822E96E4E00C9464
:105990000229ABE0B0E0EFECFCE20C94D8287C01EB
:1059A0003B018A01FC0117821682838181FFC8C1F5
:1059B000CE0101965C01F7019381F30193FD85917E
:1059C00093FF81913F01882309F453C1853239F453
:1059D00093FD859193FF81913F01853229F4B701B1
:1059E00090E00E94B92EE7CF912C212C312CFFE1C1
:1059F000F31538F08B3211F190F4803209F18332D3
:105A000029F137FC3CC020ED280F2A3050F536FE36
:105A100020C08AE0989E200D1124922E06C08D325F
:105A200091F0803371F7689430F8F30193FD85911C
:105A300093FF81913F018111DACF21C0689431F841
:105A4000689432F8F2CF689433F8EFCF689434F862
:105A5000ECCFEAE02E9E200D1124222E689435F81A
:105A6000E4CF8E3229F436FC04C1689436F8DDCFD9
:105A70008C3619F4689437F8D8CF8836B1F2982F5D
:105A80009F7D95549330E0F08336A1F18337C1F1C7
:105A9000833509F063C02801F2E04F0E511CF80174
:105AA000C080D180692D70E036FC02C06FEF7FEFBF
:105AB000C6010E94A32E4C01689437F882010AC0E7
:105AC0000C5F1F4FFFE3F98388248394912C6501B9
:105AD000E89437F833FE2DC0522C8114910471F5EF
