:100000000C9427040C944F040C944F040C944F044C
:100010000C944F040C944F040C944F040C94811ACC
:100020000C944F040C944F040C944F040C944F0404
:100030000C944F040C944F040C944F040C944F04F4
:100040000C94351B0C944F040C94031B0C94DD1A78
:100050000C944F040C944F040C944F040C944F04D4
:100060000C947F1B0C944F0400407A10F35A00A0AC
:10007000724E18090010A5D4E80000E87648170071
:1000800000E40B54020000CA9A3B000000E1F505B1
:10009000000080969800000040420F000000A086FB
:1000A00001000000102700000000E803000000002D
:1000B0006400000000000A000000000001000000D1
:1000C00000002C76D888DC674F0823DFC1DFAE59EB
:1000D000E1B1B796E5E3E453C63AE651997696E87E
:1000E000E6C28426EB898C9B62ED407C6FFCEFBC02
:1000F0009C9F40F2BAA56FA5F490055A2AF75C932D
:100100006B6CF9676DC11BFCE0E40D47FEF520E662
:10011000B500D0ED902E0300943577050080841E45
:10012000080000204E0A000000C80C333333330FA0
:10013000986E12831141EF8D2114893BE65516CF3D
:10014000FEE6DB18D1844B381BF77C1D901DA4BB49
:10015000E424203284725E228100C9F124ECA1E5FE
:100160003D27200047697520537520204573632083
:100170004F6B20002D2D2D202D2D2D20457363201C
:10018000566169002D2D2D202D2D2D204E787420A7
:10019000566169002D2D2D202D2D2D2045736320B6
:1001A000566961002D2D2D202D2D2D204E6F2020E4
:1001B000536920002D2D2D20446570204E6F202086
:1001C000536920002D2D2D202D2D2D2045736320CA
:1001D000456E64002D2A2D202D2A2D202D2A2D201C
:1001E0002D2A2D00524546494C4C20204573632052
:1001F0005661690045736567756F3F202020202098
:10020000202020200052697065746F2050726F6347
:100210006573736F3F002020466174746F726520B0
:10022000466C6F77202000204E554F564F2050527D
:100230004F434553534F200020417474656E6465ED
:10024000726520707265676F002020202050524F29
:10025000434553534F2020202000202020494E5456
:100260004552524F54544F2020200050524F434586
:1002700053534F202046494E49544F002053434585
:100280004C544120464F524D41544F200020466F60
:10029000726D61746F202020202020202000424FAA
:1002A000545449474C494120202020202020004917
:1002B0004E495A49414C495A5A4F204441544900E9
:1002C000494E495A49414C495A5A415A494F4E455B
:1002D0000020202020434F4E434C555341202020E6
:1002E000200041747469766F20466173653A20205E
:1002F000202000204D656D6F72697A7A617A696F8E
:100300006E65200020202020436F6E636C75736142
:10031000202020200020204E6F6E2020416D6D6532
:1003200073736F2020004E756D65726F2043696393
:100330006C69202020200020546F676C6920426F78
:10034000747469676C6961005072656D692020750D
:100350006E2020746173746F002041747465736142
:100360002020526566696C6C2000203132350020F7
:100370003235300020333330002035303000203625
:1003800036300020373530003130303000313530F4
:10039000300000000000004D414E550054494D45CD
:1003A00000464C4F57004155544F005072696E63E0
:1003B0006970616C650000000000000050726F679A
:1003C00072616D6D690000000000000000546F6FE5
:1003D0006C73000000000000000000000000436F8C
:1003E0006E6669677572617A696F6E6500000052AA
:1003F000696E6772617A69616D656E74690000008B
:100400004D616E75616C6500000000000000000029
:100410000054656D706F72697A7A61746F000000C4
:10042000000054656D706F202B204C6976656C6CF4
:100430006F00004175746F6D617469636F00000037
:100440000000000050756C697A69610000000000CE
:100450000000000000466173690000000000000019
:10046000000000000000426F747469676C696500E9
:100470000000000000000053656E732E507265731B
:1004800073696F6E65000000496E697A69616C6915
:100490007A7A617A696F6E65004369636C6920508E
:1004A0007572676500000000000056616375756D28
:1004B0000000000000000000000000526566696C4A
:1004C0006C000000000000000000000056756F7412
:1004D0006F00000000000000000000000053617485
:1004E0007572617A696F6E650000000000005269E4
:1004F000656D70696D656E746F00000000000044EA
:10050000657072657373696F6E65000000000000AE
:10051000506F73697469766100000000000000008C
:10052000004E65676174697661000000000000009C
:1005300000004D65746F646F000000000000000053
:1005400000000054656D706F204174746573610024
:1005500000000000442E2043616E746F6E6900003D
:1005600000000000000000636865727279706869BD
:100570006C6970000000000000004D2E4E65766929
:10058000000000000000000000000000004D2E529E
:100590006F6D697469000000000000000000000039
:1005A0004D2E2047656E74696C696E69000000000D
:1005B0000000004C2E2043617A7A616E69000000D1
:1005C0000000000000004F2E4E617374726F000037
:1005D000000000000000000000502E2050697261F1
:1005E000730000000000000000000000452E566966
:1005F0006E63656E7A690000000000000000004D27
:100600002E204E6576692020202020202849544144
:1006100029006368657272797068696C6970202856
:10062000454E4729004D2E204E657669202020201A
:1006300020202849544129004D2E204E65766920FE
:10064000202020202028454E4729006368657272CB
:10065000797068696C69702028454E472900436F9E
:100660006E6365707400000000000053747275635F
:1006700074757265000000005043420000000000E5
:100680000000000000536F6674776172650000001F
:100690000000416C70686120546573740000004272
:1006A00065746120205465737400000046696E61B2
:1006B0006C20546573740000004C6F63616C697A40
:1006C0006174696F6E004D616E75616C730000003E
:1006D00000000033442052656E646572696E6700E5
:1006E000466F756E646572205465616D0000000090
:1006F00000240027002A0000000000230026002913
:1007000000000000080002010000030407000000D0
:1007100000000000007265737375726500726420DA
:10072000005072656D69203E20202020204D454EEE
:1007300055005072656D6920203E202020204D45D7
:100740004E55005072656D692020203E2020204DBE
:10075000454E55005072656D69202020203E2020B6
:100760004D454E55005072656D6920202020203E79
:10077000204D454E55004E657373756E6F00000039
:100780000000536570617261746F0000000044697D
:1007900073636F6E74696E756F00436F6E74696E0C
:1007A000756F000000004E6F20005369200020206C
:1007B000202020202020202020200056554F544F5C
:1007C00020202020202020005341545552415A49D6
:1007D0004F4E4520005249454D50494D454E544FCE
:1007E000200044455052455353494F4E4520004A3E
:1007F000455454494E47202020202000574153485B
:10080000494E47202020202000434C45414E494E70
:10081000472020202000010204081020408001020F
:100820000408102001020408102000000000250028
:1008300028002B000404040404040404020202023D
:10084000020203030303030302009E1C2925112453
:100850001FBECFEFD8E0DEBFCDBF25E0A2E3B3E0FF
:1008600001C01D92A333B207E1F713E0A0E0B1E0AD
:10087000E0EAFEE502C005900D92A233B107D9F778
:1008800014E0C6E2D4E004C02197FE010E94A22A2F
:10089000C532D107C9F70E94FF1C0C94432F0C945A
:1008A0000000FC01538D448D252F30E0842F90E013
:1008B000821B930B541710F0CF960895019708955B
:1008C000FC01918D828D981761F0A28DAE0FBF2F24
:1008D000B11D5D968C91928D9F5F9F73928F90E07A
:1008E00008958FEF9FEF0895FC01918D828D9817E9
:1008F00031F0828DE80FF11D858D90E008958FEF26
:100900009FEF0895FC01918D228D892F90E0805CEE
:100910009F4F821B91098F7399270895FC01A48D25
:10092000A80FB92FB11DA35ABF4F2C91848D90E011
:1009300001968F739927848FA689B7892C93A089F4
:10094000B1898C91837080648C93938D848D98137E
:1009500006C00288F389E02D80818F7D8083089511
:10096000EF92FF920F931F93CF93DF93EC0181E0FF
:10097000888F9B8D8C8D98131AC0E889F9898081A6
:1009800085FF15C09FB7F894EE89FF896083E889D9
:10099000F98980818370806480839FBF81E090E0CB
:1009A000DF91CF911F910F91FF90EF900895F62E58
:1009B0000B8D10E00F5F1F4F0F731127E02E8C8DF2
:1009C0008E110CC00FB607FCFACFE889F989808137
:1009D00085FFF5CFCE010E948E04F1CFEB8DEC0F99
:1009E000FD2FF11DE35AFF4FF0829FB7F8940B8F54
:1009F000EA89FB8980818062CFCFCF93DF93EC01BE
:100A0000888D8823B9F0AA89BB89E889F9898C91F6
:100A100085FD03C0808186FD0DC00FB607FCF7CFB2
:100A20008C9185FFF2CF808185FFEDCFCE010E94B2
:100A30008E04E9CFDF91CF9108958EE694E00E9475
:100A4000820421E0892B09F420E0822F089580E0C0
:100A500090E0892B29F00E941D0581110C94000063
:100A6000089508950895AF92BF92CF92DF92EF92CA
:100A7000FF920F931F93CF93DF936C017B018B0148
:100A8000040F151FEB015E01AE18BF08C017D10798
:100A900059F06991D601ED91FC910190F081E02D22
:100AA000C6010995892B79F7C501DF91CF911F9177
:100AB0000F91FF90EF90DF90CF90BF90AF9008958F
:100AC000FC01448155816081718183E295E00C9441
:100AD0003305833081F028F4813099F08230A9F019
:100AE00008958730A9F08830C9F08430B1F480913E
:100AF00080008F7D03C0809180008F77809380007D
:100B0000089584B58F7784BD089584B58F7DFBCF1C
:100B10008091B0008F778093B00008958091B000ED
:100B20008F7DF9CFCF93DF93282F30E0F901EF5F6E
:100B3000F84F8491F901EA5EF74FD491F901EC5C2A
:100B4000F74FC491CC23A1F081110E946905EC2FCD
:100B5000F0E0EE0FFF1FE950F94FA591B491EC9131
:100B6000ED2381E090E009F480E0DF91CF910895DA
:100B700080E090E0FACF1F93CF93DF93282F30E0EF
:100B8000F901EF5FF84F8491F901EA5EF74FD491D4
:100B9000F901EC5CF74FC491CC23A9F0162F811119
:100BA0000E946905EC2FF0E0EE0FFF1FE65DF74FA6
:100BB000A591B4918FB7F894EC91111108C0D0951C
:100BC000DE23DC938FBFDF91CF911F910895DE2B41
:100BD000F8CF9091480189130BC0E8E4F8E0E49164
:100BE0009FEF90934801E13049F028F0E23061F046
:100BF00060E00C94BB0510926E00FACF90916F00EC
:100C00009D7F90936F00F4CF909170009D7F9093A3
:100C1000700091E09093B0009091B100987F946043
:100C20009093B1001092B300E3CFCF93DF9390E0A5
:100C3000FC01EA5EF74F24918C5C974FFC01849194
:100C40008823C9F090E0880F991FFC01E351F94F08
:100C5000A591B491FC01E65DF74FC591D491611166
:100C60000DC09FB7F8948C91209582238C93888136
:100C7000282328839FBFDF91CF910895623051F4DC
:100C80009FB7F8943C91822F809583238C93E881C1
:100C90002E2BEFCF8FB7F894EC912E2B2C938FBF88
:100CA000EACF4F925F926F927F928F929F92AF9214
:100CB000BF92CF92DF92EF92FF920F931F93CF9349
:100CC0008C014A015B01809148018A3099F08F3F85
:100CD00009F455C0CF911F910F91FF90EF90DF90D5
:100CE000CF90BF90AF909F908F907F906F905F90CC
:100CF0004F900895E8E4F8E0C491C7FDEBCF61E0C0
:100D00008AE00E941506CC2319F0C23009F0E9C030
:100D10002801712C612C68E478EE81E090E0A30159
:100D200098010E94832A69017A0181E0C81AD108DA
:100D3000E108F108CC2309F40FC1C23009F08EC0DC
:100D40008FEFC816D104E104F10409F00CF4C7C018
:100D500064E274EF80E090E0A30198010E94832A8E
:100D600069017A0181E0C81AD108E108F10895E02B
:100D70008091B100887F892B8093B1008DC08AE07B
:100D800080934801E8E4F8E0C491CF3F09F4A2CF92
:100D9000C13021F150F0C23009F43EC0C7FD9ACFF6
:100DA00061E08AE00E941506B0CF14BC15BC84B582
:100DB000826084BD85B5816085BDEEE3F8E0E49195
:100DC000F0E0EE0FFF1FE65DF74F85919491E0E2B2
:100DD000F8E0E491E0936104C0E091CF10928000CC
:100DE00010928100809181008860809381008091C1
:100DF0008100816080938100EEE3F8E0E491F0E00F
:100E0000EE0FFF1FE65DF74F85919491E0E2F8E069
:100E1000E491E093600473CF1092B0001092B1009F
:100E20008091B00082608093B0008091B1008160B9
:100E30008093B100EEE3F8E0E491F0E0EE0FFF1FE5
:100E4000E65DF74F8591949190935F0480935E04E3
:100E5000E0E2F8E0E491E0935D0451CF8FEFC81633
:100E6000D104E104F104D9F1D4F162E17AE780E040
:100E700090E0A30192010E94832A69017A0181E036
:100E8000C81AD108E108F108C11170C094E085B515
:100E9000887F892B85BDC0E0D801AA0FBB1FA501A3
:100EA00094010E94C92828EE33E040E050E00E94FF
:100EB000612AC13079F1C23009F43EC0C1110ACFB4
:100EC000C7BC20936A0430936B0440936C04509326
:100ED0006D0480916E00826080936E00FBCE94E082
:100EE00047CF980150E040E060E072E18AE790E08F
:100EF0000E94832A69017A0181E0C81AD108E108B9
:100F0000F108C13049F680918100887F816080932B
:100F10008100C2CFD0928900C092880020936604DD
:100F200030936704409368045093690480916F0084
:100F3000826080936F00CECEC092B3002093620493
:100F4000309363044093640450936504809170006F
:100F5000826080937000BECE93E08FEFC816D104FC
:100F6000E104F10411F00CF080CF91CF96E000CFB6
:100F70003FB7F8948091F6039091F703A091F8039E
:100F8000B091F90326B5A89B05C02F3F19F0019633
:100F9000A11DB11D3FBFBA2FA92F982F8827BC01D3
:100FA000CD01620F711D811D911D42E0660F771FFB
:100FB000881F991F4A95D1F708958F929F92AF92FB
:100FC000BF92CF92DF92EF92FF926B017C010E9461
:100FD000B8074B015C01C114D104E104F104B9F07C
:100FE0000E94B807681979098A099B09683E73400D
:100FF0008105910580F321E0C21AD108E108F108CA
:1010000088EE880E83E0981EA11CB11CE4CFFF90EF
:10101000EF90DF90CF90BF90AF909F908F9008950A
:101020002FB7F8946091F2037091F3038091F40369
:101030009091F5032FBF089585ED8093BC008091BA
:10104000BC0084FDFCCF1092000408952091AA03F7
:10105000260F3327331F21323105ECF42091000491
:10106000FC0190E080E0243069F082E00895A091D6
:10107000AA032191AC0146575C4FA40FB52FB11DB7
:101080002C930196861798F38091AA03680F6093BA
:10109000AA0380E0089581E008950895E091040492
:1010A00080910304E81730F4F0E0E659FC4F8081AA
:1010B00090E008958FEF9FEF089590910404809140
:1010C00003042FEF3FEF981748F4E92FF0E0E659BB
:1010D000FC4F208130E09F5F90930404C901089584
:1010E0008091030490910404891B990B0895CF9279
:1010F000DF92EF92FF920F931F93CF93DF937C01C8
:10110000CB018A0120916903222389F0EB016B0155
:10111000C40ED51ECC15DD0569F06991D701ED919E
:10112000FC910190F081E02DC7010995F3CF642F68
:101130000E942608C801DF91CF911F910F91FF9067
:10114000EF90DF90CF900895CF93DF931F92CDB7AC
:10115000DEB76983209169032223F9F0209101040D
:10116000203258F021E030E0FC013383228390E00C
:1011700080E00F90DF91CF91089580910204E82FD5
:10118000F0E0E75BFC4F998190838F5F80930204CE
:101190008093010481E090E0ECCF61E0CE01019604
:1011A0000E942608F7CFCF93FC01C48121E0209351
:1011B0006903C093480310920204109201048385CE
:1011C000682B8BE095E00E94A40890910104913275
:1011D00008F03FC0809100048111FCCF82E0809331
:1011E000000481E08093FF038FEF8093CD03109282
:1011F000EF039093EE03A9E4B3E0EEECF3E080E0BC
:1012000098132FC01092F0038091F003CC0FC82BDD
:10121000C093F0038091FE03813039F51092FE03F4
:101220008091F0038093BB008091BC0083FDF8CFD8
:1012300085EC8093BC00809100048230E1F38091C2
:10124000CD038F3F31F08091CD03803211F080913A
:10125000CD03109202041092010410926903CF9101
:1012600008952D9121938F5FCBCF85EEE2CF089526
:1012700090E080E00895CF93C4E060E08C2F0E945E
:10128000BB05CF5FCA30C9F7CF910895CF9383E0F4
:101290000E949205C1E0009709F4C0E0892B59F43F
:1012A0004EEE52E060E070E084EF91E00E94510663
:1012B0008C2FCF9108958AE00E94E905F9CFCF9253
:1012C000DF92EF92FF92CF93DF93EB0169017A01F6
:1012D000BC01990F880B990B0E94962760933C04E0
:1012E00070933D0480933E0490933F04BE01DD0F54
:1012F000880B990B0E9496276093380470933904E9
:1013000080933A0490933B04C0924401D0924501EB
:10131000E0924601F092470110924804DF91CF918C
:10132000FF90EF90DF90CF90089510924A041092B2
:10133000400410924104109242041092430410920F
:1013400048041092490408954F925F926F927F92E1
:101350008F929F92AF92BF92CF92DF92EF92FF92C5
:101360000F931F93CF93DF93782E07E911E0C6E325
:10137000D3E0F12CE12C812C912C54018394CC24CA
:10138000C394D12C4E2CF80151908F01852D0E94D1
:10139000920560904804892B09F059C00E941008FA
:1013A00060934404709345048093460490934704EB
:1013B00088819981009709F416C1019699838883E1
:1013C00061100AC00E9410086093320370933303C7
:1013D000809334039093350388819981892B71F42C
:1013E000D501C40104C0880F991FAA1FBB1F4A94CE
:1013F000D2F7862980934804D982C882F1E07F120F
:1014000036C0852D0E949205892BD9F30E941008C1
:101410002091320330913303CB01821B930B68EE92
:1014200073E00E94392AC1E0C60F8C2FDF91CF9163
:101430001F910F91FF90EF90DF90CF90BF90AF90F2
:101440009F908F907F906F905F904F90089519823A
:101450001882D501C4010E2C04C0880F991FAA1F41
:10146000BB1F0A94D2F780958621809348048FEFA2
:10147000E81AF80A2296E4E0EE16F10409F082CFA9
:10148000C0914804F2E07F129EC08FEF8C0F823033
:1014900008F099C00E9410080091320310913303A4
:1014A0002091340330913503601B710B820B930B39
:1014B00028EE33E040E050E00E94612A4901C090EC
:1014C0003804D0903904E0903A04F0903B04229F15
:1014D0008001239F100D100D112420E030E543EC16
:1014E00056E4C701B6010E948F2787FF48C0B801A4
:1014F00090E080E00E94942720E030E040E250E459
:101500000E9487290E94F9296F5F7F4F072E000CE8
:10151000880B990B0E949627209144013091450138
:1015200040914601509147010E94F5278090400468
:1015300090904104A0904204B0904304C13039F52A
:101540009B01AC01C501B4010E941A296B017C0109
:1015500080903C0490903D04A0903E04B0903F04E5
:10156000A50194010E948F2787FF1FC0809240042D
:1015700090924104A0924204B09243041EC0089D80
:10158000B001099D700D189D700D1124BDCFA501EE
:1015900094010E941B294B015C01AC019B01C70116
:1015A000B6010E948F2787FFE1CFC0924004D092FE
:1015B0004104E0924204F092430461E470E080E070
:1015C00090E00E94DD0761E470E080E090E00E941E
:1015D000DD07CC2309F429CF6CE370E080E090E0D4
:1015E0000E94DD0722CF6110FBCEECCE0F931F933C
:1015F000CF938C01C62F0E94D3086C2F6460C80162
:101600000E94D3086C2F6B7FC8010E94D30883EC23
:1016100090E00197F1F7CF911F910F9108950F93EB
:101620001F93CF93DF938C01D62FC42F607F642B41
:101630000E94F60A80E1D89FB00111246C2BC801EA
:10164000DF91CF911F910F910C94F60ACF93DF9306
:10165000CDB7DEB728970FB6F894DEBF0FBECDBF6B
:1016600098E0EFE4F1E0DE01119601900D929A9579
:10167000E1F790912B05961710F46FEF690F262F65
:1016800030E0220F331F41E050E04C0F5D1F240F6C
:10169000351FF9016081680F606840E083E295E0E2
:1016A00028960FB6F894DEBF0FBECDBFDF91CF9165
:1016B0000C940F0B41E00E940F0B81E090E0089525
:1016C000CF93C82F862F642F0E94260B6C2F83E2A6
:1016D00095E0CF910C945A0B0F931F93CF93DF9308
:1016E0008C01D0E0C0E0F801EC0FFD1F649166238F
:1016F00039F041E083E295E00E940F0B2196F3CF91
:10170000CE01DF91CF911F910F910895CF93DF9379
:10171000D82F862F642F0E94260BC0E0CD1731F002
:1017200082E691E00E946C0BCF5FF8CFDF91CF9102
:1017300008954F925F926F927F928F929F92AF9295
:10174000BF92CF92DF92EF920F931F93CF93DF93CD
:1017500000D000D01F92CDB7DEB769837A838B8328
:101760009C8329013A01D12CB6010D2C000C880B69
:10177000990B0E94962720E030E040EA50E40E9456
:10178000F5274B015C01A301920169817A818B816C
:101790009C810E948729A50194010E94F5270E943F
:1017A000F9299B0101110FC0072E000C880B990B22
:1017B0000E9496279B01AC01C501B4010E941A2921
:1017C0000E94F9299B01C90165E070E00E944D2A41
:1017D000062FB82E6D838983662359F010E06E2D95
:1017E000610F42E086E00E94600B1F5F8D81181739
:1017F000B0F38981811110C0C01AD1088D818E0D7E
:101800008D8389818C151D0414F58F5F898342E0D7
:101810006D810E94860BF5CF6E2D600F42E081E056
:101820008B0D0F900F900F900F900F90DF91CF9135
:101830001F910F91EF90DF90CF90BF90AF909F904E
:101840008F907F906F905F904F900C94600B0F90F3
:101850000F900F900F900F90DF91CF911F910F91EC
:10186000EF90DF90CF90BF90AF909F908F907F9040
:101870006F905F904F9008954F925F926F927F921A
:10188000AF92BF92CF92EF920F93CF93DF938530B9
:10189000C0F55B01C09106048150990B24E0C29F02
:1018A000E0011124C95FDB4FC80FD91F688170E0C8
:1018B00090E080E00E9494272B013C01B5010B2CA5
:1018C000000C880B990B0E94962728E0C22E37E067
:1018D000E32E01E0A30192010E94990B988181E01F
:1018E0009A151B0409F00CF480E0DF91CF910F9161
:1018F000EF90CF90BF90AF907F906F905F904F90A0
:10190000089581E0F2CF41E061E083E10E94860B1F
:1019100042E061E083E10E94860B43E061E083E105
:101920000C94860B482F60E084E10C94860B82E0D7
:101930000E94920C60914A0470E090E080E00E9466
:1019400094276093400470934104809342049093E1
:1019500043040E94100860934404709345048093EC
:10196000460490934704089582E00E94920C83E01D
:101970000C94920C0F931F93CF93DF938B0198E0FD
:10198000899FB0011124606440E083E295E00E94E9
:101990000F0BE801085F1F4F699183E295E00E94F9
:1019A0005A0BC017D107C1F7DF91CF911F910F914B
:1019B00008951F93CF93DF93CDB7DEB728970FB667
:1019C000F894DEBF0FBECDBF182F88E0E7E5F1E049
:1019D000DE01119601900D928A95E1F7BE016F5FCD
:1019E0007F4F87E00E94BA0C60E0812F0E94260B97
:1019F00067E083E295E00E945A0B28960FB6F894B0
:101A0000DEBF0FBECDBFDF91CF911F91089540E0A3
:101A100061E083E295E00E940F0B8BE39FE1019769
:101A2000F1F7089591E1899FB001112465557C4F2C
:101A300042E150E08BE494E00C944F25FC0180815E
:101A40009181009711F00C94442B089586E490E066
:101A50000E94B3288093280408950F931F93CF9377
:101A6000DF9300E314E0C8E2D0E0CE010E94B32887
:101A7000F80181938F012196C033D105B1F788E039
:101A800090E0DF91CF911F910F910895EF92FF9217
:101A90000F931F93CF93DF938B010C5F1F4FEB01CD
:101AA0007C01E61AF70AC7018C0F9D1F0E94B3281C
:101AB0008993C017D107B9F784E090E0DF91CF9107
:101AC0001F910F91FF90EF9008950F931F93CF9365
:101AD000DF9300E314E0C8E2D0E0F80161918F01E8
:101AE000CE010E94BB282196C033D105B1F788E012
:101AF00090E0DF91CF911F910F9108950F931F9365
:101B0000CF93DF9309E214E0C2E3D0E0F8016191E2
:101B10008F01CE010E94BB282196C933D105B1F7B0
:101B200087E090E0DF91CF911F910F910895EF92A0
:101B3000FF920F931F93CF93DF937C018B01D0E033
:101B4000C0E0F80161918F01C7018C0F9D1F0E94B9
:101B5000BB282196C430D105A1F784E090E0DF9145
:101B6000CF911F910F91FF90EF900895FB0101908D
:101B70000020E9F73197AF01461B570BDC01ED91CF
:101B8000FC910280F381E02D09948F929F92AF9295
:101B9000BF920F931F93CF93DF93CDB7DEB7A1977B
:101BA0000FB6F894DEBF0FBECDBF19A2423008F4C5
:101BB0004AE08E010F5D1F4F842E912CB12CA12C79
:101BC000A50194010E94612AE62FB901CA01EA30F9
:101BD00004F5E05DD801EE938D01232B242B252BFA
:101BE00079F790E080E0109729F0BD0183E295E05D
:101BF0000E94B60DA1960FB6F894DEBF0FBECDBF02
:101C0000DF91CF911F910F91BF90AF909F908F90D8
:101C10000895E95CDFCFCF92DF92EF92FF926C01E3
:101C2000990FEE08FF08F7FE16C041E06DE283E26F
:101C300095E00E940F0B66277727CB016C197D0971
:101C40008E099F094AE00E94C50D0196FF90EF9012
:101C5000DF90CF9008954AE0C701B601FF90EF9062
:101C6000DF90CF900C94C50D4F925F926F927F9250
:101C70008F929F92AF92BF92CF92DF92EF92FF929C
:101C80000F931F93CF936B017C01742EAC019B01CA
:101C90000E94342A61EB72E0811126C0460157018F
:101CA000E894B7F82FEF3FEF4FE75FE7C501B401C6
:101CB0000E94342A81110CC02FEF3FEF4FE75FE7FE
:101CC000C501B4010E948F2765EB72E0181664F01D
:101CD0002FEF3FEF4FE75FE4C701B6010E942F2AC5
:101CE0001816ACF469EB72E083E295E0CF911F9196
:101CF0000F91FF90EF90DF90CF90BF90AF909F90AB
:101D00008F907F906F905F904F900C94B60D2FEF57
:101D10003FEF4FE75FECC701B6010E948F2787FDB9
:101D2000E1CF20E030E0A901C701B6010E948F2772
:101D300010E000E087FF0CC041E06DE283E295E037
:101D40000E940F0BF7FAF094F7F8F09401E010E01E
:101D5000C0E060E070E080E09FE37C1641F020E0AE
:101D600030E040E251E40E948729CF5FF6CFA7011F
:101D700096010E941B294B015C010E94002A2B0145
:101D80003C014AE00E94C50D080F191FCC23C9F180
:101D9000C301B2010E9494279B01AC01C501B401AB
:101DA0000E941A294B015C0141E06EE283E295E05A
:101DB0000E940F0B0F5F1F4FC15018F120E030E061
:101DC00040E251E4C501B4010E94F5272B013C011A
:101DD0000E94002A4B01B12CA12C4AE0C501B4019C
:101DE0000E94C50D080F191FC501B4010E94942758
:101DF0009B01AC01C301B2010E941A294B015C0195
:101E0000DBCFC801CF911F910F91FF90EF90DF9032
:101E1000CF90BF90AF909F908F907F906F905F908A
:101E20004F9008950C94B60DCF93C82F6DEB72E0D0
:101E30008EE694E00E94120F6C2F86E490E00E94E0
:101E4000BB28CF910C94260DCF93DF93EC01862F06
:101E5000642F0E94260BBE0183E295E0DF91CF91B3
:101E60000C94120FCF93C82F42E066E08AE00E94E4
:101E7000860B8DE0C89FB00111246255784F42E176
:101E800050E08BE494E00E944F2541E062E08BE457
:101E900094E0CF910C94240FFF920F931F93CF9354
:101EA000DF9300D000D000D0CDB7DEB7F42E1A8279
:101EB0001982FE01339624E0DF011D922A95E9F78D
:101EC0002CE330E040E050E00E94612A9F938F9322
:101ED0007F936F933F932F9381ED92E09F938F9326
:101EE0008E010F5F1F4F1F930F930E94A22C42E0A1
:101EF0006F2DC8010E94240F0FB6F894DEBF0FBEED
:101F0000CDBF26960FB6F894DEBF0FBECDBFDF91D2
:101F1000CF911F910F91FF90089540E062E088E318
:101F200091E00E94240F40E06DE081E391E00E9487
:101F3000240F83E10C94D90CCF92DF92EF92FF92A1
:101F40000F931F93CF93DF93D82E61110E94320F0E
:101F500080912B0441E061E081113BC081E0D81207
:101F600038C08AED92E00E94240FC6E0DC9E80011A
:101F70001124F12CE12CE80182E1C82E84E08E0DC1
:101F800092E09D1548F190912B04911125C020916C
:101F90002C042150330BC29EF001C39EF00D11247E
:101FA000EC0FFD1FE754FE4FEE0DFF1D60810E94F8
:101FB000BB058FEFE81AF80A96E0E916F104F1F68E
:101FC000DF91CF911F910F91FF90EF90DF90CF9015
:101FD00008958FEC92E0C7CFF801EE0DFF1DE55696
:101FE000FE4FE4CF0E94120D83E00E94920C43E06A
:101FF00061E08BE494E00C94240FCF93DF93C82F1F
:10200000D62F6091060485E0689FB00111246659BF
:102010007C4F42E150E08BE494E00E944F254D2F2D
:102020006C2F8BE494E00E94240F6CED72E083E24D
:1020300095E0DF91CF910C94120FCF93DF93C82FCF
:10204000D42F8230B9F0833011F181E1689FB00163
:102050001124675B7D4F42E150E08BE494E00E94E5
:102060004F25C2E04D2F6C2F8BE494E0DF91CF9190
:102070000C94240F81E1689FB00111246C507E4FB5
:1020800042E150E08BE494E00E944F25EBCF80E1E9
:10209000689FB00111246C597E4FF2CF42E06CE092
:1020A00081E00E941D106CED75E080E090E00E94E0
:1020B000DD0782E00C94920CCF92DF92EF92FF92B8
:1020C0000F931F93CF93109247030E94070D0E9416
:1020D0008D0F87E00E94320F43E061E083E00E94B1
:1020E0001D100E943B0980E00E94A40980914804D1
:1020F0008823C9F38150823010F4109248048091F3
:102100004804843009F46BC0883069F70FEE11E0A1
:10211000C4E0F80161918F018C2F0E94BB05809172
:102120002B04813021F461E089E00E94BB05CF5F80
:10213000C93079F70E9410086093430370934403F9
:10214000809345039093460388EEC82E83E0D82EF3
:10215000E12CF12C43E066E083E00E941D100E9418
:1021600010080091430310914403209145033091DE
:102170004603601B710B820B930BA70196010E9413
:10218000612AB901330F880B990B4FE00E944C0F65
:102190001092480480E00E94A4098091480488239A
:1021A000C9F28150823010F41092480480914804A2
:1021B000843001F1883071F60E943B09C0E0109232
:1021C000480442E060E184E00E94860B43E061E065
:1021D00083E00E941D10C11102C00E945C100E9489
:1021E0003B09CF911F910F91FF90EF90DF90CF901F
:1021F0000C949509C1E0E3CF4F925F926F927F926A
:102200008F929F92AF92BF92CF92EF920F93CF9304
:10221000DF9300D000D0CDB7DEB70E94830C86E0FC
:102220000E94320F43E064E082E00E941D100E9491
:10223000100869837A838B839C8360E081E00E942D
:102240009C0F48EE442E43E0542E612C712C0E94CA
:10225000100829813A814B815C81621B730B840BCE
:10226000950BA30192010E94612A4901330FAA082C
:10227000BB08C501B4010E94942720E1C22E32E0C0
:10228000E32E01E020E030E040EA50E40E94990BA8
:1022900035E083169104A104B104C8F20F900F90A9
:1022A0000F900F90DF91CF910F91EF90CF90BF9053
:1022B000AF909F908F907F906F905F904F900C9415
:1022C0003B094F925F926F927F928F929F92AF9253
:1022D000BF92CF92EF920F93CF93DF93CDB7DEB73C
:1022E00028970FB6F894DEBF0FBECDBF0E943B0902
:1022F0000E94830C86E00E94320F43E064E082E09B
:102300000E941D1080914203882309F459C00E9445
:10231000100869837A838B839C83809147034CE305
:10232000442E512C612C712C882369F0E091060415
:1023300024E0E29FF0011124E95FFB4F8381482EE6
:10234000512C712C612C61E084E00E949C0F8091E3
:102350004203882399F10E94100829813A814B8118
:102360005C81621B730B840B950B28EE33E040E01D
:1023700050E00E94612A4901330FAA08BB08C3013B
:10238000B2010E9494276D837E838F839887C50155
:10239000B4010E94942720E1C22E32E0E32E01E036
:1023A0002D813E814F8158850E94990B841495049C
:1023B000A604B70460F210924203C9CF0E943B0901
:1023C00080912904813011F40E94FC100E94830C3A
:1023D000809128048130B9F490E080E028960FB60F
:1023E000F894DEBF0FBECDBFDF91CF910F91EF907C
:1023F000CF90BF90AF909F908F907F906F905F90A5
:102400004F900C94140F28960FB6F894DEBF0FBEB1
:10241000CDBFDF91CF910F91EF90CF90BF90AF9054
:102420009F908F907F906F905F904F9008954F9204
:102430005F926F927F928F929F92AF92BF92CF9254
:10244000DF92EF92FF920F931F93CF93DF9300D011
:1024500000D000D01F92CDB7DEB7182F0E943B09E5
:1024600042E066E08AE00E94860B41E062E08FED88
:1024700092E00E94240F42E062E084E00E94860B1A
:1024800043E064E082E00E941D100E94100869830E
:102490007A838B839C8361E088E0111101C086E020
:1024A0000E94BB0568EE862E63E0962EA12CB12C0F
:1024B0000E941008112309F45BC029813A814B81E5
:1024C0005C81621B730B840B950BA50194010E9428
:1024D000612A2901330F66087708C301B2010E94FF
:1024E00094274EE0C42E52E0E52E01E020E030E0DB
:1024F00040E050E40E94990B31E03D8342E04416F5
:1025000051046104710408F01D820E941008C090FB
:102510004303D0904403E0904503F09046036C19C8
:102520007D098E099F09A50194010E94612AB901C4
:10253000330F880B990B4FE00E944C0F5D815111B6
:10254000B7CF27960FB6F894DEBF0FBECDBFDF9191
:10255000CF911F910F91FF90EF90DF90CF90BF90A0
:10256000AF909F908F907F906F905F904F90089565
:1025700081E090E09F838E832E813F81B901330FEC
:10258000880B990B0E9496272EE0C22E32E0E32E94
:1025900001E020E030E040E850E40E94990B3E81E9
:1025A000313021F061E086E00E94BB056EE571E00C
:1025B00080E090E00E94DD0760E086E00E94BB05BD
:1025C0006EE571E080E090E00E94DD074E815F8162
:1025D0004F5F5F4F5F834E834530510569F694CF5F
:1025E0006091060470E090E080E00E949427609380
:1025F000400470934104809342049093430441E06B
:1026000063E081E00E941D1043E060E083E00E94EF
:102610001D1020E030E040E85FE367E070E090E00C
:1026200080E00E945F0960914004709141048091B4
:102630004204909143040E94002A6093060462E0E1
:1026400087E00E94FD0F82E00E94A4098091480467
:10265000882349F38830B9F48091060490E0BC01E6
:10266000660F771F660F771F695F7B4F880F991F73
:10267000FC01EB50FE4F808191810E94460D81E06C
:10268000809327040895843071F642E062E082E18D
:102690000E94860B80E00895BF92CF92DF92EF9266
:1026A000FF920F931F93CF93DF93B82E6A01EA0135
:1026B00009900020E9F721977E01E41AF50A262FF8
:1026C00030E089010E19110917FF02C00F5F1F4F7B
:1026D000159507951E2D1170100FC4E1D0E0C21B97
:1026E000D30BD595C7954B2D6C2F802F0E94860B51
:1026F000B60183E295E00E94120F6C2F6E0D600F01
:102700004B2D812FDF91CF911F910F91FF90EF9073
:10271000DF90CF90BF900C94860B40E062E088E39E
:1027200091E00E94240F81E10E94D90C41E064E015
:102730008AEE92E00E94240F61E371E083E295E06B
:102740000E94120F40E051E064E182E00C944C13CF
:102750001F93CF93DF93182FEA01882399F023E189
:10276000629FC0011124123049F1133059F1BC01AC
:102770006B5D794F42E150E08BE494E00E944F257D
:1027800013E00DC08DE0689FB0011124625A794FAB
:1027900042E150E08BE494E00E944F2512E04BE4CC
:1027A00054E064E1812F0E944C13BE01DD0F880BC1
:1027B000990BDF91CF911F910C94DD07BC01615003
:1027C0007A4FD8CFBC016C5A7A4F42E150E08BE48B
:1027D00094E00E944F25E3CFCF930E94B40C42E1D6
:1027E00050E063EF72E08BE494E00E944F254BE4ED
:1027F00054E064E182E00E944C13C3E043E06C2F9C
:1028000081EF92E00E94240F6EE571E080E090E09D
:102810000E94DD07CD5FC23189F742E150E064E0FC
:1028200073E08BE494E00E944F254BE454E064E1B4
:1028300083E00E944C1366E475E080E090E0CF9165
:102840000C94DD074F925F926F927F928F929F92CE
:10285000AF92BF92CF92DF92EF92FF920F931F93AE
:10286000CF93DF93CDB7DEB7982E862EE42EADB68C
:10287000BEB6F82EF60E4090400450904104609091
:1028800042047090430420E030E0A901C301B2018A
:102890000E948F2787FD57C0F3948DB79EB78F197D
:1028A00091090FB6F8949EBF0FBE8DBFEDB7FEB76E
:1028B00031966F0160ED72E0CF010E949B2CF60112
:1028C00001900020E9F78F0101501109282D492DB1
:1028D000C301B2010E943125F60101900020E9F701
:1028E0003197EC19FD09FE1A20E030E0A901609152
:1028F00040047091410480914204909143040E94ED
:102900002F2A87FFF39442E06E2D8F2D0E94860BB5
:10291000B60183E295E00E94120F0FB6F894BEBE96
:102920000FBEADBEDF91CF911F910F91FF90EF9041
:10293000DF90CF90BF90AF909F908F907F906F90DF
:102940005F904F900895F394F394A7CFEF92FF9286
:102950000F931F93CF93DF93EC017B018A01888152
:102960009981009729F02A813B812417350788F443
:10297000B8016F5F7F4F0E94CD2B009791F0998334
:1029800088831B830A832C813D81232B11F4FC0156
:1029900010821D830C83B701888199810E949B2C32
:1029A0000CC088819981009711F00E94442B1982F4
:1029B00018821D821C821B821A82CE01DF91CF9168
:1029C0001F910F91FF90EF900895FB01019000205F
:1029D000E9F73197AF01461B570B0C94A614FB0186
:1029E00001900020E9F73197AF01461B570B0C947B
:1029F000A614FF920F931F93CF93DF93CDB7DEB74B
:102A00002C970FB6F894DEBF0FBECDBF0E94120DFB
:102A100018861F821A8619861C861B866BE474E052
:102A2000CE0107960E94EF140F811885011511053C
:102A300071F0F80181918F01882349F0082E000C74
:102A4000990B0E948A2CF80131978083F2CF1A8269
:102A500019821C821B821E821D826F8178856115FE
:102A6000710531F04B855C85CE0101960E94A6145C
:102A7000FD8084E190E08F19910997FD01968C010A
:102A8000159507951F2D1170100F41E060E0802F04
:102A90000E94860BCE0101960E946005602F6F0D8B
:102AA00041E0812F0E94860BCE0101960E941E0DEF
:102AB000CE0107960E941E0D2C960FB6F894DEBF2D
:102AC0000FBECDBFDF91CF911F910F91FF90089561
:102AD000CF92DF92EF92FF92CF93DF93E0914A047F
:102AE00024E0E29FF0011124EB5DFD4F82810E9402
:102AF000F91481E08093490480914904882309F402
:102B000047C163E081E00E94260B20E030E040E80E
:102B10005FE3609140047091410480914204909180
:102B200043040E941A2920913C0430913D044091B5
:102B30003E0450913F040E948F2765EF72E087FDAD
:102B400002C067EF72E08DE195E00E94E5148DE12F
:102B500095E00E946005609140047091410480916D
:102B60004204909143040E94F929862F0E94120D7D
:102B70004BE454E060E183E00E944C1363E082E1A7
:102B80000E94260B20E030E040E85FE360914004C3
:102B90007091410480914204909143040E941B294A
:102BA000209138043091390440913A0450913B040B
:102BB0000E942F2A65EF72E0181614F069EF72E098
:102BC00087E195E00E94E51487E195E00E946005A9
:102BD000C0914A0484E0C89FE0011124CB5DDD4F21
:102BE000688170E090E080E00E94942760933C044C
:102BF00070933D0480933E0490933F04698170E09C
:102C000090E080E00E949427609338047093390428
:102C100080933A0490933B0480E090E0A0E8BFE307
:102C20008093440190934501A0934601B0934701DE
:102C30001092480482E00E94A4090E941008C090EB
:102C40004404D0904504E0904604F09047046C1989
:102C50007D098E099F09693873418105910510F03E
:102C60000E94950980914804882309F445CF843057
:102C700039F1883009F040CFC0904004D090410431
:102C8000E0904204F0904304C701B6010E94F92984
:102C9000E0914A0424E0E29FF0011124EB5DFD4F36
:102CA000238126171706B9F5C701B6010E94002A2D
:102CB000862FDF91CF91FF90EF90DF90CF90089516
:102CC000E0914A0424E0E29FF0011124EB5DFD4F06
:102CD000C281C0934A046C2F70E090E080E00E94B3
:102CE000942760934004709341048093420490932E
:102CF0004304C11103C00E949509FECE82E00E94E8
:102D0000920C84E0C89FF0011124EB5DFD4F82819D
:102D10000E94F914F1CE660F771F660F771F6B5D67
:102D20007D4FFB01C381C0934A046C2F70E090E09B
:102D300080E00E9494276093400470934104809344
:102D40004204909343048C2F90E0EC01CC0FDD1FE4
:102D5000CC0FDD1FFE01EB5DFD4F6081681719068A
:102D600099F094F021812817190671F06CF070E049
:102D700090E080E00E9494276093400470934104A7
:102D80008093420490934304CB5DDD4F8A81C0CF92
:102D900090CF80914A040E94F9140E94B40C43E041
:102DA00060E083E00C941D10AF92BF92CF92DF924F
:102DB000EF92FF920F931F93CF93DF93CDB7DEB7C0
:102DC0002C970FB6F894DEBF0FBECDBF182F0E9410
:102DD000070D0E948D0F1F3F09F465C085E0189F05
:102DE000B001112469567C4F42E150E08BE494E03D
:102DF0000E944F2518861F821A8619861C861B86FC
:102E00006BE474E0CE0107960E94EF1410E000E03E
:102E1000602F80E00E94260B6801EFEFCE1ADE0AD9
:102E20005601C016D10610F4580186011A82198283
:102E30001C821B821E821D8260ED72E0CE01019613
:102E40000E94EF14EB84FC840E151F05D8F4AE1419
:102E5000BF0408F47501EF81F885EE0DFF1DB08009
:102E600010826F817885600F711F6115710561F1A6
:102E7000CE0101960E94E5148F819885E80EF91E17
:102E8000F701B082CE0101960E946005CE01019645
:102E90000E941E0D86010430110509F0B9CFCE0144
:102EA00007960E941E0D2C960FB6F894DEBF0FBE3B
:102EB000CDBFDF91CF911F910F91FF90EF90DF90E9
:102EC000CF90BF90AF90089589819A81009711F0BB
:102ED0000E94442B1A8219821E821D821C821B8230
:102EE000CBCF2F923F924F925F926F927F928F92B1
:102EF0009F92AF92BF92CF92DF92EF92FF920F9389
:102F00001F93CF93DF93CDB7DEB729970FB6F89411
:102F1000DEBF0FBECDBF8F831092420385508093DA
:102F200047030E94D41680E00E94320F809147032D
:102F3000882391F08091270481110EC00E94F01225
:102F4000882309F43CC141E062E082E10E94860BE3
:102F500061E08EE00E94FD0F43E063E083E00E94A9
:102F60001D1081E090E020912B04222311F090E0CD
:102F700080E022243324281A390A61E080E00E948C
:102F80009C0F42E063E082E00E941D1010E021E00F
:102F9000298718860E9410084B015C018091430329
:102FA00090914403A0914503B091460389839A838D
:102FB000AB83BC830E94100840903E0350903F03B7
:102FC0006090400370904103641975098609970960
:102FD00028EE33E040E050E00E94612A29016901B7
:102FE000330FEE08FF08809147038823B9F09885D6
:102FF0009730B9F0C701B60125E030E040E050E07D
:103000000E94612A633071058105910518F4A88535
:10301000A33020F061E08EE00E94FD0FB885B11171
:1030200002C001E036C028852730D8F7C501B401B9
:1030300029813A814B815C81621B730B840B950B58
:1030400028EE33E040E050E00E94612AB901330FDE
:10305000880B990B4FE00E944C0F3885353008F7EC
:1030600041E0C701B6010E944C0F809147038230B6
:1030700051F0833009F496C0813099F6B201888509
:103080000E943C0C05C048854330C1F70E944609A8
:10309000082F81E00E94A40980914804811189C011
:1030A000011178CF80912B04811104C0111102C04D
:1030B00081E0888743E061E083E00E941D109985EC
:1030C000992351F041E06EE08BEF92E00E94240FD3
:1030D000C10101960E940B0E11110AC00E94100836
:1030E0006093430370934403809345039093460396
:1030F000A885A23071F480912B04813051F4809125
:103100002A048150990B281639061CF481E00E948C
:10311000171281E08093420380912804811104C03A
:1031200081E090E00E94140FB885BF5FB8870E94CD
:10313000100860933E0370933F0380934003909385
:10314000410342E067E088E00E94860B2985222344
:1031500009F462C080912A0490E0281639060CF028
:1031600059C03885333009F052C051014FEFA41ACD
:10317000B40A41E06EE0A816B906DCF186E00E94D0
:10318000860B1501198680912B04811145C0809111
:103190002C04833009F040C0A885A130E9F552E045
:1031A0005887BBC05885533009F470CFB201852FC2
:1031B00067CF843021F0883009F474CFEBCE2996A4
:1031C0000FB6F894DEBF0FBECDBFDF91CF911F9138
:1031D0000F91FF90EF90DF90CF90BF90AF909F90B6
:1031E0008F907F906F905F904F903F902F900C94B6
:1031F00061118BEF92E00E94240FC10102960E94A0
:103200000B0E150151E0598781E08887BCCF91E012
:103210009987B9CFB1E0B9872885243009F07DC0FE
:103220000E943B090E94830C0E9410084B01809170
:103230002D04882309F460C040912E0450912F047E
:103240005A834983F12C8D819E8164EF71E00E9445
:103250004D2AF61617064CF446E950E060E070E09F
:1032600084EF91E00E945106F39441E060E181E037
:103270000E941D1043E068E083E00E941D10109240
:10328000480480E00E94A40980914804882341F00A
:10329000843009F494CF30F48150823008F45AC05D
:1032A00011E003C010E08830D9F70E941008DB015C
:1032B000A819B909BE83AD8329813A81A217B30742
:1032C000DCF4B901330F880B990B0E9496272B0170
:1032D0003C014D815E81BA01550F880B990B0E940C
:1032E000962720E1C22E32E0E32E00E0A3019201F6
:1032F0000E94990B1111A7CF0E94830C80E00E94BD
:1033000017120E943B090E94100860933E037093BD
:103310003F03809340039093410343E061E083E0E7
:103320000E941D108885853098F580912B048111AD
:103330002CC080912C04833041F580912A04815067
:10334000990B8215930509F561E081E00E949C0FBD
:1033500011E020CE0E94830C61E083E00E949C0F6C
:103360008EE00E949205892BD9F38FE00E9492058E
:10337000892BB1F30E943B090E9410084B01F12CEC
:103380008CEA9DE09A8389838BCF61E08885DECFCC
:103390000E943B09809147030E94D4160E941008A6
:1033A000009143031091440320914503309146035B
:1033B000601B710B820B930B28EE33E040E050E072
:1033C0000E94612AB901330F880B990B4FE00E94CC
:1033D0004C0F0E94830C41E062E081E00E941D10CE
:1033E00042E061E082E00E941D1043E065E083E07E
:1033F0000E941D1093E099834BEB50E060E070E079
:1034000087E891E00E94510668EC70E080E090E06F
:103410000E94DD07A981A150A983A111EDCF4AEF38
:1034200050E060E070E086E291E00E94510641E0E9
:1034300062E081E00E941D1042E061E082E00E94B3
:103440001D1043E065E083E00E941D1080E00E94B3
:10345000A40980914804882351F38430C9F088304E
:1034600009F440C0823019F70E94830C84E00E9466
:10347000320F8FE00E949205892B29F461E088E0E9
:103480000E94BB05F6CF0E943B090E94830CCFCF60
:1034900080912904813011F40E94FC10809128044D
:1034A000813021F490E080E00E94140F10922704F4
:1034B00029960FB6F894DEBF0FBECDBFDF91CF9136
:1034C0001F910F91FF90EF90DF90CF90BF90AF9042
:1034D0009F908F907F906F905F904F903F902F9034
:1034E0000C94950980914703882339F081E00E946C
:1034F000A409833010F0109227048F810E94711765
:10350000CDCF1F920F920FB60F9211242F933F939E
:103510004F935F936F937F938F939F93AF93BF93DB
:10352000EF93FF938091620490916304A0916404EF
:10353000B0916504892B8A2B8B2BD1F190915D047E
:10354000E0915E04F0915F048081892780838091FF
:10355000620490916304A0916404B091650418160C
:1035600019061A061B069CF480916204909163046C
:10357000A0916404B09165040197A109B1098093F9
:10358000620490936304A0936404B0936504FF9174
:10359000EF91BF91AF919F918F917F916F915F91CB
:1035A0004F913F912F910F900FBE0F901F90189544
:1035B000809148010E94E905EACF1F920F920FB651
:1035C0000F9211242F933F934F935F936F937F93A9
:1035D0008F939F93AF93BF93EF93FF938EE694E007
:1035E0000E948E04FF91EF91BF91AF919F918F91B7
:1035F0007F916F915F914F913F912F910F900FBEEF
:103600000F901F9018951F920F920FB60F921124D2
:103610002F938F939F93EF93FF93E0917E04F0910C
:103620007F048081E0918404F091850482FD1BC0B9
:103630009081809187048F5F8F7320918804821717
:1036400041F0E0918704F0E0E259FB4F958F8093C1
:103650008704FF91EF919F918F912F910F900FBE53
:103660000F901F9018958081F4CF1F920F920FB684
:103670000F9211242F933F938F939F93AF93BF93F8
:103680008091F2039091F303A091F403B091F503BC
:103690003091F10323E0230F2D3758F50196A11D3A
:1036A000B11D2093F1038093F2039093F303A09351
:1036B000F403B093F5038091F6039091F703A09182
:1036C000F803B091F9030196A11DB11D8093F60393
:1036D0009093F703A093F803B093F903BF91AF91D0
:1036E0009F918F913F912F910F900FBE0F901F9040
:1036F000189526E8230F0296A11DB11DD2CF1F9267
:103700000F920FB60F9211242F933F934F935F9315
:103710006F937F938F939F93AF93BF93EF93FF9399
:103720008091B900887F803609F44AC0F0F588326C
:1037300009F4A7C018F5803109F49BC0B8F48823B8
:1037400009F4F9C0883009F494C0FF91EF91BF915A
:10375000AF919F918F917F916F915F914F913F9129
:103760002F910F900FBE0F901F901895883109F47C
:1037700088C0803251F78093CD0314C0803409F49F
:103780009DC040F48033B9F38833F9F68093CD03BC
:1037900085ECB0C0803509F485C0883509F496C041
:1037A000883499F60E941C08D0CF883909F48CC05F
:1037B00038F5883729F050F4883611F0803729F62B
:1037C00083E0809300041092CC0357C0883809F43A
:1037D0007BC0803919F0803809F0B7CF8091CC03D5
:1037E000803208F071C0E091CC0381E08E0F8093AD
:1037F000CC038091BB00F0E0E455FC4F80833DC0DA
:10380000803B39F0E0F4803A09F479C0883A09F055
:103810009CCF84E0809300041092AB031092AA0323
:10382000E091FC03F091FD0309958091AA038111B9
:103830000FC081E08093AA0310928A0309C0803CE4
:1038400009F4A6CF883C09F4A3CF883B09F07DCFCB
:10385000E091AB0381E08E0F8093AB03F0E0E6577D
:10386000FC4F80818093BB009091AB038091AA03B1
:1038700029C08091F0038093BB0085EC8093BC004D
:1038800064CF9091EF038091EE03981758F5E09183
:10389000EF0381E08E0F8093EF03F0E0E253FC4FE3
:1038A0008081E9CFE091EF0381E08E0F8093EF03F9
:1038B0008091BB00F0E0E253FC4F80839091EF03D6
:1038C0008091EE039817C8F285E8D8CFE091EF0316
:1038D00081E08E0F8093EF038091BB00F0E0E25314
:1038E000FC4F80838091FF0381115CCF81E0809346
:1038F000FE0384EA8093BC001092000426CF85EC7E
:103900008093BC00109200048091CC03803230F48C
:10391000E091CC03F0E0E455FC4F10826091CC03C1
:1039200070E0E091FA03F091FB038CEA93E00995D3
:103930001092CC030ACF1092CD0334CFEEE6F4E020
:103940001382128288EE93E0A0E0B0E08483958336
:10395000A683B78325E832E03183208325EC30E06D
:103960003587248724EC30E03787268720EC30E049
:10397000318B208B21EC30E0338B228B22EC30E03A
:10398000358B248B26EC30E0378B268B118E128EF4
:10399000138E148EEBE0F5E01382128284839583FC
:1039A000A683B78387E992E091838083E3E2F5E021
:1039B0001382128289EA92E09183808387E2848372
:1039C00084E1818784E082871386EDE1F5E011824E
:1039D0001082138212821582148260ED72E0CF0190
:1039E0000E94EF14E7E1F5E0118210821382128247
:1039F0001582148260ED72E0CF010C94EF14CF9326
:103A0000DF93CDB7DEB7C254D1090FB6F894DEBF4D
:103A10000FBECDBF789484B5826084BD84B58160CB
:103A200084BD85B5826085BD85B5816085BD809189
:103A30006E00816080936E00109281008091810001
:103A400082608093810080918100816080938100F9
:103A5000809180008160809380008091B1008460BB
:103A60008093B1008091B00081608093B00080911C
:103A70007A00846080937A0080917A0082608093DB
:103A80007A0080917A00816080937A0080917A0038
:103A9000806880937A001092C10007E0E02E04E075
:103AA000F02E05EF11E0B701D8018D919D918D01A8
:103AB0000E94460DB4E0EB0EF11CE2E005301E075B
:103AC00091F70E942D0D19E2E12E14E0F12E02E390
:103AD00010E0C8010E94B328D7018D937D010F5FCC
:103AE0001F4F09331105A9F70E94260D10920404F7
:103AF0001092030410920204109201041092000428
:103B000081E08093FF031092FE0361E082E10E9456
:103B1000BB0561E083E10E94BB058091B9008E7F07
:103B20008093B9008091B9008D7F8093B90088E4BB
:103B30008093B80085E48093BC0081E395E0909386
:103B4000FD038093FC0382E395E09093FB03809355
:103B5000FA031092280580912D05823018F098E024
:103B60009093280580932B0562E370E080E090E05D
:103B70000E94DD0760912E0583E295E00E94D30844
:103B800068EE73E080E090E00E94DD0760E383E28E
:103B900095E00E94F60A0BE416E4C8010197F1F7DC
:103BA00060E383E295E00E94F60AC8010197F1F70D
:103BB00060E383E295E00E94F60A83E592E00197D4
:103BC000F1F760E283E295E00E94F60A6091280531
:103BD000606240E083E295E00E940F0B84E08093F6
:103BE000290540E06CE083E295E00E940F0B0E9403
:103BF000070D82E080932A0540E066E083E295E0CD
:103C00000E940F0B40E062E083E295E00E940F0B00
:103C10008BE39FE10197F1F718E010932E0560E028
:103C200083E295E00E94D3086AEF70E080E090E0C4
:103C30000E94DD0710922E0560E083E295E00E946D
:103C4000D3086AEF70E080E090E00E94DD071093F7
:103C50002E0560E083E295E00E94D30862E083E0F5
:103C60000E94150661E084E00E94150661E085E08F
:103C70000E94150661E086E00E94150661E087E07B
:103C80000E94150661E088E00E94150661E089E067
:103C90000E94150661E08AE00E94150662E08EE04F
:103CA0000E94150662E08FE00E94150662E080E146
:103CB0000E94150662E081E10E94150660E084E141
:103CC0000E94150660E085E10E941506EFE5F1E02F
:103CD000DE01D996812F01900D928A95E1F7E7E6F2
:103CE000F1E0DE01D196812F01900D928A95E1F7E6
:103CF000EFE6F1E0DE019996812F01900D928A9511
:103D0000E1F7E7E7F1E0DE019196812F01900D9256
:103D10008A95E1F7EFE7F1E0DE015996812F0190F6
:103D20000D928A95E1F7E7E8F1E0DE015196812FE7
:103D300001900D928A95E1F7EFE8F1E0DE01199626
:103D4000812F01900D928A95E1F7FE0131967F0156
:103D5000DF011D921A95E9F78CE18983BE01675C4A
:103D60007F4F80E00E94BA0CBE016F5C7F4F81E004
:103D70000E94BA0CBE01675D7F4F82E00E94BA0CC0
:103D8000BE016F5D7F4F83E00E94BA0CBE01675E8B
:103D90007F4F84E00E94BA0CBE016F5E7F4F85E0CA
:103DA0000E94BA0CBE01675F7F4F86E00E94BA0C8A
:103DB000B70187E00E94BA0C40E063E080E00E9417
:103DC000600B61E083E295E00E945A0B40E068E0FE
:103DD00084E00E94600B65E083E295E00E945A0B4C
:103DE00041E063E082E00E94600B63E083E295E0E3
:103DF0000E945A0B8DE197E00E946C0B66E083E213
:103E000095E00E945A0B67E083E295E00E945A0B0E
:103E100085E197E00E946C0B43E060E081E093E075
:103E20000E94240F60EA7FE080E090E00E94DD07BE
:103E30000E94070D69E271E082E00E94BA0C61E223
:103E400071E083E00E94BA0C69E171E084E00E94B5
:103E5000BA0C61E171E085E00E94BA0C69E071E0A2
:103E600086E00E94BA0CA5E22A2EA2E03A2E412C4E
:103E7000512CB0E86B2EBFE37B2E8091280481305B
:103E800009F052C00E9410084B015C0140E060E064
:103E900088E391E00E94240F40E06CE081E391E030
:103EA0000E94240F83E10E94D90C43E064E082E089
:103EB0000E941D1046E153E064E181E00E944C1332
:103EC00060E084E00E949C0FAA24BB240E9410089A
:103ED000681979098A099B0928EE33E040E050E02F
:103EE0000E94612A23963FAF2EAF2397B90190E03D
:103EF00080E00E949427EAE0CE2EF5E0EF2E00E06D
:103F000020E030E040E752E40E94990B2396EEADAA
:103F1000FFAD2397FC97D0F20E943B0990E080E030
:103F20000E94140F0E94070D0E948D1380910504BA
:103F3000843008F41DC11092050460910504F1E17C
:103F40006F9FB00111246F5D784F42E150E08BE428
:103F500094E00E944F254BE454E062E183E00E942C
:103F60004C1366E970E080E090E00E94DD070E945B
:103F7000950980E00E94A40980914804813009F0ED
:103F8000C2C00E94830C83E00E94F9148CE00E945E
:103F9000120D4BE454E064E182E00E944C1385E191
:103FA0000E94F20F63E08FE00E94260B60913004C4
:103FB00070913104809132049091330442E00E9468
:103FC000340E64EC79E080E090E00E94DD0786E149
:103FD0000E94F20F63E08EE00E94260B6091340491
:103FE00070913504809136049091370442E00E942C
:103FF000340E64EC79E080E090E00E94DD078AE016
:104000000E94120D4BE454E064E182E00E944C13E4
:1040100083E00E94920C43E061E081E293E00E9421
:10402000240F8091290443E061E18111A5C089E258
:1040300093E00E94240F64EC79E080E090E00E941D
:10404000DD078EE00E94F20F63E082E10E94260B02
:1040500060912A0470E090E080E04AE00E94C50D83
:1040600064EC79E080E090E00E94DD078FE00E9440
:10407000F20F63E081E10E94260B80912B048111F5
:104080007EC069E273E083E295E00E94120F64EC67
:1040900079E080E090E00E94DD0787E10E94F20F66
:1040A00060912C048CE0689FB00111246A58784F0D
:1040B00042E150E08BE494E00E944F2543E068E049
:1040C0008BE494E00E94240F64EC79E080E090E0BF
:1040D0000E94DD0780E10E94F20F63E081E10E940F
:1040E000260B80912D04811151C069E273E083E2B7
:1040F00095E00E94120F64EC79E080E090E00E946D
:10410000DD070E94830C80914804883009F08FC439
:1041100081E080934A0440924004509241046092AE
:104120004204709243040E9468155CE0C52EDD24B1
:10413000D394ECEFE80FE53108F07CC0F0E0ED55EA
:10414000FF4D0C94A22AE0207C217C217C2181213E
:1041500084211A2187211A219E224723912391230A
:104160001A211A211A211A21B124B1241A218121DC
:104170008F5F80930504E1CE8CE293E05ACF6CE22E
:1041800073E083E295E00E94120F9ECF6CE273E031
:1041900083E295E00E94120F64EC79E080E090E009
:1041A0000E94DD0788E10E94F20F63E08FE00E9429
:1041B000260B80912E0490912F040E940B0E9BCF12
:1041C0000E94070D0E948D0F84E00E94F91468EE92
:1041D00073E080E090E00E94DD0710E044EF51E0E2
:1041E000612F80E00E94A813EFEFE10FEA3060F545
:1041F000F0E0E350FF4D0C94A22A2E212E212A211B
:1042000033213C214A21582107216B216F214CED9C
:1042100055E060E082E00E94A8134CED55E061E0BB
:1042200082E00E94A8130E94B40C1F5F1B30B1F6FD
:104230000E94950980914A04882309F4F6C30E94DC
:104240008D130E94681575CF40ED57E061E083E063
:104250000E94A81340ED57E062E003C040ED57E034
:1042600061E083E0DECF4CED55E061E083E00E9449
:10427000A8134CED55E0F0CF00E04CED55E0602F79
:1042800083E00E94A8130F5F0430B9F70E94B40CBA
:104290001F5FA4CF00E0043009F405E04CED55E0C9
:1042A000602F83E00E94A8130F5F0830A1F7EECFC4
:1042B0004CED55E060E081E00E94A8134CED55E024
:1042C00061E081E00E94A8134CED55E062E081E0DE
:1042D0000E94A813DBCF4CED55E065E0C2CF10E0A3
:1042E00048EE53E0612F83E00E94A8131F5F153052
:1042F000B9F70E94B40C9CCF109227040E9471174A
:1043000097CF0E944E1096CF0E945C1093CF82E010
:104310000E94920C0E94F012182F82E00E94920CD0
:10432000F12CE12C01E10E0D94E0E916F10409F401
:10433000EAC0112309F47AC043E060E083E00E9400
:104340001D1020E030E040E85FE3A2E0EA16F1044F
:1043500009F47FC0B3E0EB16F10409F48AC06CE302
:1043600070E090E080E0E1E0EE16F10409F465C051
:104370000E945F09E091060484E0E89FF0011124A7
:10438000E95FFB4F608170E090E080E00E9494273D
:1043900060934004709341048093420490934304DB
:1043A000802F0E94120D42E061E08BE494E00E94B5
:1043B000240F6091400470914104809142049091D7
:1043C00043040E94002A4DE00E944C0F82E00E94AC
:1043D000A40980914804882361F3883009F034C32C
:1043E00000910604E2E0EE16F10409F465C0F3E082
:1043F000EF16F10409F474C081E0E816F10409F441
:1044000048C094E0099F80011124095F1B4F60910F
:1044100040047091410480914204909143040E94B1
:10442000002AD8016C9311E00E94970C82E00E9450
:10443000920CFFEFEF1AFF0A75CF0E945F09E0911F
:10444000060494E0E99FF0011124E95FFB4F6181CC
:104450009ACF6CE271E090E080E00E945F09E09109
:104460000604A4E0EA9FF0011124E95FFB4F62819A
:104470008ACF64EB70E090E080E00E945F09E091F9
:104480000604B4E0EB9FF0011124E95FFB4F638168
:104490007ACFB4E00B9F80011124095F1B4F60911C
:1044A00040047091410480914204909143040E9421
:1044B000002AF8016183B7CFF4E00F9F8001112437
:1044C000095F1B4F60914004709141048091420448
:1044D000909143040E94002AD80112966C93A3CFB6
:1044E000B4E00B9F80011124095F1B4F60914004D1
:1044F0007091410480914204909143040E94002AEB
:10450000F801638390CF1123B1F0109106040E944B
:10451000EC13812F90E0BC01660F771F660F771FA9
:10452000695F7B4F880F991FFC01EB50FE4F808124
:1045300091810E94970D0E94970C7CCE83E00E948F
:10454000920C41E066E081E00E941D1063E081E092
:104550000E94260B05E012E095EFA92E91E0B92EFE
:1045600027E0E22E24E0F22ED8018C91F70180831F
:1045700011968C911197818312968C911297828358
:1045800013968C918383B701D5018D919D915D0127
:104590000E94970D6FE273E083E295E00E94120F94
:1045A0006AE872E080E090E00E94DD070C5F1F4F38
:1045B000B4E0EB0EF11C20163106B1F61092300477
:1045C00010923104109232041092330480E090E093
:1045D000A0E0BFEB8093340490933504A09336049D
:1045E000B09337040E94650D60E373E083E295E0C9
:1045F0000E94120F6AE872E080E090E00E94DD07FE
:10460000D092290482E080932A04D0922B04109245
:104610002C04D0922D04ACEABDE0B0932F04A093FB
:104620002E040E947E0D60E373E083E295E00E9419
:10463000120F6AE872E080E090E00E94DD0790E0EF
:1046400080E00E94140F41E067E081E00E941D10AD
:1046500042E068E081E00E941D1083E00E94920C1D
:104660006CED75E080E090E00E94DD0781E00E9443
:10467000920C82E00E94920C0E9410086093440405
:10468000709345048093460490934704D3CD0E94D1
:10469000C91642E06DE081E00E941D1020E030E08C
:1046A00040E85FE365E070E081E090E00E945F0930
:1046B00060912A0470E090E080E00E949627609369
:1046C00040047093410480934204909343044FE06C
:1046D00060E081E00E94221482E00E94A40980919F
:1046E00048048823A1F38830D1F46091400470918C
:1046F000410480914204909143040E94002A6093F7
:104700002A040E94EC130E947E0D80E090914804E0
:10471000943009F410CF882309F40DCFD8CF81E06D
:10472000F5CF11EF180F60912B04113011F4609147
:104730002D0470E090E080E00E9496276093400492
:104740007093410480934204909343040E94C916DD
:1047500042E069E081E00E941D1020E030E040E886
:104760005FE361E070E090E080E00E945F096091AB
:1047700040047091410480914204909143040E944E
:10478000F929660F771F660F771F6A55784F42E148
:1047900050E08BE494E00E944F2542E060E18BE41E
:1047A00094E00E94240F82E00E94A40980914804B2
:1047B0008823E9F2883009F0D2C0609140047091FA
:1047C000410480914204909143040E94002A1130D8
:1047D00009F482C060932B04662389F080912B0436
:1047E000809329040E94EC130E947E0D80E090913A
:1047F0004804943009F49FCE8111B9CF9CCE0E9419
:10480000C91620E030E040E85FE363E070E081E05B
:1048100090E00E945F0960912C0470E090E080E0DD
:104820000E9496274B015C0120E030E0A9010E9424
:104830008F27882309F442C080924004909241045B
:10484000A0924204B09243046091400470914104EC
:1048500080914204909143040E94F929C69E9001E0
:10486000C79E300D1124B9016A58784F42E150E0DB
:104870008BE494E00E944F254BE454E064E182E035
:104880000E944C1382E00E94A4098091480488236E
:10489000D9F28830E1F46091400470914104809134
:1048A0004204909143040E94002A60932C0401E08A
:1048B0000E94970C002309F499CF90CF40924004B6
:1048C000509241046092420470924304BDCF843000
:1048D00009F0BACF00E0ECCF60932D04613009F00D
:1048E0007DCF0E94C91620E030E04AEF53E460E437
:1048F0007FE188EB9BE00E945F0960912E0470913C
:104900002F04072E000C880B990B0E9496276093AA
:1049100040047093410480934204909343044DE01B
:1049200060E084E00E94221482E00E94A409809149
:1049300048048823A1F3883079F460914004709191
:10494000410480914204909143040E94F92970939C
:104950002F0460932E04ABCF843009F7BBCF81E0E6
:1049600046CF1BEE180F0E94C9162DEC3CEC4CEC08
:104970005DE370E060E08FEF9FEF0E945F09113010
:1049800009F43FC08091300490913104A091320429
:10499000B09133048093400490934104A093420467
:1049A000B093430447E062E081E00E94221482E079
:1049B0000E94A409809148048823A1F3883099F5C6
:1049C0008091400490914104A0914204B09143042D
:1049D000113001F18093300490933104A09332049C
:1049E000B09333040E94EC130E94650D0E942D0DBC
:1049F00080E090914804943009F49DCD8111D2CF8C
:104A00009ACD8091340490913504A0913604B091F0
:104A10003704C0CF8093340490933504A0933604B8
:104A2000B0933704DFCF81E0E4CF0E94070DE0E0D0
:104A3000F0E0EF2B09F421CA0E941D05882309F438
:104A40001CCA0E94000019CA843009F0B2CC10E0E0
:104A5000EBCC87E195E00E941E0D8DE195E00C9472
:104A60001E0DEF920F931F93CF93DF93E80134E075
:104A700047FD34E1042E000C550B57FF03C0519540
:104A800041955109E32E022F242FAE010E94582593
:104A9000CE01DF91CF911F910F91EF900895FB010F
:104AA000DC0102C005900D9241505040D8F70895A6
:104AB000A9E0B0E0EEE5F5E20C94DA286A01F22E06
:104AC000B02E102FFBE3AF2EA01608F41BE31F5FE0
:104AD000012F27E0AE014F5F5F4F0E94B726BC0158
:104AE0008981982F9970913009F43FC09BE2E1FCD5
:104AF00004C09E2D9170E0FC3AC05E2D5071E82FED
:104B0000E87083FF46C084E0911101C083E0EF2D7F
:104B1000E81B8F1508F0E0E0D6018E2F20E2552328
:104B200051F1992329F0D6019C93C60101966C019D
:104B300096012D5F3F4FE2FE24C08EE4D6018C9398
:104B400091E411969C93119712968C93D9018E2F14
:104B500090E281111BC0E20FF32FF11D10828EEF46
:104B60009FEF2996ECE00C94F6289DE2C6CF90E2E8
:104B7000C4CF2D9381508111FCCFCE0ED11CE0E02B
:104B8000D0CF8EE6D6018C9391E6DBCF9D938150FA
:104B9000E0CF482F447082FF3DC084E0911101C0F6
:104BA00083E08F1510F4EF2DE81BD6018E2F20E245
:104BB000552309F1992329F0D6019C93C60101964A
:104BC0006C0196012D5F3F4FE2FE1BC089E4D601C8
:104BD0008C938EE411968C93119786E412968C93A5
:104BE000D9018E2F90E2882309F4B5CF9D9381508F
:104BF000FACF2D9381508111FCCFCE0ED11CE0E075
:104C0000D9CF89E6D6018C938EE611968C931197B5
:104C100086E6E4CF9B0177FF02C030E020E0A1E010
:104C2000B0E0911102C0B0E0A0E0F9013196AE0F02
:104C3000BF1F8B2C912CBB2009F461C05401EFEFF6
:104C4000AE1ABE0AAA0DBB1DFA161B0619F014F007
:104C50004F2D4A1B511188C0E3FC59C07601A42F87
:104C6000B0E2A1114FC0C40ED11C992309F45BC05E
:104C700040E0D6011196F60190836D01552309F4A9
:104C800048C0012F060F9A81582F507184FF03C02E
:104C9000913309F4015010160CF047C0093008F0A8
:104CA00008E0EEE2FE2E5B01A01AB10885019194A6
:104CB000819491082F3F320729F4D601FC92F60126
:104CC00031966F016217730794F1021713077CF591
:104CD000DB01A21BB30BAA24A394B12CAC0EBD1E06
:104CE000AA0DBB1D11968C9121503109D601119648
:104CF00028153905F4F0F60180836D01DBCFB12C66
:104D0000A12CA0CFF701B1937F01A150AACF91119F
:104D1000B0CFD601942F50E302C05D939150911112
:104D2000FCCFC40ED11C40E0ACCF01E0BACF80E391
:104D3000DBCF6217730731F4963388F4953311F49F
:104D4000552369F0F6018083FD01842F90E28111E3
:104D500008C0A40FB11D1C9290E080E002CF81E357
:104D6000F1CF91938150F3CF911183CF8ACF283027
:104D700008F027E03327DA01990F311D87FD916094
:104D800000966105710539F432602E5F3D9330E382
:104D90002A95E1F708959F3F30F08038710561054D
:104DA00009F03C5F3C5F3D93913008F08068911DB5
:104DB000DF93CF931F930F93FF92EF92192F987F5A
:104DC0009695E92F96959695E90FFF27EE53FF4F9D
:104DD00099273327EE24FF24A701E70105900894C3
:104DE000079428F4360FE71EF81E491F511D660F61
:104DF000771F881F991F0694A1F70590079428F440
:104E0000E70EF81E491F561FC11D770F881F991FF7
:104E1000661F0694A1F70590079428F4F80E491F21
:104E2000561FC71FD11D880F991F661F771F069435
:104E3000A1F70590079420F4490F561FC71FD81FEC
:104E4000990F661F771F881F0694A9F78491109504
:104E5000177041F0D695C79557954795F794E79405
:104E60001A95C1F7E8E6F0E0689415901591359130
:104E70006591959105907FE27395E118F10A430BD6
:104E8000560BC90BD009C0F7E10CF11E431F561F8A
:104E9000C91FD01D7EF4703311F48A95E6CFE894D3
:104EA000015030F0080F0AF40027021708F4202FF1
:104EB0002395022F7A3328F079E37D932A95E9F739
:104EC00010C07D932A9589F6069497956795379536
:104ED00017951794E118F10A430B560BC90BD0092B
:104EE00098F023957E9173957A3308F070E37C9364
:104EF0002013B8F77E9170617D9330F0839571E354
:104F00007D9370E32A95E1F71124EF90FF900F91C4
:104F10001F91CF91DF91992787FD909508950E9469
:104F2000D12708F481E00895E89409C097FB3EF486
:104F300090958095709561957F4F8F4F9F4F9923E6
:104F4000A9F0F92F96E9BB279395F6958795779564
:104F50006795B795F111F8CFFAF4BB0F11F460FF24
:104F60001BC06F5F7F4F8F4F9F4F16C0882311F07C
:104F700096E911C0772321F09EE8872F762F05C090
:104F8000662371F096E8862F70E060E02AF09A952B
:104F9000660F771F881FDAF7880F9695879597F920
:104FA0000895990F0008550FAA0BE0E8FEEF1616BA
:104FB0001706E807F907C0F012161306E407F5070D
:104FC00098F0621B730B840B950B39F40A2661F081
:104FD000232B242B252B21F408950A2609F4A14024
:104FE000A6958FEF811D811D08950E9408280C94BD
:104FF00079280E946B2838F00E94722820F09523AF
:1050000011F00C9462280C94682811240C94AD289B
:105010000E948A2870F3959FC1F3950F50E0551FA9
:10502000629FF001729FBB27F00DB11D639FAA27FD
:10503000F00DB11DAA1F649F6627B00DA11D661F4C
:10504000829F2227B00DA11D621F739FB00DA11D6D
:10505000621F839FA00D611D221F749F3327A00D27
:10506000611D231F849F600D211D822F762F6A2FC3
:1050700011249F5750409AF0F1F088234AF0EE0F28
:10508000FF1FBB1F661F771F881F91505040A9F755
:105090009E3F510580F00C9462280C94AD285F3F30
:1050A000E4F3983ED4F3869577956795B795F79591
:1050B000E7959F5FC1F7FE2B880F911D9695879509
:1050C00097F9089597F99F6780E870E060E0089588
:1050D0009FEF80EC089500240A9416161706180610
:1050E0000906089500240A941216130614060506EC
:1050F0000895092E0394000C11F4882352F0BB0F7D
:1051000040F4BF2B11F460FF04C06F5F7F4F8F4FDF
:105110009F4F089557FD9058440F551F59F05F3F1A
:1051200071F04795880F97FB991F61F09F3F79F0C9
:1051300087950895121613061406551FF2CF46954B
:10514000F1DF08C0161617061806991FF1CF8695CD
:105150007105610508940895E894BB2766277727B1
:10516000CB0197F90895F999FECF92BD81BDF89AC8
:10517000992780B50895262FF999FECF1FBA92BDC1
:1051800081BD20BD0FB6F894FA9AF99A0FBE019628
:1051900008950E940B29A59F900DB49F900DA49F88
:1051A000800D911D112408952F923F924F925F928E
:1051B0006F927F928F929F92AF92BF92CF92DF9227
:1051C000EF92FF920F931F93CF93DF93CDB7DEB78C
:1051D000CA1BDB0B0FB6F894DEBF0FBECDBF099420
:1051E0002A88398848885F846E847D848C849B8477
:1051F000AA84B984C884DF80EE80FD800C811B8185
:10520000AA81B981CE0FD11D0FB6F894DEBF0FBEB3
:10521000CDBFED010895A29FB001B39FC001A39F30
:10522000700D811D1124911DB29F700D811D1124DF
:10523000911D08955058BB27AA270E9432290C942B
:1052400079280E946B2838F00E94722820F039F4E7
:105250009F3F19F426F40C9468280EF4E095E7FBC0
:105260000C946228E92F0E948A2858F3BA17620723
:1052700073078407950720F079F4A6F50C94AC2801
:105280000EF4E0950B2EBA2FA02D0B01B901900161
:105290000C01CA01A0011124FF27591B99F0593FA5
:1052A00050F4503E68F11A16F040A22F232F342FED
:1052B0004427585FF3CF469537952795A795F0403B
:1052C0005395C9F77EF41F16BA0B620B730B840B50
:1052D000BAF09150A1F0FF0FBB1F661F771F881F08
:1052E000C2F70EC0BA0F621F731F841F48F4879560
:1052F00077956795B795F7959E3F08F0B0CF939552
:10530000880F08F09927EE0F9795879508950E94CA
:105310009B290C9479280E94722858F00E946B28CF
:1053200040F029F45F3F29F00C94622851110C944D
:10533000AD280C9468280E948A2868F39923B1F359
:10534000552391F3951B550BBB27AA2762177307AB
:10535000840738F09F5F5F4F220F331F441FAA1F3F
:10536000A9F335D00E2E3AF0E0E832D091505040FB
:10537000E695001CCAF72BD0FE2F29D0660F771FA9
:10538000881FBB1F261737074807AB07B0E809F08F
:10539000BB0B802DBF01FF2793585F4F3AF09E3F14
:1053A000510578F00C9462280C94AD285F3FE4F32B
:1053B000983ED4F3869577956795B795F7959F5F57
:1053C000C9F7880F911D9695879597F90895E1E0A3
:1053D000660F771F881FBB1F621773078407BA0702
:1053E00020F0621B730B840BBA0BEE1F88F7E0955D
:1053F00008950E94002A6894B1110C94AD28089574
:105400000E94922888F09F5798F0B92F9927B7519A
:10541000B0F0E1F0660F771F881F991F1AF0BA9558
:10542000C9F714C0B13091F00E94AC28B1E00895E2
:105430000C94AC28672F782F8827B85F39F0B93FD4
:10544000CCF3869577956795B395D9F73EF490950B
:105450008095709561957F4F8F4F9F4F08950E9463
:10546000D12708F48FEF08950E94D127880B990B5C
:105470000895AA1BBB1B51E107C0AA1FBB1FA6179B
:10548000B70710F0A61BB70B881F991F5A95A9F7ED
:1054900080959095BC01CD01089597FB072E16F4D9
:1054A000009407D077FD09D00E94392A07FC05D067
:1054B0003EF4909581959F4F0895709561957F4F2B
:1054C0000895A1E21A2EAA1BBB1BFD010DC0AA1F45
:1054D000BB1FEE1FFF1FA217B307E407F50720F05D
:1054E000A21BB30BE40BF50B661F771F881F991FD8
:1054F0001A9469F760957095809590959B01AC0121
:10550000BD01CF010895052E97FB1EF400940E9463
:105510009A2A57FD07D00E94612A07FC03D04EF457
:105520000C949A2A50954095309521953F4F4F4FB6
:105530005F4F089590958095709561957F4F8F4F3F
:105540009F4F0895EE0FFF1F0590F491E02D0994F1
:105550000F931F93CF93DF938230910510F482E075
:1055600090E0E0913105F091320530E020E0B0E0CC
:10557000A0E0309799F42115310509F44AC0281BA1
:10558000390B24303105D8F58A819B81611571056D
:1055900089F1FB0193838283FE0111C04081518117
:1055A0000281138148175907E0F04817590799F409
:1055B000109761F012960C93129713961C933296E3
:1055C000CF01DF91CF911F910F9108950093310585
:1055D00010933205F4CF2115310551F042175307CE
:1055E00038F0A901DB019A01BD01DF01F801C1CF4B
:1055F000EF01F9CF9093320580933105CDCFFE01B5
:10560000E20FF31F8193919322503109398328834C
:10561000D7CF20912F0530913005232B41F42091D5
:105620004B0130914C013093300520932F05209190
:10563000490130914A012115310541F42DB73EB79A
:1056400040914D0150914E01241B350BE0912F05E7
:10565000F0913005E217F307A0F42E1B3F0B28173B
:10566000390778F0AC014E5F5F4F2417350748F0DB
:105670004E0F5F1F5093300540932F0581939193F8
:105680009FCFF0E0E0E09CCFCF93DF930097E9F06D
:10569000FC01329713821282A0913105B09132053C
:1056A000ED0130E020E01097A1F420813181820FDC
:1056B000931F20912F05309130052817390709F0E5
:1056C00061C0F0933005E0932F05DF91CF910895ED
:1056D000EA01CE17DF07E8F54A815B819E0141159B
:1056E0005105B1F7E901FB83EA8349915991C40F50
:1056F000D51FEC17FD0761F4808191810296840F1C
:10570000951FE90199838883828193819B838A8392
:10571000F0E0E0E012968D919C9113970097B9F517
:105720002D913C911197CD010296820F931F2091EC
:105730002F05309130052817390739F6309751F584
:105740001092320510923105B0933005A0932F05C9
:10575000BCCFD383C28340815181840F951FC8176A
:10576000D90761F44E5F5F4F88819981480F591FB7
:10577000518340838A819B819383828321153105E4
:1057800009F0B0CFF0933205E09331059ECFFD01D3
:10579000DC01C0CF13821282D7CFB0E0A0E0E3EDEE
:1057A000FBE20C94D6288C01009751F4CB010E94A7
:1057B000A82A8C01C801CDB7DEB7E0E10C94F2282D
:1057C000FC01E60FF71F9C0122503109E217F30795
:1057D00008F49DC0D901CD91DC911197C617D70768
:1057E00098F0C530D10530F3CE010497861797079E
:1057F00008F3C61BD70B2297C193D1936D937C936B
:10580000CF010E94442BD6CF5B01AC1ABD0A4C01DC
:105810008C0E9D1EA0913105B0913205512C412C6A
:10582000F12CE12C109731F580912F0590913005E6
:105830008815990509F05CC04616570608F058C04F
:105840008091490190914A01009741F48DB79EB72C
:1058500040914D0150914E01841B950BE817F907BB
:1058600008F055C0F0933005E0932F05F9017183DE
:105870006083A0CF8D919C91119712966C90129796
:1058800013967C901397A815B90559F56C0142E061
:10589000C40ED11CCA14DB0420F1AC014A195B0907
:1058A000DA011296159780F06282738251834083E9
:1058B000D9016D937C93E114F10471F0D701139633
:1058C000FC93EE93129776CF22968C0F9D1FF901D1
:1058D00091838083F301EFCFF0933205E09331059C
:1058E00069CF4816590608F42C017D01D3019ACFDF
:1058F000CB010E94A82A7C01009749F0AE01B801B3
:105900000E94922CC8010E94442B870153CF10E0C3
:1059100000E050CF9111089581568A5108F48052C9
:1059200085580895FB01DC0102C001900D924150A1
:105930005040D8F70895FB01DC0101900D92002042
:10594000E1F70895AEE0B0E0E8EAFCE20C94E2286A
:105950000D891E8986E08C831A8309838FEF9FE768
:105960009E838D83AE01475E5F4F6F89788DCE0138
:1059700001960E94C52C2F813885020F131FF80154
:1059800010822E96E4E00C94FE28ABE0B0E0EBEC45
:10599000FCE20C94D4287C013B018A01FC011782B3
:1059A0001682838181FFC8C1CE0101965C01F70197
:1059B0009381F30193FD859193FF81913F018823AA
:1059C00009F453C1853239F493FD859193FF819198
:1059D0003F01853229F4B70190E00E94B52EE7CF50
:1059E000912C212C312CFFE1F31538F08B3211F181
:1059F00090F4803209F1833229F137FC3CC020ED6C
:105A0000280F2A3050F536FE20C08AE0989E200DDF
:105A10001124922E06C08D3291F0803371F7689474
:105A200030F8F30193FD859193FF81913F0181113E
:105A3000DACF21C0689431F8689432F8F2CF6894D4
:105A400033F8EFCF689434F8ECCFEAE02E9E200DC7
:105A50001124222E689435F8E4CF8E3229F436FCD6
:105A600004C1689436F8DDCF8C3619F4689437F8A1
:105A7000D8CF8836B1F2982F9F7D95549330E0F0BF
:105A80008336A1F18337C1F1833509F063C0280162
:105A9000F2E04F0E511CF801C080D180692D70E0FA
:105AA00036FC02C06FEF7FEFC6010E949F2E4C01B3
:105AB000689437F882010AC00C5F1F4FFFE3F98337
:105AC00088248394912C6501E89437F833FE2DC027
:105AD000522C8114910471F5552009F468CFB70157
