:100000000C9427040C944F040C944F040C944F044C
:100010000C944F040C944F040C944F040C946C19E2
:100020000C944F040C944F040C944F040C944F0404
:100030000C944F040C944F040C944F040C944F04F4
:100040000C94201A0C944F040C94EE190C94C819BB
:100050000C944F040C944F040C944F040C944F04D4
:100060000C946A1A0C944F0400407A10F35A00A0C2
:10007000724E18090010A5D4E80000E87648170071
:1000800000E40B54020000CA9A3B000000E1F505B1
:10009000000080969800000040420F000000A086FB
:1000A00001000000102700000000E803000000002D
:1000B0006400000000000A000000000001000000D1
:1000C00000002C76D888DC674F0823DFC1DFAE59EB
:1000D000E1B1B796E5E3E453C63AE651997696E87E
:1000E000E6C28426EB898C9B62ED407C6FFCEFBC02
:1000F0009C9F40F2BAA56FA5F490055A2AF75C932D
:100100006B6CF9676DC11BFCE0E40D47FEF520E662
:10011000B500D0ED902E0300943577050080841E45
:10012000080000204E0A000000C80C333333330FA0
:10013000986E12831141EF8D2114893BE65516CF3D
:10014000FEE6DB18D1844B381BF77C1D901DA4BB49
:10015000E424203284725E228100C9F124ECA1E5FE
:100160003D27200047697520537520204573632083
:100170004F6B20002D2D2D202D2D2D20457363201C
:10018000566169002D2D2D202D2D2D204E787420A7
:10019000566169002D2D2D202D2D2D2045736320B6
:1001A000566961002D2D2D202D2D2D204E6F2020E4
:1001B000536920002D2D2D20446570204E6F202086
:1001C000536920002D2D2D202D2D2D2045736320CA
:1001D000456E64002D2A2D202D2A2D202D2A2D201C
:1001E0002D2A2D00524546494C4C20204573632052
:1001F0005661690045736567756F3F202020202098
:10020000202020200052697065746F2050726F6347
:100210006573736F3F002020466174746F726520B0
:10022000466C6F77202000204E554F564F2050527D
:100230004F434553534F200020417474656E6465ED
:10024000726520707265676F002020202050524F29
:10025000434553534F2020202000202020494E5456
:100260004552524F54544F2020200050524F434586
:1002700053534F202046494E49544F002053434585
:100280004C544120464F524D41544F200020466F60
:10029000726D61746F202020202020202000424FAA
:1002A000545449474C494120202020202020004917
:1002B0004E495A49414C495A5A4F204441544900E9
:1002C000494E495A49414C495A5A415A494F4E455B
:1002D0000020202020434F4E434C555341202020E6
:1002E000200041747469766F20466173653A20205E
:1002F000202000204D656D6F72697A7A617A696F8E
:100300006E65200020202020436F6E636C75736142
:10031000202020200020204E6F6E2020416D6D6532
:1003200073736F2020004E756D65726F2043696393
:100330006C69202020200020546F676C6920426F78
:10034000747469676C6961005072656D692020750D
:100350006E2020746173746F002041747465736142
:100360002020526566696C6C2000203132350020F7
:100370003235300020333330002035303000203625
:1003800036300020373530003130303000313530F4
:10039000300000000000005072696E636970616C8B
:1003A000650000000000000050726F6772616D6DA3
:1003B000690000000000000000546F6F6C730000C3
:1003C00000000000000000000000436F6E666967D7
:1003D0007572617A696F6E6500000052696E6772AE
:1003E000617A69616D656E74690000004D616E75BA
:1003F000616C650000000000000000000054656DA5
:10040000706F72697A7A61746F0000000000546541
:100410006D706F202B204C6976656C6C6F0000410D
:1004200075746F6D617469636F00000000000000F7
:1004300050756C697A6961000000000000000000DE
:100440000046617369000000000000000000000029
:100450000000426F747469676C69650000000000F9
:1004600000000053656E732E5072657373696F6E72
:1004700065000000496E697A69616C697A7A617A0F
:10048000696F6E65004369636C69205075726765BA
:1004900000000000000056616375756D00000000EB
:1004A00000000000000000526566696C6C000000EE
:1004B000000000000000000056756F746F0000001F
:1004C0000000000000000000005361747572617A42
:1004D000696F6E650000000000005269656D70690B
:1004E0006D656E746F0000000000004465707265F9
:1004F0007373696F6E65000000000000506F7369D0
:10050000746976610000000000000000004E65671D
:1005100061746976610000000000000000004D6514
:10052000746F646F000000000000000000000054C1
:10053000656D706F20417474657361000000000088
:10054000442E2043616E746F6E690000000000004D
:100550000000006368657272797068696C69700088
:100560000000000000004D2E4E657669000000007E
:100570000000000000000000004D2E526F6D6974F5
:100580006900000000000000000000004D2E204720
:10059000656E74696C696E69000000000000004CB3
:1005A0002E2043617A7A616E69000000000000002D
:1005B00000004F2E4E617374726F00000000000047
:1005C0000000000000502E2050697261730000008E
:1005D0000000000000000000452E56696E63656E45
:1005E0007A690000000000000000004D2E204E65DA
:1005F0007669202020202020284954412900636862
:10060000657272797068696C69702028454E472957
:10061000004D2E204E65766920202020202028497C
:10062000544129004D2E204E65766920202020203F
:100630002028454E472900636865727279706869A1
:100640006C69702028454E472900436F6E636570C2
:100650007400000000000053747275637475726555
:1006600000000000504342000000000000000000B5
:1006700000536F6674776172650000000000416C82
:1006800070686120546573740000004265746120D5
:10069000205465737400000046696E616C205465D7
:1006A00073740000004C6F63616C697A6174696FE8
:1006B0006E004D616E75616C7300000000000033C8
:1006C000442052656E646572696E6700466F756E90
:1006D000646572205465616D0000000000240027ED
:1006E000002A00000000002300260029000000006E
:1006F00008000201000003040700000000000000E1
:1007000000726573737572650072642000507265C3
:100710006D69203E20202020204D454E550050720E
:10072000656D6920203E202020204D454E5500500B
:1007300072656D692020203E2020204D454E5500D9
:100740005072656D69202020203E20204D454E5579
:10075000005072656D6920202020203E204D454EBE
:1007600055004E657373756E6F0000000000536591
:1007700070617261746F00000000446973636F6E92
:1007800074696E756F00436F6E74696E756F0000EB
:1007900000004E6F200053692000202020202020E0
:1007A0002020202020200056554F544F202020206C
:1007B000202020005341545552415A494F4E452064
:1007C000005249454D50494D454E544F2000444537
:1007D0005052455353494F4E4520004A45545449C1
:1007E0004E4720202020200057415348494E4720A3
:1007F0002020202000434C45414E494E47202020D8
:1008000020004D414E550054494D4500464C4F5730
:10081000004155544F00010204081020408001029D
:100820000408102001020408102000000000250028
:1008300028002B000404040404040404020202023D
:1008400002020303030303030200891B9323112401
:100850001FBECFEFD8E0DEBFCDBF25E0A6E9B3E0F5
:1008600001C01D92A639B207E1F713E0A0E0B1E0A4
:10087000E4E7FBE502C005900D92A639B107D9F770
:1008800014E0C6E2D4E004C02197FE010E940C29C6
:10089000C532D107C9F70E94DC1B0C94AD2D0C9416
:1008A000000008950895AF92BF92CF92DF92EF9229
:1008B000FF920F931F93CF93DF936C017B018B010A
:1008C000040F151FEB015E01AE18BF08C017D1075A
:1008D00059F06991D601ED91FC910190F081E02DE4
:1008E000C6010995892B79F7C501DF91CF911F9139
:1008F0000F91FF90EF90DF90CF90BF90AF90089551
:10090000FC01448155816081718186E895E00C94F9
:100910005304FC01538D448D252F30E0842F90E04B
:10092000821B930B541710F0CF96089501970895EA
:10093000FC01918D828D981761F0A28DAE0FBF2FB3
:10094000B11D5D968C91928D9F5F9F73928F90E009
:1009500008958FEF9FEF0895FC01918D828D981778
:1009600031F0828DE80FF11D858D90E008958FEFB5
:100970009FEF0895FC01918D228D892F90E0805C7E
:100980009F4F821B91098F739927089581ED94E001
:100990000E94BA0421E0892B09F420E0822F0895F7
:1009A00080E090E0892B29F00E94C60481110C940C
:1009B00000000895FC01A48DA80FB92FB11DA35A02
:1009C000BF4F2C91848D90E001968F739927848F6F
:1009D000A689B7892C93A089B1898C918370806492
:1009E0008C93938D848D981306C00288F389E02D33
:1009F00080818F7D80830895EF92FF920F931F93E4
:100A0000CF93DF93EC0181E0888F9B8D8C8D9813C1
:100A10001AC0E889F989808185FF15C09FB7F894CD
:100A2000EE89FF896083E889F98980818370806419
:100A300080839FBF81E090E0DF91CF911F910F9164
:100A4000FF90EF900895F62E0B8D10E00F5F1F4F73
:100A50000F731127E02E8C8D8E110CC00FB607FC82
:100A6000FACFE889F989808185FFF5CFCE010E9410
:100A7000DA04F1CFEB8DEC0FFD2FF11DE35AFF4FA0
:100A8000F0829FB7F8940B8FEA89FB89808180629E
:100A9000CFCFCF93DF93EC01888D8823B9F0AA895B
:100AA000BB89E889F9898C9185FD03C0808186FD29
:100AB0000DC00FB607FCF7CF8C9185FFF2CF808178
:100AC00085FFEDCFCE010E94DA04E9CFDF91CF910F
:100AD0000895833081F028F4813099F08230A9F0B4
:100AE00008958730A9F08830C9F08430B1F480913E
:100AF00080008F7D03C0809180008F77809380007D
:100B0000089584B58F7784BD089584B58F7DFBCF1C
:100B10008091B0008F778093B00008958091B000ED
:100B20008F7DF9CFCF93DF93282F30E0F901E35188
:100B3000F94F8491F901EA5EF74FD491F901EC5C29
:100B4000F74FC491CC23A1F081110E946905EC2FCD
:100B5000F0E0EE0FFF1FED51F94FA591B491EC912C
:100B6000ED2381E090E009F480E0DF91CF910895DA
:100B700080E090E0FACF1F93CF93DF93282F30E0EF
:100B8000F901E351F94F8491F901EA5EF74FD491ED
:100B9000F901EC5CF74FC491CC23A9F0162F811119
:100BA0000E946905EC2FF0E0EE0FFF1FE65DF74FA6
:100BB000A591B4918FB7F894EC91111108C0D0951C
:100BC000DE23DC938FBFDF91CF911F910895DE2B41
:100BD000F8CF90914A0189130BC0E8E4F8E0E49162
:100BE0009FEF90934A01E13049F028F0E23061F044
:100BF00060E00C94BB0510926E00FACF90916F00EC
:100C00009D7F90936F00F4CF909170009D7F9093A3
:100C1000700091E09093B0009091B100987F946043
:100C20009093B1001092B300E3CFCF93DF9390E0A5
:100C3000FC01EA5EF74F24918C5C974FFC01849194
:100C40008823C9F090E0880F991FFC01E752F94F03
:100C5000A591B491FC01E65DF74FC591D491611166
:100C60000DC09FB7F8948C91209582238C93888136
:100C7000282328839FBFDF91CF910895623051F4DC
:100C80009FB7F8943C91822F809583238C93E881C1
:100C90002E2BEFCF8FB7F894EC912E2B2C938FBF88
:100CA000EACF4F925F926F927F928F929F92AF9214
:100CB000BF92CF92DF92EF92FF920F931F93CF9349
:100CC0008C014A015B0180914A018A3099F08F3F83
:100CD00009F455C0CF911F910F91FF90EF90DF90D5
:100CE000CF90BF90AF909F908F907F906F905F90CC
:100CF0004F900895E8E4F8E0C491C7FDEBCF61E0C0
:100D00008AE00E941506CC2319F0C23009F0E9C030
:100D10002801712C612C68E478EE81E090E0A30159
:100D200098010E94ED2869017A0181E0C81AD10872
:100D3000E108F108CC2309F40FC1C23009F08EC0DC
:100D40008FEFC816D104E104F10409F00CF4C7C018
:100D500064E274EF80E090E0A30198010E94ED2826
:100D600069017A0181E0C81AD108E108F10895E02B
:100D70008091B100887F892B8093B1008DC08AE07B
:100D800080934A01E8E4F8E0C491CF3F09F4A2CF90
:100D9000C13021F150F0C23009F43EC0C7FD9ACFF6
:100DA00061E08AE00E941506B0CF14BC15BC84B582
:100DB000826084BD85B5816085BDEEE3F8E0E49195
:100DC000F0E0EE0FFF1FE65DF74F85919491E0E2B2
:100DD000F8E0E491E093C404C0E091CF1092800069
:100DE00010928100809181008860809381008091C1
:100DF0008100816080938100EEE3F8E0E491F0E00F
:100E0000EE0FFF1FE65DF74F85919491E0E2F8E069
:100E1000E491E093C30473CF1092B0001092B1003C
:100E20008091B00082608093B0008091B1008160B9
:100E30008093B100EEE3F8E0E491F0E0EE0FFF1FE5
:100E4000E65DF74F859194919093C2048093C1041D
:100E5000E0E2F8E0E491E093C00451CF8FEFC816D0
:100E6000D104E104F104D9F1D4F162E17AE780E040
:100E700090E0A30192010E94ED2869017A0181E0CE
:100E8000C81AD108E108F108C11170C094E085B515
:100E9000887F892B85BDC0E0D801AA0FBB1FA501A3
:100EA00094010E94332728EE33E040E050E00E9496
:100EB000CB28C13079F1C23009F43EC0C1110ACF4C
:100EC000C7BC2093CD043093CE044093CF045093FD
:100ED000D00480916E00826080936E00FBCE94E01F
:100EE00047CF980150E040E060E072E18AE790E08F
:100EF0000E94ED2869017A0181E0C81AD108E10851
:100F0000F108C13049F680918100887F816080932B
:100F10008100C2CFD0928900C09288002093C9047A
:100F20003093CA044093CB045093CC0480916F005B
:100F3000826080936F00CECEC092B3002093C50430
:100F40003093C6044093C7045093C8048091700046
:100F5000826080937000BECE93E08FEFC816D104FC
:100F6000E104F10411F00CF080CF91CF96E000CFB6
:100F70003FB7F89480915A0490915B04A0915C046F
:100F8000B0915D0426B5A89B05C02F3F19F00196CE
:100F9000A11DB11D3FBFBA2FA92F982F8827BC01D3
:100FA000CD01620F711D811D911D42E0660F771FFB
:100FB000881F991F4A95D1F708958F929F92AF92FB
:100FC000BF92CF92DF92EF92FF926B017C010E9461
:100FD000B8074B015C01C114D104E104F104B9F07C
:100FE0000E94B807681979098A099B09683E73400D
:100FF0008105910580F321E0C21AD108E108F108CA
:1010000088EE880E83E0981EA11CB11CE4CFFF90EF
:10101000EF90DF90CF90BF90AF909F908F9008950A
:101020002FB7F8946091560470915704809158043A
:10103000909159042FBF089585ED8093BC00809155
:10104000BC0084FDFCCF10926404089520910E042E
:10105000260F3327331F21323105ECF4209164042D
:10106000FC0190E080E0243069F082E00895A091D6
:101070000E042191AC0142515C4FA40FB52FB11D5C
:101080002C930196861798F380910E04680F609355
:101090000E0480E0089581E008950895E0916804C9
:1010A00080916704E81730F4F0E0E253FC4F808150
:1010B00090E008958FEF9FEF0895909168048091DC
:1010C00067042FEF3FEF981748F4E92FF0E0E25361
:1010D000FC4F208130E09F5F90936804C901089520
:1010E0008091670490916804891B990B0895CF92B1
:1010F000DF92EF92FF920F931F93CF93DF937C01C8
:10110000CB018A012091CD03222389F0EB016B01F1
:10111000C40ED51ECC15DD0569F06991D701ED919E
:10112000FC910190F081E02DC7010995F3CF642F68
:101130000E942608C801DF91CF911F910F91FF9067
:10114000EF90DF90CF900895CF93DF931F92CDB7AC
:10115000DEB769832091CD032223F9F02091650445
:10116000203258F021E030E0FC013383228390E00C
:1011700080E00F90DF91CF91089580916604E82F71
:10118000F0E0E355FC4F998190838F5F8093660474
:101190008093650481E090E0ECCF61E0CE010196A0
:1011A0000E942608F7CFCF93FC01C48121E0209351
:1011B000CD03C093AC03109266041092650483853E
:1011C000682B8EE695E00E94A40890916504913208
:1011D00008F03FC0809164048111FCCF82E08093CD
:1011E000640481E0809363048FEF80933104109254
:1011F000530490935204ADEAB3E0E2E3F4E080E0FC
:1012000098132FC01092540480915404CC0FC82B13
:10121000C093540480916204813039F510926204C5
:10122000809154048093BB008091BC0083FDF8CF73
:1012300085EC8093BC00809164048230E1F380915E
:1012400031048F3F31F080913104803211F0809170
:10125000310410926604109265041092CD03CF9170
:1012600008952D9121938F5FCBCF85EEE2CF089526
:1012700090E080E00895CF93C4E060E08C2F0E945E
:10128000BB05CF5FCA30C9F7CF910895CF9383E0F4
:101290000E949205C1E0009709F4C0E0892B59F43F
:1012A0004EEE52E060E070E084EF91E00E94510663
:1012B0008C2FCF9108958AE00E94E905F9CFCF9253
:1012C000DF92EF92FF92CF93DF93EB0169017A01F6
:1012D000BC01990F880B990B0E94002660939F0414
:1012E0007093A0048093A1049093A204BE01DD0F2B
:1012F000880B990B0E94002660939B0470939C04BA
:1013000080939D0490939E04C0924601D092470121
:10131000E0924801F09249011092AB04DF91CF9125
:10132000FF90EF90DF90CF9008951092AD0410924F
:10133000A3041092A4041092A5041092A604109283
:10134000AB041092AC0408954F925F926F927F921B
:101350008F929F92AF92BF92CF92DF92EF92FF92C5
:101360000F931F93CF93DF93782E09E911E0CAE919
:10137000D3E0F12CE12C812C912C54018394CC24CA
:10138000C394D12C4E2CF80151908F01852D0E94D1
:1013900092056090AB04892B09F059C00E94100897
:1013A0006093A7047093A8048093A9049093AA045F
:1013B00088819981009709F416C1019699838883E1
:1013C00061100AC00E9410086093960370939703FF
:1013D000809398039093990388819981892B71F464
:1013E000D501C40104C0880F991FAA1FBB1F4A94CE
:1013F000D2F786298093AB04D982C882F1E07F12AC
:1014000036C0852D0E949205892BD9F30E941008C1
:101410002091960330919703CB01821B930B68EECA
:1014200073E00E94A328C1E0C60F8C2FDF91CF91FB
:101430001F910F91FF90EF90DF90CF90BF90AF90F2
:101440009F908F907F906F905F904F90089519823A
:101450001882D501C4010E2C04C0880F991FAA1F41
:10146000BB1F0A94D2F7809586218093AB048FEF3F
:10147000E81AF80A2296E4E0EE16F10409F082CFA9
:10148000C091AB04F2E07F129EC08FEF8C0F8230D0
:1014900008F099C00E9410080091960310919703DC
:1014A0002091980330919903601B710B820B930B71
:1014B00028EE33E040E050E00E94CB284901C09084
:1014C0009B04D0909C04E0909D04F0909E04229F89
:1014D0008001239F100D100D112420E030E543EC16
:1014E00056E4C701B6010E94F92587FF48C0B8013C
:1014F00090E080E00E94FE2520E030E040E250E4F1
:101500000E94F1270E9463286F5F7F4F072E000C17
:10151000880B990B0E9400262091460130914701CB
:1015200040914801509149010E945F268090A30498
:101530009090A404A090A504B090A604C13039F501
:101540009B01AC01C501B4010E9484276B017C01A1
:1015500080909F049090A004A090A104B090A20459
:10156000A50194010E94F92587FF1FC08092A30462
:101570009092A404A092A504B092A6041EC0089D57
:10158000B001099D700D189D700D1124BDCFA501EE
:1015900094010E9485274B015C01AC019B01C701AE
:1015A000B6010E94F92587FFE1CFC092A304D09233
:1015B000A404E092A504F092A60461E470E080E047
:1015C00090E00E94DD0761E470E080E090E00E941E
:1015D000DD07CC2309F429CF6CE370E080E090E0D4
:1015E0000E94DD0722CF6110FBCEECCE0F931F933C
:1015F000CF938C01C62F0E94D3086C2F6460C80162
:101600000E94D3086C2F6B7FC8010E94D30883EC23
:1016100090E00197F1F7CF911F910F9108950F93EB
:101620001F93CF93DF938C01D62FC42F607F642B41
:101630000E94F60A80E1D89FB00111246C2BC801EA
:10164000DF91CF911F910F910C94F60ACF93DF9306
:10165000CDB7DEB728970FB6F894DEBF0FBECDBF6B
:1016600098E0E1E5F1E0DE01119601900D929A9586
:10167000E1F790918E05961710F46FEF690F262F02
:1016800030E0220F331F41E050E04C0F5D1F240F6C
:10169000351FF9016081680F606840E086E895E0D9
:1016A00028960FB6F894DEBF0FBECDBFDF91CF9165
:1016B0000C940F0B41E00E940F0B81E090E0089525
:1016C000CF93C82F862F642F0E94260B6C2F86E89D
:1016D00095E0CF910C945A0B0F931F93CF93DF9308
:1016E0008C01D0E0C0E0F801EC0FFD1F649166238F
:1016F00039F041E086E895E00E940F0B2196F3CF88
:10170000CE01DF91CF911F910F910895CF93DF9379
:10171000D82F862F642F0E94260BC0E0CD1731F002
:1017200082E691E00E946C0BCF5FF8CFDF91CF9102
:1017300008950F931F93CF93DF930E94F12720E02A
:1017400030E040E252E40E945F260E946328CB0111
:1017500065E070E00E94B728C62FD82F011110C095
:10176000D5E0D81BC7E0C61BD53019F4C8E0C61BAE
:10177000D0E042E068E06C0F88E08C1B0E94860B92
:10178000CC2351F010E067E0610F42E086E00E9458
:10179000600B1F5FC113F7CFDD2359F067E06C0FBB
:1017A00042E081E08D0FDF91CF911F910F910C945A
:1017B000600BDF91CF911F910F9108958F929F92AF
:1017C000AF92BF92EF92FF920F93CF93DF9385304A
:1017D00090F57B01C0916A048150990B24E0C29F6F
:1017E000E0011124C559DB4FC80FD91F688170E093
:1017F00090E080E00E94FE254B015C01B7010F2CB8
:10180000000C880B990B0E94002601E0A5019401B1
:101810000E94990B988181E09E151F0409F00CF439
:1018200080E0DF91CF910F91FF90EF90BF90AF904C
:101830009F908F90089581E0F4CF41E061E083E1D3
:101840000E94860B42E061E083E10E94860B43E048
:1018500061E083E10C94860B482F60E084E10C94F6
:10186000860B82E00E942C0C6091AD0470E090E049
:1018700080E00E94FE256093A3047093A4048093EB
:10188000A5049093A6040E9410086093A704709387
:10189000A8048093A9049093AA04089582E00E946A
:1018A0002C0C83E00C942C0C0F931F93CF93DF939D
:1018B0008B0198E0899FB0011124606440E086E8C4
:1018C00095E00E940F0BE801085F1F4F699186E8C1
:1018D00095E00E945A0BC017D107C1F7DF91CF9155
:1018E0001F910F9108951F93CF93DF93CDB7DEB76C
:1018F00028970FB6F894DEBF0FBECDBF182F88E033
:10190000E9E5F1E0DE01119601900D928A95E1F78B
:10191000BE016F5F7F4F87E00E94540C60E0812F13
:101920000E94260B67E086E895E00E945A0B2896F5
:101930000FB6F894DEBF0FBECDBFDF91CF911F91E0
:10194000089540E061E086E895E00E940F0B8BE38C
:101950009FE10197F1F7089591E1899FB00111246A
:1019600069567C4F42E150E08EEA94E00C94B92332
:10197000EF92FF920F931F93CF93DF938B010C5F36
:101980001F4FEB017C01E61AF70AC7018C0F9D1F60
:101990000E941D278993C017D107B9F784E090E012
:1019A000DF91CF911F910F91FF90EF9008950F93CA
:1019B0001F93CF93DF9303E914E0C8E2D0E0CE0198
:1019C0000E941D27F80181938F012196C033D10514
:1019D000B1F788E090E0DF91CF911F910F910895CA
:1019E000EF92FF920F931F93CF93DF937C018B01B4
:1019F000D0E0C0E0F80161918F01C7018C0F9D1FFD
:101A00000E9425272196C430D105A1F784E090E0FB
:101A1000DF91CF911F910F91FF90EF9008950F9359
:101A20001F93CF93DF9303E914E0C8E2D0E0F801FD
:101A300061918F01CE010E9425272196C033D105E7
:101A4000B1F788E090E0DF91CF911F910F91089559
:101A50000F931F93CF93DF930CE814E0C2E3D0E021
:101A6000F80161918F01CE010E9425272196C9338B
:101A7000D105B1F787E090E0DF91CF911F910F91F1
:101A80000895FB0101900020E9F73197AF01461B53
:101A9000570BDC01ED91FC910280F381E02D09945C
:101AA0008F929F92AF92BF92EF92FF920F931F93EC
:101AB000CF93DF93CDB7DEB7A1970FB6F894DEBF13
:101AC0000FBECDBF7C01FA01CB0119A2223008F470
:101AD0002AE08E010F5D1F4F822E912CB12CA12C7C
:101AE000BF01A50194010E94CB28F901CA016A3007
:101AF0000CF5605DD8016E938D01232B242B252BD3
:101B000079F790E080E0109721F0BD01C7010E94B5
:101B1000410DA1960FB6F894DEBF0FBECDBFDF9189
:101B2000CF911F910F91FF90EF90BF90AF909F903A
:101B30008F900895695CDECFCF92DF92EF92FF9293
:101B40006C01990FEE08FF08F7FE18C041E06DE246
:101B500086E895E00E940F0B44275527BA014C19DF
:101B60005D096E097F092AE086E895E00E94500D24
:101B70000196FF90EF90DF90CF9008952AE0B70193
:101B8000A60186E895E0FF90EF90DF90CF900C944F
:101B9000500D4F925F926F927F928F929F92AF9271
:101BA000BF92CF92DF92EF92FF920F931F93CF934A
:101BB0006B017C01742EAC019B010E949E2863EB9B
:101BC00072E0811126C046015701E894B7F82FEF63
:101BD0003FEF4FE75FE7C501B4010E949E288111E6
:101BE0000CC02FEF3FEF4FE75FE7C501B4010E9444
:101BF000F92567EB72E0181664F02FEF3FEF4FE71F
:101C00005FE4C701B6010E9499281816ACF46BEB8B
:101C100072E086E895E0CF911F910F91FF90EF90D1
:101C2000DF90CF90BF90AF909F908F907F906F90FC
:101C30005F904F900C94410D2FEF3FEF4FE75FEC1B
:101C4000C701B6010E94F92587FDE1CF20E030E011
:101C5000A901C701B6010E94F92510E000E087FF45
:101C60000CC041E06DE286E895E00E940F0BF7FAA8
:101C7000F094F7F8F09401E010E0C0E060E070E06C
:101C800080E09FE37C1641F020E030E040E251E448
:101C90000E94F127CF5FF6CFA70196010E9485270A
:101CA0004B015C010E946A282B013C012AE0BC0127
:101CB000A20186E895E00E94500D080F191FCC2361
:101CC000D9F1C301B2010E94FE259B01AC01C501FF
:101CD000B4010E9484274B015C0141E06EE286E87A
:101CE00095E00E940F0B0F5F1F4FC15028F120E0BD
:101CF00030E040E251E4C501B4010E945F262B01AF
:101D00003C010E946A284B01B12CA12C2AE0B501AC
:101D1000A40186E895E00E94500D080F191FC50127
:101D2000B4010E94FE259B01AC01C301B2010E94D7
:101D300084274B015C01D9CFC801CF911F910F912E
:101D4000FF90EF90DF90CF90BF90AF909F908F90DB
:101D50007F906F905F904F9008950C94410DCF93BA
:101D6000DF93EC01862F642F0E94260BBE0186E8CC
:101D700095E0DF91CF910C94AD0ECF93C82F42E048
:101D800066E08AE00E94860B8DE0C89FB0011124B6
:101D90006656784F42E150E08EEA94E00E94B92303
:101DA00041E062E08EEA94E0CF910C94AF0EFF9296
:101DB0000F931F93CF93DF9300D000D000D0CDB707
:101DC000DEB7F42E1A821982FE01339624E0DF0179
:101DD0001D922A95E9F72CE330E040E050E00E94A4
:101DE000CB289F938F937F936F933F932F938FEB8A
:101DF00092E09F938F938E010F5F1F4F1F930F935E
:101E00000E940C2B42E06F2DC8010E94AF0E0FB64E
:101E1000F894DEBF0FBECDBF26960FB6F894DEBF96
:101E20000FBECDBFDF91CF911F910F91FF9008950D
:101E300040E062E08AE391E00E94AF0E40E06DE096
:101E400083E391E00E94AF0E83E10C94730C4F92F8
:101E50005F926F927F928F929F92AF92BF92DF922A
:101E6000EF92FF920F931F93CF93DF93D82E0E9490
:101E70003B0942E066E08AE00E94860B41E062E0B6
:101E800088EC92E00E94AF0E0E9410087B0161E096
:101E900086E00E94BB05D0E0C0E088EE882E83E09B
:101EA000982EA12CB12C0E9410088B010E191F092D
:101EB0000E9410084090A7035090A8036090A903C7
:101EC0007090AA036419750986099709A501940100
:101ED0000E94CB28B901330F880B990B4FE00E9469
:101EE000D70EDD2081F043E065E0C130D105F1F48B
:101EF00083ED92E00E94AF0E6EE571E080E090E02D
:101F00000E94DD072196003D174068F2DF91CF91D6
:101F10001F910F91FF90EF90DF90BF90AF909F9037
:101F20008F907F906F905F904F90089580EE92E039
:101F30000E94AF0ED0E0C0E0DFCFCF92DF92EF92F1
:101F4000FF920F931F93CF93DF93D82E61110E94BE
:101F5000BD0E80918E0441E061E081113BC081E0C3
:101F6000D81238C08DEE92E00E94AF0EC6E0DC9E23
:101F700080011124F12CE12CE80182E1C82E84E0DB
:101F80008E0D92E09D1548F190918E04911125C01F
:101F900020918F042150330BC29EF001C39EF00D9F
:101FA0001124EC0FFD1FE554FE4FEE0DFF1D608167
:101FB0000E94BB058FEFE81AF80A96E0E916F104D3
:101FC000F1F6DF91CF911F910F91FF90EF90DF908D
:101FD000CF9008958BEE92E0C7CFF801EE0DFF1D74
:101FE000E356FE4FE4CF0E94AC0C83E00E942C0C21
:101FF00043E061E08EEA94E00C94AF0ECF93DF9360
:10200000C82FD62F60916A0485E0689FB001112423
:1020100066597C4F42E150E08EEA94E00E94B92379
:102020004D2F6C2F8EEA94E00E94AF0E6FEE72E09F
:1020300086E895E0DF91CF910C94AD0ECF93DF93BE
:10204000C82FD42F8230B9F0833011F181E1689F1D
:10205000B0011124675B7D4F42E150E08EEA94E0CD
:102060000E94B923C2E04D2F6C2F8EEA94E0DF91DD
:10207000CF910C94AF0E81E1689FB00111246C5098
:102080007E4F42E150E08EEA94E00E94B923EBCF0C
:1020900080E1689FB00111246C597E4FF2CF42E07D
:1020A0006CE081E00E941E106CED75E080E090E035
:1020B0000E94DD0782E00C942C0C0E941D0C86E02F
:1020C0000E94BD0E43E064E082E00E941E1060E0CA
:1020D00081E00E949D0F68E873E180E090E00E943B
:1020E000DD0743E061E083E00C941E10CF93DF93A3
:1020F0000E943B090E941D0C86E00E94BD0E43E039
:1021000064E082E00E941E108091A603882319F1EA
:102110008091AB03CCE3D0E0882351F0E0916A04D6
:1021200084E0E89FF0011124E559FB4FC381D0E022
:1021300061E084E00E949D0F88EE93E0C89FB001AB
:10214000C99F700DD89F700D112490E080E00E940F
:10215000DD070E943B0980918C04813011F40E94BC
:102160005D100E943B091092A603DF91CF910C9461
:102170001D0C60916A0470E090E080E00E94FE25F2
:102180006093A3047093A4048093A5049093A60481
:1021900041E063E081E00E941E1043E060E083E0E4
:1021A0000E941E1020E030E040E85FE367E070E04E
:1021B00090E080E00E945F096091A3047091A40404
:1021C0008091A5049091A6040E946A2860936A04F5
:1021D00062E087E00E94FE0F82E00E94A4098091E5
:1021E000AB04882349F38830B9F480916A0490E005
:1021F000BC01660F771F660F771F65597B4F880FED
:10220000991FFC01E950FE4F808191810E94B80C1A
:1022100081E080938B040895843071F642E062E09F
:1022200082E10E94860B80E00895CF92DF92EF92C8
:10223000FF920F931F93CF931092AB030E94A10CB8
:102240000E94180F87E00E94BD0E43E061E083E02A
:102250000E941E100E943B0980E00E94A409809108
:10226000AB048823C9F362EF72E081ED94E00E9431
:10227000AD0E4091AB0450E070E060E02AE081EDEB
:1022800094E00E94500D62E173E081ED94E00E94C1
:10229000410D8091AB048150823010F41092AB0458
:1022A0008091AB04843009F490C08830A9F665E1D0
:1022B00073E081ED94E00E94410D62E173E081EDF5
:1022C00094E00E94410D01EF11E0C4E0F80161913A
:1022D0008F018C2F0E94BB0580918E04813021F4E8
:1022E00061E084E00E94BB05CF5FC93079F70E94AE
:1022F00010086093A7037093A8038093A903909399
:10230000AA0388EEC82E83E0D82EE12CF12C43E0FE
:1023100066E083E00E941E100E9410080091A7034F
:102320001091A8032091A9033091AA03601B710B9F
:10233000820B930BA70196010E94CB28B901330FA2
:10234000880B990B4FE00E94D70E1092AB0480E0EF
:102350000E94A4098091AB048823C9F268E273E06B
:1023600081ED94E00E94AD0E4091AB0450E070E02E
:1023700060E02AE081ED94E00E94500D62E173E09C
:1023800081ED94E00E94410D8091AB048150823038
:1023900010F41092AB048091AB04843009F18830C2
:1023A00009F0B5CF0E943B09C0E01092AB0442E0B7
:1023B00060E184E00E94860B43E061E083E00E94DC
:1023C0001E10C11102C00E9415110E943B09CF913D
:1023D0001F910F91FF90EF90DF90CF900C94950993
:1023E000C1E0E3CFBF92CF92DF92EF92FF920F93C3
:1023F0001F93CF93DF93B82E6A01EA010990002062
:10240000E9F721977E01E41AF50A262F30E08901C9
:102410000E19110917FF02C00F5F1F4F1595079581
:102420001E2D1170100FC4E1D0E0C21BD30BD59547
:10243000C7954B2D6C2F802F0E94860BB60186E826
:1024400095E00E94AD0E6C2F6E0D600F4B2D812F0D
:10245000DF91CF911F910F91FF90EF90DF90CF9080
:10246000BF900C94860B40E062E08AE391E00E940A
:10247000AF0E81E10E94730C41E064E088E493E0D8
:102480000E94AF0E63E371E086E895E00E94AD0E16
:1024900040E051E064E182E00C94F2111F93CF938D
:1024A000DF93182FEA01882399F023E1629FC0018E
:1024B0001124123049F1133059F1BC016F5E794F8C
:1024C00042E150E08EEA94E00E94B92313E00DC08F
:1024D0008DE0689FB0011124665B794F42E150E0C6
:1024E0008EEA94E00E94B92312E04EEA54E064E1DF
:1024F000812F0E94F211BE01DD0F880B990BDF9135
:10250000CF911F910C94DD07BC0165517A4FD8CF54
:10251000BC01605C7A4F42E150E08EEA94E00E9498
:10252000B923E3CFCF930E944E0C42E150E063EF1A
:1025300072E08EEA94E00E94B9234EEA54E064E12E
:1025400082E00E94F211C3E043E06C2F8CED92E038
:102550000E94AF0E6EE571E080E090E00E94DD0722
:10256000CD5FC23189F742E150E064E073E08EEA6A
:1025700094E00E94B9234EEA54E064E183E00E94B3
:10258000F21166E475E080E090E0CF910C94DD07F5
:102590004F925F926F927F928F929F92AF92BF9273
:1025A000CF92DF92EF92FF920F931F93CF93DF931F
:1025B000CDB7DEB7982E862EE42EADB6BEB6F82E79
:1025C000F60E4090A3045090A4046090A50470906F
:1025D000A60420E030E0A901C301B2010E94F92560
:1025E00087FD57C0F3948DB79EB78F1991090FB629
:1025F000F8949EBF0FBE8DBFEDB7FEB731966F0149
:1026000064E173E0CF010E94052BF60101900020E8
:10261000E9F78F0101501109282D492DC301B2019D
:102620000E949B23F60101900020E9F73197EC19F5
:10263000FD09FE1A20E030E0A9016091A304709129
:10264000A4048091A5049091A6040E94992887FF74
:10265000F39442E06E2D8F2D0E94860BB60186E822
:1026600095E00E94AD0E0FB6F894BEBE0FBEADBE93
:10267000DF91CF911F910F91FF90EF90DF90CF905E
:10268000BF90AF909F908F907F906F905F904F9092
:102690000895F394F394A7CFCF93DF93EC0188814F
:1026A0009981009711F00E94AE29198218821D822B
:1026B0001C821B821A82DF91CF910895EF92FF92C4
:1026C0000F931F93CF93DF93EC017B018A018881E5
:1026D0009981009729F02A813B812417350788F4D6
:1026E000B8016F5F7F4F0E94372A0097C9F0998326
:1026F00088831B830A832C813D81232B11F4FC01E9
:1027000010821D830C83B701888199810E94052B5B
:10271000CE01DF91CF911F910F91FF90EF9008951F
:10272000CE010E944C13F4CFFB0101900020E9F789
:102730003197AF01461B570B0C945E13CF93DF9379
:10274000EC01FB018617970749F0608171816115E3
:10275000710541F0448155810E945E13CE01DF91E5
:10276000CF9108950E944C13F9CFFC011182108281
:102770001382128215821482FB0101900020E9F776
:102780003197AF01461B570B0C945E13FC018081FF
:102790009181009711F00C94AE290895AF92BF92E9
:1027A000CF92DF92EF92FF920F931F93CF93DF931D
:1027B000CDB7DEB72C970FB6F894DEBF0FBECDBFF6
:1027C00095E0899FB00111246E5F774F42E150E0A0
:1027D0008EEA94E00E94B9236EEA74E0CE01079677
:1027E0000E94B51310E000E0602F80E00E94260BED
:1027F0006801EFEFCE1ADE0A5601C016D10610F4BA
:102800005801860164E173E0CE0101960E94B51380
:10281000EB84FC840E151F05D8F4AE14BF0408F435
:102820007501EF81F885EE0DFF1DB08010826F817C
:102830007885600F711FCE0101966115710551F108
:102840000E9494138F819885E80EF91EF701B082DB
:10285000CE0101960E948004CE0101960E94C6130B
:1028600086010430110509F0BFCFCE0107960E9402
:10287000C6132C960FB6F894DEBF0FBECDBFDF9106
:10288000CF911F910F91FF90EF90DF90CF90BF906D
:10289000AF9008950E944C13D5CF2F923F924F9244
:1028A0005F926F927F928F929F92AF92BF92CF92E0
:1028B000DF92EF92FF920F931F93CF93DF9300D09D
:1028C00000D000D0CDB7DEB7182F1092A6032BEFA3
:1028D000280F29832093AB030E94A10C0E94180F9C
:1028E00089810E94CE1380E00E94BD0E8091AB03CF
:1028F000882391F080918B0481110EC00E94B91041
:10290000882309F42EC141E062E082E10E94860B37
:1029100061E08EE00E94FE0F43E063E083E00E94EE
:102920001E1081E090E020918E04222311F090E0AF
:1029300080E0EE24FF24E81AF90A61E080E00E94BA
:102940009D0F42E063E082E00E941E1000E031E053
:102950003E831D8294EF292E332433940E94100865
:102960002B013C018091A7039091A803A091A9039A
:10297000B091AA0389839A83AB83BC830E94100819
:102980008090A2039090A303A090A403B090A5030D
:10299000681979098A099B0928EE33E040E050E084
:1029A0000E94CB2849015A018091AB03882389F00A
:1029B0009D81973089F0C90165E070E00E94A328ED
:1029C000039718F4AD81A33020F061E08EE00E94FF
:1029D000FE0FBD81B11103C0BB24B39438C02D815B
:1029E0002730D0F7C301B20129813A814B815C8144
:1029F000621B730B840B950B28EE33E040E050E034
:102A00000E94CB28CA01B901882799274FE00E946C
:102A1000D70E3D81353000F741E0C501B40188276C
:102A200099270E94D70E8091AB03823051F08330FA
:102A300009F48AC0813081F6B4018D810E94DE0BD9
:102A400005C04D814330C1F70E944609B82E81E090
:102A50000E94A4098091AB0481117DC0B1107ECF8A
:102A600080918E04811104C0011102C081E08D8328
:102A700043E061E083E00E941E109E81992351F0A3
:102A800041E06EE08FE493E00E94AF0EC701019633
:102A90000E949C0D01110AC00E9410086093A703B8
:102AA0007093A8038093A9039093AA03AD81A130EA
:102AB00051F480918D048150990BE816F9061CF4AD
:102AC00080E00E94270F81E08093A603BD81BF5F55
:102AD000BD830E9410086093A2037093A3038093A8
:102AE000A4039093A50342E067E088E00E94860B70
:102AF0002E81222309F462C080918D0490E0E816B3
:102B0000F9060CF059C03D81333009F052C057012D
:102B10004FEFA41AB40A41E06EE0A816B906DCF142
:102B200086E00E94860B75011E8280918E048111C1
:102B300045C080918F04833009F040C0AD81A13041
:102B4000E9F532E03D83B4C05D81533009F47CCFB8
:102B5000B401852F73CF843021F0883009F480CF01
:102B6000FDCE26960FB6F894DEBF0FBECDBFDF9127
:102B7000CF911F910F91FF90EF90DF90CF90BF907A
:102B8000AF909F908F907F906F905F904F903F900D
:102B90002F900C9476108FE493E00E94AF0EC70143
:102BA00002960E949C0D750151E05E8381E08D8349
:102BB000BCCF91E09E83B9CFB1E0BE832D8124309C
:102BC00009F076C00E943B090E941D0C0E9410086B
:102BD0002B0180919004882309F459C0A09091049E
:102BE000B0909204812CC601B1010E94B7288616CC
:102BF00017064CF446E950E060E070E084EF91E0A5
:102C00000E945106839441E060E181E00E941E1021
:102C100043E068E083E00E941E101092AB0480E065
:102C20000E94A4098091AB04882341F0843009F408
:102C300098CF38F48150823008F457C09924939487
:102C400003C0912C8830D1F70E9410086B01C41882
:102C5000D508CA14DB04DCF4B5010B2C000C880B7E
:102C6000990B0E94002669837A838B839C83B6012B
:102C70000D2C000C880B990B0E94002600E0298186
:102C80003A814B815C810E94990B9110ACCF0E94DC
:102C90001D0C81E00E94270F0E943B090E94100832
:102CA0006093A2037093A3038093A4039093A5035E
:102CB00043E061E083E00E941E104D81453098F5AD
:102CC00080918E0481112CC080918F04833041F556
:102CD00080918D048150990B8E159F0509F561E057
:102CE00081E00E949D0F01E039CE0E941D0C61E041
:102CF00083E00E949D0F8EE00E949205892BD9F3FC
:102D00008FE00E949205892BB1F30E943B090E943B
:102D100010082B01812C8CEAA82E8DE0B82E8ECFC6
:102D200061E08D81DECF0E943B095091AB03598356
:102D30000E94A10C0E94180F89810E94CE130E944C
:102D40001008C090A703D090A803E090A903F090CA
:102D5000AA036C197D098E099F0928EE33E040E033
:102D600050E00E94CB28B901330F880B990B4FE03C
:102D70000E94D70E0E941D0C41E062E081E00E949B
:102D80001E1042E061E082E00E941E1043E065E018
:102D900083E00E941E1083E089834BEB50E060E0EB
:102DA00070E087E891E00E94510668EC70E080E0F6
:102DB00090E00E94DD079981915099839111EDCFA8
:102DC0004AEF50E060E070E086E291E00E94510638
:102DD00041E062E081E00E941E1042E061E082E09A
:102DE0000E941E1043E065E083E00E941E1080E018
:102DF0000E94A4098091AB04882351F38430C1F070
:102E00008830D1F1823021F70E941D0C84E00E94AD
:102E1000BD0E8FE00E949205892B29F461E088E0C5
:102E20000E94BB05F6CF0E943B090E941D0CD0CF2B
:102E300080918C04813011F40E945D100E943B0946
:102E400010928B0426960FB6F894DEBF0FBECDBF4E
:102E5000DF91CF911F910F91FF90EF90DF90CF9076
:102E6000BF90AF909F908F907F906F905F904F90AA
:102E70003F902F900C9495098091AB03882339F0F3
:102E800081E00E94A409833010F010928B04812FFE
:102E90000E944D14D5CFFF920F931F93CF93DF93D2
:102EA000CDB7DEB72C970FB6F894DEBF0FBECDBFFF
:102EB0000E94AC0C6EEA74E0CE0107960E94B51336
:102EC0000F8118850115110571F0F80181918F01AD
:102ED000882349F0082E000C990B0E94F42AF8016F
:102EE00031978083F2CF1A8219821C821B821E8244
:102EF0001D82BE01695F7F4FCE0101960E949E1325
:102F0000FD8084E190E08F19910997FD01968C0175
:102F1000159507951F2D1170100F41E060E0802F6F
:102F20000E94860BCE0101960E948004602F6F0DD7
:102F300041E0812F0E94860BCE0101960E94C613AC
:102F40001A8219821C821B821E821D82BE01695F49
:102F50007F4FCE0101960E949E13CE0101960E94E2
:102F6000C613CE0107960E94C6132C960FB6F8948E
:102F7000DEBF0FBECDBFDF91CF911F910F91FF90AC
:102F80000895CF93DF93CDB7DEB762970FB6F8946D
:102F9000DEBF0FBECDBF0E944B171A8219821C8262
:102FA0001B821E821D826AE775E0CE0101960E9497
:102FB0009E1318861F821A8619861C861B8660E857
:102FC00075E0CE0107960E949E136EEA74E0CE0172
:102FD0000D960E94B513CE010D960E94C613CE0128
:102FE00007960E94C613CE0101960E94C6136296F0
:102FF0000FB6F894DEBF0FBECDBFDF91CF9108951D
:10300000CF92DF92EF92FF92CF93DF93E091AD04E6
:1030100024E0E29FF0011124E95DFD4F82810E94CE
:10302000C11781E08093AC048091AC04882309F43B
:1030300047C163E081E00E94260B20E030E040E8D9
:103040005FE36091A3047091A4048091A504909122
:10305000A6040E94842720919F043091A0044091EF
:10306000A1045091A2040E94F92565E573E087FD53
:1030700002C067E573E080E895E00E94941380E861
:1030800095E00E9480046091A3047091A404809153
:10309000A5049091A6040E946328862F0E94AC0C80
:1030A0004EEA54E060E183E00E94F21163E082E1C5
:1030B0000E94260B20E030E040E85FE36091A3042B
:1030C0007091A4048091A5049091A6040E94852784
:1030D00020919B0430919C0440919D0450919E044A
:1030E0000E94992865E573E0181614F069E573E00D
:1030F0008AE795E00E9494138AE795E00E94800495
:10310000C091AD0484E0C89FE0011124C95DDD4F8A
:10311000688170E090E080E00E94FE2560939F044B
:103120007093A0048093A1049093A204698170E03D
:1031300090E080E00E94FE2560939B0470939C04C5
:1031400080939D0490939E0480E090E0A0E8BFE30C
:103150008093460190934701A0934801B0934901A1
:103160001092AB0482E00E94A4090E941008C09053
:10317000A704D090A804E090A904F090AA046C19C8
:103180007D098E099F09693873418105910510F009
:103190000E9495098091AB04882309F445CF8430BF
:1031A00039F1883009F040CFC090A304D090A40436
:1031B000E090A504F090A604C701B6010E94632820
:1031C000E091AD0424E0E29FF0011124E95DFD4FA0
:1031D000238126171706B9F5C701B6010E946A2890
:1031E000862FDF91CF91FF90EF90DF90CF900895E1
:1031F000E091AD0424E0E29FF0011124E95DFD4F70
:10320000C281C093AD046C2F70E090E080E00E941A
:10321000FE256093A3047093A4048093A504909367
:10322000A604C11103C00E949509FECE82E00E944F
:103230002C0C84E0C89FF0011124E95DFD4F8281D0
:103240000E94C117F1CE660F771F660F771F695D69
:103250007D4FFB01C381C093AD046C2F70E090E003
:1032600080E00E94FE256093A3047093A4048093E1
:10327000A5049093A6048C2F90E0EC01CC0FDD1FE9
:10328000CC0FDD1FFE01E95DFD4F60816817190657
:1032900099F094F021812817190671F06CF070E014
:1032A00090E080E00E94FE256093A3047093A40444
:1032B0008093A5049093A604C95DDD4F8A81C0CF99
:1032C00090CF8091AD040E94C1170E944E0C43E044
:1032D00060E083E00C941E101F920F920FB60F92C5
:1032E00011242F933F934F935F936F937F938F930B
:1032F0009F93AF93BF93EF93FF938091C5049091F9
:10330000C604A091C704B091C804892B8A2B8B2BCB
:10331000D1F19091C004E091C104F091C204808188
:10332000892780838091C5049091C604A091C70429
:10333000B091C804181619061A061B069CF4809151
:10334000C5049091C604A091C704B091C804019728
:10335000A109B1098093C5049093C604A093C70442
:10336000B093C804FF91EF91BF91AF919F918F915E
:103370007F916F915F914F913F912F910F900FBE71
:103380000F901F90189580914A010E94E905EACF9D
:103390001F920F920FB60F9211242F933F934F93CA
:1033A0005F936F937F938F939F93AF93BF93EF93AD
:1033B000FF9381ED94E00E94DA04FF91EF91BF91B9
:1033C000AF919F918F917F916F915F914F913F91BD
:1033D0002F910F900FBE0F901F9018951F920F9274
:1033E0000FB60F9211242F938F939F93EF93FF9318
:1033F000E091E104F091E2048081E091E704F09132
:10340000E80482FD1BC090818091EA048F5F8F7376
:103410002091EB04821741F0E091EA04F0E0EF52D2
:10342000FB4F958F8093EA04FF91EF919F918F91CD
:103430002F910F900FBE0F901F9018958081F4CFA1
:103440001F920F920FB60F9211242F933F938F93D9
:103450009F93AF93BF938091560490915704A0918E
:103460005804B09159043091550423E0230F2D37AF
:1034700058F50196A11DB11D209355048093560463
:1034800090935704A0935804B093590480915A0420
:1034900090915B04A0915C04B0915D040196A11D24
:1034A000B11D80935A0490935B04A0935C04B09385
:1034B0005D04BF91AF919F918F913F912F910F909C
:1034C0000FBE0F901F90189526E8230F0296A11D9E
:1034D000B11DD2CF1F920F920FB60F9211242F93CE
:1034E0003F934F935F936F937F938F939F93AF938C
:1034F000BF93EF93FF938091B900887F803609F4E2
:103500004AC0F0F5883209F4A7C018F5803109F4F3
:103510009BC0B8F4882309F4F9C0883009F494C03A
:10352000FF91EF91BF91AF919F918F917F916F919B
:103530005F914F913F912F910F900FBE0F901F9071
:103540001895883109F488C0803251F7809331048E
:1035500014C0803409F49DC040F48033B9F388333B
:10356000F9F68093310485ECB0C0803509F485C04C
:10357000883509F496C0883499F60E941C08D0CF8B
:10358000883909F48CC038F5883729F050F488362A
:1035900011F0803729F683E08093640410923004A0
:1035A00057C0883809F47BC0803919F0803809F099
:1035B000B7CF80913004803208F071C0E0913004C0
:1035C00081E08E0F809330048091BB00F0E0E05FDB
:1035D000FB4F80833DC0803B39F0E0F4803A09F432
:1035E00079C0883A09F09CCF84E0809364041092FB
:1035F0000F0410920E04E0916004F09161040995AB
:1036000080910E0481110FC081E080930E0410920E
:10361000EE0309C0803C09F4A6CF883C09F4A3CF8F
:10362000883B09F07DCFE0910F0481E08E0F8093FD
:103630000F04F0E0E251FC4F80818093BB00909139
:103640000F0480910E0429C0809154048093BB0024
:1036500085EC8093BC0064CF909153048091520418
:10366000981758F5E091530481E08E0F809353042E
:10367000F0E0EE5CFB4F8081E9CFE091530481E004
:103680008E0F809353048091BB00F0E0EE5CFB4F03
:10369000808390915304809152049817C8F285E872
:1036A000D8CFE091530481E08E0F80935304809132
:1036B000BB00F0E0EE5CFB4F8083809163048111DE
:1036C0005CCF81E08093620484EA8093BC00109216
:1036D000640426CF85EC8093BC0010926404809132
:1036E0003004803230F4E0913004F0E0E05FFB4FD2
:1036F00010826091300470E0E0915E04F0915F040C
:1037000080E194E00995109230040ACF10923104C0
:1037100034CFE1EDF4E01382128288EE93E0A0E072
:10372000B0E084839583A683B78327E832E03183B2
:10373000208325EC30E03587248724EC30E0378780
:10374000268720EC30E0318B208B21EC30E0338B6E
:10375000228B22EC30E0358B248B26EC30E0378B4B
:10376000268B118E128E138E148EEEE6F5E01382E8
:10377000128284839583A683B78389E992E091833B
:103780008083E6E8F5E0138212828BEA92E091836F
:10379000808387E2848384E1818784E08287138643
:1037A00064E173E080E895E00E94B51364E173E0A2
:1037B0008AE795E00C94B513CF93DF93CDB7DEB7CE
:1037C000C054D1090FB6F894DEBF0FBECDBF7894B8
:1037D00084B5826084BD84B5816084BD85B5826016
:1037E00085BD85B5816085BD80916E0081608093C7
:1037F0006E00109281008091810082608093810030
:10380000809181008160809381008091800081603F
:10381000809380008091B10084608093B10080919A
:10382000B00081608093B00080917A0084608093C2
:103830007A0080917A00826080937A0080917A0089
:10384000816080937A0080917A00806880937A000A
:103850001092C100FBE6EF2EF4E0FF2E07EF11E01F
:10386000B701F801819191918F010E94B80CF4E0A9
:10387000EF0EF11C42E00730140791F70E94D70CBD
:10388000ECE8EE2EE4E0FE2E02E310E0C8010E9418
:103890001D27F70181937F010F5F1F4F093311052A
:1038A000A9F71092680410926704109266041092AF
:1038B00065041092640481E08093630410926204B2
:1038C00061E082E10E94BB0561E083E10E94BB05EB
:1038D0008091B9008E7F8093B9008091B9008D7F6F
:1038E0008093B90088E48093B80085E48093BC009D
:1038F00081E594E0909361048093600482E594E014
:1039000090935F0480935E0410928B0580919005E4
:10391000823018F098E090938B0580938E0562E3D7
:1039200070E080E090E00E94DD076091910586E8FC
:1039300095E00E94D30868EE73E080E090E00E947A
:10394000DD0760E386E895E00E94F60A0BE416E4E2
:10395000C8010197F1F760E386E895E00E94F60A56
:10396000C8010197F1F760E386E895E00E94F60A46
:1039700083E592E00197F1F760E286E895E00E9426
:10398000F60A60918B05606240E086E895E00E944F
:103990000F0B84E080938C0540E06CE086E895E0B6
:1039A0000E940F0B0E94A10C82E080938D0540E0E5
:1039B00066E086E895E00E940F0B40E062E086E852
:1039C00095E00E940F0B8BE39FE10197F1F718E060
:1039D0001093910560E086E895E00E94D3086AEFB5
:1039E00070E080E090E00E94DD071092910560E0B9
:1039F00086E895E00E94D3086AEF70E080E090E0EE
:103A00000E94DD071093910560E086E895E00E9432
:103A1000D30862E083E00E94150661E084E00E9422
:103A2000150661E085E00E94150661E086E00E94CF
:103A3000150661E087E00E94150661E088E00E94BB
:103A4000150661E089E00E94150661E08AE00E94A7
:103A5000150662E08EE00E94150662E08FE00E948B
:103A6000150662E080E10E94150662E081E10E9495
:103A7000150660E084E10E94150660E085E10E9481
:103A80001506E1E6F1E0DE01D996812F01900D9255
:103A90008A95E1F7E9E6F1E0DE01D196812F019008
:103AA0000D928A95E1F7E1E7F1E0DE019996812F29
:103AB00001900D928A95E1F7E9E7F1E0DE01919638
:103AC000812F01900D928A95E1F7E1E8F1E0DE01A6
:103AD0005996812F01900D928A95E1F7E9E8F1E07E
:103AE000DE015196812F01900D928A95E1F7E1E96F
:103AF000F1E0DE011996812F01900D928A95E1F790
:103B0000CE0101967C01FC0111921A95E9F78CE136
:103B10008983BE01675C7F4F80E00E94540CBE0128
:103B20006F5C7F4F81E00E94540CBE01675D7F4F48
:103B300082E00E94540CBE016F5D7F4F83E00E94C3
:103B4000540CBE01675E7F4F84E00E94540CBE019E
:103B50006F5E7F4F85E00E94540CBE01675F7F4F10
:103B600086E00E94540CB70187E00E94540C40E0AC
:103B700063E080E00E94600B61E086E895E00E94CF
:103B80005A0B40E068E084E00E94600B65E086E844
:103B900095E00E945A0B41E063E082E00E94600BD6
:103BA00063E086E895E00E945A0B89E097E00E9466
:103BB0006C0B66E086E895E00E945A0B67E086E8A9
:103BC00095E00E945A0B81E097E00E946C0B42E066
:103BD00060E08BE593E00E94AF0E43E060E080E799
:103BE00093E00E94AF0E60EA7FE080E090E00E94E8
:103BF000DD070E94A10C6BE271E082E00E94540C90
:103C000063E271E083E00E94540C6BE171E084E0B8
:103C10000E94540C63E171E085E00E94540C6BE05B
:103C200071E086E00E94540C812C912C50E8A52E66
:103C30005FE3B52E412C512C612C6FEB762E7CEA84
:103C4000272E7DE0372E0E94331280916904843044
:103C500008F41BC11092690460916904F1E16F9F3F
:103C6000B0011124635F784F42E150E08EEA94E0A6
:103C70000E94B9234EEA54E062E183E00E94F2110F
:103C800066E970E080E090E00E94DD070E949509FF
:103C900080E00E94A4098091AB04813009F0C4C087
:103CA0000E941D0C83E00E94C1178CE00E94AC0CA6
:103CB0004EEA54E064E182E00E94F21185E10E9444
:103CC000F30F63E08FE00E94260B609193047091E4
:103CD0009404809195049091960442E00E94C90D4D
:103CE00064EC79E080E090E00E94DD0786E10E94CC
:103CF000F30F63E08EE00E94260B609197047091B1
:103D000098048091990490919A0442E00E94C90D10
:103D100064EC79E080E090E00E94DD078AE00E9498
:103D2000AC0C4EEA54E064E182E00E94F21183E0C0
:103D30000E942C0C43E061E085E893E00E94AF0E06
:103D400080918C0443E061E18111A3C08DE893E090
:103D50000E94AF0E64EC79E080E090E00E94DD0705
:103D60008EE00E94F30F63E082E10E94260B4091F7
:103D70008D0450E070E060E02AE086E895E00E9463
:103D8000500D64EC79E080E090E00E94DD078FE068
:103D90000E94F30F63E081E10E94260B80918E0464
:103DA00081117AC06DE873E086E895E00E94AD0E5F
:103DB00064EC79E080E090E00E94DD0787E10E94FA
:103DC000F30F60918F044CE0649FB00111246E5991
:103DD000784F42E150E08EEA94E00E94B92343E03C
:103DE00068E08EEA94E00E94AF0E64EC79E080E037
:103DF00090E00E94DD0780E10E94F30F63E081E123
:103E00000E94260B8091900481114DC06DE873E0F3
:103E100086E895E00E94AD0E64EC79E080E090E0E9
:103E20000E94DD070E941D0C8091AB04883009F0D0
:103E300068C481E08093AD048092A3049092A404AE
:103E4000A092A504B092A6040E940018ECEFE80F1F
:103E5000E53108F07CC0F0E0E05DF04E0C940C29F8
:103E60006D1F0720072007200C200F20A71F1220FE
:103E7000A71F0D21B021FA21FA21A71FA71FA71FF5
:103E8000A71F1B231B23A71F0C208F5F8093690490
:103E9000E3CE80E993E05CCF60E973E086E895E0EB
:103EA0000E94AD0EA2CF60E973E086E895E00E9423
:103EB000AD0E64EC79E080E090E00E94DD0788E1DF
:103EC0000E94F30F63E08FE00E94260B8091910423
:103ED000909192040E949C0D9FCF0E94A10C0E9481
:103EE000180F84E00E944B1768EE73E080E090E0CA
:103EF0000E94DD0710E044EF51E0612F80E00E9456
:103F00004E12EFEFE10FEA3050F5F0E0E657F04ED9
:103F10000C940C29B91FB91FB51FBE1FC71FD51F91
:103F2000E31F941FF61FFA1F4CED55E060E082E09E
:103F30000E944E124CED55E061E082E00E944E126C
:103F40000E944E0C1F5F1B30B1F60E9495098091B4
:103F5000AD04882309F4D3C30E94331275CF40ED1A
:103F600057E061E083E00E944E1240ED57E062E0CE
:103F700003C040ED57E061E083E0E0CF4CED55E059
:103F800061E083E00E944E124CED55E0F0CF00E07E
:103F90004CED55E0602F83E00E944E120F5F04301D
:103FA000B9F70E944E0C1F5FA6CF00E0043009F461
:103FB00005E04CED55E0602F83E00E944E120F5F4C
:103FC0000830A1F7EECF4CED55E060E081E00E94B3
:103FD0004E124CED55E061E081E00E944E124CED36
:103FE00055E062E081E00E944E12DBCF4CED55E0DF
:103FF00065E0C2CF10E048EE53E0612F83E00E94FD
:104000004E121F5F1530B9F70E944E0C9ECF1092D2
:104010008B040E944D1499CF0E944F1098CF0E949C
:10402000151195CF82E00E942C0C0E94B910182F18
:1040300082E00E942C0CF12CE12C01E10E0D84E0B9
:10404000E816F10409F4CEC0112309F479C043E065
:1040500060E083E00E941E1020E030E040E85FE373
:1040600092E0E916F10409F47EC0E3E0EE16F104F3
:1040700009F489C06CE370E090E080E0F1E0EF16B5
:10408000F10409F464C00E945F09E0916A0444E00D
:10409000E49FF0011124E559FB4F608170E090E04E
:1040A00080E00E94FE256093A3047093A404809393
:1040B000A5049093A604802F0E94AC0C42E061E01E
:1040C0008EEA94E00E94AF0E6091A3047091A40464
:1040D0008091A5049091A6040E946A284DE00E9458
:1040E000D70E82E00E94A4098091AB04882361F37B
:1040F000883009F013C300916A04F4E00F9F800137
:10410000112405591B4F82E0E816F10409F450C050
:1041100093E0E916F10409F458C06091A30470918A
:10412000A4048091A5049091A604E1E0EE16F104A8
:10413000D1F10E946A28F801608311E00E94310CDD
:1041400082E00E942C0CFFEFEF1AFF0A76CF0E944C
:104150005F09E0916A0484E0E89FF0011124E559C9
:10416000FB4F61819BCF6CE271E090E080E00E94A8
:104170005F09E0916A0494E0E99FF0011124E55998
:10418000FB4F62818BCF64EB70E090E080E00E9497
:104190005F09E0916A0444E0E49FF0011124E559CD
:1041A000FB4F63817BCF0E946A28F8016183C5CFF2
:1041B0006091A3047091A4048091A5049091A60439
:1041C0000E946A28F8016283B8CF6091A3047091BD
:1041D000A4048091A5049091A6040E946A28F80185
:1041E0006383ABCF1123B1F010916A040E94921245
:1041F000812F90E0BC01660F771F660F771F65590E
:104200007B4F880F991FFC01E950FE4F80819181FF
:104210000E94F00C0E94310C9ACE83E00E942C0C7C
:1042200041E066E081E00E941E1063E081E00E94B0
:10423000260B07E012E097EFC92E91E0D92E2BE66E
:10424000E22E24E0F22EF8018081F7018083F8014C
:104250008181F7018183F8018281F7018283F8016E
:104260008381F7018383B701F601819191916F01F9
:104270000E94F00C63E973E086E895E00E94AD0EC1
:104280006AE872E080E090E00E94DD070C5F1F4F5B
:10429000F4E0EF0EF11C87E292E08017910799F6A7
:1042A0001092930410929404109295041092960424
:1042B00040929704509298046092990470929A04E4
:1042C0000E940F0D64E973E086E895E00E94AD0E50
:1042D0006AE872E080E090E00E94DD0791E0909350
:1042E0008C0482E080938D0490938E0410928F044E
:1042F0009093900430929204209291040E94280D91
:1043000064E973E086E895E00E94AD0E6AE872E029
:1043100080E090E00E94DD0741E067E081E00E94DC
:104320001E1042E068E081E00E941E1083E00E94BF
:104330002C0C6CED75E080E090E00E94DD0781E0E0
:104340000E942C0C82E00E942C0C0E9410086093AA
:10435000A7047093A8048093A9049093AA04F7CDAE
:104360000E94611942E06DE081E00E941E1020E091
:1043700030E040E85FE365E070E081E090E00E94BB
:104380005F0960918D0470E090E080E00E9400265B
:104390006093A3047093A4048093A5049093A6044F
:1043A0004FE060E081E00E94C81282E00E94A40910
:1043B0008091AB048823A1F38830D1F46091A304E9
:1043C0007091A4048091A5049091A6040E946A288B
:1043D00060938D040E9492120E94280D80E09091BB
:1043E000AB04943009F416CF882309F413CFD8CF47
:1043F00081E0F5CF11EF180F60918E04113011F4A8
:104400006091900470E090E080E00E94002660934C
:10441000A3047093A4048093A5049093A6040E941F
:10442000611942E069E081E00E941E1020E030E066
:1044300040E85FE361E070E090E080E00E945F09A7
:104440006091A3047091A4048091A5049091A604A6
:104450000E946328660F771F660F771F6E56784F8E
:1044600042E150E08EEA94E00E94B92342E060E12C
:104470008EEA94E00E94AF0E82E00E94A40980912F
:10448000AB048823E9F2883009F0D3C06091A3041B
:104490007091A4048091A5049091A6040E946A28BA
:1044A000113009F483C060938E04662389F08091F3
:1044B0008E0480938C040E9492120E94280D80E04A
:1044C0009091AB04943009F4A5CE8111B9CFA2CE5E
:1044D0000E94611920E030E040E85FE363E070E0B3
:1044E00081E090E00E945F0960918F0470E090E0AD
:1044F00080E00E9400266B017C0120E030E0A901F1
:104500000E94F925882309F443C0C092A304D092E5
:10451000A404E092A504F092A6046091A304709113
:10452000A4048091A5049091A6040E946328ECE065
:10453000E69F9001E79F300D1124B9016E59784F25
:1045400042E150E08EEA94E00E94B9234EEA54E042
:1045500064E182E00E94F21182E00E94A40980914D
:10456000AB048823D1F28830E1F46091A304709108
:10457000A4048091A5049091A6040E946A286093E7
:104580008F0401E00E94310C002309F498CF8FCFF3
:104590008092A3049092A404A092A504B092A604D1
:1045A000BCCF843009F0B9CF00E0ECCF6093900429
:1045B000613009F07CCF0E94611920E030E04AEFC1
:1045C00053E460E47FE188EB9BE00E945F09609127
:1045D000910470919204072E000C880B990B0E9495
:1045E00000266093A3047093A4048093A504909381
:1045F000A6044DE060E084E00E94C81282E00E94C0
:10460000A4098091AB048823A1F3883079F46091E8
:10461000A3047091A4048091A5049091A6040E9423
:1046200063287093920460939104ABCF843009F7B0
:10463000BBCF81E045CF1BEE180F0E9461192DEC16
:104640003CEC4CEC5DE370E060E08FEF9FEF0E948C
:104650005F09113009F43FC0809193049091940454
:10466000A0919504B09196048093A3049093A40420
:10467000A093A504B093A60447E062E081E00E9405
:10468000C81282E00E94A4098091AB048823A1F3A0
:10469000883099F58091A3049091A404A091A50479
:1046A000B091A604113001F1809393049093940487
:1046B000A0939504B09396040E9492120E940F0D4D
:1046C0000E94D70C80E09091AB04943009F4A2CD05
:1046D0008111D2CF9FCD8091970490919804A091A1
:1046E0009904B0919A04C0CF809397049093980452
:1046F000A0939904B0939A04DFCF81E0E4CF0E94A5
:10470000A10C80E090E0892B09F49DCA0E94C604A8
:10471000882309F498CA0E94000095CA843009F0E1
:10472000D3CC10E00BCD8AE795E00E94C61380E859
:1047300095E00C94C613EF920F931F93CF93DF93E2
:10474000E80134E047FD34E1042E000C550B57FF1F
:1047500003C0519541955109E32E022F242FAE013C
:104760000E94C223CE01DF91CF911F910F91EF9054
:104770000895FB01DC0102C005900D9241505040AC
:10478000D8F70895A9E0B0E0E8ECF3E20C944427F0
:104790006A01F22EB02E102FFBE3AF2EA01608F404
:1047A0001BE31F5F012F27E0AE014F5F5F4F0E94A9
:1047B0002125BC018981982F9970913009F43FC05F
:1047C0009BE2E1FC04C09E2D9170E0FC3AC05E2D9E
:1047D0005071E82FE87083FF46C084E0911101C05A
:1047E00083E0EF2DE81B8F1508F0E0E0D6018E2F57
:1047F00020E2552351F1992329F0D6019C93C6015B
:1048000001966C0196012D5F3F4FE2FE24C08EE4BD
:10481000D6018C9391E411969C93119712968C93E8
:10482000D9018E2F90E281111BC0E20FF32FF11DF1
:1048300010828EEF9FEF2996ECE00C9460279DE2AA
:10484000C6CF90E2C4CF2D9381508111FCCFCE0E04
:10485000D11CE0E0D0CF8EE6D6018C9391E6DBCF81
:104860009D938150E0CF482F447082FF3DC084E08B
:10487000911101C083E08F1510F4EF2DE81BD601D4
:104880008E2F20E2552309F1992329F0D6019C931C
:10489000C60101966C0196012D5F3F4FE2FE1BC0E1
:1048A00089E4D6018C938EE411968C93119786E45B
:1048B00012968C93D9018E2F90E2882309F4B5CFFC
:1048C0009D938150FACF2D9381508111FCCFCE0E54
:1048D000D11CE0E0D9CF89E6D6018C938EE6119603
:1048E0008C93119786E6E4CF9B0177FF02C030E0FE
:1048F00020E0A1E0B0E0911102C0B0E0A0E0F90139
:104900003196AE0FBF1F8B2C912CBB2009F461C0D8
:104910005401EFEFAE1ABE0AAA0DBB1DFA161B0614
:1049200019F014F04F2D4A1B511188C0E3FC59C0F7
:104930007601A42FB0E2A1114FC0C40ED11C99235F
:1049400009F45BC040E0D6011196F60190836D0139
:10495000552309F448C0012F060F9A81582F507132
:1049600084FF03C0913309F4015010160CF047C0C6
:10497000093008F008E0EEE2FE2E5B01A01AB10853
:1049800085019194819491082F3F320729F4D60133
:10499000FC92F60131966F016217730794F10217CA
:1049A00013077CF5DB01A21BB30BAA24A394B12C43
:1049B000AC0EBD1EAA0DBB1D11968C912150310964
:1049C000D601119628153905F4F0F60180836D01A2
:1049D000DBCFB12CA12CA0CFF701B1937F01A15067
:1049E000AACF9111B0CFD601942F50E302C05D93AE
:1049F00091509111FCCFC40ED11C40E0ACCF01E02E
:104A0000BACF80E3DBCF6217730731F4963388F4B3
:104A1000953311F4552369F0F6018083FD01842F4D
:104A200090E2811108C0A40FB11D1C9290E080E0BB
:104A300002CF81E3F1CF91938150F3CF911183CFD6
:104A40008ACF283008F027E03327DA01990F311D8B
:104A500087FD916000966105710539F432602E5F23
:104A60003D9330E32A95E1F708959F3F30F0803879
:104A70007105610509F03C5F3C5F3D93913008F0A2
:104A80008068911DDF93CF931F930F93FF92EF9256
:104A9000192F987F9695E92F96959695E90FFF2700
:104AA000EE53FF4F99273327EE24FF24A701E70198
:104AB00005900894079428F4360FE71EF81E491F46
:104AC000511D660F771F881F991F0694A1F7059047
:104AD000079428F4E70EF81E491F561FC11D770FD3
:104AE000881F991F661F0694A1F70590079428F464
:104AF000F80E491F561FC71FD11D880F991F661F2B
:104B0000771F0694A1F70590079420F4490F561FCC
:104B1000C71FD81F990F661F771F881F0694A9F714
:104B200084911095177041F0D695C7955795479584
:104B3000F794E7941A95C1F7E8E6F0E068941590C9
:104B4000159135916591959105907FE27395E118E6
:104B5000F10A430B560BC90BD009C0F7E10CF11E4B
:104B6000431F561FC91FD01D7EF4703311F48A9560
:104B7000E6CFE894015030F0080F0AF4002702173E
:104B800008F4202F2395022F7A3328F079E37D93C0
:104B90002A95E9F710C07D932A9589F60694979592
:104BA0006795379517951794E118F10A430B560B43
:104BB000C90BD00998F023957E9173957A3308F04C
:104BC00070E37C932013B8F77E9170617D9330F091
:104BD000839571E37D9370E32A95E1F71124EF90BB
:104BE000FF900F911F91CF91DF91992787FD9095AD
:104BF00008950E943B2608F481E00895E89409C0D6
:104C000097FB3EF490958095709561957F4F8F4FFF
:104C10009F4F9923A9F0F92F96E9BB279395F69515
:104C2000879577956795B795F111F8CFFAF4BB0F93
:104C300011F460FF1BC06F5F7F4F8F4F9F4F16C0F7
:104C4000882311F096E911C0772321F09EE8872F81
:104C5000762F05C0662371F096E8862F70E060E03D
:104C60002AF09A95660F771F881FDAF7880F9695B6
:104C7000879597F90895990F0008550FAA0BE0E85A
:104C8000FEEF16161706E807F907C0F0121613060E
:104C9000E407F50798F0621B730B840B950B39F44E
:104CA0000A2661F0232B242B252B21F408950A26B4
:104CB00009F4A140A6958FEF811D811D08950E94E2
:104CC00072260C94E3260E94D52638F00E94DC263A
:104CD00020F0952311F00C94CC260C94D2261124AC
:104CE0000C9417270E94F42670F3959FC1F3950F3B
:104CF00050E0551F629FF001729FBB27F00DB11D60
:104D0000639FAA27F00DB11DAA1F649F6627B00DEF
:104D1000A11D661F829F2227B00DA11D621F739FD8
:104D2000B00DA11D621F839FA00D611D221F749FE6
:104D30003327A00D611D231F849F600D211D822F2D
:104D4000762F6A2F11249F5750409AF0F1F0882354
:104D50004AF0EE0FFF1FBB1F661F771F881F915081
:104D60005040A9F79E3F510580F00C94CC260C943E
:104D700017275F3FE4F3983ED4F3869577956795C0
:104D8000B795F795E7959F5FC1F7FE2B880F911DAB
:104D90009695879597F9089597F99F6780E870E051
:104DA00060E008959FEF80EC089500240A941616A1
:104DB000170618060906089500240A941216130609
:104DC000140605060895092E0394000C11F4882397
:104DD00052F0BB0F40F4BF2B11F460FF04C06F5FB3
:104DE0007F4F8F4F9F4F089557FD9058440F551F89
:104DF00059F05F3F71F04795880F97FB991F61F05D
:104E00009F3F79F087950895121613061406551FD3
:104E1000F2CF4695F1DF08C0161617061806991F3F
:104E2000F1CF86957105610508940895E894BB2734
:104E300066277727CB0197F90895F999FECF92BDA0
:104E400081BDF89A992780B50895262FF999FECF4C
:104E50001FBA92BD81BD20BD0FB6F894FA9AF99A97
:104E60000FBE019608950E947527A59F900DB49FCF
:104E7000900DA49F800D911D112408952F923F92B3
:104E80004F925F926F927F928F929F92AF92BF925A
:104E9000CF92DF92EF92FF920F931F93CF93DF9306
:104EA000CDB7DEB7CA1BDB0B0FB6F894DEBF0FBE63
:104EB000CDBF09942A88398848885F846E847D84B0
:104EC0008C849B84AA84B984C884DF80EE80FD80B2
:104ED0000C811B81AA81B981CE0FD11D0FB6F89428
:104EE000DEBF0FBECDBFED010895A29FB001B39FFD
:104EF000C001A39F700D811D1124911DB29F700DE3
:104F0000811D1124911D08955058BB27AA270E9486
:104F10009C270C94E3260E94D52638F00E94DC26BC
:104F200020F039F49F3F19F426F40C94D2260EF4A5
:104F3000E095E7FB0C94CC26E92F0E94F42658F369
:104F4000BA17620773078407950720F079F4A6F56E
:104F50000C9416270EF4E0950B2EBA2FA02D0B0102
:104F6000B90190010C01CA01A0011124FF27591BAE
:104F700099F0593F50F4503E68F11A16F040A22FB4
:104F8000232F342F4427585FF3CF46953795279525
:104F9000A795F0405395C9F77EF41F16BA0B620B24
:104FA000730B840BBAF09150A1F0FF0FBB1F661F6B
:104FB000771F881FC2F70EC0BA0F621F731F841FAE
:104FC00048F4879577956795B795F7959E3F08F0D4
:104FD000B0CF9395880F08F09927EE0F9795879596
:104FE00008950E9405280C94E3260E94DC2658F0C0
:104FF0000E94D52640F029F45F3F29F00C94CC267E
:1050000051110C9417270C94D2260E94F42668F3B1
:105010009923B1F3552391F3951B550BBB27AA2771
:1050200062177307840738F09F5F5F4F220F331FAB
:10503000441FAA1FA9F335D00E2E3AF0E0E832D073
:1050400091505040E695001CCAF72BD0FE2F29D076
:10505000660F771F881FBB1F261737074807AB0748
:10506000B0E809F0BB0B802DBF01FF2793585F4FBD
:105070003AF09E3F510578F00C94CC260C941727FB
:105080005F3FE4F3983ED4F3869577956795B7959F
:10509000F7959F5FC9F7880F911D9695879597F9AA
:1050A0000895E1E0660F771F881FBB1F6217730723
:1050B0008407BA0720F0621B730B840BBA0BEE1F38
:1050C00088F7E09508950E946A286894B1110C94BD
:1050D000172708950E94FC2688F09F5798F0B92F53
:1050E0009927B751B0F0E1F0660F771F881F991F1D
:1050F0001AF0BA95C9F714C0B13091F00E94162782
:10510000B1E008950C941627672F782F8827B85F91
:1051100039F0B93FCCF3869577956795B395D9F774
:105120003EF490958095709561957F4F8F4F9F4F7E
:1051300008950E943B2608F48FEF08950E943B26B5
:10514000880B990B0895AA1BBB1B51E107C0AA1F2E
:10515000BB1FA617B70710F0A61BB70B881F991F18
:105160005A95A9F780959095BC01CD01089597FBBC
:10517000072E16F4009407D077FD09D00E94A328CB
:1051800007FC05D03EF4909581959F4F089570954A
:1051900061957F4F0895A1E21A2EAA1BBB1BFD014A
:1051A0000DC0AA1FBB1FEE1FFF1FA217B307E40706
:1051B000F50720F0A21BB30BE40BF50B661F771F5E
:1051C000881F991F1A9469F760957095809590953E
:1051D0009B01AC01BD01CF010895052E97FB1EF484
:1051E00000940E94042957FD07D00E94CB2807FC99
:1051F00003D04EF40C940429509540953095219598
:105200003F4F4F4F5F4F08959095809570956195F2
:105210007F4F8F4F9F4F0895EE0FFF1F0590F49122
:10522000E02D09940F931F93CF93DF938230910564
:1052300010F482E090E0E0919405F091950530E063
:1052400020E0B0E0A0E0309799F42115310509F491
:105250004AC0281B390B24303105D8F58A819B813F
:105260006115710589F1FB0193838283FE0111C0F1
:10527000408151810281138148175907E0F0481796
:10528000590799F4109761F012960C9312971396A0
:105290001C933296CF01DF91CF911F910F9108950A
:1052A0000093940510939505F4CF2115310551F025
:1052B0004217530738F0A901DB019A01BD01DF0154
:1052C000F801C1CFEF01F9CF909395058093940534
:1052D000CDCFFE01E20FF31F81939193225031094C
:1052E00039832883D7CF2091920530919305232BC2
:1052F00041F420914D0130914E013093930520935C
:10530000920520914B0130914C012115310541F45A
:105310002DB73EB740914F0150915001241B350BE2
:10532000E0919205F0919305E217F307A0F42E1B8C
:105330003F0B2817390778F0AC014E5F5F4F2417F9
:10534000350748F04E0F5F1F509393054093920529
:10535000819391939FCFF0E0E0E09CCFCF93DF93D8
:105360000097E9F0FC01329713821282A091940514
:10537000B0919505ED0130E020E01097A1F4208177
:105380003181820F931F2091920530919305281748
:10539000390709F061C0F0939305E0939205DF911E
:1053A000CF910895EA01CE17DF07E8F54A815B81C6
:1053B0009E0141155105B1F7E901FB83EA8349914B
:1053C0005991C40FD51FEC17FD0761F480819181BD
:1053D0000296840F951FE9019983888382819381C6
:1053E0009B838A83F0E0E0E012968D919C91139765
:1053F0000097B9F52D913C911197CD010296820F3E
:10540000931F20919205309193052817390739F69B
:10541000309751F51092950510929405B09393052D
:10542000A0939205BCCFD383C28340815181840F66
:10543000951FC817D90761F44E5F5F4F8881998126
:10544000480F591F518340838A819B8193838283B4
:105450002115310509F0B0CFF0939505E09394053F
:105460009ECFFD01DC01C0CF13821282D7CFB0E006
:10547000A0E0EDE3FAE20C9440278C01009751F490
:10548000CB010E9412298C01C801CDB7DEB7E0E143
:105490000C945C27FC01E60FF71F9C012250310998
:1054A000E217F30708F49DC0D901CD91DC91119763
:1054B000C617D70798F0C530D10530F3CE01049751
:1054C0008617970708F3C61BD70B2297C193D19372
:1054D0006D937C93CF010E94AE29D6CF5B01AC1AAD
:1054E000BD0A4C018C0E9D1EA0919405B0919505AE
:1054F000512C412CF12CE12C109731F58091920523
:10550000909193058815990509F05CC046165706D9
:1055100008F058C080914B0190914C01009741F4E4
:105520008DB79EB740914F0150915001841B950B50
:10553000E817F90708F055C0F0939305E09392053A
:10554000F90171836083A0CF8D919C911197129680
:105550006C90129713967C901397A815B90559F57E
:105560006C0142E0C40ED11CCA14DB0420F1AC0172
:105570004A195B09DA011296159780F062827382EC
:1055800051834083D9016D937C93E114F10471F050
:10559000D7011396FC93EE93129776CF22968C0F39
:1055A0009D1FF90191838083F301EFCFF09395055F
:1055B000E093940569CF4816590608F42C017D0143
:1055C000D3019ACFCB010E9412297C01009749F0A8
:1055D000AE01B8010E94FC2AC8010E94AE298701D1
:1055E00053CF10E000E050CF9111089581568A51B9
:1055F00008F4805285580895FB01DC0102C0019037
:105600000D9241505040D8F70895FB01DC01019004
:105610000D920020E1F70895AEE0B0E0E2E1FBE298
:105620000C944C270D891E8986E08C831A8309838C
:105630008FEF9FE79E838D83AE01475E5F4F6F893B
:10564000788DCE0101960E942F2B2F813885020F75
:10565000131FF80110822E96E4E00C946827ABE04B
:10566000B0E0E5E3FBE20C943E277C013B018A01BC
:10567000FC0117821682838181FFC8C1CE01019689
:105680005C01F7019381F30193FD859193FF819173
:105690003F01882309F453C1853239F493FD859184
:1056A00093FF81913F01853229F4B70190E00E9478
:1056B0001F2DE7CF912C212C312CFFE1F31538F071
:1056C0008B3211F190F4803209F1833229F137FCE9
:1056D0003CC020ED280F2A3050F536FE20C08AE06D
:1056E000989E200D1124922E06C08D3291F08033A9
:1056F00071F7689430F8F30193FD859193FF8191E0
:105700003F018111DACF21C0689431F8689432F8F2
:10571000F2CF689433F8EFCF689434F8ECCFEAE036
:105720002E9E200D1124222E689435F8E4CF8E325F
:1057300029F436FC04C1689436F8DDCF8C3619F4B0
:10574000689437F8D8CF8836B1F2982F9F7D95545A
:105750009330E0F08336A1F18337C1F1833509F04E
:1057600063C02801F2E04F0E511CF801C080D180C7
:10577000692D70E036FC02C06FEF7FEFC6010E941A
:10578000092D4C01689437F882010AC00C5F1F4F45
:10579000FFE3F98388248394912C6501E89437F81A
:1057A00033FE2DC0522C8114910471F5552009F45B
:1057B00068CFB70180E290E00E941F2D5A94F6CF87
:1057C000F801808189830E5F1F4FE4CF2801F2E04A
:1057D0004F0E511CF801C080D180692D70E036FC5D
:1057E00002C06FEF7FEFC6010E94142D4C018201B1
:1057F000D5CFB70180E290E00E941F2D2A94281493
:10580000190409F0B0F7CECFF60137FC859137FEC9
:1058100081916F01B70190E00E941F2D51105A94A1
:10582000F1E08F1A9108BFCF843619F0893609F05C
:1058300077C0F80137FE6BC06081718182819381EE
:105840000C5F1F4FF32DFF763F2E97FF09C09095F9
:105850008095709561957F4F8F4F9F4F689437F873
:105860002AE030E0A5010E944F2DC82ECA188C2CCA
:10587000432C36FE0CC0E89440F8C91440F434FEC2
:1058800005C032FC03C0F32DFE7E4F2E892C44FE52
:1058900095C0FE01EC0DF11D8081803309F087C0B9
:1058A000242D297E422E842D8870582E43FC95C0CD
:1058B00040FE8FC09C2C821418F42C0C922C98184B
:1058C00044FE91C0B70180E390E00E941F2D42FE8C
:1058D00009C088E790E041FE02C088E590E0B7018A
:1058E0000E941F2DC91408F48AC0CA94D12C9FEFBE
:1058F000C91AD90ACA0CDB1CF60182916F01B701E3
:1059000090E00E941F2DAC14BD04B1F74FCF608111
:105910007181072E000C880B990B0E5F1F4F92CFE1
:10592000D32CE894D4F82AE030E0853739F1232DE0
:10593000297FD22E8F3601F148F48835A9F0F7017E
:10594000868197812B96E2E10C945A27803749F0A3
:105950008837A9F7D4FE02C06894D2F820E130E07D
:105960000DC06894D4F8F6CF34FE03C0822F866051
:10597000D82E20E132E002C028E030E0F801D7FE66
:105980000FC060817181828193810C5F1F4FA501DF
:105990000E944F2DC82ECA183D2CE89437F867CFC7
:1059A0006081718190E080E00E5F1F4FF0CF42FC7C
:1059B00002C0839478CF8394839475CF842D8678A6
:1059C00009F471CFF6CFB70180E290E00E941F2D5D
:1059D00083948214C0F3512C73CF522C5818821424
:1059E00008F46ECFF8CF842D867809F47BCF8BE254
:1059F00041FE80E247FC8DE2B70190E071CFB70134
:105A000080E390E00E941F2D9A946CCF8FEF9FEF60
:105A100099CFFC010590615070400110D8F7809536
:105A200090958E0F9F1F0895FC016150704001906A
:105A30000110D8F7809590958E0F9F1F08950F93B2
:105A40001F93CF93DF93182F092FEB018B8181FDDB
:105A500009C01FEF0FEF812F902FDF91CF911F9182
:105A60000F91089582FF14C02E813F818C819D810A
:105A7000281739073CF4E881F981CF010196998311
:105A8000888310838E819F8101969F838E83E3CFCD
:105A9000E885F985812F0995892BA1F3DACFFA01E1
:105AA000AA27283051F1203181F1E8946F936E7F5D
:105AB0006E5F7F4F8F4F9F4FAF4FB1E03ED0B4E04E
:105AC0003CD0670F781F891F9A1FA11D680F791F8F
:105AD0008A1F911DA11D6A0F711D811D911DA11DA0
