:100000000C9427040C944F040C944F040C944F044C
:100010000C944F040C944F040C944F040C942A1A23
:100020000C944F040C944F040C944F040C944F0404
:100030000C944F040C944F040C944F040C944F04F4
:100040000C94DE1A0C944F040C94AC1A0C94861A7F
:100050000C944F040C944F040C944F040C944F04D4
:100060000C94281B0C944F0400407A10F35A00A003
:10007000724E18090010A5D4E80000E87648170071
:1000800000E40B54020000CA9A3B000000E1F505B1
:10009000000080969800000040420F000000A086FB
:1000A00001000000102700000000E803000000002D
:1000B0006400000000000A000000000001000000D1
:1000C00000002C76D888DC674F0823DFC1DFAE59EB
:1000D000E1B1B796E5E3E453C63AE651997696E87E
:1000E000E6C28426EB898C9B62ED407C6FFCEFBC02
:1000F0009C9F40F2BAA56FA5F490055A2AF75C932D
:100100006B6CF9676DC11BFCE0E40D47FEF520E662
:10011000B500D0ED902E0300943577050080841E45
:10012000080000204E0A000000C80C333333330FA0
:10013000986E12831141EF8D2114893BE65516CF3D
:10014000FEE6DB18D1844B381BF77C1D901DA4BB49
:10015000E424203284725E228100C9F124ECA1E5FE
:100160003D27200047697520537520204573632083
:100170004F6B20002D2D2D202D2D2D20457363201C
:10018000566169002D2D2D202D2D2D204E787420A7
:10019000566169002D2D2D202D2D2D2045736320B6
:1001A000566961002D2D2D202D2D2D204E6F2020E4
:1001B000536920002D2D2D20446570204E6F202086
:1001C000536920002D2D2D202D2D2D2045736320CA
:1001D000456E64002D2A2D202D2A2D202D2A2D201C
:1001E0002D2A2D00524546494C4C20204573632052
:1001F0005661690045736567756F3F202020202098
:10020000202020200052697065746F2050726F6347
:100210006573736F3F002020466174746F726520B0
:10022000466C6F77202000204E554F564F2050527D
:100230004F434553534F200020417474656E6465ED
:10024000726520707265676F002020202050524F29
:10025000434553534F2020202000202020494E5456
:100260004552524F54544F2020200050524F434586
:1002700053534F202046494E49544F002053434585
:100280004C544120464F524D41544F200020466F60
:10029000726D61746F202020202020202000424FAA
:1002A000545449474C494120202020202020004917
:1002B0004E495A49414C495A5A4F204441544900E9
:1002C000494E495A49414C495A5A415A494F4E455B
:1002D0000020202020434F4E434C555341202020E6
:1002E000200041747469766F20466173653A20205E
:1002F000202000204D656D6F72697A7A617A696F8E
:100300006E65200020202020436F6E636C75736142
:10031000202020200020204E6F6E2020416D6D6532
:1003200073736F2020004E756D65726F2043696393
:100330006C69202020200020546F676C6920426F78
:10034000747469676C6961005072656D692020750D
:100350006E2020746173746F002041747465736142
:100360002020526566696C6C2000203132350020F7
:100370003235300020333330002035303000203625
:1003800036300020373530003130303000313530F4
:10039000300000000000004D414E550054494D45CD
:1003A00000464C4F57004155544F005072696E63E0
:1003B0006970616C650000000000000050726F679A
:1003C00072616D6D690000000000000000546F6FE5
:1003D0006C73000000000000000000000000436F8C
:1003E0006E6669677572617A696F6E6500000052AA
:1003F000696E6772617A69616D656E74690000008B
:100400004D616E75616C6500000000000000000029
:100410000054656D706F72697A7A61746F000000C4
:10042000000054656D706F202B204C6976656C6CF4
:100430006F00004175746F6D617469636F00000037
:100440000000000050756C697A69610000000000CE
:100450000000000000466173690000000000000019
:10046000000000000000426F747469676C696500E9
:100470000000000000000053656E732E507265731B
:1004800073696F6E65000000496E697A69616C6915
:100490007A7A617A696F6E65004369636C6920508E
:1004A0007572676500000000000056616375756D28
:1004B0000000000000000000000000526566696C4A
:1004C0006C000000000000000000000056756F7412
:1004D0006F00000000000000000000000053617485
:1004E0007572617A696F6E650000000000005269E4
:1004F000656D70696D656E746F00000000000044EA
:10050000657072657373696F6E65000000000000AE
:10051000506F73697469766100000000000000008C
:10052000004E65676174697661000000000000009C
:1005300000004D65746F646F000000000000000053
:1005400000000054656D706F204174746573610024
:1005500000000000442E2043616E746F6E6900003D
:1005600000000000000000636865727279706869BD
:100570006C6970000000000000004D2E4E65766929
:10058000000000000000000000000000004D2E529E
:100590006F6D697469000000000000000000000039
:1005A0004D2E2047656E74696C696E69000000000D
:1005B0000000004C2E2043617A7A616E69000000D1
:1005C0000000000000004F2E4E617374726F000037
:1005D000000000000000000000502E2050697261F1
:1005E000730000000000000000000000452E566966
:1005F0006E63656E7A690000000000000000004D27
:100600002E204E6576692020202020202849544144
:1006100029006368657272797068696C6970202856
:10062000454E4729004D2E204E657669202020201A
:1006300020202849544129004D2E204E65766920FE
:10064000202020202028454E4729006368657272CB
:10065000797068696C69702028454E472900436F9E
:100660006E6365707400000000000053747275635F
:1006700074757265000000005043420000000000E5
:100680000000000000536F6674776172650000001F
:100690000000416C70686120546573740000004272
:1006A00065746120205465737400000046696E61B2
:1006B0006C20546573740000004C6F63616C697A40
:1006C0006174696F6E004D616E75616C730000003E
:1006D00000000033442052656E646572696E6700E5
:1006E000466F756E646572205465616D0000000090
:1006F00000240027002A0000000000230026002913
:1007000000000000080002010000030407000000D0
:1007100000000000007265737375726500726420DA
:10072000005072656D69203E20202020204D454EEE
:1007300055005072656D6920203E202020204D45D7
:100740004E55005072656D692020203E2020204DBE
:10075000454E55005072656D69202020203E2020B6
:100760004D454E55005072656D6920202020203E79
:10077000204D454E55004E657373756E6F00000039
:100780000000536570617261746F0000000044697D
:1007900073636F6E74696E756F00436F6E74696E0C
:1007A000756F000000004E6F20005369200020206C
:1007B000202020202020202020200056554F544F5C
:1007C00020202020202020005341545552415A49D6
:1007D0004F4E4520005249454D50494D454E544FCE
:1007E000200044455052455353494F4E4520004A3E
:1007F000455454494E47202020202000574153485B
:10080000494E47202020202000434C45414E494E70
:10081000472020202000010204081020408001020F
:100820000408102001020408102000000000250028
:1008300028002B000404040404040404020202023D
:1008400002020303030303030200471CB424112420
:100850001FBECFEFD8E0DEBFCDBF25E0ACE6B3E0F2
:1008600001C01D92AC36B207E1F713E0A0E0B1E0A1
:10087000E6EBFDE502C005900D92AC36B107D9F765
:1008800014E0C6E2D4E004C02197FE010E942D2AA4
:10089000C532D107C9F70E949A1C0C94CE2E0C9435
:1008A000000008950895AF92BF92CF92DF92EF9229
:1008B000FF920F931F93CF93DF936C017B018B010A
:1008C000040F151FEB015E01AE18BF08C017D1075A
:1008D00059F06991D601ED91FC910190F081E02DE4
:1008E000C6010995892B79F7C501DF91CF911F9139
:1008F0000F91FF90EF90DF90CF90BF90AF90089551
:10090000FC0144815581608171818CE595E00C94F6
:100910005304FC01538D448D252F30E0842F90E04B
:10092000821B930B541710F0CF96089501970895EA
:10093000FC01918D828D981761F0A28DAE0FBF2FB3
:10094000B11D5D968C91928D9F5F9F73928F90E009
:1009500008958FEF9FEF0895FC01918D828D981778
:1009600031F0828DE80FF11D858D90E008958FEFB5
:100970009FEF0895FC01918D228D892F90E0805C7E
:100980009F4F821B91098F739927089587EA94E0FE
:100990000E94BA0421E0892B09F420E0822F0895F7
:1009A00080E090E0892B29F00E94C60481110C940C
:1009B00000000895FC01A48DA80FB92FB11DA35A02
:1009C000BF4F2C91848D90E001968F739927848F6F
:1009D000A689B7892C93A089B1898C918370806492
:1009E0008C93938D848D981306C00288F389E02D33
:1009F00080818F7D80830895EF92FF920F931F93E4
:100A0000CF93DF93EC0181E0888F9B8D8C8D9813C1
:100A10001AC0E889F989808185FF15C09FB7F894CD
:100A2000EE89FF896083E889F98980818370806419
:100A300080839FBF81E090E0DF91CF911F910F9164
:100A4000FF90EF900895F62E0B8D10E00F5F1F4F73
:100A50000F731127E02E8C8D8E110CC00FB607FC82
:100A6000FACFE889F989808185FFF5CFCE010E9410
:100A7000DA04F1CFEB8DEC0FFD2FF11DE35AFF4FA0
:100A8000F0829FB7F8940B8FEA89FB89808180629E
:100A9000CFCFCF93DF93EC01888D8823B9F0AA895B
:100AA000BB89E889F9898C9185FD03C0808186FD29
:100AB0000DC00FB607FCF7CF8C9185FFF2CF808178
:100AC00085FFEDCFCE010E94DA04E9CFDF91CF910F
:100AD0000895833081F028F4813099F08230A9F0B4
:100AE00008958730A9F08830C9F08430B1F480913E
:100AF00080008F7D03C0809180008F77809380007D
:100B0000089584B58F7784BD089584B58F7DFBCF1C
:100B10008091B0008F778093B00008958091B000ED
:100B20008F7DF9CFCF93DF93282F30E0F901EF5F6E
:100B3000F84F8491F901EA5EF74FD491F901EC5C2A
:100B4000F74FC491CC23A1F081110E946905EC2FCD
:100B5000F0E0EE0FFF1FE950F94FA591B491EC9131
:100B6000ED2381E090E009F480E0DF91CF910895DA
:100B700080E090E0FACF1F93CF93DF93282F30E0EF
:100B8000F901EF5FF84F8491F901EA5EF74FD491D4
:100B9000F901EC5CF74FC491CC23A9F0162F811119
:100BA0000E946905EC2FF0E0EE0FFF1FE65DF74FA6
:100BB000A591B4918FB7F894EC91111108C0D0951C
:100BC000DE23DC938FBFDF91CF911F910895DE2B41
:100BD000F8CF90914B0189130BC0E8E4F8E0E49161
:100BE0009FEF90934B01E13049F028F0E23061F043
:100BF00060E00C94BB0510926E00FACF90916F00EC
:100C00009D7F90936F00F4CF909170009D7F9093A3
:100C1000700091E09093B0009091B100987F946043
:100C20009093B1001092B300E3CFCF93DF9390E0A5
:100C3000FC01EA5EF74F24918C5C974FFC01849194
:100C40008823C9F090E0880F991FFC01E351F94F08
:100C5000A591B491FC01E65DF74FC591D491611166
:100C60000DC09FB7F8948C91209582238C93888136
:100C7000282328839FBFDF91CF910895623051F4DC
:100C80009FB7F8943C91822F809583238C93E881C1
:100C90002E2BEFCF8FB7F894EC912E2B2C938FBF88
:100CA000EACF4F925F926F927F928F929F92AF9214
:100CB000BF92CF92DF92EF92FF920F931F93CF9349
:100CC0008C014A015B0180914B018A3099F08F3F82
:100CD00009F455C0CF911F910F91FF90EF90DF90D5
:100CE000CF90BF90AF909F908F907F906F905F90CC
:100CF0004F900895E8E4F8E0C491C7FDEBCF61E0C0
:100D00008AE00E941506CC2319F0C23009F0E9C030
:100D10002801712C612C68E478EE81E090E0A30159
:100D200098010E940E2A69017A0181E0C81AD1084F
:100D3000E108F108CC2309F40FC1C23009F08EC0DC
:100D40008FEFC816D104E104F10409F00CF4C7C018
:100D500064E274EF80E090E0A30198010E940E2A03
:100D600069017A0181E0C81AD108E108F10895E02B
:100D70008091B100887F892B8093B1008DC08AE07B
:100D800080934B01E8E4F8E0C491CF3F09F4A2CF8F
:100D9000C13021F150F0C23009F43EC0C7FD9ACFF6
:100DA00061E08AE00E941506B0CF14BC15BC84B582
:100DB000826084BD85B5816085BDEEE3F8E0E49195
:100DC000F0E0EE0FFF1FE65DF74F85919491E0E2B2
:100DD000F8E0E491E0939A04C0E091CF1092800093
:100DE00010928100809181008860809381008091C1
:100DF0008100816080938100EEE3F8E0E491F0E00F
:100E0000EE0FFF1FE65DF74F85919491E0E2F8E069
:100E1000E491E093990473CF1092B0001092B10066
:100E20008091B00082608093B0008091B1008160B9
:100E30008093B100EEE3F8E0E491F0E0EE0FFF1FE5
:100E4000E65DF74F85919491909398048093970471
:100E5000E0E2F8E0E491E093960451CF8FEFC816FA
:100E6000D104E104F104D9F1D4F162E17AE780E040
:100E700090E0A30192010E940E2A69017A0181E0AB
:100E8000C81AD108E108F108C11170C094E085B515
:100E9000887F892B85BDC0E0D801AA0FBB1FA501A3
:100EA00094010E94542828EE33E040E050E00E9474
:100EB000EC29C13079F1C23009F43EC0C1110ACF2A
:100EC000C7BC2093A3043093A4044093A50450937B
:100ED000A60480916E00826080936E00FBCE94E049
:100EE00047CF980150E040E060E072E18AE790E08F
:100EF0000E940E2A69017A0181E0C81AD108E1082E
:100F0000F108C13049F680918100887F816080932B
:100F10008100C2CFD0928900C092880020939F04A4
:100F20003093A0044093A1045093A20480916F00D9
:100F3000826080936F00CECEC092B30020939B045A
:100F400030939C0440939D0450939E0480917000C4
:100F5000826080937000BECE93E08FEFC816D104FC
:100F6000E104F10411F00CF080CF91CF96E000CFB6
:100F70003FB7F8948091300490913104A0913204ED
:100F8000B091330426B5A89B05C02F3F19F00196F8
:100F9000A11DB11D3FBFBA2FA92F982F8827BC01D3
:100FA000CD01620F711D811D911D42E0660F771FFB
:100FB000881F991F4A95D1F708958F929F92AF92FB
:100FC000BF92CF92DF92EF92FF926B017C010E9461
:100FD000B8074B015C01C114D104E104F104B9F07C
:100FE0000E94B807681979098A099B09683E73400D
:100FF0008105910580F321E0C21AD108E108F108CA
:1010000088EE880E83E0981EA11CB11CE4CFFF90EF
:10101000EF90DF90CF90BF90AF909F908F9008950A
:101020002FB7F89460912C0470912D0480912E04B8
:1010300090912F042FBF089585ED8093BC0080917F
:10104000BC0084FDFCCF10923A0408952091E40383
:10105000260F3327331F21323105ECF420913A0457
:10106000FC0190E080E0243069F082E00895A091D6
:10107000E4032191AC014C535C4FA40FB52FB11D7B
:101080002C930196861798F38091E403680F609380
:10109000E40380E0089581E008950895E0913E041E
:1010A00080913D04E81730F4F0E0EC55FC4F80816E
:1010B00090E008958FEF9FEF089590913E04809106
:1010C0003D042FEF3FEF981748F4E92FF0E0EC557F
:1010D000FC4F208130E09F5F90933E04C90108954A
:1010E00080913D0490913E04891B990B0895CF9205
:1010F000DF92EF92FF920F931F93CF93DF937C01C8
:10110000CB018A012091A303222389F0EB016B011B
:10111000C40ED51ECC15DD0569F06991D701ED919E
:10112000FC910190F081E02DC7010995F3CF642F68
:101130000E942608C801DF91CF911F910F91FF9067
:10114000EF90DF90CF900895CF93DF931F92CDB7AC
:10115000DEB769832091A3032223F9F020913B0499
:10116000203258F021E030E0FC013383228390E00C
:1011700080E00F90DF91CF91089580913C04E82F9B
:10118000F0E0ED57FC4F998190838F5F80933C0492
:1011900080933B0481E090E0ECCF61E0CE010196CA
:1011A0000E942608F7CFCF93FC01C48121E0209351
:1011B000A303C093820310923C0410923B048385E6
:1011C000682B84E495E00E94A40890913B0491323E
:1011D00008F03FC080913A048111FCCF82E08093F7
:1011E0003A0481E0809339048FEF809307041092D2
:1011F000290490932804A3E8B3E0E8E0F4E080E059
:1012000098132FC010922A0480912A04CC0FC82B67
:10121000C0932A0480913804813039F51092380443
:1012200080912A048093BB008091BC0083FDF8CF9D
:1012300085EC8093BC0080913A048230E1F3809188
:1012400007048F3F31F080910704803211F08091C4
:10125000070410923C0410923B041092A303CF9118
:1012600008952D9121938F5FCBCF85EEE2CF089526
:1012700090E080E00895CF93C4E060E08C2F0E945E
:10128000BB05CF5FCA30C9F7CF910895CF9383E0F4
:101290000E949205C1E0009709F4C0E0892B59F43F
:1012A0004EEE52E060E070E084EF91E00E94510663
:1012B0008C2FCF9108958AE00E94E905F9CFCF9253
:1012C000DF92EF92FF92CF93DF93EB0169017A01F6
:1012D000BC01990F880B990B0E942127609375041C
:1012E000709376048093770490937804BE01DD0FA9
:1012F000880B990B0E9421276093710470937204EC
:101300008093730490937404C0924701D092480173
:10131000E0924901F0924A0110928104DF91CF914D
:10132000FF90EF90DF90CF90089510928304109279
:10133000790410927A0410927B0410927C0410922B
:1013400081041092820408954F925F926F927F926F
:101350008F929F92AF92BF92CF92DF92EF92FF92C5
:101360000F931F93CF93DF93782E0AE911E0C0E724
:10137000D3E0F12CE12C812C912C54018394CC24CA
:10138000C394D12C4E2CF80151908F01852D0E94D1
:10139000920560908104892B09F059C00E941008C1
:1013A00060937D0470937E0480937F049093800407
:1013B00088819981009709F416C1019699838883E1
:1013C00061100AC00E94100860936C0370936D0353
:1013D00080936E0390936F0388819981892B71F4B8
:1013E000D501C40104C0880F991FAA1FBB1F4A94CE
:1013F000D2F7862980938104D982C882F1E07F12D6
:1014000036C0852D0E949205892BD9F30E941008C1
:1014100020916C0330916D03CB01821B930B68EE1E
:1014200073E00E94C429C1E0C60F8C2FDF91CF91D9
:101430001F910F91FF90EF90DF90CF90BF90AF90F2
:101440009F908F907F906F905F904F90089519823A
:101450001882D501C4010E2C04C0880F991FAA1F41
:10146000BB1F0A94D2F780958621809381048FEF69
:10147000E81AF80A2296E4E0EE16F10409F082CFA9
:10148000C0918104F2E07F129EC08FEF8C0F8230FA
:1014900008F099C00E94100800916C0310916D0330
:1014A00020916E0330916F03601B710B820B930BC5
:1014B00028EE33E040E050E00E94EC294901C09062
:1014C0007104D0907204E0907304F0907404229F31
:1014D0008001239F100D100D112420E030E543EC16
:1014E00056E4C701B6010E941A2787FF48C0B80119
:1014F00090E080E00E941F2720E030E040E250E4CE
:101500000E9412290E9484296F5F7F4F072E000CD2
:10151000880B990B0E9421272091470130914801A7
:101520004091490150914A010E948027809079049E
:1015300090907A04A0907B04B0907C04C13039F57F
:101540009B01AC01C501B4010E94A5286B017C017F
:101550008090750490907604A0907704B090780401
:10156000A50194010E941A2787FF1FC08092790469
:1015700090927A04A0927B04B0927C041EC0089DD5
:10158000B001099D700D189D700D1124BDCFA501EE
:1015900094010E94A6284B015C01AC019B01C7018C
:1015A000B6010E941A2787FFE1CFC0927904D0923A
:1015B0007A04E0927B04F0927C0461E470E080E0C5
:1015C00090E00E94DD0761E470E080E090E00E941E
:1015D000DD07CC2309F429CF6CE370E080E090E0D4
:1015E0000E94DD0722CF6110FBCEECCE0F931F933C
:1015F000CF938C01C62F0E94D3086C2F6460C80162
:101600000E94D3086C2F6B7FC8010E94D30883EC23
:1016100090E00197F1F7CF911F910F9108950F93EB
:101620001F93CF93DF938C01D62FC42F607F642B41
:101630000E94F60A80E1D89FB00111246C2BC801EA
:10164000DF91CF911F910F910C94F60ACF93DF9306
:10165000CDB7DEB728970FB6F894DEBF0FBECDBF6B
:1016600098E0E2E5F1E0DE01119601900D929A9585
:10167000E1F790916405961710F46FEF690F262F2C
:1016800030E0220F331F41E050E04C0F5D1F240F6C
:10169000351FF9016081680F606840E08CE595E0D6
:1016A00028960FB6F894DEBF0FBECDBFDF91CF9165
:1016B0000C940F0B41E00E940F0B81E090E0089525
:1016C000CF93C82F862F642F0E94260B6C2F8CE59A
:1016D00095E0CF910C945A0B0F931F93CF93DF9308
:1016E0008C01D0E0C0E0F801EC0FFD1F649166238F
:1016F00039F041E08CE595E00E940F0B2196F3CF85
:10170000CE01DF91CF911F910F910895CF93DF9379
:10171000D82F862F642F0E94260BC0E0CD1731F002
:1017200082E691E00E946C0BCF5FF8CFDF91CF9102
:1017300008950F931F93CF93DF930E94122920E007
:1017400030E040E252E40E9480270E948429CB01CD
:1017500065E070E00E94D829C62FD82F011110C073
:10176000D5E0D81BC7E0C61BD53019F4C8E0C61BAE
:10177000D0E042E068E06C0F88E08C1B0E94860B92
:10178000CC2351F010E067E0610F42E086E00E9458
:10179000600B1F5FC113F7CFDD2359F067E06C0FBB
:1017A00042E081E08D0FDF91CF911F910F910C945A
:1017B000600BDF91CF911F910F9108958F929F92AF
:1017C000AF92BF92EF92FF920F93CF93DF9385304A
:1017D00090F57B01C09140048150990B24E0C29F99
:1017E000E0011124CF5BDB4FC80FD91F688170E087
:1017F00090E080E00E941F274B015C01B7010F2C95
:10180000000C880B990B0E94212701E0A50194018F
:101810000E94990B988181E09E151F0409F00CF439
:1018200080E0DF91CF910F91FF90EF90BF90AF904C
:101830009F908F90089581E0F4CF41E061E083E1D3
:101840000E94860B42E061E083E10E94860B43E048
:1018500061E083E10C94860B482F60E084E10C94F6
:10186000860B82E00E942C0C6091830470E090E073
:1018700080E00E941F276093790470937A0480931C
:101880007B0490937C040E94100860937D04709305
:101890007E0480937F0490938004089582E00E94E8
:1018A0002C0C83E00C942C0C0F931F93CF93DF939D
:1018B0008B0198E0899FB0011124606440E08CE5C1
:1018C00095E00E940F0BE801085F1F4F69918CE5BE
:1018D00095E00E945A0BC017D107C1F7DF91CF9155
:1018E0001F910F9108951F93CF93DF93CDB7DEB76C
:1018F00028970FB6F894DEBF0FBECDBF182F88E033
:10190000EAE5F1E0DE01119601900D928A95E1F78A
:10191000BE016F5F7F4F87E00E94540C60E0812F13
:101920000E94260B67E08CE595E00E945A0B2896F2
:101930000FB6F894DEBF0FBECDBFDF91CF911F91E0
:10194000089540E061E08CE595E00E940F0B8BE389
:101950009FE10197F1F7089591E1899FB00111246A
:1019600065557C4F42E150E084E894E00C94DA2421
:10197000EF92FF920F931F93CF93DF938B010C5F36
:101980001F4FEB017C01E61AF70AC7018C0F9D1F60
:101990000E943E288993C017D107B9F784E090E0F0
:1019A000DF91CF911F910F91FF90EF9008950F93CA
:1019B0001F93CF93DF9309E614E0C8E2D0E0CE0195
:1019C0000E943E28F80181938F012196C033D105F2
:1019D000B1F788E090E0DF91CF911F910F910895CA
:1019E000EF92FF920F931F93CF93DF937C018B01B4
:1019F000D0E0C0E0F80161918F01C7018C0F9D1FFD
:101A00000E9446282196C430D105A1F784E090E0D9
:101A1000DF91CF911F910F91FF90EF9008950F9359
:101A20001F93CF93DF9309E614E0C8E2D0E0F801FA
:101A300061918F01CE010E9446282196C033D105C5
:101A4000B1F788E090E0DF91CF911F910F91089559
:101A50000F931F93CF93DF9302E614E0C2E3D0E02D
:101A6000F80161918F01CE010E9446282196C93369
:101A7000D105B1F787E090E0DF91CF911F910F91F1
:101A80000895FB0101900020E9F73197AF01461B53
:101A9000570BDC01ED91FC910280F381E02D09945C
:101AA0008F929F92AF92BF92EF92FF920F931F93EC
:101AB000CF93DF93CDB7DEB7A1970FB6F894DEBF13
:101AC0000FBECDBF7C01FA01CB0119A2223008F470
:101AD0002AE08E010F5D1F4F822E912CB12CA12C7C
:101AE000BF01A50194010E94EC29F901CA016A30E5
:101AF0000CF5605DD8016E938D01232B242B252BD3
:101B000079F790E080E0109721F0BD01C7010E94B5
:101B1000410DA1960FB6F894DEBF0FBECDBFDF9189
:101B2000CF911F910F91FF90EF90BF90AF909F903A
:101B30008F900895695CDECFCF92DF92EF92FF9293
:101B40006C01990FEE08FF08F7FE18C041E06DE246
:101B50008CE595E00E940F0B44275527BA014C19DC
:101B60005D096E097F092AE08CE595E00E94500D21
:101B70000196FF90EF90DF90CF9008952AE0B70193
:101B8000A6018CE595E0FF90EF90DF90CF900C944C
:101B9000500D4F925F926F927F928F929F92AF9271
:101BA000BF92CF92DF92EF92FF920F931F93CF934A
:101BB0006B017C01742EAC019B010E94BF2964EB78
:101BC00072E0811126C046015701E894B7F82FEF63
:101BD0003FEF4FE75FE7C501B4010E94BF298111C4
:101BE0000CC02FEF3FEF4FE75FE7C501B4010E9444
:101BF0001A2768EB72E0181664F02FEF3FEF4FE7FB
:101C00005FE4C701B6010E94BA291816ACF46CEB68
:101C100072E08CE595E0CF911F910F91FF90EF90CE
:101C2000DF90CF90BF90AF909F908F907F906F90FC
:101C30005F904F900C94410D2FEF3FEF4FE75FEC1B
:101C4000C701B6010E941A2787FDE1CF20E030E0EE
:101C5000A901C701B6010E941A2710E000E087FF22
:101C60000CC041E06DE28CE595E00E940F0BF7FAA5
:101C7000F094F7F8F09401E010E0C0E060E070E06C
:101C800080E09FE37C1641F020E030E040E251E448
:101C90000E941229CF5FF6CFA70196010E94A628C5
:101CA0004B015C010E948B292B013C012AE0BC0105
:101CB000A2018CE595E00E94500D080F191FCC235E
:101CC000D9F1C301B2010E941F279B01AC01C501DC
:101CD000B4010E94A5284B015C0141E06EE28CE555
:101CE00095E00E940F0B0F5F1F4FC15028F120E0BD
:101CF00030E040E251E4C501B4010E9480272B018D
:101D00003C010E948B294B01B12CA12C2AE0B5018A
:101D1000A4018CE595E00E94500D080F191FC50124
:101D2000B4010E941F279B01AC01C301B2010E94B4
:101D3000A5284B015C01D9CFC801CF911F910F910C
:101D4000FF90EF90DF90CF90BF90AF909F908F90DB
:101D50007F906F905F904F9008950C94410DCF93BA
:101D6000DF93EC01862F642F0E94260BBE018CE5C9
:101D700095E0DF91CF910C94AD0ECF93C82F42E048
:101D800066E08AE00E94860B8DE0C89FB0011124B6
:101D90006255784F42E150E084E894E00E94DA24F2
:101DA00041E062E084E894E0CF910C94AF0EFF92A2
:101DB0000F931F93CF93DF9300D000D000D0CDB707
:101DC000DEB7F42E1A821982FE01339624E0DF0179
:101DD0001D922A95E9F72CE330E040E050E00E94A4
:101DE000EC299F938F937F936F933F932F9380EC76
:101DF00092E09F938F938E010F5F1F4F1F930F935E
:101E00000E942D2C42E06F2DC8010E94AF0E0FB62C
:101E1000F894DEBF0FBECDBF26960FB6F894DEBF96
:101E20000FBECDBFDF91CF911F910F91FF9008950D
:101E300040E062E08BE391E00E94AF0E40E06DE095
:101E400084E391E00E94AF0E83E10C94730CCF9277
:101E5000DF92EF92FF920F931F93CF93DF93D82ED1
:101E600061110E94BD0E8091640441E061E0811126
:101E70003BC081E0D81238C089EC92E00E94AF0EDE
:101E8000C6E0DC9E80011124F12CE12CE80182E106
:101E9000C82E84E08E0D92E09D1548F19091640467
:101EA000911125C0209165042150330BC29EF00191
:101EB000C39EF00D1124EC0FFD1FE454FE4FEE0DF8
:101EC000FF1D60810E94BB058FEFE81AF80A96E0BB
:101ED000E916F104F1F6DF91CF911F910F91FF9078
:101EE000EF90DF90CF90089589E593E0C7CFF80198
:101EF000EE0DFF1DE256FE4FE4CF0E94AC0C83E0D6
:101F00000E942C0C43E061E084E894E00C94AF0E56
:101F1000CF93DF93C82FD62F6091400485E0689F50
:101F2000B001112466597C4F42E150E084E894E00E
:101F30000E94DA244D2F6C2F84E894E00E94AF0EAB
:101F40006BEC72E08CE595E0DF91CF910C94AD0ED7
:101F5000CF93DF93C82FD42F8230B9F0833011F1A3
:101F600081E1689FB0011124675B7D4F42E150E041
:101F700084E894E00E94DA24C2E04D2F6C2F84E8BC
:101F800094E0DF91CF910C94AF0E81E1689FB00196
:101F900011246C507E4F42E150E084E894E00E94AE
:101FA000DA24EBCF80E1689FB00111246C597E4F99
:101FB000F2CF42E06CE081E00E94A80F6CED75E08A
:101FC00080E090E00E94DD0782E00C942C0C4F92A0
:101FD0005F926F927F928F929F92AF92BF92CF92B9
:101FE000DF92EF92FF920F930E941D0C86E00E94F9
:101FF000BD0E43E064E082E00E94A80F0E9410083A
:102000002B013C0160E081E00E94270F88EE882EC2
:1020100083E0982EA12CB12C0E9410086419750938
:1020200086099709A50194010E94EC296901330FE3
:10203000EE08FF08C701B6010E941F2700E020E05C
:1020400030E040EA50E40E94990B85E0C816D104C4
:10205000E104F10408F30F91FF90EF90DF90CF902F
:10206000BF90AF909F908F907F906F905F904F90B8
:102070000C943B094F925F926F927F928F929F9246
:10208000AF92BF92CF92DF92EF92FF920F93CF93D6
:10209000DF9300D000D0CDB7DEB70E943B090E948D
:1020A0001D0C86E00E94BD0E43E064E082E00E94C9
:1020B000A80F80917C03882309F453C00E94100864
:1020C00069837A838B839C8380918103882309F4BD
:1020D00040C0E091400424E0E29FF0011124EF5B56
:1020E000FB4F8381882E912CB12CA12C61E084E0E0
:1020F0000E94270F80917C03882389F10E94100899
:1021000029813A814B815C81621B730B840B950B97
:1021100028EE33E040E050E00E94EC296901330FE3
:10212000EE08FF08C501B4010E941F272B013C01E6
:10213000C701B6010E941F2700E0A30192010E947F
:10214000990BC814D904EA04FB04A0F210927C0392
:10215000D1CF8CE3882E912CA12CB12CC7CF0E941B
:102160003B0980916204813011F40E94E70F0F90C7
:102170000F900F900F90DF91CF910F91FF90EF9004
:10218000DF90CF90BF90AF909F908F907F906F9097
:102190005F904F900C941D0C4F925F926F927F92C4
:1021A0008F929F92AF92BF92CF92DF92EF92FF9267
:1021B0000F931F93CF93DF93D82F162F0E943B09C5
:1021C00042E066E08AE00E94860B41E062E08EEC2D
:1021D00092E00E94AF0E0E9410082B013C0161E0CA
:1021E00086E00E94BB0588EE882E83E0982EA12C05
:1021F000B12C0E9410086B017C01DD2329F043E023
:1022000064E082E00E94A80FC0E0112309F451C0ED
:10221000C701B6016419750986099709A5019401DA
:102220000E94EC296901330FEE08FF08C701B601CF
:102230000E941F2701E020E030E040E050E40E94CF
:10224000990BC1E082E0C816D104E104F10408F062
:10225000C0E00E941008C0907D03D0907E03E09003
:102260007F03F09080036C197D098E099F09A501F9
:1022700094010E94EC29B901330F880B990B4FE0B0
:102280000E94D70EC111B5CFDF91CF911F910F9151
:10229000FF90EF90DF90CF90BF90AF909F908F9086
:1022A0007F906F905F904F90089561E086E00E946C
:1022B000BB056EE571E080E090E00E94DD0760E024
:1022C00086E00E94BB056EE571E080E090E00E9430
:1022D000DD07CF5FC43049F7BBCF6091400470E0A9
:1022E00090E080E00E941F276093790470937A0445
:1022F00080937B0490937C0441E063E081E00E9442
:10230000A80F43E060E083E00E94A80F20E030E0E7
:1023100040E85FE367E070E090E080E00E945F09E2
:102320006091790470917A0480917B0490917C048F
:102330000E948B296093400462E087E00E94880F2E
:1023400082E00E94A40980918104882349F38830A7
:10235000B9F48091400490E0BC01660F771F660FCE
:10236000771F6F5B7B4F880F991FFC01E850FE4F72
:10237000808191810E94B80C81E08093610408956E
:10238000843071F642E062E082E10E94860B80E0D8
:102390000895CF92DF92EF92FF920F931F93CF9306
:1023A000109281030E94A10C0E94180F87E00E94E6
:1023B000BD0E43E061E083E00E94A80F0E943B094C
:1023C00080E00E94A409809181048823C9F369ED0B
:1023D00072E087EA94E00E94AD0E4091810450E0E3
:1023E00070E060E02AE087EA94E00E94500D69EF17
:1023F00072E087EA94E00E94410D8091810481504F
:10240000823010F41092810480918104843009F4A8
:1024100090C08830A9F66CEF72E087EA94E00E94E1
:10242000410D69EF72E087EA94E00E94410D02EFEE
:1024300011E0C4E0F80161918F018C2F0E94BB056F
:1024400080916404813021F461E084E00E94BB0546
:10245000CF5FC93079F70E94100860937D037093B5
:102460007E0380937F039093800388EEC82E83E0E1
:10247000D82EE12CF12C43E066E083E00E94A80F07
:102480000E94100800917D0310917E0320917F032C
:1024900030918003601B710B820B930BA701960197
:1024A0000E94EC29B901330F880B990B4FE00E9471
:1024B000D70E1092810480E00E94A40980918104CB
:1024C0008823C9F26FE073E087EA94E00E94AD0EC2
:1024D0004091810450E070E060E02AE087EA94E0F7
:1024E0000E94500D69EF72E087EA94E00E94410D6E
:1024F000809181048150823010F410928104809187
:102500008104843009F1883009F0B5CF0E943B097D
:10251000C0E01092810442E060E184E00E94860BFA
:1025200043E061E083E00E94A80FC11102C00E9455
:10253000C9110E943B09CF911F910F91FF90EF901D
:10254000DF90CF900C949509C1E0E3CFBF92CF927A
:10255000DF92EF92FF920F931F93CF93DF93B82EEA
:102560006A01EA0109900020E9F721977E01E41A47
:10257000F50A262F30E089010E19110917FF02C054
:102580000F5F1F4F159507951E2D1170100FC4E199
:10259000D0E0C21BD30BD595C7954B2D6C2F802F48
:1025A0000E94860BB6018CE595E00E94AD0E6C2F63
:1025B0006E0D600F4B2D812FDF91CF911F910F91E9
:1025C000FF90EF90DF90CF90BF900C94860B40E08F
:1025D00062E08BE391E00E94AF0E81E10E94730CF8
:1025E00041E064E08FE293E00E94AF0E64E371E0AB
:1025F0008CE595E00E94AD0E40E051E064E182E0A0
:102600000C94A6121F93CF93DF93182FEA0188230F
:1026100099F023E1629FC0011124123049F1133077
:1026200059F1BC016B5D794F42E150E084E894E0E0
:102630000E94DA2413E00DC08DE0689FB0011124E0
:10264000625A794F42E150E084E894E00E94DA2433
:1026500012E044E854E064E1812F0E94A612BE011A
:10266000DD0F880B990BDF91CF911F910C94DD0743
:10267000BC0161507A4FD8CFBC016C5A7A4F42E10D
:1026800050E084E894E00E94DA24E3CFCF930E94E4
:102690004E0C42E150E063EF72E084E894E00E9467
:1026A000DA2444E854E064E182E00E94A612C3E028
:1026B00043E06C2F86E393E00E94AF0E6EE571E07D
:1026C00080E090E00E94DD07CD5FC23189F742E1F2
:1026D00050E064E073E084E894E00E94DA2444E887
:1026E00054E064E183E00E94A61266E475E080E0B5
:1026F00090E0CF910C94DD074F925F926F927F92A2
:102700008F929F92AF92BF92CF92DF92EF92FF9201
:102710000F931F93CF93DF93CDB7DEB7982E862EFE
:10272000E42EADB6BEB6F82EF60E40907904509069
:102730007A0460907B0470907C0420E030E0A90172
:10274000C301B2010E941A2787FD57C0F3948DB7C9
:102750009EB78F1991090FB6F8949EBF0FBE8DBF1B
:10276000EDB7FEB731966F016BEF72E0CF010E94BB
:10277000262CF60101900020E9F78F010150110984
:10278000282D492DC301B2010E94BC24F6010190FD
:102790000020E9F73197EC19FD09FE1A20E030E03E
:1027A000A9016091790470917A0480917B049091E1
:1027B0007C040E94BA2987FFF39442E06E2D8F2D8E
:1027C0000E94860BB6018CE595E00E94AD0E0FB617
:1027D000F894BEBE0FBEADBEDF91CF911F910F9199
:1027E000FF90EF90DF90CF90BF90AF909F908F9031
:1027F0007F906F905F904F900895F394F394A7CFDC
:10280000CF93DF93EC0188819981009711F00E94AA
:10281000CF2A198218821D821C821B821A82DF91A4
:10282000CF910895EF92FF920F931F93CF93DF9371
:10283000EC017B018A0188819981009729F02A8126
:102840003B812417350788F4B8016F5F7F4F0E94E2
:10285000582B0097C9F0998388831B830A832C81A6
:102860003D81232B11F4FC0110821D830C83B701E1
:10287000888199810E94262CCE01DF91CF911F91F2
:102880000F91FF90EF900895CE010E940014F4CFB5
:10289000FB0101900020E9F73197AF01461B570B70
:1028A0000C941214CF93DF93EC01FB01861797076A
:1028B00049F0608171816115710541F04481558154
:1028C0000E941214CE01DF91CF9108950E9400144E
:1028D000F9CFFC01118210821382128215821482B8
:1028E000FB0101900020E9F73197AF01461B570B20
:1028F0000C941214FC0180819181009711F00C94CA
:10290000CF2A0895FF920F931F93CF93DF93CDB7F4
:10291000DEB72C970FB6F894DEBF0FBECDBF0E9476
:10292000AC0C64E874E0CE0107960E9469140F8134
:1029300018850115110571F0F80181918F01882327
:1029400049F0082E000C990B0E94152CF8013197C4
:102950008083F2CF1A8219821C821B821E821D8202
:10296000BE01695F7F4FCE0101960E945214FD8027
:1029700084E190E08F19910997FD01968C011595DE
:1029800007951F2D1170100F41E060E0802F0E940D
:10299000860BCE0101960E948004602F6F0D41E0EE
:1029A000812F0E94860BCE0101960E947A141A8212
:1029B00019821C821B821E821D82BE01695F7F4FAD
:1029C000CE0101960E945214CE0101960E947A1403
:1029D000CE0107960E947A142C960FB6F894DEBFAB
:1029E0000FBECDBFDF91CF911F910F91FF90089542
:1029F000CF93DF93CDB7DEB762970FB6F894DEBF03
:102A00000FBECDBF0E9482141A8219821C821B82C3
:102A10001E821D8260E575E0CE0101960E9452146F
:102A200018861F821A8619861C861B8666E575E045
:102A3000CE0107960E94521464E874E0CE010D9610
:102A40000E946914CE010D960E947A14CE01079659
:102A50000E947A14CE0101960E947A1462960FB6F3
:102A6000F894DEBF0FBECDBFDF91CF910895CF9216
:102A7000DF92EF92FF92CF93DF93E091830424E003
:102A8000E29FF0011124E85DFD4F82810E94F8145D
:102A900081E08093820480918204882309F447C1F5
:102AA00063E081E00E94260B20E030E040E85FE335
:102AB0006091790470917A0480917B0490917C04F8
:102AC0000E94A528209175043091760440917704E6
:102AD000509178040E941A276AE373E087FD02C0D0
:102AE0006CE373E086E595E00E94481486E595E086
:102AF0000E9480046091790470917A0480917B0433
:102B000090917C040E948429862F0E94AC0C44E89A
:102B100054E060E183E00E94A61263E082E10E943B
:102B2000260B20E030E040E85FE36091790470918B
:102B30007A0480917B0490917C040E94A6282091C5
:102B400071043091720440917304509174040E9496
:102B5000BA296AE373E0181614F06EE373E080E5B7
:102B600095E00E94481480E595E00E948004C091A1
:102B7000830484E0C89FE0011124C85DDD4F6881B3
:102B800070E090E080E00E941F27609375047093CE
:102B900076048093770490937804698170E090E0E4
:102BA00080E00E941F2760937104709372048093E9
:102BB00073049093740480E090E0A0E8BFE38093F6
:102BC000470190934801A0934901B0934A011092A4
:102BD000810482E00E94A4090E941008C0907D0434
:102BE000D0907E04E0907F04F09080046C197D0901
:102BF0008E099F09693873418105910510F00E9483
:102C0000950980918104882309F445CF843039F1F6
:102C1000883009F040CFC0907904D0907A04E090D9
:102C20007B04F0907C04C701B6010E948429E091E6
:102C3000830424E0E29FF0011124E85DFD4F23812D
:102C400026171706B9F5C701B6010E948B29862FF2
:102C5000DF91CF91FF90EF90DF90CF900895E091BA
:102C6000830424E0E29FF0011124E85DFD4FC2815E
:102C7000C09383046C2F70E090E080E00E941F27D7
:102C80006093790470937A0480937B0490937C041E
:102C9000C11103C00E949509FECE82E00E942C0C57
:102CA00084E0C89FF0011124E85DFD4F82810E94FD
:102CB000F814F1CE660F771F660F771F685D7D4FA2
:102CC000FB01C381C09383046C2F70E090E080E02F
:102CD0000E941F276093790470937A0480937B0489
:102CE00090937C048C2F90E0EC01CC0FDD1FCC0F77
:102CF000DD1FFE01E85DFD4F60816817190699F040
:102D000094F021812817190671F06CF070E090E0C2
:102D100080E00E941F276093790470937A04809367
:102D20007B0490937C04C85DDD4F8A81C0CF90CF37
:102D3000809183040E94F8140E944E0C43E060E0EE
:102D400083E00C94A80FAF92BF92CF92DF92EF92E4
:102D5000FF920F931F93CF93DF93CDB7DEB72C97DE
:102D60000FB6F894DEBF0FBECDBF182F0E94A10C86
:102D70000E94180F1F3F09F459C085E0189FB00149
:102D8000112469567C4F42E150E084E894E00E94AF
:102D9000DA2464E874E0CE0107960E94691410E01A
:102DA00000E0602F80E00E94260B6801EFEFCE1A52
:102DB000DE0A5601C016D10610F4580186016BEFE9
:102DC00072E0CE0101960E946914EB84FC840E151A
:102DD0001F05D8F4AE14BF0408F47501EF81F8851F
:102DE000EE0DFF1DB08010826F817885600F711F1E
:102DF000CE0101966115710551F10E9448148F8131
:102E00009885E80EF91EF701B082CE0101960E9466
:102E10008004CE0101960E947A14860104301105C7
:102E200009F0BFCFCE0107960E947A142C960FB6F8
:102E3000F894DEBF0FBECDBFDF91CF911F910F91F0
:102E4000FF90EF90DF90CF90BF90AF9008950E94D9
:102E50000014D5CF2F923F924F925F926F927F9244
:102E60008F929F92AF92BF92CF92DF92EF92FF929A
:102E70000F931F93CF93DF93CDB7DEB72A970FB68B
:102E8000F894DEBF0FBECDBF182F10927C038BEFDE
:102E9000810F809381030E94A31680E00E94BD0EE3
:102EA00080918103882391F08091610481110EC08B
:102EB0000E946D11882309F43AC141E062E082E189
:102EC0000E94860B61E08EE00E94880F43E063E081
:102ED00083E00E94A80F81E090E020916404222307
:102EE00011F090E080E0EE24FF24E81AF90A61E096
:102EF00080E00E94270F42E063E082E00E94A80F7A
:102F000000E021E02A87198694EF292E3324339498
:102F10000E94100869837A838B839C8380917D0350
:102F200090917E03A0917F03B09180038D839E8357
:102F3000AF83B8870E94100880907803909079033F
:102F4000A0907A03B0907B03681979098A099B09DC
:102F500028EE33E040E050E00E94EC2949012901CD
:102F6000330F66087708809181038823B9F099852B
:102F70009730B9F0C301B20125E030E040E050E005
:102F80000E94EC29633071058105910518F4A9852B
:102F9000A33020F061E08EE00E94880FB985B11166
:102FA00003C0BB24B39438C029852730D0F769818A
:102FB0007A818B819C812D813E814F815885621B56
:102FC000730B840B950B28EE33E040E050E00E9439
:102FD000EC29B901330F880B990B4FE00E94D70EF3
:102FE00039853530F0F641E0C301B2010E94D70EB9
:102FF00080918103823051F0833009F48BC081309D
:1030000081F6B40189850E94DE0B05C049854330F5
:10301000C1F70E944609B82E81E00E94A409809160
:10302000810481117EC0B11073CF8091640481113D
:1030300004C0011102C081E0898743E061E083E0C0
:103040000E94A80F9A85992351F041E06EE080E438
:1030500093E00E94AF0EC70101960E949C0D0111E2
:103060000AC00E94100860937D0370937E038093D2
:103070007F0390938003A985A13059F48091630464
:103080008150990BE816F90624F461E080E00E9473
:10309000CC1081E080937C03B985BF5FB9870E9423
:1030A0001008609378037093790380937A03909368
:1030B0007B0342E067E088E00E94860B2A8522239A
:1030C00009F462C08091630490E0E816F9060CF000
:1030D00059C03985333009F052C057014FEFA41A57
:1030E000B40A41E06EE0A816B906DCF186E00E9461
:1030F000860B75011A8680916404811145C0809108
:103100006504833009F040C0A985A130E9F532E0BB
:103110003987B5C05985533009F47BCFB401852F69
:1031200072CF843021F0883009F47FCFF1CE2A9617
:103130000FB6F894DEBF0FBECDBFDF91CF911F91C8
:103140000F91FF90EF90DF90CF90BF90AF909F9046
:103150008F907F906F905F904F903F902F900C9446
:103160003A1080E493E00E94AF0EC70102960E94DD
:103170009C0D750151E05A8781E08987BCCF91E0B1
:103180009A87B9CFB1E0BA872985243009F077C092
:103190000E943B090E941D0C0E9410082B01809187
:1031A0006604882309F459C0A0906704B0906804AD
:1031B000812CC601B1010E94D829861617064CF44D
:1031C00046E950E060E070E084EF91E00E94510633
:1031D000839441E060E181E00E94A80F43E068E051
:1031E00083E00E94A80F1092810480E00E94A4094D
:1031F00080918104882341F0843009F498CF38F419
:103200008150823008F458C09924939403C0912CC3
:103210008830D1F70E9410086B01C418D508CA1471
:10322000DB04DCF4B5010B2C000C880B990B0E941D
:10323000212769837A838B839C83B6010D2C000C34
:10324000880B990B0E94212700E029813A814B814C
:103250005C810E94990B9110ACCF0E941D0C60E024
:1032600081E00E94CC100E943B090E9410086093EC
:1032700078037093790380937A0390937B0343E000
:1032800061E083E00E94A80F4985453098F5809160
:10329000640481112CC080916504833041F58091D4
:1032A00063048150990B8E159F0509F561E081E05B
:1032B0000E94270F01E02CCE0E941D0C61E083E0EC
:1032C0000E94270F8EE00E949205892BD9F38FE090
:1032D0000E949205892BB1F30E943B090E941008BD
:1032E0002B01812C8CEAA82E8DE0B82E8DCF61E0C9
:1032F0008985DECF0E943B09809181030E94A3163D
:103300000E941008C0907D03D0907E03E0907F0360
:10331000F09080036C197D098E099F0928EE33E037
:1033200040E050E00E94EC29B901330F880B990B63
:103330004FE00E94D70E0E941D0C41E062E081E048
:103340000E94A80F42E061E082E00E94A80F43E0E3
:1033500065E083E00E94A80F53E059834BEB50E0F7
:1033600060E070E087E891E00E94510668EC70E050
:1033700080E090E00E94DD0789818150898381117E
:10338000EDCF4AEF50E060E070E086E291E00E940D
:10339000510641E062E081E00E94A80F42E061E056
:1033A00082E00E94A80F43E065E083E00E94A80F3E
:1033B00080E00E94A40980918104882351F3843025
:1033C000C1F08830C1F1823021F70E941D0C84E0E9
:1033D0000E94BD0E8FE00E949205892B29F461E0C6
:1033E00088E00E94BB05F6CF0E943B090E941D0C9D
:1033F000D0CF80916204813011F40E94E70F1092C7
:1034000061042A960FB6F894DEBF0FBECDBFDF91E0
:10341000CF911F910F91FF90EF90DF90CF90BF90D1
:10342000AF909F908F907F906F905F904F903F9064
:103430002F900C94950980918103882339F081E0C5
:103440000E94A409833010F010926104812F0E9421
:103450002A17D5CF1F920F920FB60F9211242F93D8
:103460003F934F935F936F937F938F939F93AF930C
:10347000BF93EF93FF9380919B0490919C04A09144
:103480009D04B0919E04892B8A2B8B2BD1F19091B6
:103490009604E0919704F0919804808189278083B5
:1034A00080919B0490919C04A0919D04B0919E04F6
:1034B000181619061A061B069CF480919B0490911D
:1034C0009C04A0919D04B0919E040197A109B109AB
:1034D00080939B0490939C04A0939D04B0939E04BE
:1034E000FF91EF91BF91AF919F918F917F916F91DC
:1034F0005F914F913F912F910F900FBE0F901F90B2
:10350000189580914B010E94E905EACF1F920F9216
:103510000FB60F9211242F933F934F935F936F93A6
:103520007F938F939F93AF93BF93EF93FF9387EA1C
:1035300094E00E94DA04FF91EF91BF91AF919F91C7
:103540008F917F916F915F914F913F912F910F904C
:103550000FBE0F901F9018951F920F920FB60F92EB
:1035600011242F938F939F93EF93FF93E091B704D0
:10357000F091B8048081E091BD04F091BE0482FD19
:103580001BC090818091C0048F5F8F732091C10414
:10359000821741F0E091C004F0E0E955FB4F958FB0
:1035A0008093C004FF91EF919F918F912F910F9085
:1035B0000FBE0F901F9018958081F4CF1F920F922D
:1035C0000FB60F9211242F933F938F939F93AF9336
:1035D000BF9380912C0490912D04A0912E04B09162
:1035E0002F0430912B0423E0230F2D3758F501963B
:1035F000A11DB11D20932B0480932C0490932D04C6
:10360000A0932E04B0932F04809130049091310444
:10361000A0913204B09133040196A11DB11D809395
:10362000300490933104A0933204B0933304BF91DB
:10363000AF919F918F913F912F910F900FBE0F905F
:103640001F90189526E8230F0296A11DB11DD2CF19
:103650001F920F920FB60F9211242F933F934F9307
:103660005F936F937F938F939F93AF93BF93EF93EA
:10367000FF938091B900887F803609F44AC0F0F545
:10368000883209F4A7C018F5803109F49BC0B8F45A
:10369000882309F4F9C0883009F494C0FF91EF91B0
:1036A000BF91AF919F918F917F916F915F914F915A
:1036B0003F912F910F900FBE0F901F90189588315A
:1036C00009F488C0803251F78093070414C0803415
:1036D00009F49DC040F48033B9F38833F9F6809340
:1036E000070485ECB0C0803509F485C0883509F43D
:1036F00096C0883499F60E941C08D0CF883909F406
:103700008CC038F5883729F050F4883611F08037AE
:1037100029F683E080933A041092060457C0883853
:1037200009F47BC0803919F0803809F0B7CF809157
:103730000604803208F071C0E091060481E08E0F2B
:10374000809306048091BB00F0E0EA51FC4F808337
:103750003DC0803B39F0E0F4803A09F479C0883A02
:1037600009F09CCF84E080933A041092E503109214
:10377000E403E0913604F091370409958091E40365
:1037800081110FC081E08093E4031092C40309C04B
:10379000803C09F4A6CF883C09F4A3CF883B09F00C
:1037A0007DCFE091E50381E08E0F8093E503F0E0AB
:1037B000EC53FC4F80818093BB009091E503809196
:1037C000E40329C080912A048093BB0085EC809398
:1037D000BC0064CF9091290480912804981758F573
:1037E000E091290481E08E0F80932904F0E0E85FE6
:1037F000FB4F8081E9CFE091290481E08E0F809317
:1038000029048091BB00F0E0E85FFB4F808390913A
:103810002904809128049817C8F285E8D8CFE09150
:10382000290481E08E0F809329048091BB00F0E091
:10383000E85FFB4F80838091390481115CCF81E088
:103840008093380484EA8093BC0010923A0426CF17
:1038500085EC8093BC0010923A048091060480327B
:1038600030F4E0910604F0E0EA51FC4F10826091E0
:10387000060470E0E0913404F091350486EE93E0A4
:103880000995109206040ACF1092070434CFE7EA94
:10389000F4E01382128288EE93E0A0E0B0E084832B
:1038A0009583A683B78328E832E03183208325EC13
:1038B00030E03587248724EC30E03787268720ECFA
:1038C00030E0318B208B21EC30E0338B228B22ECEB
:1038D00030E0358B248B26EC30E0378B268B118E35
:1038E000128E138E148EE4E4F5E013821282848328
:1038F0009583A683B7838AE992E091838083ECE580
:10390000F5E0138212828CEA92E09183808387E251
:10391000848384E1818784E0828713866BEF72E081
:1039200086E595E00E9469146BEF72E080E595E012
:103930000C946914CF93DF93CDB7DEB7C054D1098F
:103940000FB6F894DEBF0FBECDBF789484B5826009
:1039500084BD84B5816084BD85B5826085BD85B533
:10396000816085BD80916E00816080936E001092B1
:10397000810080918100826080938100809181002C
:1039800081608093810080918000816080938000BD
:103990008091B10084608093B1008091B00081601B
:1039A0008093B00080917A00846080937A00809147
:1039B0007A00826080937A0080917A00816080939F
:1039C0007A0080917A00806880937A001092C1001A
:1039D000F1E4EF2EF4E0FF2E08EF11E0B701D8017B
:1039E0008D919D918D010E94B80CB4E0EB0EF11CFD
:1039F000E2E008301E0791F70E94D70CE2E6EE2EB7
:103A0000E4E0FE2E02E310E0C8010E943E28D70148
:103A10008D937D010F5F1F4F09331105A9F7109298
:103A20003E0410923D0410923C0410923B0410920C
:103A30003A0481E0809339041092380461E082E115
:103A40000E94BB0561E083E10E94BB058091B90043
:103A50008E7F8093B9008091B9008D7F8093B900EB
:103A600088E48093B80085E48093BC0081E594E00D
:103A7000909337048093360482E594E09093350464
:103A8000809334041092610580916605823018F0AD
:103A900098E0909361058093640562E370E080E0B4
:103AA00090E00E94DD07609167058CE595E00E943B
:103AB000D30868EE73E080E090E00E94DD0760E3E9
:103AC0008CE595E00E94F60A0BE416E4C801019724
:103AD000F1F760E38CE595E00E94F60AC8010197D2
:103AE000F1F760E38CE595E00E94F60A83E592E049
:103AF0000197F1F760E28CE595E00E94F60A60918B
:103B00006105606240E08CE595E00E940F0B84E067
:103B10008093620540E06CE08CE595E00E940F0B1D
:103B20000E94A10C82E08093630540E066E08CE592
:103B300095E00E940F0B40E062E08CE595E00E946A
:103B40000F0B8BE39FE10197F1F718E010936705E6
:103B500060E08CE595E00E94D3086AEF70E080E0B9
:103B600090E00E94DD071092670560E08CE595E02B
:103B70000E94D3086AEF70E080E090E00E94DD07C9
:103B80001093670560E08CE595E00E94D30862E041
:103B900083E00E94150661E084E00E94150661E062
:103BA00085E00E94150661E086E00E94150661E04E
:103BB00087E00E94150661E088E00E94150661E03A
:103BC00089E00E94150661E08AE00E94150662E025
:103BD0008EE00E94150662E08FE00E94150662E00A
:103BE00080E10E94150662E081E10E94150660E016
:103BF00084E10E94150660E085E10E941506E2E678
:103C0000F1E0DE01D996812F01900D928A95E1F7BE
:103C1000EAE6F1E0DE01D196812F01900D928A95BE
:103C2000E1F7E2E7F1E0DE019996812F01900D9234
:103C30008A95E1F7EAE7F1E0DE019196812F0190A4
:103C40000D928A95E1F7E2E8F1E0DE015996812FC5
:103C500001900D928A95E1F7EAE8F1E0DE015196D4
:103C6000812F01900D928A95E1F7E2E9F1E0DE0102
:103C70001996812F01900D928A95E1F7FE013196F8
:103C80007F01DF011D921A95E9F78CE18983BE015E
:103C9000675C7F4F80E00E94540CBE016F5C7F4FD9
:103CA00081E00E94540CBE01675D7F4F82E00E945C
:103CB000540CBE016F5D7F4F83E00E94540CBE0127
:103CC000675E7F4F84E00E94540CBE016F5E7F4FA1
:103CD00085E00E94540CBE01675F7F4F86E00E9422
:103CE000540CB70187E00E94540C40E063E080E090
:103CF0000E94600B61E08CE595E00E945A0B40E069
:103D000068E084E00E94600B65E08CE595E00E942D
:103D10005A0B41E063E082E00E94600B63E08CE5B7
:103D200095E00E945A0B8DE197E00E946C0B66E0D3
:103D30008CE595E00E945A0B67E08CE595E00E94C7
:103D40005A0B85E197E00E946C0B43E060E086E44B
:103D500093E00E94AF0E60EA7FE080E090E00E9476
:103D6000DD070E94A10C6BE271E082E00E94540C1E
:103D700063E271E083E00E94540C6BE171E084E047
:103D80000E94540C63E171E085E00E94540C6BE0EA
:103D900071E086E00E94540C6CEA262E6DE0362E0F
:103DA000412C512C70E8672E7FE3772E80913301F0
:103DB000882309F446C00E9410086B017C0140E092
:103DC00060E08BE391E00E94AF0E40E06CE084E3A2
:103DD00091E00E94AF0E83E10E94730C43E064E027
:103DE00082E00E94A80F61E084E00E94270FEE2489
:103DF000FF2480913301882321F10E9410086C195F
:103E00007D098E099F0928EE33E040E050E00E94D2
:103E1000EC295901B90190E080E00E941F2700E0E1
:103E200020E030E040E752E40E94990BBCE3AB167F
:103E3000B104F8F20E943B09109233010E94A10CD8
:103E4000D8CF0E94E71280913F04843008F41FC14C
:103E500010923F0460913F04E1E16E9FB001112494
:103E60006F5D784F42E150E084E894E00E94DA24EC
:103E700044E854E062E183E00E94A61266E970E043
:103E800080E090E00E94DD070E94950980E00E949A
:103E9000A40980918104813009F0C4C00E941D0CE6
:103EA00083E00E94F8148CE00E94AC0C44E854E0DB
:103EB00064E182E00E94A61285E10E947D0F63E02A
:103EC0008FE00E94260B6091690470916A048091D2
:103ED0006B0490916C0442E00E94C90D64EC79E09F
:103EE00080E090E00E94DD0786E10E947D0F63E0A4
:103EF0008EE00E94260B60916D0470916E0480919B
:103F00006F049091700442E00E94C90D64EC79E066
:103F100080E090E00E94DD078AE00E94AC0C44E85B
:103F200054E064E182E00E94A61283E00E942C0C1F
:103F300043E061E08BE593E00E94AF0E8091620464
:103F400043E061E18111A7C083E693E00E94AF0ED8
:103F500064EC79E080E090E00E94DD078EE00E9452
:103F60007D0F63E082E10E94260B4091630450E0E4
:103F700070E060E02AE08CE595E00E94500D64EC72
:103F800079E080E090E00E94DD078FE00E947D0FE5
:103F900063E081E10E94260B8091640481117EC060
:103FA00063E673E08CE595E00E94AD0E64EC79E089
:103FB00080E090E00E94DD0787E10E947D0F609124
:103FC0006504FCE06F9FB00111246A58784F42E10C
:103FD00050E084E894E00E94DA2443E068E084E85A
:103FE00094E00E94AF0E64EC79E080E090E00E94E3
:103FF000DD0780E10E947D0F63E081E10E94260BD6
:1040000080916604811151C063E673E08CE595E010
:104010000E94AD0E64EC79E080E090E00E94DD0744
:104020000E941D0C80918104883009F08BC481E0CE
:10403000809383044092790450927A0460927B04C6
:1040400070927C040E9437155CE0C52EDD24D39469
:10405000ECEFE80FE53108F07CC0F0E0EE5CFF4DDE
:104060000C942D2A6F200B210B210B2110211321E1
:10407000A9201621A9202D22D2221C231C23A920ED
:10408000A920A920A9203C243C24A92010218F5F2D
:1040900080933F04DFCE86E693E058CF66E673E078
:1040A0008CE595E00E94AD0E9ECF66E673E08CE550
:1040B00095E00E94AD0E64EC79E080E090E00E9413
:1040C000DD0788E10E947D0F63E08FE00E94260BF0
:1040D00080916704909168040E949C0D9BCF0E9480
:1040E000A10C0E94180F84E00E94821468EE73E015
:1040F00080E090E00E94DD0710E044EF51E0612F86
:1041000080E00E940213EFEFE10FEA3060F5F0E08B
:10411000E457FF4D0C942D2ABD20BD20B920C220AC
:10412000CB20D920E7209620FA20FE204CED55E048
:1041300060E082E00E9402134CED55E061E082E015
:104140000E9402130E944E0C1F5F1B30B1F60E94AA
:10415000950980918304882309F4F2C30E94E71231
:104160000E94371575CF40ED57E061E083E00E9473
:10417000021340ED57E062E003C040ED57E061E01C
:1041800083E0DECF4CED55E061E083E00E94021356
:104190004CED55E0F0CF00E04CED55E0602F83E0B2
:1041A0000E9402130F5F0430B9F70E944E0C1F5F8C
:1041B000A4CF00E0043009F405E04CED55E0602F99
:1041C00083E00E9402130F5F0830A1F7EECF4CEDA1
:1041D00055E060E081E00E9402134CED55E061E0A3
:1041E00081E00E9402134CED55E062E081E00E9404
:1041F0000213DBCF4CED55E065E0C2CF10E048EE96
:1042000053E0612F83E00E9402131F5F1530B9F75E
:104210000E944E0C9CCF109261040E942A1797CFE7
:104220000E94D90F96CF0E94C91193CF82E00E94BD
:104230002C0C0E946D11182F82E00E942C0CF12C86
:10424000E12C01E10E0D84E0E816F10409F4EAC066
:10425000112309F47AC043E060E083E00E94A80FD4
:1042600020E030E040E85FE392E0E916F10409F471
:104270007FC0A3E0EA16F10409F48AC06CE370E0A1
:1042800090E080E0B1E0EB16F10409F465C00E9413
:104290005F09E091400484E0E89FF0011124EF5BA6
:1042A000FB4F608170E090E080E00E941F276093E8
:1042B000790470937A0480937B0490937C04802F1C
:1042C0000E94AC0C42E061E084E894E00E94AF0EF2
:1042D0006091790470917A0480917B0490917C04C0
:1042E0000E948B294DE00E94D70E82E00E94A40913
:1042F00080918104882361F3883009F030C30091F4
:104300004004E2E0EE16F10409F465C0F3E0EF16B4
:10431000F10409F474C081E0E816F10409F448C01E
:1043200094E0099F800111240F5B1B4F6091790479
:1043300070917A0480917B0490917C040E948B2977
:10434000D8016C9311E00E94310C82E00E942C0C89
:10435000FFEFEF1AFF0A75CF0E945F09E09140045A
:1043600094E0E99FF0011124EF5BFB4F61819ACF4C
:104370006CE271E090E080E00E945F09E09140040F
:10438000A4E0EA9FF0011124EF5BFB4F62818ACF2A
:1043900064EB70E090E080E00E945F09E0914004EF
:1043A000B4E0EB9FF0011124EF5BFB4F63817ACF08
:1043B000B4E00B9F800111240F5B1B4F60917904C7
:1043C00070917A0480917B0490917C040E948B29E7
:1043D000F8016183B7CFF4E00F9F800111240F5BD8
:1043E0001B4F6091790470917A0480917B049091C5
:1043F0007C040E948B29D80112966C93A3CFB4E061
:104400000B9F800111240F5B1B4F60917904709109
:104410007A0480917B0490917C040E948B29F8019E
:10442000638390CF1123B1F0109140040E94461392
:10443000812F90E0BC01660F771F660F771F6F5BBF
:104440007B4F880F991FFC01E850FE4F80819181BE
:104450000E94F00C0E94310C7CCE83E00E942C0C58
:1044600041E066E081E00E94A80F63E081E00E94E5
:10447000260B08E012E098EFA92E91E0B92E21E476
:10448000E22E24E0F22ED8018C91F7018083119660
:104490008C911197818312968C9112978283139637
:1044A0008C918383B701D5018D919D915D010E940F
:1044B000F00C69E673E08CE595E00E94AD0E6AE8C9
:1044C00072E080E090E00E94DD070C5F1F4FB4E0D7
:1044D000EB0EF11CE8E2F2E0E017F107A1F6109212
:1044E000690410926A0410926B0410926C0480E0CC
:1044F00090E0A0E0BFEB80936D0490936E04A093D6
:104500006F04B09370040E940F0D6AE673E08CE5AF
:1045100095E00E94AD0E6AE872E080E090E00E94B3
:10452000DD07D092620482E080936304D092640439
:1045300010926504D0926604309268042092670459
:104540000E94280D6AE673E08CE595E00E94AD0EAE
:104550006AE872E080E090E00E94DD0741E067E0F9
:1045600081E00E94A80F42E068E081E00E94A80F6D
:1045700083E00E942C0C6CED75E080E090E00E94DE
:10458000DD0781E00E942C0C82E00E942C0C0E942E
:10459000100860937D0470937E0480937F04909351
:1045A0008004D7CD0E94981642E06DE081E00E9421
:1045B000A80F20E030E040E85FE365E070E081E0D4
:1045C00090E00E945F096091630470E090E080E0F9
:1045D0000E9421276093790470937A0480937B046E
:1045E00090937C044FE060E081E00E947C1382E0C5
:1045F0000E94A409809181048823A1F38830D1F41A
:104600006091790470917A0480917B0490917C048C
:104610000E948B29609363040E9446130E94280D18
:1046200080E090918104943009F414CF882309F438
:1046300011CFD8CF81E0F5CF11EF180F609164044E
:10464000113011F46091660470E090E080E00E9407
:1046500021276093790470937A0480937B0490936C
:104660007C040E94981642E069E081E00E94A80F55
:1046700020E030E040E85FE361E070E090E080E05F
:104680000E945F096091790470917A0480917B04A3
:1046900090917C040E948429660F771F660F771F14
:1046A0006A55784F42E150E084E894E00E94DA24B1
:1046B00042E060E184E894E00E94AF0E82E00E9454
:1046C000A409809181048823E9F2883009F0D2C0DE
:1046D0006091790470917A0480917B0490917C04BC
:1046E0000E948B29113009F482C060936404662310
:1046F00089F080916404809362040E9446130E94B2
:10470000280D80E090918104943009F4A3CE8111AA
:10471000B9CFA0CE0E94981620E030E040E85FE3D9
:1047200063E070E081E090E00E945F0960916504C1
:1047300070E090E080E00E9421274B015C0120E0C6
:1047400030E0A9010E941A27882309F442C0809210
:10475000790490927A04A0927B04B0927C046091D8
:10476000790470917A0480917B0490917C040E947A
:104770008429C69E9001C79E300D1124B9016A5844
:10478000784F42E150E084E894E00E94DA2444E863
:1047900054E064E182E00E94A61282E00E94A40933
:1047A000809181048823D9F28830E1F46091790402
:1047B00070917A0480917B0490917C040E948B29F3
:1047C0006093650401E00E94310C002309F499CF45
:1047D00090CF4092790450927A0460927B04709258
:1047E0007C04BDCF843009F0BACF00E0ECCF6093F9
:1047F0006604613009F07DCF0E94981620E030E019
:104800004AEF53E460E47FE188EB9BE00E945F099C
:104810006091670470916804072E000C880B990B57
:104820000E9421276093790470937A0480937B041B
:1048300090937C044DE060E084E00E947C1382E071
:104840000E94A409809181048823A1F3883079F41F
:104850006091790470917A0480917B0490917C043A
:104860000E9484297093680460936704ABCF8430FE
:1048700009F7BBCF81E046CF1BEE180F0E949816B8
:104880002DEC3CEC4CEC5DE370E060E08FEF9FEFD3
:104890000E945F09113009F43FC080916904909132
:1048A0006A04A0916B04B0916C0480937904909396
:1048B0007A04A0937B04B0937C0447E062E081E03B
:1048C0000E947C1382E00E94A409809181048823C5
:1048D000A1F3883099F58091790490917A04A091A0
:1048E0007B04B0917C04113001F1809369049093B2
:1048F0006A04A0936B04B0936C040E9446130E9458
:104900000F0D0E94D70C80E090918104943009F43F
:10491000A1CD8111D2CF9ECD80916D0490916E0476
:10492000A0916F04B0917004C0CF80936D049093F8
:104930006E04A0936F04B0937004DFCF81E0E4CFE6
:104940000E94A10C80E090E0892B09F42FCA0E94FC
:10495000C604882309F42ACA0E94000027CA8430AA
:1049600009F0B6CC10E0EFCC80E595E00E947A1417
:1049700086E595E00C947A14EF920F931F93CF93F2
:10498000DF93E80134E047FD34E1042E000C550BC1
:1049900057FF03C0519541955109E32E022F242F53
:1049A000AE010E94E324CE01DF91CF911F910F91C0
:1049B000EF900895FB01DC0102C005900D9241507B
:1049C0005040D8F70895A9E0B0E0E9EEF4E20C9485
:1049D00065286A01F22EB02E102FFBE3AF2EA01631
:1049E00008F41BE31F5F012F27E0AE014F5F5F4F0D
:1049F0000E944226BC018981982F9970913009F458
:104A00003FC09BE2E1FC04C09E2D9170E0FC3AC0E7
:104A10005E2D5071E82FE87083FF46C084E091114D
:104A200001C083E0EF2DE81B8F1508F0E0E0D60110
:104A30008E2F20E2552351F1992329F0D6019C9322
:104A4000C60101966C0196012D5F3F4FE2FE24C026
:104A50008EE4D6018C9391E411969C931197129653
:104A60008C93D9018E2F90E281111BC0E20FF32F9E
:104A7000F11D10828EEF9FEF2996ECE00C948128B7
:104A80009DE2C6CF90E2C4CF2D9381508111FCCF1F
:104A9000CE0ED11CE0E0D0CF8EE6D6018C9391E60D
:104AA000DBCF9D938150E0CF482F447082FF3DC003
:104AB00084E0911101C083E08F1510F4EF2DE81B05
:104AC000D6018E2F20E2552309F1992329F0D60132
:104AD0009C93C60101966C0196012D5F3F4FE2FE4B
:104AE0001BC089E4D6018C938EE411968C931197A8
:104AF00086E412968C93D9018E2F90E2882309F4D4
:104B0000B5CF9D938150FACF2D9381508111FCCF69
:104B1000CE0ED11CE0E0D9CF89E6D6018C938EE68B
:104B200011968C93119786E6E4CF9B0177FF02C024
:104B300030E020E0A1E0B0E0911102C0B0E0A0E0E0
:104B4000F9013196AE0FBF1F8B2C912CBB2009F4BD
:104B500061C05401EFEFAE1ABE0AAA0DBB1DFA16D2
:104B60001B0619F014F04F2D4A1B511188C0E3FCAD
:104B700059C07601A42FB0E2A1114FC0C40ED11CC0
:104B8000992309F45BC040E0D6011196F6019083A9
:104B90006D01552309F448C0012F060F9A81582F43
:104BA000507184FF03C0913309F4015010160CF0CA
:104BB00047C0093008F008E0EEE2FE2E5B01A01AC3
:104BC000B10885019194819491082F3F320729F40F
:104BD000D601FC92F60131966F016217730794F1CA
:104BE000021713077CF5DB01A21BB30BAA24A394C5
:104BF000B12CAC0EBD1EAA0DBB1D11968C9121507F
:104C00003109D601119628153905F4F0F601808393
:104C10006D01DBCFB12CA12CA0CFF701B1937F01A7
:104C2000A150AACF9111B0CFD601942F50E302C06A
:104C30005D9391509111FCCFC40ED11C40E0ACCFDC
:104C400001E0BACF80E3DBCF6217730731F496330C
:104C500088F4953311F4552369F0F6018083FD0142
:104C6000842F90E2811108C0A40FB11D1C9290E026
:104C700080E002CF81E3F1CF91938150F3CF911186
:104C800083CF8ACF283008F027E03327DA01990F45
:104C9000311D87FD916000966105710539F4326020
:104CA0002E5F3D9330E32A95E1F708959F3F30F062
:104CB00080387105610509F03C5F3C5F3D939130A0
:104CC00008F08068911DDF93CF931F930F93FF929D
:104CD000EF92192F987F9695E92F96959695E90F63
:104CE000FF27EE53FF4F99273327EE24FF24A70118
:104CF000E70105900894079428F4360FE71EF81E84
:104D0000491F511D660F771F881F991F0694A1F731
:104D10000590079428F4E70EF81E491F561FC11D81
:104D2000770F881F991F661F0694A1F705900794B7
:104D300028F4F80E491F561FC71FD11D880F991F51
:104D4000661F771F0694A1F70590079420F4490F7A
:104D5000561FC71FD81F990F661F771F881F0694FD
:104D6000A9F784911095177041F0D695C79557957E
:104D70004795F794E7941A95C1F7E8E6F0E0689450
:104D80001590159135916591959105907FE27395F8
:104D9000E118F10A430B560BC90BD009C0F7E10C1F
:104DA000F11E431F561FC91FD01D7EF4703311F42E
:104DB0008A95E6CFE894015030F0080F0AF40027F6
:104DC000021708F4202F2395022F7A3328F079E375
:104DD0007D932A95E9F710C07D932A9589F606946C
:104DE00097956795379517951794E118F10A430B36
:104DF000560BC90BD00998F023957E9173957A33A1
:104E000008F070E37C932013B8F77E9170617D9376
:104E100030F0839571E37D9370E32A95E1F71124D7
:104E2000EF90FF900F911F91CF91DF91992787FD10
:104E3000909508950E945C2708F481E00895E89415
:104E400009C097FB3EF490958095709561957F4FD2
:104E50008F4F9F4F9923A9F0F92F96E9BB27939580
:104E6000F695879577956795B795F111F8CFFAF490
:104E7000BB0F11F460FF1BC06F5F7F4F8F4F9F4FC1
:104E800016C0882311F096E911C0772321F09EE81F
:104E9000872F762F05C0662371F096E8862F70E085
:104EA00060E02AF09A95660F771F881FDAF7880F5F
:104EB0009695879597F90895990F0008550FAA0BB5
:104EC000E0E8FEEF16161706E807F907C0F012161D
:104ED0001306E407F50798F0621B730B840B950B20
:104EE00039F40A2661F0232B242B252B21F4089575
:104EF0000A2609F4A140A6958FEF811D811D089512
:104F00000E9493270C9404280E94F62738F00E94F0
:104F1000FD2720F0952311F00C94ED270C94F32736
:104F200011240C9438280E94152870F3959FC1F322
:104F3000950F50E0551F629FF001729FBB27F00D47
:104F4000B11D639FAA27F00DB11DAA1F649F66279C
:104F5000B00DA11D661F829F2227B00DA11D621FEB
:104F6000739FB00DA11D621F839FA00D611D221FA5
:104F7000749F3327A00D611D231F849F600D211D89
:104F8000822F762F6A2F11249F5750409AF0F1F00C
:104F900088234AF0EE0FFF1FBB1F661F771F881F75
:104FA00091505040A9F79E3F510580F00C94ED2799
:104FB0000C9438285F3FE4F3983ED4F386957795B8
:104FC0006795B795F795E7959F5FC1F7FE2B880F1B
:104FD000911D9695879597F9089597F99F6780E8B1
:104FE00070E060E008959FEF80EC089500240A943B
:104FF0001616170618060906089500240A941216B4
:105000001306140605060895092E0394000C11F4E6
:10501000882352F0BB0F40F4BF2B11F460FF04C093
:105020006F5F7F4F8F4F9F4F089557FD9058440FEC
:10503000551F59F05F3F71F04795880F97FB991FF7
:1050400061F09F3F79F087950895121613061406B4
:10505000551FF2CF4695F1DF08C016161706180641
:10506000991FF1CF86957105610508940895E8941C
:10507000BB2766277727CB0197F90895F999FECFCB
:1050800092BD81BDF89A992780B50895262FF99988
:10509000FECF1FBA92BD81BD20BD0FB6F894FA9A1B
:1050A000F99A0FBE019608950E949628A59F900D2B
:1050B000B49F900DA49F800D911D112408952F92EF
:1050C0003F924F925F926F927F928F929F92AF9298
:1050D000BF92CF92DF92EF92FF920F931F93CF93E5
:1050E000DF93CDB7DEB7CA1BDB0B0FB6F894DEBF7C
:1050F0000FBECDBF09942A88398848885F846E84A2
:105100007D848C849B84AA84B984C884DF80EE80EB
:10511000FD800C811B81AA81B981CE0FD11D0FB6F4
:10512000F894DEBF0FBECDBFED010895A29FB00180
:10513000B39FC001A39F700D811D1124911DB29FCB
:10514000700D811D1124911D08955058BB27AA2769
:105150000E94BD280C9404280E94F62738F00E9473
:10516000FD2720F039F49F3F19F426F40C94F3271F
:105170000EF4E095E7FB0C94ED27E92F0E9415282B
:1051800058F3BA17620773078407950720F079F47C
:10519000A6F50C9437280EF4E0950B2EBA2FA02D0F
:1051A0000B01B90190010C01CA01A0011124FF27D4
:1051B000591B99F0593F50F4503E68F11A16F040CF
:1051C000A22F232F342F4427585FF3CF46953795CE
:1051D0002795A795F0405395C9F77EF41F16BA0B93
:1051E000620B730B840BBAF09150A1F0FF0FBB1F41
:1051F000661F771F881FC2F70EC0BA0F621F731F8A
:10520000841F48F4879577956795B795F7959E3FE6
:1052100008F0B0CF9395880F08F09927EE0F979577
:10522000879508950E9426290C9404280E94FD2742
:1052300058F00E94F62740F029F45F3F29F00C94C3
:10524000ED2751110C9438280C94F3270E9415284F
:1052500068F39923B1F3552391F3951B550BBB27A5
:10526000AA2762177307840738F09F5F5F4F220FEA
:10527000331F441FAA1FA9F335D00E2E3AF0E0E8E1
:1052800032D091505040E695001CCAF72BD0FE2F2B
:1052900029D0660F771F881FBB1F261737074807BF
:1052A000AB07B0E809F0BB0B802DBF01FF27935877
:1052B0005F4F3AF09E3F510578F00C94ED270C9427
:1052C00038285F3FE4F3983ED4F386957795679549
:1052D000B795F7959F5FC9F7880F911D96958795AC
:1052E00097F90895E1E0660F771F881FBB1F6217CB
:1052F00073078407BA0720F0621B730B840BBA0B89
:10530000EE1F88F7E09508950E948B296894B111EB
:105310000C94382808950E941D2888F09F5798F013
:10532000B92F9927B751B0F0E1F0660F771F881FAA
:10533000991F1AF0BA95C9F714C0B13091F00E94C4
:105340003728B1E008950C943728672F782F8827E5
:10535000B85F39F0B93FCCF3869577956795B395EB
:10536000D9F73EF490958095709561957F4F8F4F5A
:105370009F4F08950E945C2708F48FEF08950E94C4
:105380005C27880B990B0895AA1BBB1B51E107C032
:10539000AA1FBB1FA617B70710F0A61BB70B881FC5
:1053A000991F5A95A9F780959095BC01CD01089554
:1053B00097FB072E16F4009407D077FD09D00E94C2
:1053C000C42907FC05D03EF4909581959F4F089520
:1053D000709561957F4F0895A1E21A2EAA1BBB1B01
:1053E000FD010DC0AA1FBB1FEE1FFF1FA217B307B1
:1053F000E407F50720F0A21BB30BE40BF50B661FC7
:10540000771F881F991F1A9469F76095709580958A
:1054100090959B01AC01BD01CF010895052E97FB2E
:105420001EF400940E94252A57FD07D00E94EC2903
:1054300007FC03D04EF40C94252A509540953095E6
:1054400021953F4F4F4F5F4F0895909580957095F0
:1054500061957F4F8F4F9F4F0895EE0FFF1F05906F
:10546000F491E02D09940F931F93CF93DF93823033
:10547000910510F482E090E0E0916A05F0916B05EF
:1054800030E020E0B0E0A0E0309799F4211531053C
:1054900009F44AC0281B390B24303105D8F58A811C
:1054A0009B816115710589F1FB0193838283FE0164
:1054B00011C0408151810281138148175907E0F0E2
:1054C0004817590799F4109761F012960C931297A8
:1054D00013961C933296CF01DF91CF911F910F91BC
:1054E000089500936A0510936B05F4CF21153105DB
:1054F00051F04217530738F0A901DB019A01BD01B1
:10550000DF01F801C1CFEF01F9CF90936B058093D4
:105510006A05CDCFFE01E20FF31F819391932250D4
:10552000310939832883D7CF2091680530916905E7
:10553000232B41F420914E0130914F0130936905A6
:105540002093680520914C0130914D0121153105C2
:1055500041F42DB73EB74091500150915101241BA9
:10556000350BE0916805F0916905E217F307A0F4A7
:105570002E1B3F0B2817390778F0AC014E5F5F4FA9
:105580002417350748F04E0F5F1F5093690540936D
:105590006805819391939FCFF0E0E0E09CCFCF939B
:1055A000DF930097E9F0FC01329713821282A091F9
:1055B0006A05B0916B05ED0130E020E01097A1F491
:1055C00020813181820F931F2091680530916905F8
:1055D0002817390709F061C0F0936905E093680561
:1055E000DF91CF910895EA01CE17DF07E8F54A81F0
:1055F0005B819E0141155105B1F7E901FB83EA8307
:1056000049915991C40FD51FEC17FD0761F48081B2
:1056100091810296840F951FE90199838883828185
:1056200093819B838A83F0E0E0E012968D919C91B8
:1056300013970097B9F52D913C911197CD010296E2
:10564000820F931F2091680530916905281739074B
:1056500039F6309751F510926B0510926A05B093A8
:105660006905A0936805BCCFD383C2834081518173
:10567000840F951FC817D90761F44E5F5F4F88816B
:105680009981480F591F518340838A819B8193835D
:1056900082832115310509F0B0CFF0936B05E093BB
:1056A0006A059ECFFD01DC01C0CF13821282D7CFE5
:1056B000B0E0A0E0EEE5FBE20C9461288C010097DD
:1056C00051F4CB010E94332A8C01C801CDB7DEB75B
:1056D000E0E10C947D28FC01E60FF71F9C012250AD
:1056E0003109E217F30708F49DC0D901CD91DC918F
:1056F0001197C617D70798F0C530D10530F3CE0102
:1057000004978617970708F3C61BD70B2297C193F8
:10571000D1936D937C93CF010E94CF2AD6CF5B01AA
:10572000AC1ABD0A4C018C0E9D1EA0916A05B09169
:105730006B05512C412CF12CE12C109731F5809107
:105740006805909169058815990509F05CC04616B1
:10575000570608F058C080914C0190914D01009778
:1057600041F48DB79EB74091500150915101841B77
:10577000950BE817F90708F055C0F0936905E09319
:105780006805F90171836083A0CF8D919C91119779
:1057900012966C90129713967C901397A815B905E2
:1057A00059F56C0142E0C40ED11CCA14DB0420F18F
:1057B000AC014A195B09DA011296159780F06282F2
:1057C000738251834083D9016D937C93E114F1047A
:1057D00071F0D7011396FC93EE93129776CF229631
:1057E0008C0F9D1FF90191838083F301EFCFF0931C
:1057F0006B05E0936A0569CF4816590608F42C0139
:105800007D01D3019ACFCB010E94332A7C010097FE
:1058100049F0AE01B8010E941D2CC8010E94CF2A98
:10582000870153CF10E000E050CF911108958156C9
:105830008A5108F4805285580895FB01DC0102C0AA
:1058400001900D9241505040D8F70895FB01DC01C2
:1058500001900D920020E1F70895AEE0B0E0E3E39F
:10586000FCE20C946D280D891E8986E08C831A83D6
:1058700009838FEF9FE79E838D83AE01475E5F4F65
:105880006F89788DCE0101960E94502C2F8138852A
:10589000020F131FF80110822E96E4E00C94892861
:1058A000ABE0B0E0E6E5FCE20C945F287C013B0154
:1058B0008A01FC0117821682838181FFC8C1CE0153
:1058C00001965C01F7019381F30193FD859193FFAC
:1058D00081913F01882309F453C1853239F493FD46
:1058E000859193FF81913F01853229F4B70190E0C2
:1058F0000E94402EE7CF912C212C312CFFE1F31593
:1059000038F08B3211F190F4803209F1833229F1B1
:1059100037FC3CC020ED280F2A3050F536FE20C061
:105920008AE0989E200D1124922E06C08D3291F0AF
:10593000803371F7689430F8F30193FD859193FFFC
:1059400081913F018111DACF21C0689431F86894C8
:1059500032F8F2CF689433F8EFCF689434F8ECCF94
:10596000EAE02E9E200D1124222E689435F8E4CF13
:105970008E3229F436FC04C1689436F8DDCF8C36BB
:1059800019F4689437F8D8CF8836B1F2982F9F7DF4
:1059900095549330E0F08336A1F18337C1F183351C
:1059A00009F063C02801F2E04F0E511CF801C080DD
:1059B000D180692D70E036FC02C06FEF7FEFC60129
:1059C0000E942A2E4C01689437F882010AC00C5FAD
:1059D0001F4FFFE3F98388248394912C6501E89499
:1059E00037F833FE2DC0522C8114910471F55520E7
:1059F00009F468CFB70180E290E00E94402E5A94EB
:105A0000F6CFF801808189830E5F1F4FE4CF280114
:105A1000F2E04F0E511CF801C080D180692D70E07A
:105A200036FC02C06FEF7FEFC6010E94352E4C019D
:105A30008201D5CFB70180E290E00E94402E2A94E7
:105A40002814190409F0B0F7CECFF60137FC859180
:105A500037FE81916F01B70190E00E94402E5110F6
:105A60005A94F1E08F1A9108BFCF843619F0893625
:105A700009F077C0F80137FE6BC0608171818281C7
:105A800093810C5F1F4FF32DFF763F2E97FF09C0C8
:105A900090958095709561957F4F8F4F9F4F68943B
:105AA00037F82AE030E0A5010E94702EC82ECA18EF
:105AB0008C2C432C36FE0CC0E89440F8C91440F4FA
:105AC00034FE05C032FC03C0F32DFE7E4F2E892C20
:105AD00044FE95C0FE01EC0DF11D8081803309F07C
