:100000000C9427040C944F040C944F040C944F044C
:100010000C944F040C944F040C944F040C949119BD
:100020000C944F040C944F040C944F040C944F0404
:100030000C944F040C944F040C944F040C944F04F4
:100040000C94451A0C944F040C94131A0C94ED194B
:100050000C944F040C944F040C944F040C944F04D4
:100060000C948F1A0C944F0400407A10F35A00A09D
:10007000724E18090010A5D4E80000E87648170071
:1000800000E40B54020000CA9A3B000000E1F505B1
:10009000000080969800000040420F000000A086FB
:1000A00001000000102700000000E803000000002D
:1000B0006400000000000A000000000001000000D1
:1000C00000002C76D888DC674F0823DFC1DFAE59EB
:1000D000E1B1B796E5E3E453C63AE651997696E87E
:1000E000E6C28426EB898C9B62ED407C6FFCEFBC02
:1000F0009C9F40F2BAA56FA5F490055A2AF75C932D
:100100006B6CF9676DC11BFCE0E40D47FEF520E662
:10011000B500D0ED902E0300943577050080841E45
:10012000080000204E0A000000C80C333333330FA0
:10013000986E12831141EF8D2114893BE65516CF3D
:10014000FEE6DB18D1844B381BF77C1D901DA4BB49
:10015000E424203284725E228100C9F124ECA1E5FE
:100160003D27200047697520537520204573632083
:100170004F6B20002D2D2D202D2D2D20457363201C
:10018000566169002D2D2D202D2D2D204E787420A7
:10019000566169002D2D2D202D2D2D2045736320B6
:1001A000566961002D2D2D202D2D2D204E6F2020E4
:1001B000536920002D2D2D20446570204E6F202086
:1001C000536920002D2D2D202D2D2D2045736320CA
:1001D000456E64002D2A2D202D2A2D202D2A2D201C
:1001E0002D2A2D00524546494C4C20204573632052
:1001F0005661690045736567756F3F202020202098
:10020000202020200052697065746F2050726F6347
:100210006573736F3F002020466174746F726520B0
:10022000466C6F77202000204E554F564F2050527D
:100230004F434553534F200020417474656E6465ED
:10024000726520707265676F002020202050524F29
:10025000434553534F2020202000202020494E5456
:100260004552524F54544F2020200050524F434586
:1002700053534F202046494E49544F002053434585
:100280004C544120464F524D41544F200020466F60
:10029000726D61746F202020202020202000424FAA
:1002A000545449474C494120202020202020004917
:1002B0004E495A49414C495A5A4F204441544900E9
:1002C000494E495A49414C495A5A415A494F4E455B
:1002D0000020202020434F4E434C555341202020E6
:1002E000200041747469766F20466173653A20205E
:1002F000202000204D656D6F72697A7A617A696F8E
:100300006E65200020202020436F6E636C75736142
:10031000202020200020204E6F6E2020416D6D6532
:1003200073736F2020004E756D65726F2043696393
:100330006C69202020200020546F676C6920426F78
:10034000747469676C6961005072656D692020750D
:100350006E2020746173746F002041747465736142
:100360002020526566696C6C2000203132350020F7
:100370003235300020333330002035303000203625
:1003800036300020373530003130303000313530F4
:10039000300000000000005072696E636970616C8B
:1003A000650000000000000050726F6772616D6DA3
:1003B000690000000000000000546F6F6C730000C3
:1003C00000000000000000000000436F6E666967D7
:1003D0007572617A696F6E6500000052696E6772AE
:1003E000617A69616D656E74690000004D616E75BA
:1003F000616C650000000000000000000054656DA5
:10040000706F72697A7A61746F0000000000546541
:100410006D706F202B204C6976656C6C6F0000410D
:1004200075746F6D617469636F00000000000000F7
:1004300050756C697A6961000000000000000000DE
:100440000046617369000000000000000000000029
:100450000000426F747469676C69650000000000F9
:1004600000000053656E732E5072657373696F6E72
:1004700065000000496E697A69616C697A7A617A0F
:10048000696F6E65004369636C69205075726765BA
:1004900000000000000056616375756D00000000EB
:1004A00000000000000000526566696C6C000000EE
:1004B000000000000000000056756F746F0000001F
:1004C0000000000000000000005361747572617A42
:1004D000696F6E650000000000005269656D70690B
:1004E0006D656E746F0000000000004465707265F9
:1004F0007373696F6E65000000000000506F7369D0
:10050000746976610000000000000000004E65671D
:1005100061746976610000000000000000004D6514
:10052000746F646F000000000000000000000054C1
:10053000656D706F20417474657361000000000088
:10054000442E2043616E746F6E690000000000004D
:100550000000006368657272797068696C69700088
:100560000000000000004D2E4E657669000000007E
:100570000000000000000000004D2E526F6D6974F5
:100580006900000000000000000000004D2E204720
:10059000656E74696C696E69000000000000004CB3
:1005A0002E2043617A7A616E69000000000000002D
:1005B00000004F2E4E617374726F00000000000047
:1005C0000000000000502E2050697261730000008E
:1005D0000000000000000000452E56696E63656E45
:1005E0007A690000000000000000004D2E204E65DA
:1005F0007669202020202020284954412900636862
:10060000657272797068696C69702028454E472957
:10061000004D2E204E65766920202020202028497C
:10062000544129004D2E204E65766920202020203F
:100630002028454E472900636865727279706869A1
:100640006C69702028454E472900436F6E636570C2
:100650007400000000000053747275637475726555
:1006600000000000504342000000000000000000B5
:1006700000536F6674776172650000000000416C82
:1006800070686120546573740000004265746120D5
:10069000205465737400000046696E616C205465D7
:1006A00073740000004C6F63616C697A6174696FE8
:1006B0006E004D616E75616C7300000000000033C8
:1006C000442052656E646572696E6700466F756E90
:1006D000646572205465616D0000000000240027ED
:1006E000002A00000000002300260029000000006E
:1006F00008000201000003040700000000000000E1
:1007000000726573737572650072642000507265C3
:100710006D69203E20202020204D454E550050720E
:10072000656D6920203E202020204D454E5500500B
:1007300072656D692020203E2020204D454E5500D9
:100740005072656D69202020203E20204D454E5579
:10075000005072656D6920202020203E204D454EBE
:1007600055004E657373756E6F0000000000536591
:1007700070617261746F00000000446973636F6E92
:1007800074696E756F00436F6E74696E756F0000EB
:1007900000004E6F200053692000202020202020E0
:1007A0002020202020200056554F544F202020206C
:1007B000202020005341545552415A494F4E452064
:1007C000005249454D50494D454E544F2000444537
:1007D0005052455353494F4E4520004A45545449C1
:1007E0004E4720202020200057415348494E4720A3
:1007F0002020202000434C45414E494E47202020D8
:1008000020004D414E550054494D4500464C4F5730
:10081000004155544F00010204081020408001029D
:100820000408102001020408102000000000250028
:1008300028002B000404040404040404020202023D
:1008400002020303030303030200AE1BB8231124B7
:100850001FBECFEFD8E0DEBFCDBF25E0A0ECB3E0F8
:1008600001C01D92A03CB207E1F713E0A0E0B1E0A7
:10087000EEEBFBE502C005900D92A03CB107D9F765
:1008800014E0C6E2D4E004C02197FE010E943129A1
:10089000C532D107C9F70E94011C0C94D22D0C94CB
:1008A000000008950895AF92BF92CF92DF92EF9229
:1008B000FF920F931F93CF93DF936C017B018B010A
:1008C000040F151FEB015E01AE18BF08C017D1075A
:1008D00059F06991D601ED91FC910190F081E02DE4
:1008E000C6010995892B79F7C501DF91CF911F9139
:1008F0000F91FF90EF90DF90CF90BF90AF90089551
:10090000FC01448155816081718180EB95E00C94FC
:100910005304FC01538D448D252F30E0842F90E04B
:10092000821B930B541710F0CF96089501970895EA
:10093000FC01918D828D981761F0A28DAE0FBF2FB3
:10094000B11D5D968C91928D9F5F9F73928F90E009
:1009500008958FEF9FEF0895FC01918D828D981778
:1009600031F0828DE80FF11D858D90E008958FEFB5
:100970009FEF0895FC01918D228D892F90E0805C7E
:100980009F4F821B91098F73992708958BEF94E0F5
:100990000E94BA0421E0892B09F420E0822F0895F7
:1009A00080E090E0892B29F00E94C60481110C940C
:1009B00000000895FC01A48DA80FB92FB11DA35A02
:1009C000BF4F2C91848D90E001968F739927848F6F
:1009D000A689B7892C93A089B1898C918370806492
:1009E0008C93938D848D981306C00288F389E02D33
:1009F00080818F7D80830895EF92FF920F931F93E4
:100A0000CF93DF93EC0181E0888F9B8D8C8D9813C1
:100A10001AC0E889F989808185FF15C09FB7F894CD
:100A2000EE89FF896083E889F98980818370806419
:100A300080839FBF81E090E0DF91CF911F910F9164
:100A4000FF90EF900895F62E0B8D10E00F5F1F4F73
:100A50000F731127E02E8C8D8E110CC00FB607FC82
:100A6000FACFE889F989808185FFF5CFCE010E9410
:100A7000DA04F1CFEB8DEC0FFD2FF11DE35AFF4FA0
:100A8000F0829FB7F8940B8FEA89FB89808180629E
:100A9000CFCFCF93DF93EC01888D8823B9F0AA895B
:100AA000BB89E889F9898C9185FD03C0808186FD29
:100AB0000DC00FB607FCF7CF8C9185FFF2CF808178
:100AC00085FFEDCFCE010E94DA04E9CFDF91CF910F
:100AD0000895833081F028F4813099F08230A9F0B4
:100AE00008958730A9F08830C9F08430B1F480913E
:100AF00080008F7D03C0809180008F77809380007D
:100B0000089584B58F7784BD089584B58F7DFBCF1C
:100B10008091B0008F778093B00008958091B000ED
:100B20008F7DF9CFCF93DF93282F30E0F901E35188
:100B3000F94F8491F901EA5EF74FD491F901EC5C29
:100B4000F74FC491CC23A1F081110E946905EC2FCD
:100B5000F0E0EE0FFF1FED51F94FA591B491EC912C
:100B6000ED2381E090E009F480E0DF91CF910895DA
:100B700080E090E0FACF1F93CF93DF93282F30E0EF
:100B8000F901E351F94F8491F901EA5EF74FD491ED
:100B9000F901EC5CF74FC491CC23A9F0162F811119
:100BA0000E946905EC2FF0E0EE0FFF1FE65DF74FA6
:100BB000A591B4918FB7F894EC91111108C0D0951C
:100BC000DE23DC938FBFDF91CF911F910895DE2B41
:100BD000F8CF9091480189130BC0E8E4F8E0E49164
:100BE0009FEF90934801E13049F028F0E23061F046
:100BF00060E00C94BB0510926E00FACF90916F00EC
:100C00009D7F90936F00F4CF909170009D7F9093A3
:100C1000700091E09093B0009091B100987F946043
:100C20009093B1001092B300E3CFCF93DF9390E0A5
:100C3000FC01EA5EF74F24918C5C974FFC01849194
:100C40008823C9F090E0880F991FFC01E752F94F03
:100C5000A591B491FC01E65DF74FC591D491611166
:100C60000DC09FB7F8948C91209582238C93888136
:100C7000282328839FBFDF91CF910895623051F4DC
:100C80009FB7F8943C91822F809583238C93E881C1
:100C90002E2BEFCF8FB7F894EC912E2B2C938FBF88
:100CA000EACF4F925F926F927F928F929F92AF9214
:100CB000BF92CF92DF92EF92FF920F931F93CF9349
:100CC0008C014A015B01809148018A3099F08F3F85
:100CD00009F455C0CF911F910F91FF90EF90DF90D5
:100CE000CF90BF90AF909F908F907F906F905F90CC
:100CF0004F900895E8E4F8E0C491C7FDEBCF61E0C0
:100D00008AE00E941506CC2319F0C23009F0E9C030
:100D10002801712C612C68E478EE81E090E0A30159
:100D200098010E94122969017A0181E0C81AD1084C
:100D3000E108F108CC2309F40FC1C23009F08EC0DC
:100D40008FEFC816D104E104F10409F00CF4C7C018
:100D500064E274EF80E090E0A30198010E94122900
:100D600069017A0181E0C81AD108E108F10895E02B
:100D70008091B100887F892B8093B1008DC08AE07B
:100D800080934801E8E4F8E0C491CF3F09F4A2CF92
:100D9000C13021F150F0C23009F43EC0C7FD9ACFF6
:100DA00061E08AE00E941506B0CF14BC15BC84B582
:100DB000826084BD85B5816085BDEEE3F8E0E49195
:100DC000F0E0EE0FFF1FE65DF74F85919491E0E2B2
:100DD000F8E0E491E093EE04C0E091CF109280003F
:100DE00010928100809181008860809381008091C1
:100DF0008100816080938100EEE3F8E0E491F0E00F
:100E0000EE0FFF1FE65DF74F85919491E0E2F8E069
:100E1000E491E093ED0473CF1092B0001092B10012
:100E20008091B00082608093B0008091B1008160B9
:100E30008093B100EEE3F8E0E491F0E0EE0FFF1FE5
:100E4000E65DF74F859194919093EC048093EB04C9
:100E5000E0E2F8E0E491E093EA0451CF8FEFC816A6
:100E6000D104E104F104D9F1D4F162E17AE780E040
:100E700090E0A30192010E94122969017A0181E0A8
:100E8000C81AD108E108F108C11170C094E085B515
:100E9000887F892B85BDC0E0D801AA0FBB1FA501A3
:100EA00094010E94582728EE33E040E050E00E9471
:100EB000F028C13079F1C23009F43EC0C1110ACF27
:100EC000C7BC2093F7043093F8044093F90450937F
:100ED000FA0480916E00826080936E00FBCE94E0F5
:100EE00047CF980150E040E060E072E18AE790E08F
:100EF0000E94122969017A0181E0C81AD108E1082B
:100F0000F108C13049F680918100887F816080932B
:100F10008100C2CFD0928900C09288002093F30450
:100F20003093F4044093F5045093F60480916F00DD
:100F3000826080936F00CECEC092B3002093EF0406
:100F40003093F0044093F1045093F20480917000C8
:100F5000826080937000BECE93E08FEFC816D104FC
:100F6000E104F10411F00CF080CF91CF96E000CFB6
:100F70003FB7F8948091840490918504A0918604F1
:100F8000B091870426B5A89B05C02F3F19F00196A4
:100F9000A11DB11D3FBFBA2FA92F982F8827BC01D3
:100FA000CD01620F711D811D911D42E0660F771FFB
:100FB000881F991F4A95D1F708958F929F92AF92FB
:100FC000BF92CF92DF92EF92FF926B017C010E9461
:100FD000B8074B015C01C114D104E104F104B9F07C
:100FE0000E94B807681979098A099B09683E73400D
:100FF0008105910580F321E0C21AD108E108F108CA
:1010000088EE880E83E0981EA11CB11CE4CFFF90EF
:10101000EF90DF90CF90BF90AF909F908F9008950A
:101020002FB7F894609180047091810480918204BC
:10103000909183042FBF089585ED8093BC0080912B
:10104000BC0084FDFCCF10928E04089520913804DA
:10105000260F3327331F21323105ECF420918E0403
:10106000FC0190E080E0243069F082E00895A091D6
:1010700038042191AC01485E5B4FA40FB52FB11D20
:101080002C930196861798F380913804680F60932B
:10109000380480E0089581E008950895E091920475
:1010A00080919104E81730F4F0E0E850FC4F808123
:1010B00090E008958FEF9FEF0895909192048091B2
:1010C00091042FEF3FEF981748F4E92FF0E0E85034
:1010D000FC4F208130E09F5F90939204C9010895F6
:1010E0008091910490919204891B990B0895CF925D
:1010F000DF92EF92FF920F931F93CF93DF937C01C8
:10110000CB018A012091F703222389F0EB016B01C7
:10111000C40ED51ECC15DD0569F06991D701ED919E
:10112000FC910190F081E02DC7010995F3CF642F68
:101130000E942608C801DF91CF911F910F91FF9067
:10114000EF90DF90CF900895CF93DF931F92CDB7AC
:10115000DEB769832091F7032223F9F020918F04F1
:10116000203258F021E030E0FC013383228390E00C
:1011700080E00F90DF91CF91089580919004E82F47
:10118000F0E0E952FC4F998190838F5F8093900447
:1011900080938F0481E090E0ECCF61E0CE01019676
:1011A0000E942608F7CFCF93FC01C48121E0209351
:1011B000F703C093D6031092900410928F04838596
:1011C000682B88E995E00E94A40890918F049132E1
:1011D00008F03FC080918E048111FCCF82E08093A3
:1011E0008E0481E080938D048FEF80935B041092D6
:1011F0007D0490937C04A7EDB3E0ECE5F4E080E09F
:1012000098132FC010927E0480917E04CC0FC82BBF
:10121000C0937E0480918C04813039F510928C0447
:1012200080917E048093BB008091BC0083FDF8CF49
:1012300085EC8093BC0080918E048230E1F3809134
:101240005B048F3F31F080915B04803211F080911C
:101250005B041092900410928F041092F703CF91C8
:1012600008952D9121938F5FCBCF85EEE2CF089526
:1012700090E080E00895CF93C4E060E08C2F0E945E
:10128000BB05CF5FCA30C9F7CF910895CF9383E0F4
:101290000E949205C1E0009709F4C0E0892B59F43F
:1012A0004EEE52E060E070E084EF91E00E94510663
:1012B0008C2FCF9108958AE00E94E905F9CFCF9253
:1012C000DF92EF92FF92CF93DF93EB0169017A01F6
:1012D000BC01990F880B990B0E9425266093C904C5
:1012E0007093CA048093CB049093CC04BE01DD0FAD
:1012F000880B990B0E9425266093C5047093C60441
:101300008093C7049093C804C0924401D0924501D1
:10131000E0924601F09247011092D504DF91CF91FF
:10132000FF90EF90DF90CF9008951092D704109225
:10133000CD041092CE041092CF041092D0041092DB
:10134000D5041092D60408954F925F926F927F92C7
:101350008F929F92AF92BF92CF92DF92EF92FF92C5
:101360000F931F93CF93DF93782E07E911E0C4EC1E
:10137000D3E0F12CE12C812C912C54018394CC24CA
:10138000C394D12C4E2CF80151908F01852D0E94D1
:1013900092056090D504892B09F059C00E9410086D
:1013A0006093D1047093D2048093D3049093D404B7
:1013B00088819981009709F416C1019699838883E1
:1013C00061100AC00E9410086093C0037093C103AB
:1013D0008093C2039093C30388819981892B71F410
:1013E000D501C40104C0880F991FAA1FBB1F4A94CE
:1013F000D2F786298093D504D982C882F1E07F1282
:1014000036C0852D0E949205892BD9F30E941008C1
:101410002091C0033091C103CB01821B930B68EE76
:1014200073E00E94C828C1E0C60F8C2FDF91CF91D6
:101430001F910F91FF90EF90DF90CF90BF90AF90F2
:101440009F908F907F906F905F904F90089519823A
:101450001882D501C4010E2C04C0880F991FAA1F41
:10146000BB1F0A94D2F7809586218093D5048FEF15
:10147000E81AF80A2296E4E0EE16F10409F082CFA9
:10148000C091D504F2E07F129EC08FEF8C0F8230A6
:1014900008F099C00E9410080091C0031091C10388
:1014A0002091C2033091C303601B710B820B930B1D
:1014B00028EE33E040E050E00E94F0284901C0905F
:1014C000C504D090C604E090C704F090C804229FE1
:1014D0008001239F100D100D112420E030E543EC16
:1014E00056E4C701B6010E941E2687FF48C0B80116
:1014F00090E080E00E94232620E030E040E250E4CB
:101500000E9416280E9488286F5F7F4F072E000CCC
:10151000880B990B0E9425262091440130914501AA
:1015200040914601509147010E9484268090CD044D
:101530009090CE04A090CF04B090D004C13039F583
:101540009B01AC01C501B4010E94A9276B017C017C
:101550008090C9049090CA04A090CB04B090CC04B1
:10156000A50194010E941E2687FF1FC08092CD0412
:101570009092CE04A092CF04B092D0041EC0089DD9
:10158000B001099D700D189D700D1124BDCFA501EE
:1015900094010E94AA274B015C01AC019B01C70189
:1015A000B6010E941E2687FFE1CFC092CD04D092E3
:1015B000CE04E092CF04F092D00461E470E080E0C9
:1015C00090E00E94DD0761E470E080E090E00E941E
:1015D000DD07CC2309F429CF6CE370E080E090E0D4
:1015E0000E94DD0722CF6110FBCEECCE0F931F933C
:1015F000CF938C01C62F0E94D3086C2F6460C80162
:101600000E94D3086C2F6B7FC8010E94D30883EC23
:1016100090E00197F1F7CF911F910F9108950F93EB
:101620001F93CF93DF938C01D62FC42F607F642B41
:101630000E94F60A80E1D89FB00111246C2BC801EA
:10164000DF91CF911F910F910C94F60ACF93DF9306
:10165000CDB7DEB728970FB6F894DEBF0FBECDBF6B
:1016600098E0EFE4F1E0DE01119601900D929A9579
:10167000E1F79091B805961710F46FEF690F262FD8
:1016800030E0220F331F41E050E04C0F5D1F240F6C
:10169000351FF9016081680F606840E080EB95E0DC
:1016A00028960FB6F894DEBF0FBECDBFDF91CF9165
:1016B0000C940F0B41E00E940F0B81E090E0089525
:1016C000CF93C82F862F642F0E94260B6C2F80EBA0
:1016D00095E0CF910C945A0B0F931F93CF93DF9308
:1016E0008C01D0E0C0E0F801EC0FFD1F649166238F
:1016F00039F041E080EB95E00E940F0B2196F3CF8B
:10170000CE01DF91CF911F910F910895CF93DF9379
:10171000D82F862F642F0E94260BC0E0CD1731F002
:1017200082E691E00E946C0BCF5FF8CFDF91CF9102
:1017300008950F931F93CF93DF930E94162820E004
:1017400030E040E252E40E9484260E948828CB01C7
:1017500065E070E00E94DC28C62FD82F011110C070
:10176000D5E0D81BC7E0C61BD53019F4C8E0C61BAE
:10177000D0E042E068E06C0F88E08C1B0E94860B92
:10178000CC2351F010E067E0610F42E086E00E9458
:10179000600B1F5FC113F7CFDD2359F067E06C0FBB
:1017A00042E081E08D0FDF91CF911F910F910C945A
:1017B000600BDF91CF911F910F9108958F929F92AF
:1017C000AF92BF92EF92FF920F93CF93DF9385304A
:1017D00090F57B01C09194048150990B24E0C29F45
:1017E000E0011124CB56DB4FC80FD91F688170E090
:1017F00090E080E00E9423264B015C01B7010F2C92
:10180000000C880B990B0E94252601E0A50194018C
:101810000E94990B988181E09E151F0409F00CF439
:1018200080E0DF91CF910F91FF90EF90BF90AF904C
:101830009F908F90089581E0F4CF41E061E083E1D3
:101840000E94860B42E061E083E10E94860B43E048
:1018500061E083E10C94860B482F60E084E10C94F6
:10186000860B82E00E942C0C6091D70470E090E01F
:1018700080E00E9423266093CD047093CE04809371
:10188000CF049093D0040E9410086093D104709309
:10189000D2048093D3049093D404089582E00E94EC
:1018A0002C0C83E00C942C0C0F931F93CF93DF939D
:1018B0008B0198E0899FB0011124606440E080EBC7
:1018C00095E00E940F0BE801085F1F4F699180EBC4
:1018D00095E00E945A0BC017D107C1F7DF91CF9155
:1018E0001F910F9108951F93CF93DF93CDB7DEB76C
:1018F00028970FB6F894DEBF0FBECDBF182F88E033
:10190000E7E5F1E0DE01119601900D928A95E1F78D
:10191000BE016F5F7F4F87E00E94540C60E0812F13
:101920000E94260B67E080EB95E00E945A0B2896F8
:101930000FB6F894DEBF0FBECDBFDF91CF911F91E0
:10194000089540E061E080EB95E00E940F0B8BE38F
:101950009FE10197F1F7089591E1899FB00111246A
:1019600069567C4F42E150E088ED94E00C94DE2310
:10197000EF92FF920F931F93CF93DF938B010C5F36
:101980001F4FEB017C01E61AF70AC7018C0F9D1F60
:101990000E9442278993C017D107B9F784E090E0ED
:1019A000DF91CF911F910F91FF90EF9008950F93CA
:1019B0001F93CF93DF930DEB14E0C8E2D0E0CE018C
:1019C0000E944227F80181938F012196C033D105EF
:1019D000B1F788E090E0DF91CF911F910F910895CA
:1019E000EF92FF920F931F93CF93DF937C018B01B4
:1019F000D0E0C0E0F80161918F01C7018C0F9D1FFD
:101A00000E944A272196C430D105A1F784E090E0D6
:101A1000DF91CF911F910F91FF90EF9008950F9359
:101A20001F93CF93DF930DEB14E0C8E2D0E0F801F1
:101A300061918F01CE010E944A272196C033D105C2
:101A4000B1F788E090E0DF91CF911F910F91089559
:101A50000F931F93CF93DF9306EB14E0C2E3D0E024
:101A6000F80161918F01CE010E944A272196C93366
:101A7000D105B1F787E090E0DF91CF911F910F91F1
:101A80000895FB0101900020E9F73197AF01461B53
:101A9000570BDC01ED91FC910280F381E02D09945C
:101AA0008F929F92AF92BF92EF92FF920F931F93EC
:101AB000CF93DF93CDB7DEB7A1970FB6F894DEBF13
:101AC0000FBECDBF7C01FA01CB0119A2223008F470
:101AD0002AE08E010F5D1F4F822E912CB12CA12C7C
:101AE000BF01A50194010E94F028F901CA016A30E2
:101AF0000CF5605DD8016E938D01232B242B252BD3
:101B000079F790E080E0109721F0BD01C7010E94B5
:101B1000410DA1960FB6F894DEBF0FBECDBFDF9189
:101B2000CF911F910F91FF90EF90BF90AF909F903A
:101B30008F900895695CDECFCF92DF92EF92FF9293
:101B40006C01990FEE08FF08F7FE18C041E06DE246
:101B500080EB95E00E940F0B44275527BA014C19E2
:101B60005D096E097F092AE080EB95E00E94500D27
:101B70000196FF90EF90DF90CF9008952AE0B70193
:101B8000A60180EB95E0FF90EF90DF90CF900C9452
:101B9000500D4F925F926F927F928F929F92AF9271
:101BA000BF92CF92DF92EF92FF920F931F93CF934A
:101BB0006B017C01742EAC019B010E94C32861EB78
:101BC00072E0811126C046015701E894B7F82FEF63
:101BD0003FEF4FE75FE7C501B4010E94C3288111C1
:101BE0000CC02FEF3FEF4FE75FE7C501B4010E9444
:101BF0001E2665EB72E0181664F02FEF3FEF4FE7FB
:101C00005FE4C701B6010E94BE281816ACF469EB68
:101C100072E080EB95E0CF911F910F91FF90EF90D4
:101C2000DF90CF90BF90AF909F908F907F906F90FC
:101C30005F904F900C94410D2FEF3FEF4FE75FEC1B
:101C4000C701B6010E941E2687FDE1CF20E030E0EB
:101C5000A901C701B6010E941E2610E000E087FF1F
:101C60000CC041E06DE280EB95E00E940F0BF7FAAB
:101C7000F094F7F8F09401E010E0C0E060E070E06C
:101C800080E09FE37C1641F020E030E040E251E448
:101C90000E941628CF5FF6CFA70196010E94AA27BF
:101CA0004B015C010E948F282B013C012AE0BC0102
:101CB000A20180EB95E00E94500D080F191FCC2364
:101CC000D9F1C301B2010E9423269B01AC01C501D9
:101CD000B4010E94A9274B015C0141E06EE280EB58
:101CE00095E00E940F0B0F5F1F4FC15028F120E0BD
:101CF00030E040E251E4C501B4010E9484262B018A
:101D00003C010E948F284B01B12CA12C2AE0B50187
:101D1000A40180EB95E00E94500D080F191FC5012A
:101D2000B4010E9423269B01AC01C301B2010E94B1
:101D3000A9274B015C01D9CFC801CF911F910F9109
:101D4000FF90EF90DF90CF90BF90AF909F908F90DB
:101D50007F906F905F904F900895CF93DF93AC0189
:101D600070E060E02AE08BEF94E00E94500DEC01FF
:101D70006DEB72E08BEF94E00E94410D8C0F9D1F84
:101D8000DF91CF9108950C94410DCF93DF93EC0137
:101D9000862F642F0E94260BBE0180EB95E0DF9119
:101DA000CF910C94C30ECF93C82F42E066E08AE037
:101DB0000E94860B8DE0C89FB00111246656784FB3
:101DC00042E150E088ED94E00E94DE2341E062E0D1
:101DD00088ED94E0CF910C94C50EFF920F931F9362
:101DE000CF93DF9300D000D000D0CDB7DEB7F42E74
:101DF0001A821982FE01339624E0DF011D922A9592
:101E0000E9F72CE330E040E050E00E94F0289F9397
:101E10008F937F936F933F932F9380EC92E09F93E8
:101E20008F938E010F5F1F4F1F930F930E94312BD3
:101E300042E06F2DC8010E94C50E0FB6F894DEBFB8
:101E40000FBECDBF26960FB6F894DEBF0FBECDBF36
:101E5000DF91CF911F910F91FF90089540E062E0D4
:101E600088E391E00E94C50E40E06DE081E391E0DF
:101E70000E94C50E83E10C94730CCF92DF92EF9217
:101E8000FF920F931F93CF93DF93D82E61110E947F
:101E9000D30E8091B80441E061E081113BC081E044
:101EA000D81238C089EC92E00E94C50EC6E0DC9ED4
:101EB00080011124F12CE12CE80182E1C82E84E09C
:101EC0008E0D92E09D1548F19091B804911125C0B6
:101ED0002091B9042150330BC29EF001C39EF00D36
:101EE0001124EC0FFD1FE754FE4FEE0DFF1D608126
:101EF0000E94BB058FEFE81AF80A96E0E916F10494
:101F0000F1F6DF91CF911F910F91FF90EF90DF904D
:101F1000CF9008958CE793E0C7CFF801EE0DFF1D39
:101F2000E556FE4FE4CF0E94AC0C83E00E942C0CDF
:101F300043E061E088ED94E00C94C50ECF93DF930D
:101F4000C82FD62F6091940485E0689FB0011124BA
:101F500066597C4F42E150E088ED94E00E94DE2318
:101F60004D2F6C2F88ED94E00E94C50E6BEC72E053
:101F700080EB95E0DF91CF910C94C30ECF93DF936C
:101F8000C82FD42F8230B9F0833011F181E1689FDE
:101F9000B0011124675B7D4F42E150E088ED94E091
:101FA0000E94DE23C2E04D2F6C2F88ED94E0DF917C
:101FB000CF910C94C50E81E1689FB00111246C5043
:101FC0007E4F42E150E088ED94E00E94DE23EBCFAB
:101FD00080E1689FB00111246C597E4FF2CF42E03E
:101FE0006CE081E00E94BE0F6CED75E080E090E057
:101FF0000E94DD0782E00C942C0C0E941D0C86E0F0
:102000000E94D30E43E064E082E00E94BE0F60E0D5
:1020100081E00E943D0F68E873E180E090E00E945B
:10202000DD0743E061E083E00C94BE0FCF93DF93C4
:102030000E943B090E941D0C86E00E94D30E43E0E3
:1020400064E082E00E94BE0F8091D003882319F1E2
:102050008091D503CCE3D0E0882351F0E091940443
:1020600084E0E89FF0011124EB56FB4FC381D0E0E0
:1020700061E084E00E943D0F88EE93E0C89FB001CC
:10208000C99F700DD89F700D112490E080E00E94D0
:10209000DD070E943B098091B604813011F40E9453
:1020A000FD0F0E943B091092D003DF91CF910C9459
:1020B0001D0C6091940470E090E080E00E94232663
:1020C0006093CD047093CE048093CF049093D0049A
:1020D00041E063E081E00E94BE0F43E060E083E006
:1020E0000E94BE0F20E030E040E85FE367E070E070
:1020F00090E080E00E945F096091CD047091CE0471
:102100008091CF049091D0040E948F286093940412
:1021100062E087E00E949E0F82E00E94A409809105
:10212000D504882349F38830B9F48091940490E071
:10213000BC01660F771F660F771F6B567B4F880FAA
:10214000991FFC01EB50FE4F808191810E94B80CD9
:1021500081E08093B5040895843071F642E062E036
:1021600082E10E94860B80E00895CF92DF92EF9289
:10217000FF920F931F93CF931092D5030E94A10C4F
:102180000E942E0F87E00E94D30E43E061E083E0BF
:102190000E94BE0F0E943B0980E00E94A40980912A
:1021A000D5048823C9F36EEC72E08BEF94E00E94B3
:1021B000C30E4091D50450E070E060E02AE08BEF60
:1021C00094E00E94500D6DEB72E08BEF94E00E9462
:1021D000410D8091D5048150823010F41092D504C5
:1021E0008091D504843009F490C08830A9F66EEE51
:1021F00072E08BEF94E00E94410D6DEB72E08BEF8B
:1022000094E00E94410D0FEE11E0C4E0F8016191ED
:102210008F018C2F0E94BB058091B804813021F47E
:1022200061E089E00E94BB05CF5FC93079F70E9469
:1022300010086093D1037093D2038093D3039093DB
:10224000D40388EEC82E83E0D82EE12CF12C43E095
:1022500066E083E00E94BE0F0E9410080091D10347
:102260001091D2032091D3033091D403601B710BE2
:10227000820B930BA70196010E94F028B901330F3E
:10228000880B990B4FE00E94ED0E1092D50480E070
:102290000E94A4098091D5048823C9F261E073E00B
:1022A0008BEF94E00E94C30E4091D50450E070E0A3
:1022B00060E02AE08BEF94E00E94500D6DEB72E03D
:1022C0008BEF94E00E94410D8091D50481508230C3
:1022D00010F41092D5048091D504843009F188302F
:1022E00009F0B5CF0E943B09C0E01092D50442E04E
:1022F00060E184E00E94860B43E061E083E00E949D
:10230000BE0FC11102C00E94B5100E943B09CF91BF
:102310001F910F91FF90EF90DF90CF900C94950953
:10232000C1E0E3CFBF92CF92DF92EF92FF920F9383
:102330001F93CF93DF93B82E6A01EA010990002022
:10234000E9F721977E01E41AF50A262F30E089018A
:102350000E19110917FF02C00F5F1F4F1595079542
:102360001E2D1170100FC4E1D0E0C21BD30BD59508
:10237000C7954B2D6C2F802F0E94860BB60180EBEA
:1023800095E00E94C30E6C2F6E0D600F4B2D812FB8
:10239000DF91CF911F910F91FF90EF90DF90CF9041
:1023A000BF900C94860B40E062E088E391E00E94CD
:1023B000C50E81E10E94730C41E064E081E293E08C
:1023C0000E94C50E61E371E080EB95E00E94C30EB0
:1023D00040E051E064E182E00C9492111F93CF93AE
:1023E000DF93182FEA01882399F023E1629FC0014F
:1023F0001124123049F1133059F1BC016F5E794F4D
:1024000042E150E088ED94E00E94DE2313E00DC02D
:102410008DE0689FB0011124665B794F42E150E086
:1024200088ED94E00E94DE2312E048ED54E064E180
:10243000812F0E949211BE01DD0F880B990BDF9155
:10244000CF911F910C94DD07BC0165517A4FD8CF15
:10245000BC01605C7A4F42E150E088ED94E00E945C
:10246000DE23E3CFCF930E944E0C42E150E063EFB6
:1024700072E088ED94E00E94DE2348ED54E064E1D0
:1024800082E00E949211C3E043E06C2F8DE693E05E
:102490000E94C50E6EE571E080E090E00E94DD07CD
:1024A000CD5FC23189F742E150E064E073E088ED2E
:1024B00094E00E94DE2348ED54E064E183E00E9452
:1024C000921166E475E080E090E0CF910C94DD0716
:1024D0004F925F926F927F928F929F92AF92BF9234
:1024E000CF92DF92EF92FF920F931F93CF93DF93E0
:1024F000CDB7DEB7982E862EE42EADB6BEB6F82E3A
:10250000F60E4090CD045090CE046090CF047090B1
:10251000D00420E030E0A901C301B2010E941E26D0
:1025200087FD57C0F3948DB79EB78F1991090FB6E9
:10253000F8949EBF0FBE8DBFEDB7FEB731966F0109
:102540006FEB72E0CF010E942A2BF6010190002070
:10255000E9F78F0101501109282D492DC301B2015E
:102560000E94C023F60101900020E9F73197EC1991
:10257000FD09FE1A20E030E0A9016091CD047091C0
:10258000CE048091CF049091D0040E94BE2887FF92
:10259000F39442E06E2D8F2D0E94860BB60180EBE6
:1025A00095E00E94C30E0FB6F894BEBE0FBEADBE3E
:1025B000DF91CF911F910F91FF90EF90DF90CF901F
:1025C000BF90AF909F908F907F906F905F904F9053
:1025D0000895F394F394A7CFCF93DF93EC01888110
:1025E0009981009711F00E94D329198218821D82C7
:1025F0001C821B821A82DF91CF910895EF92FF9285
:102600000F931F93CF93DF93EC017B018A018881A5
:102610009981009729F02A813B812417350788F496
:10262000B8016F5F7F4F0E945C2A0097C9F09983C1
:1026300088831B830A832C813D81232B11F4FC01A9
:1026400010821D830C83B701888199810E942A2BF7
:10265000CE01DF91CF911F910F91FF90EF900895E0
:10266000CE010E94EC12F4CFFB0101900020E9F7AB
:102670003197AF01461B570B0C94FE12CF93DF939B
:10268000EC01FB018617970749F0608171816115A4
:10269000710541F0448155810E94FE12CE01DF9107
:1026A000CF9108950E94EC12F9CFFC0111821082A3
:1026B0001382128215821482FB0101900020E9F737
:1026C0003197AF01461B570B0C94FE12FC01808121
:1026D0009181009711F00C94D3290895AF92BF9285
:1026E000CF92DF92EF92FF920F931F93CF93DF93DE
:1026F000CDB7DEB72C970FB6F894DEBF0FBECDBFB7
:1027000095E0899FB00111246E5F774F42E150E060
:1027100088ED94E00E94DE2368ED74E0CE01079618
:102720000E94551310E000E0602F80E00E94260B0D
:102730006801EFEFCE1ADE0A5601C016D10610F47A
:10274000580186016FEB72E0CE0101960E9455138D
:10275000EB84FC840E151F05D8F4AE14BF0408F4F6
:102760007501EF81F885EE0DFF1DB08010826F813D
:102770007885600F711FCE0101966115710551F1C9
:102780000E9434138F819885E80EF91EF701B082FC
:10279000CE0101960E948004CE0101960E9466132C
:1027A00086010430110509F0BFCFCE0107960E94C3
:1027B00066132C960FB6F894DEBF0FBECDBFDF9127
:1027C000CF911F910F91FF90EF90DF90CF90BF902E
:1027D000AF9008950E94EC12D5CF2F923F924F9266
:1027E0005F926F927F928F929F92AF92BF92CF92A1
:1027F000DF92EF92FF920F931F93CF93DF9300D05E
:1028000000D000D0CDB7DEB7182F1092D0032BEF39
:10281000280F29832093D5030E94A10C0E942E0F1C
:1028200089810E946E1380E00E94D30E8091D503AF
:10283000882391F08091B50481110EC00E94591037
:10284000882309F422C141E062E082E10E94860B04
:1028500061E08EE00E949E0F43E063E083E00E940F
:10286000BE0F81E090E02091B804222311F090E0A7
:1028700080E0EE24FF24E81AF90A61E080E00E947B
:102880003D0F42E063E082E00E94BE0F00E031E0D5
:102890003E831D8294EF292E332433940E94100826
:1028A0002B013C018091D1039091D203A091D303DD
:1028B000B091D40389839A83AB83BC830E941008B0
:1028C0008090CC039090CD03A090CE03B090CF0326
:1028D000681979098A099B0928EE33E040E050E045
:1028E0000E94F02849015A018091D503882389F07C
:1028F0009D81973089F0C90165E070E00E94C82889
:10290000039718F4AD81A33020F061E08EE00E94BF
:102910009E0FBD81B11103C0BB24B39438C02D817B
:102920002730D0F7C301B20129813A814B815C8104
:10293000621B730B840B950B28EE33E040E050E0F4
:102940000E94F028CA01B901882799274FE00E9408
:10295000ED0E3D81353000F741E0C501B401882717
:1029600099270E94ED0E8091D503823051F083307B
:1029700009F47EC0813081F6B4018D810E94DE0BA6
:1029800005C04D814330C1F70E944609B82E81E051
:102990000E94A4098091D504811171C0B1107ECF2D
:1029A0008091B804811104C0011102C081E08D83BF
:1029B00043E061E083E00E94BE0F9D819F5F9D83A5
:1029C000AE81AA2309F463C241E06EE088E293E09D
:1029D0000E94C50EC70101960E949C0D01116DC297
:1029E0000E9410086093D1037093D2038093D303A5
:1029F0009093D4030E9410086093CC037093CD038E
:102A00008093CE039093CF0381E08093D00342E084
:102A100067E088E00E94860BBE81BB2309F462C098
:102A20008091B70490E0E816F9060CF059C02D81AA
:102A3000233009F052C057013FEFA31AB30A41E017
:102A40006EE0A816B906DCF186E00E94860B7501DF
:102A50001E828091B804811145C08091B9048330F1
:102A600009F040C09D819130E9F552E05D8315C1C8
:102A70005D81533009F488CFB401852F7FCF843036
:102A800021F0883009F48CCF09CF26960FB6F89440
:102A9000DEBF0FBECDBFDF91CF911F910F91FF9091
:102AA000EF90DF90CF90BF90AF909F908F907F90EE
:102AB0006F905F904F903F902F900C94161088E28B
:102AC00093E00E94C50EC70102960E949C0D7501FD
:102AD00041E04E8351E05D83BCCF81E08E83B9CF6E
:102AE000A1E0AE83BD81B43009F0D7C00E943B099C
:102AF0000E941D0C0E9410082B018091BA048823AB
:102B000009F459C08090BB049090BC04A12CC6016C
:102B1000B1010E94DC28A61617064CF446E950E0E5
:102B200060E070E084EF91E00E945106A39441E0E0
:102B300060E181E00E94BE0F43E068E083E00E9414
:102B4000BE0F1092D50480E00E94A4098091D504A4
:102B5000882341F0843009F498CF38F481508230D2
:102B600008F4B8C0BB24B39403C0B12C8830D1F7AB
:102B70000E9410086B01C418D508C814D904DCF4ED
:102B8000B401092C000C880B990B0E94252669833F
:102B90007A838B839C83B6010D2C000C880B990BD8
:102BA0000E94252600E029813A814B815C810E94A8
:102BB000990BB110ACCF0E941D0C0E9410085B0154
:102BC000912C812C0E9410082B016EE273E08BEF98
:102BD00094E00E94C30EC5010E94AD0E60E473E054
:102BE0008BEF94E00E94C30EC5010E94AD0E62E51A
:102BF00073E08BEF94E00E94C30E4A185B08C20199
:102C00000E94AD0E6DEB72E08BEF94E00E94410DDF
:102C10000E9410082091D1033091D2034091D30338
:102C20005091D403621B730B840B950B28EE33E099
:102C300040E050E00E94F028B901330F880B990B57
:102C40004FE00E94ED0E61E086E00E94BB0543E08C
:102C500065E021E08216910409F057C084E693E014
:102C60000E94C50E6AEF70E080E090E00E94DD07F0
:102C70003FEF831A930A40ED441647E0540608F4E8
:102C8000A1CF0E943B090E9410086093CC0370936F
:102C9000CD038093CE039093CF0343E061E083E0C4
:102CA0000E94BE0F8D818530D0F58091B8048111CE
:102CB00033C08091B904833079F58091B704815095
:102CC000990B8E159F0541F561E081E00E943D0F53
:102CD00001E0E4CD0E941D0C61E083E00E943D0F05
:102CE0008EE00E949205892BD9F38FE00E94920515
:102CF000892BB1F30E943B090E9410082B01A12CE3
:102D00008CEA882E8DE0982E2DCF81E793E00E94EB
:102D1000C50E912C812CA6CF61E08D81D7CF0E946A
:102D20003B099091D50399830E94A10C0E942E0F1C
:102D300089810E946E130E941008C090D103D09028
:102D4000D203E090D303F090D4036C197D098E096F
:102D50009F0928EE33E040E050E00E94F028B901DE
:102D6000330F880B990B4FE00E94ED0E0E941D0C53
:102D700041E062E081E00E94BE0F42E061E082E05B
:102D80000E94BE0F43E065E083E00E94BE0FA3E017
:102D9000A9834BEB50E060E070E087E891E00E948F
:102DA000510668EC70E080E090E00E94DD07B98198
:102DB000B150B983B111EDCF4AEF50E060E070E05F
:102DC00086E291E00E94510641E062E081E00E94CB
:102DD000BE0F42E061E082E00E94BE0F43E065E08A
:102DE00083E00E94BE0F80E00E94A4098091D50478
:102DF000882351F38430C1F08830D1F1823021F73B
:102E00000E941D0C84E00E94D30E8FE00E94920568
:102E1000892B29F461E088E00E94BB05F6CF0E946F
:102E20003B090E941D0CD0CF8091B604813011F473
:102E30000E94FD0F0E943B091092B50426960FB622
:102E4000F894DEBF0FBECDBFDF91CF911F910F91E0
:102E5000FF90EF90DF90CF90BF90AF909F908F90BA
:102E60007F906F905F904F903F902F900C949509BA
:102E70008091D503882339F081E00E94A409833032
:102E800010F01092B504812F0E94ED13D5CF0023CE
:102E900009F4A6CD0E9410086093CC037093CD0373
:102EA0008093CE039093CF0381E08093D00342E0E0
:102EB00067E088E00E94860B15CE0E9410086093A0
:102EC000CC037093CD038093CE039093CF0381E026
:102ED0008093D00342E067E088E00E94860BA0CD9B
:102EE000FF920F931F93CF93DF93CDB7DEB72C974D
:102EF0000FB6F894DEBF0FBECDBF0E94AC0C68EDDC
:102F000074E0CE0107960E9455130F8118850115B4
:102F1000110571F0F80181918F01882349F0082E85
:102F2000000C990B0E94192BF80131978083F2CF86
:102F30001A8219821C821B821E821D82BE01695F59
:102F40007F4FCE0101960E943E13FD8084E190E008
:102F50008F19910997FD01968C01159507951F2DE5
:102F60001170100F41E060E0802F0E94860BCE01AF
:102F700001960E948004602F6F0D41E0812F0E9416
:102F8000860BCE0101960E9466131A8219821C825A
:102F90001B821E821D82BE01695F7F4FCE0101969A
:102FA0000E943E13CE0101960E946613CE01079641
:102FB0000E9466132C960FB6F894DEBF0FBECDBFED
:102FC000DF91CF911F910F91FF900895CF93DF93E1
:102FD000CDB7DEB762970FB6F894DEBF0FBECDBF98
:102FE0000E9470171A8219821C821B821E821D8207
:102FF00064EA75E0CE0101960E943E1318861F8296
:103000001A8619861C861B866AEA75E0CE01079629
:103010000E943E1368ED74E0CE010D960E94551398
:10302000CE010D960E946613CE0107960E9466138C
:10303000CE0101960E94661362960FB6F894DEBF29
:103040000FBECDBFDF91CF910895CF92DF92EF9267
:10305000FF92CF93DF93E091D70424E0E29FF00149
:103060001124EB5DFD4F82810E94E61781E0809381
:10307000D6048091D604882309F447C163E081E037
:103080000E94260B20E030E040E85FE36091CD0431
:103090007091CE048091CF049091D0040E94A92712
:1030A0002091C9043091CA044091CB045091CC04C2
:1030B0000E941E266EE773E087FD02C060E873E0A1
:1030C0008AEA95E00E9434138AEA95E00E9480041F
:1030D0006091CD047091CE048091CF049091D00482
:1030E0000E948828862F0E94AC0C48ED54E060E1D5
:1030F00083E00E94921163E082E10E94260B20E0AF
:1031000030E040E85FE36091CD047091CE0480919F
:10311000CF049091D0040E94AA272091C504309139
:10312000C6044091C7045091C8040E94BE286EE7AF
:1031300073E0181614F062E873E084EA95E00E94E8
:10314000341384EA95E00E948004C091D70484E09F
:10315000C89FE0011124CB5DDD4F688170E090E0F5
:1031600080E00E9423266093C9047093CA04809370
:10317000CB049093CC04698170E090E080E00E94E1
:1031800023266093C5047093C6048093C70490936C
:10319000C80480E090E0A0E8BFE3809344019093EE
:1031A0004501A0934601B09347011092D50482E0F7
:1031B0000E94A4090E941008C090D104D090D204AB
:1031C000E090D304F090D4046C197D098E099F0916
:1031D000693873418105910510F00E94950980912D
:1031E000D504882309F445CF843039F1883009F0BB
:1031F00040CFC090CD04D090CE04E090CF04F090AA
:10320000D004C701B6010E948828E091D70424E0C9
:10321000E29FF0011124EB5DFD4F23812617170675
:10322000B9F5C701B6010E948F28862FDF91CF9193
:10323000FF90EF90DF90CF900895E091D70424E0C5
:10324000E29FF0011124EB5DFD4FC281C093D704D2
:103250006C2F70E090E080E00E9423266093CD0404
:103260007093CE048093CF049093D004C11103C017
:103270000E949509FECE82E00E942C0C84E0C89F3B
:10328000F0011124EB5DFD4F82810E94E617F1CE23
:10329000660F771F660F771F6B5D7D4FFB01C38144
:1032A000C093D7046C2F70E090E080E00E9423264A
:1032B0006093CD047093CE048093CF049093D00498
:1032C0008C2F90E0EC01CC0FDD1FCC0FDD1FFE0139
:1032D000EB5DFD4F60816817190699F094F021812C
:1032E0002817190671F06CF070E090E080E00E9401
:1032F00023266093CD047093CE048093CF049093E3
:10330000D004CB5DDD4F8A81C0CF90CF8091D704B0
:103310000E94E6170E944E0C43E060E083E00C94AC
:10332000BE0F1F920F920FB60F9211242F933F934F
:103330004F935F936F937F938F939F93AF93BF93BD
:10334000EF93FF938091EF049091F004A091F1042A
:10335000B091F204892B8A2B8B2BD1F19091EA0446
:10336000E091EB04F091EC048081892780838091C7
:10337000EF049091F004A091F104B091F2041816BA
:1033800019061A061B069CF48091EF049091F00434
:10339000A091F104B091F2040197A109B1098093C1
:1033A000EF049093F004A093F104B093F204FF9122
:1033B000EF91BF91AF919F918F917F916F915F91AD
:1033C0004F913F912F910F900FBE0F901F90189526
:1033D000809148010E94E905EACF1F920F920FB633
:1033E0000F9211242F933F934F935F936F937F938B
:1033F0008F939F93AF93BF93EF93FF938BEF94E0E3
:103400000E94DA04FF91EF91BF91AF919F918F914C
:103410007F916F915F914F913F912F910F900FBED0
:103420000F901F9018951F920F920FB60F921124B4
:103430002F938F939F93EF93FF93E0910B05F09160
:103440000C058081E0911105F091120582FD1BC0F1
:103450009081809114058F5F8F73209115058217DD
:1034600041F0E0911405F0E0E550FB4F958F80931B
:103470001405FF91EF919F918F912F910F900FBEA7
:103480000F901F9018958081F4CF1F920F920FB666
:103490000F9211242F933F938F939F93AF93BF93DA
:1034A0008091800490918104A0918204B091830462
:1034B00030917F0423E0230F2D3758F50196A11D8D
:1034C000B11D20937F048093800490938104A09386
:1034D0008204B09383048091840490918504A09128
:1034E0008604B09187040196A11DB11D80938404C8
:1034F00090938504A0938604B0938704BF91AF9105
:103500009F918F913F912F910F900FBE0F901F9021
:10351000189526E8230F0296A11DB11DD2CF1F9248
:103520000F920FB60F9211242F933F934F935F93F7
:103530006F937F938F939F93AF93BF93EF93FF937B
:103540008091B900887F803609F44AC0F0F588324E
:1035500009F4A7C018F5803109F49BC0B8F488239A
:1035600009F4F9C0883009F494C0FF91EF91BF913C
:10357000AF919F918F917F916F915F914F913F910B
:103580002F910F900FBE0F901F901895883109F45E
:1035900088C0803251F780935B0414C0803409F4F2
:1035A0009DC040F48033B9F38833F9F680935B040F
:1035B00085ECB0C0803509F485C0883509F496C023
:1035C000883499F60E941C08D0CF883909F48CC041
:1035D00038F5883729F050F4883611F0803729F60D
:1035E00083E080938E0410925A0457C0883809F4FF
:1035F0007BC0803919F0803809F0B7CF80915A0428
:10360000803208F071C0E0915A0481E08E0F8093FF
:103610005A048091BB00F0E0E65CFB4F80833DC024
:10362000803B39F0E0F4803A09F479C0883A09F037
:103630009CCF84E080938E04109239041092380459
:10364000E0918A04F0918B040995809138048111EE
:103650000FC081E0809338041092180409C0803CA8
:1036600009F4A6CF883C09F4A3CF883B09F07DCFAD
:10367000E091390481E08E0F80933904F0E0E85E38
:10368000FB4F80818093BB00909139048091380476
:1036900029C080917E048093BB0085EC8093BC00A0
:1036A00064CF90917D0480917C04981758F5E09147
:1036B0007D0481E08E0F80937D04F0E0E45AFB4F9F
:1036C0008081E9CFE0917D0481E08E0F80937D04BD
:1036D0008091BB00F0E0E45AFB4F808390917D0421
:1036E00080917C049817C8F285E8D8CFE0917D04DA
:1036F00081E08E0F80937D048091BB00F0E0E45A5E
:10370000FB4F808380918D0481115CCF81E0809399
:103710008C0484EA8093BC0010928E0426CF85EC42
:103720008093BC0010928E0480915A04803230F451
:10373000E0915A04F0E0E65CFB4F108260915A047D
:1037400070E0E0918804F09189048AE394E009959F
:1037500010925A040ACF10925B0434CFEBEFF4E0DE
:103760001382128288EE93E0A0E0B0E08483958318
:10377000A683B78325E832E03183208325EC30E04F
:103780003587248724EC30E03787268720EC30E02B
:10379000318B208B21EC30E0338B228B22EC30E01C
:1037A000358B248B26EC30E0378B268B118E128ED6
:1037B000138E148EE8E9F5E01382128284839583D8
:1037C000A683B78387E992E091838083E0EBF5E0FD
:1037D0001382128289EA92E09183808387E2848354
:1037E00084E1818784E0828713866FEB72E08AEA46
:1037F00095E00E9455136FEB72E084EA95E00C941B
:103800005513CF93DF93CDB7DEB7C054D1090FB6B0
:10381000F894DEBF0FBECDBF789484B5826084BDBE
:1038200084B5816084BD85B5826085BD85B58160C4
:1038300085BD80916E00816080936E001092810042
:1038400080918100826080938100809181008160FD
:1038500080938100809180008160809380008091BE
:10386000B10084608093B1008091B000816080934A
:10387000B00080917A00846080937A0080917A0011
:10388000826080937A0080917A00816080937A00D0
:1038900080917A00806880937A001092C100F5E9E7
:1038A000EF2EF4E0FF2E05EF11E0B701F801819152
:1038B00091918F010E94B80CF4E0EF0EF11C42E0F0
:1038C0000530140791F70E94D70CE6EBEE2EE4E0EA
:1038D000FE2E02E310E0C8010E944227F701819307
:1038E0007F010F5F1F4F09331105A9F71092920452
:1038F000109291041092900410928F0410928E04F2
:1039000081E080938D0410928C0461E082E10E943A
:10391000BB0561E083E10E94BB058091B9008E7F09
:103920008093B9008091B9008D7F8093B90088E4BD
:103930008093B80085E48093BC0081E594E0909387
:103940008B0480938A0482E594E0909389048093A9
:1039500088041092B5058091BA05823018F098E07D
:103960009093B5058093B80562E370E080E090E045
:103970000E94DD076091BB0580EB95E00E94D308B3
:1039800068EE73E080E090E00E94DD0760E380EB8A
:1039900095E00E94F60A0BE416E4C8010197F1F7DE
:1039A00060E380EB95E00E94F60AC8010197F1F709
:1039B00060E380EB95E00E94F60A83E592E00197D0
:1039C000F1F760E280EB95E00E94F60A6091B505A0
:1039D000606240E080EB95E00E940F0B84E08093F2
:1039E000B60540E06CE080EB95E00E940F0B0E9472
:1039F000A10C82E08093B70540E066E080EB95E0A3
:103A00000E940F0B40E062E080EB95E00E940F0BFC
:103A10008BE39FE10197F1F718E01093BB0560E09D
:103A200080EB95E00E94D3086AEF70E080E090E0C0
:103A30000E94DD071092BB0560E080EB95E00E94DC
:103A4000D3086AEF70E080E090E00E94DD071093F9
:103A5000BB0560E080EB95E00E94D30862E083E064
:103A60000E94150661E084E00E94150661E085E091
:103A70000E94150661E086E00E94150661E087E07D
:103A80000E94150661E088E00E94150661E089E069
:103A90000E94150661E08AE00E94150662E08EE051
:103AA0000E94150662E08FE00E94150662E080E148
:103AB0000E94150662E081E10E94150660E084E143
:103AC0000E94150660E085E10E941506EFE5F1E031
:103AD000DE01D996812F01900D928A95E1F7E7E6F4
:103AE000F1E0DE01D196812F01900D928A95E1F7E8
:103AF000EFE6F1E0DE019996812F01900D928A9513
:103B0000E1F7E7E7F1E0DE019196812F01900D9258
:103B10008A95E1F7EFE7F1E0DE015996812F0190F8
:103B20000D928A95E1F7E7E8F1E0DE015196812FE9
:103B300001900D928A95E1F7EFE8F1E0DE01199628
:103B4000812F01900D928A95E1F7CE0101967C01BB
:103B5000FC0111921A95E9F78CE18983BE01675C3B
:103B60007F4F80E00E94540CBE016F5C7F4F81E06C
:103B70000E94540CBE01675D7F4F82E00E94540C8E
:103B8000BE016F5D7F4F83E00E94540CBE01675EF3
:103B90007F4F84E00E94540CBE016F5E7F4F85E032
:103BA0000E94540CBE01675F7F4F86E00E94540C58
:103BB000B70187E00E94540C40E063E080E00E947F
:103BC000600B61E080EB95E00E945A0B40E068E0FA
:103BD00084E00E94600B65E080EB95E00E945A0B48
:103BE00041E063E082E00E94600B63E080EB95E0DF
:103BF0000E945A0B89E097E00E946C0B66E080EB14
:103C000095E00E945A0B67E080EB95E00E945A0B0A
:103C100081E097E00E946C0B42E060E084E893E072
:103C20000E94C50E43E060E089E993E00E94C50E62
:103C300060EA7FE080E090E00E94DD070E94A10C36
:103C400069E271E082E00E94540C61E271E083E07D
:103C50000E94540C69E171E084E00E94540C61E11F
:103C600071E085E00E94540C69E071E086E00E94FA
:103C7000540C812C912C50E8A52E5FE3B52E412CDD
:103C8000512C612C6FEB762E7CEA272E7DE0372EAF
:103C90000E94D31180919304843008F41BC11092C8
:103CA000930460919304F1E16F9FB0011124635F6D
:103CB000784F42E150E088ED94E00E94DE2348ED29
:103CC00054E062E183E00E94921166E970E080E0D6
:103CD00090E00E94DD070E94950980E00E94A409FF
:103CE0008091D504813009F0C4C00E941D0C83E08E
:103CF0000E94E6178CE00E94AC0C48ED54E064E1B1
:103D000082E00E94921185E10E94930F63E08FE0B0
:103D10000E94260B6091BD047091BE048091BF0487
:103D20009091C00442E00E94C90D64EC79E080E00B
:103D300090E00E94DD0786E10E94930F63E08EE031
:103D40000E94260B6091C1047091C2048091C3044B
:103D50009091C40442E00E94C90D64EC79E080E0D7
:103D600090E00E94DD078AE00E94AC0C48ED54E030
:103D700064E182E00E94921183E00E942C0C43E0F7
:103D800061E08EEA93E00E94C50E8091B60443E0A4
:103D900061E18111A3C086EB93E00E94C50E64EC43
:103DA00079E080E090E00E94DD078EE00E94930FB2
:103DB00063E082E10E94260B4091B70450E070E07E
:103DC00060E02AE080EB95E00E94500D64EC79E021
:103DD00080E090E00E94DD078FE00E94930F63E097
:103DE00081E10E94260B8091B80481117AC066EBB4
:103DF00073E080EB95E00E94C30E64EC79E080E014
:103E000090E00E94DD0787E10E94930F6091B90462
:103E10004CE0649FB00111246E59784F42E150E0AC
:103E200088ED94E00E94DE2343E068E088ED94E0B2
:103E30000E94C50E64EC79E080E090E00E94DD070E
:103E400080E10E94930F63E081E10E94260B809144
:103E5000BA0481114DC066EB73E080EB95E00E94DF
:103E6000C30E64EC79E080E090E00E94DD070E94E0
:103E70001D0C8091D504883009F068C481E08093DE
:103E8000D7048092CD049092CE04A092CF04B09239
:103E9000D0040E942518ECEFE80FE53108F07CC053
:103EA000F0E0EB5AF04E0C943129921F2C202C207C
:103EB0002C2031203420CC1F3720CC1F3221D5219B
:103EC0001F221F22CC1FCC1FCC1FCC1F40234023FE
:103ED000CC1F31208F5F80939304E3CE89EB93E076
:103EE0005CCF69EB73E080EB95E00E94C30EA2CF3C
:103EF00069EB73E080EB95E00E94C30E64EC79E01F
:103F000080E090E00E94DD0788E10E94930F63E06B
:103F10008FE00E94260B8091BB049091BC040E940C
:103F20009C0D9FCF0E94A10C0E942E0F84E00E9446
:103F3000701768EE73E080E090E00E94DD0710E00B
:103F400044EF51E0612F80E00E94EE11EFEFE10FAE
:103F5000EA3050F5F0E0E155F04E0C943129DE1FC7
:103F6000DE1FDA1FE31FEC1FFA1F0820B91F1B20FA
:103F70001F204CED55E060E082E00E94EE114CED18
:103F800055E061E082E00E94EE110E944E0C1F5F3E
:103F90001B30B1F60E9495098091D704882309F45B
:103FA000D3C30E94D31175CF40ED57E061E083E0A9
:103FB0000E94EE1140ED57E062E003C040ED57E093
:103FC00061E083E0E0CF4CED55E061E083E00E94EA
:103FD000EE114CED55E0F0CF00E04CED55E0602FD8
:103FE00083E00E94EE110F5F0430B9F70E944E0C7F
:103FF0001F5FA6CF00E0043009F405E04CED55E06A
:10400000602F83E00E94EE110F5F0830A1F7EECF22
:104010004CED55E060E081E00E94EE114CED55E082
:1040200061E081E00E94EE114CED55E062E081E03C
:104030000E94EE11DBCF4CED55E065E0C2CF10E001
:1040400048EE53E0612F83E00E94EE111F5F1530B0
:10405000B9F70E944E0C9ECF1092B5040E94ED134A
:1040600099CF0E94EF0F98CF0E94B51095CF82E0B4
:104070000E942C0C0E945910182F82E00E942C0CD8
:10408000F12CE12C01E10E0D84E0E816F10409F4B5
:10409000CEC0112309F479C043E060E083E00E94C0
:1040A000BE0F20E030E040E85FE392E0E916F10463
:1040B00009F47EC0E3E0EE16F10409F489C06CE374
:1040C00070E090E080E0F1E0EF16F10409F464C0E4
:1040D0000E945F09E091940444E0E49FF001112400
:1040E000EB56FB4F608170E090E080E00E94232659
:1040F0006093CD047093CE048093CF049093D0044A
:10410000802F0E94AC0C42E061E088ED94E00E94B8
:10411000C50E6091CD047091CE048091CF04909132
:10412000D0040E948F284DE00E94ED0E82E00E9494
:10413000A4098091D504882361F3883009F013C362
:1041400000919404F4E00F9F800111240B561B4F43
:1041500082E0E816F10409F450C093E0E916F10496
:1041600009F458C06091CD047091CE048091CF04C1
:104170009091D004E1E0EE16F104D1F10E948F2875
:10418000F801608311E00E94310C82E00E942C0C47
:10419000FFEFEF1AFF0A76CF0E945F09E0919404C7
:1041A00084E0E89FF0011124EB56FB4F61819BCF27
:1041B0006CE271E090E080E00E945F09E09194047D
:1041C00094E0E99FF0011124EB56FB4F62818BCF05
:1041D00064EB70E090E080E00E945F09E09194045D
:1041E00044E0E49FF0011124EB56FB4F63817BCF49
:1041F0000E948F28F8016183C5CF6091CD04709132
:10420000CE048091CF049091D0040E948F28F801B1
:104210006283B8CF6091CD047091CE048091CF04B9
:104220009091D0040E948F28F8016383ABCF1123B3
:10423000B1F0109194040E943212812F90E0BC01E1
:10424000660F771F660F771F6B567B4F880F991F7E
:10425000FC01EB50FE4F808191810E94F00C0E9486
:10426000310C9ACE83E00E942C0C41E066E081E0A4
:104270000E94BE0F63E081E00E94260B05E012E081
:1042800095EFC92E91E0D92E25E9E22E24E0F22EF9
:10429000F8018081F7018083F8018181F701818332
:1042A000F8018281F7018283F8018381F70183831A
:1042B000B701F601819191916F010E94F00C6CEBB6
:1042C00073E080EB95E00E94C30E6AE872E080E044
:1042D00090E00E94DD070C5F1F4FF4E0EF0EF11C31
:1042E00085E292E08017910799F61092BD04109232
:1042F000BE041092BF041092C0044092C1045092B8
:10430000C2046092C3047092C4040E940F0D6DEB4E
:1043100073E080EB95E00E94C30E6AE872E080E0F3
:1043200090E00E94DD0791E09093B60482E08093D4
:10433000B7049093B8041092B9049093BA043092E1
:10434000BC042092BB040E94280D6DEB73E080EB4F
:1043500095E00E94C30E6AE872E080E090E00E945F
:10436000DD0741E067E081E00E94BE0F42E068E0C7
:1043700081E00E94BE0F83E00E942C0C6CED75E082
:1043800080E090E00E94DD0781E00E942C0C82E03A
:104390000E942C0C0E9410086093D1047093D204E8
:1043A0008093D3049093D404F7CD0E94861942E001
:1043B0006DE081E00E94BE0F20E030E040E85FE366
:1043C00065E070E081E090E00E945F096091B704D1
:1043D00070E090E080E00E9425266093CD04709309
:1043E000CE048093CF049093D0044FE060E081E04E
:1043F0000E94681282E00E94A4098091D50488235B
:10440000A1F38830D1F46091CD047091CE048091F5
:10441000CF049091D0040E948F286093B7040E942B
:1044200032120E94280D80E09091D504943009F456
:1044300016CF882309F413CFD8CF81E0F5CF11EF41
:10444000180F6091B804113011F46091BA0470E053
:1044500090E080E00E9425266093CD047093CE0406
:104460008093CF049093D0040E94861942E069E0C3
:1044700081E00E94BE0F20E030E040E85FE361E0B1
:1044800070E090E080E00E945F096091CD0470913F
:10449000CE048091CF049091D0040E948828660FAA
:1044A000771F660F771F6E56784F42E150E088ED18
:1044B00094E00E94DE2342E060E188ED94E00E94F7
:1044C000C50E82E00E94A4098091D5048823E9F2F8
:1044D000883009F0D3C06091CD047091CE048091F2
:1044E000CF049091D0040E948F28113009F483C02A
:1044F0006093B804662389F08091B8048093B60471
:104500000E9432120E94280D80E09091D5049430D0
:1045100009F4A5CE8111B9CFA2CE0E94861920E060
:1045200030E040E85FE363E070E081E090E00E940B
:104530005F096091B90470E090E080E00E94252658
:104540006B017C0120E030E0A9010E941E26882337
:1045500009F443C0C092CD04D092CE04E092CF04BF
:10456000F092D0046091CD047091CE048091CF047C
:104570009091D0040E948828ECE0E69F9001E79F8C
:10458000300D1124B9016E59784F42E150E088EDA9
:1045900094E00E94DE2348ED54E064E182E00E9452
:1045A000921182E00E94A4098091D5048823D1F25F
:1045B0008830E1F46091CD047091CE048091CF04F5
:1045C0009091D0040E948F286093B90401E00E946A
:1045D000310C002309F498CF8FCF8092CD049092B4
:1045E000CE04A092CF04B092D004BCCF843009F0A6
:1045F000B9CF00E0ECCF6093BA04613009F07CCF12
:104600000E94861920E030E04AEF53E460E47FE145
:1046100088EB9BE00E945F096091BB047091BC0431
:10462000072E000C880B990B0E9425266093CD0461
:104630007093CE048093CF049093D0044DE060E05B
:1046400084E00E94681282E00E94A4098091D5044F
:104650008823A1F3883079F46091CD047091CE0461
:104660008091CF049091D0040E9488287093BC045C
:104670006093BB04ABCF843009F7BBCF81E045CF5B
:104680001BEE180F0E9486192DEC3CEC4CEC5DE300
:1046900070E060E08FEF9FEF0E945F09113009F436
:1046A0003FC08091BD049091BE04A091BF04B09121
:1046B000C0048093CD049093CE04A093CF04B09314
:1046C000D00447E062E081E00E94681282E00E942C
:1046D000A4098091D5048823A1F3883099F58091AD
:1046E000CD049091CE04A091CF04B091D0041130AC
:1046F00001F18093BD049093BE04A093BF04B093D6
:10470000C0040E9432120E940F0D0E94D70C80E05C
:104710009091D504943009F4A2CD8111D2CF9FCDD0
:104720008091C1049091C204A091C304B091C404CB
:10473000C0CF8093C1049093C204A093C304B093EC
:10474000C404DFCF81E0E4CF0E94A10C80E090E0C0
:10475000892B09F49DCA0E94C604882309F498CACB
:104760000E94000095CA843009F0D3CC10E00BCD34
:1047700084EA95E00E9466138AEA95E00C94661339
:10478000EF920F931F93CF93DF93E80134E047FD3F
:1047900034E1042E000C550B57FF03C05195419591
:1047A0005109E32E022F242FAE010E94E723CE01F0
:1047B000DF91CF911F910F91EF900895FB01DC01E4
:1047C00002C005900D9241505040D8F70895A9E0DD
:1047D000B0E0EDEEF3E20C9469276A01F22EB02E00
:1047E000102FFBE3AF2EA01608F41BE31F5F012F71
:1047F00027E0AE014F5F5F4F0E944625BC018981D3
:10480000982F9970913009F43FC09BE2E1FC04C0FD
:104810009E2D9170E0FC3AC05E2D5071E82FE8703B
:1048200083FF46C084E0911101C083E0EF2DE81BB7
:104830008F1508F0E0E0D6018E2F20E2552351F1CC
:10484000992329F0D6019C93C60101966C0196012B
:104850002D5F3F4FE2FE24C08EE4D6018C9391E49D
:1048600011969C93119712968C93D9018E2F90E2FA
:1048700081111BC0E20FF32FF11D10828EEF9FEF0D
:104880002996ECE00C9485279DE2C6CF90E2C4CF38
:104890002D9381508111FCCFCE0ED11CE0E0D0CF02
:1048A0008EE6D6018C9391E6DBCF9D938150E0CFCD
:1048B000482F447082FF3DC084E0911101C083E025
:1048C0008F1510F4EF2DE81BD6018E2F20E2552313
:1048D00009F1992329F0D6019C93C60101966C0138
:1048E00096012D5F3F4FE2FE1BC089E4D6018C93F9
:1048F0008EE411968C93119786E412968C93D901CD
:104900008E2F90E2882309F4B5CF9D938150FACF82
:104910002D9381508111FCCFCE0ED11CE0E0D9CF78
:1049200089E6D6018C938EE611968C93119786E6D4
:10493000E4CF9B0177FF02C030E020E0A1E0B0E0CF
:10494000911102C0B0E0A0E0F9013196AE0FBF1F97
:104950008B2C912CBB2009F461C05401EFEFAE1AEF
:10496000BE0AAA0DBB1DFA161B0619F014F04F2D36
:104970004A1B511188C0E3FC59C07601A42FB0E254
:10498000A1114FC0C40ED11C992309F45BC040E0B3
:10499000D6011196F60190836D01552309F448C0A4
:1049A000012F060F9A81582F507184FF03C0913355
:1049B00009F4015010160CF047C0093008F008E067
:1049C000EEE2FE2E5B01A01AB1088501919481945C
:1049D00091082F3F320729F4D601FC92F601319657
:1049E0006F016217730794F1021713077CF5DB015F
:1049F000A21BB30BAA24A394B12CAC0EBD1EAA0D0E
:104A0000BB1D11968C9121503109D60111962815A4
:104A10003905F4F0F60180836D01DBCFB12CA12CB8
:104A2000A0CFF701B1937F01A150AACF9111B0CFD0
:104A3000D601942F50E302C05D9391509111FCCFA9
:104A4000C40ED11C40E0ACCF01E0BACF80E3DBCF95
:104A50006217730731F4963388F4953311F45523B4
:104A600069F0F6018083FD01842F90E2811108C076
:104A7000A40FB11D1C9290E080E002CF81E3F1CF42
:104A800091938150F3CF911183CF8ACF283008F0D2
:104A900027E03327DA01990F311D87FD91600096D9
:104AA0006105710539F432602E5F3D9330E32A953C
:104AB000E1F708959F3F30F080387105610509F0F6
:104AC0003C5F3C5F3D93913008F08068911DDF931F
:104AD000CF931F930F93FF92EF92192F987F969584
:104AE000E92F96959695E90FFF27EE53FF4F9927EB
:104AF0003327EE24FF24A701E701059008940794CB
:104B000028F4360FE71EF81E491F511D660F771F48
:104B1000881F991F0694A1F70590079428F4E70EC3
:104B2000F81E491F561FC11D770F881F991F661F4A
:104B30000694A1F70590079428F4F80E491F561F14
:104B4000C71FD11D880F991F661F771F0694A1F7F5
:104B50000590079420F4490F561FC71FD81F990FBF
:104B6000661F771F881F0694A9F784911095177008
:104B700041F0D695C79557954795F794E7941A95C0
:104B8000C1F7E8E6F0E068941590159135916591CC
:104B9000959105907FE27395E118F10A430B560B4E
:104BA000C90BD009C0F7E10CF11E431F561FC91FE6
:104BB000D01D7EF4703311F48A95E6CFE89401504D
:104BC00030F0080F0AF40027021708F4202F23956D
:104BD000022F7A3328F079E37D932A95E9F710C004
:104BE0007D932A9589F6069497956795379517953D
:104BF0001794E118F10A430B560BC90BD00998F032
:104C000023957E9173957A3308F070E37C9320139B
:104C1000B8F77E9170617D9330F0839571E37D9359
:104C200070E32A95E1F71124EF90FF900F911F9107
:104C3000CF91DF91992787FD909508950E94602676
:104C400008F481E00895E89409C097FB3EF490953C
:104C50008095709561957F4F8F4F9F4F9923A9F055
:104C6000F92F96E9BB279395F695879577956795E4
:104C7000B795F111F8CFFAF4BB0F11F460FF1BC028
:104C80006F5F7F4F8F4F9F4F16C0882311F096E9BB
:104C900011C0772321F09EE8872F762F05C0662369
:104CA00071F096E8862F70E060E02AF09A95660F22
:104CB000771F881FDAF7880F9695879597F90895DB
:104CC000990F0008550FAA0BE0E8FEEF161617061D
:104CD000E807F907C0F012161306E407F50798F085
:104CE000621B730B840B950B39F40A2661F0232B9E
:104CF000242B252B21F408950A2609F4A140A6951A
:104D00008FEF811D811D08950E9497260C9408271E
:104D10000E94FA2638F00E94012720F0952311F016
:104D20000C94F1260C94F72611240C943C270E9435
:104D3000192770F3959FC1F3950F50E0551F629F9F
:104D4000F001729FBB27F00DB11D639FAA27F00DE4
:104D5000B11DAA1F649F6627B00DA11D661F829F0B
:104D60002227B00DA11D621F739FB00DA11D621FF0
:104D7000839FA00D611D221F749F3327A00D611D0D
:104D8000231F849F600D211D822F762F6A2F1124EF
:104D90009F5750409AF0F1F088234AF0EE0FFF1F22
:104DA000BB1F661F771F881F91505040A9F79E3F79
:104DB000510580F00C94F1260C943C275F3FE4F3FE
:104DC000983ED4F3869577956795B795F795E795CF
:104DD0009F5FC1F7FE2B880F911D9695879597F9D8
:104DE000089597F99F6780E870E060E008959FEF6D
:104DF00080EC089500240A94161617061806090672
:104E0000089500240A941216130614060506089540
:104E1000092E0394000C11F4882352F0BB0F40F4C8
:104E2000BF2B11F460FF04C06F5F7F4F8F4F9F4F08
:104E3000089557FD9058440F551F59F05F3F71F08A
:104E40004795880F97FB991F61F09F3F79F08795F1
:104E50000895121613061406551FF2CF4695F1DF7A
:104E600008C0161617061806991FF1CF869571050A
:104E7000610508940895E894BB2766277727CB013E
:104E800097F90895F999FECF92BD81BDF89A9927B7
:104E900080B50895262FF999FECF1FBA92BD81BD26
:104EA00020BD0FB6F894FA9AF99A0FBE01960895AC
:104EB0000E949A27A59F900DB49F900DA49F800DEE
:104EC000911D112408952F923F924F925F926F92FD
:104ED0007F928F929F92AF92BF92CF92DF92EF928A
:104EE000FF920F931F93CF93DF93CDB7DEB7CA1B0B
:104EF000DB0B0FB6F894DEBF0FBECDBF09942A8836
:104F0000398848885F846E847D848C849B84AA84DD
:104F1000B984C884DF80EE80FD800C811B81AA816A
:104F2000B981CE0FD11D0FB6F894DEBF0FBECDBF35
:104F3000ED010895A29FB001B39FC001A39F700D22
:104F4000811D1124911DB29F700D811D1124911D91
:104F500008955058BB27AA270E94C1270C94082700
:104F60000E94FA2638F00E94012720F039F49F3F72
:104F700019F426F40C94F7260EF4E095E7FB0C9454
:104F8000F126E92F0E94192758F3BA176207730711
:104F90008407950720F079F4A6F50C943B270EF4CE
:104FA000E0950B2EBA2FA02D0B01B90190010C0139
:104FB000CA01A0011124FF27591B99F0593F50F451
:104FC000503E68F11A16F040A22F232F342F4427A9
:104FD000585FF3CF469537952795A795F0405395A1
:104FE000C9F77EF41F16BA0B620B730B840BBAF071
:104FF0009150A1F0FF0FBB1F661F771F881FC2F7DC
:105000000EC0BA0F621F731F841F48F487957795EF
:105010006795B795F7959E3F08F0B0CF9395880FA9
:1050200008F09927EE0F9795879508950E942A28F2
:105030000C9408270E94012758F00E94FA2640F09D
:1050400029F45F3F29F00C94F12651110C943C2770
:105050000C94F7260E94192768F39923B1F355237E
:1050600091F3951B550BBB27AA276217730784077B
:1050700038F09F5F5F4F220F331F441FAA1FA9F311
:1050800035D00E2E3AF0E0E832D091505040E695FF
:10509000001CCAF72BD0FE2F29D0660F771F881F60
:1050A000BB1F261737074807AB07B0E809F0BB0B53
:1050B000802DBF01FF2793585F4F3AF09E3F510567
:1050C00078F00C94F1260C943C275F3FE4F3983E73
:1050D000D4F3869577956795B795F7959F5FC9F750
:1050E000880F911D9695879597F90895E1E0660FD1
:1050F000771F881FBB1F621773078407BA0720F04A
:10510000621B730B840BBA0BEE1F88F7E0950895B2
:105110000E948F286894B1110C943C2708950E9436
:10512000212788F09F5798F0B92F9927B751B0F0F1
:10513000E1F0660F771F881F991F1AF0BA95C9F71B
:1051400014C0B13091F00E943B27B1E008950C9457
:105150003B27672F782F8827B85F39F0B93FCCF30A
:10516000869577956795B395D9F73EF49095809598
:10517000709561957F4F8F4F9F4F08950E946026D5
:1051800008F48FEF08950E946026880B990B08950C
:10519000AA1BBB1B51E107C0AA1FBB1FA617B7075D
:1051A00010F0A61BB70B881F991F5A95A9F7809579
:1051B0009095BC01CD01089597FB072E16F400943D
:1051C00007D077FD09D00E94C82807FC05D03EF41F
:1051D000909581959F4F0895709561957F4F0895A3
:1051E000A1E21A2EAA1BBB1BFD010DC0AA1FBB1FEB
:1051F000EE1FFF1FA217B307E407F50720F0A21B5D
:10520000B30BE40BF50B661F771F881F991F1A94C9
:1052100069F760957095809590959B01AC01BD01F3
:10522000CF010895052E97FB1EF400940E942929B2
:1052300057FD07D00E94F02807FC03D04EF40C94D1
:10524000292950954095309521953F4F4F4F5F4FFD
:10525000089590958095709561957F4F8F4F9F4FE2
:105260000895EE0FFF1F0590F491E02D09940F9320
:105270001F93CF93DF938230910510F482E090E08A
:10528000E091BE05F091BF0530E020E0B0E0A0E085
:10529000309799F42115310509F44AC0281B390BC0
:1052A00024303105D8F58A819B816115710589F11A
:1052B000FB0193838283FE0111C0408151810281F1
:1052C000138148175907E0F04817590799F41097C8
:1052D00061F012960C93129713961C933296CF019D
:1052E000DF91CF911F910F9108950093BE05109308
:1052F000BF05F4CF2115310551F04217530738F09F
:10530000A901DB019A01BD01DF01F801C1CFEF0165
:10531000F9CF9093BF058093BE05CDCFFE01E20F7C
:10532000F31F819391932250310939832883D7CF7A
:105330002091BC053091BD05232B41F420914B01F8
:1053400030914C013093BD052093BC05209149015B
:1053500030914A012115310541F42DB73EB74091F6
:105360004D0150914E01241B350BE091BC05F0918D
:10537000BD05E217F307A0F42E1B3F0B28173907D2
:1053800078F0AC014E5F5F4F2417350748F04E0FA1
:105390005F1F5093BD054093BC05819391939FCFB0
:1053A000F0E0E0E09CCFCF93DF930097E9F0FC01C1
:1053B000329713821282A091BE05B091BF05ED0114
:1053C00030E020E01097A1F420813181820F931FFB
:1053D0002091BC053091BD052817390709F061C03F
:1053E000F093BD05E093BC05DF91CF910895EA01EC
:1053F000CE17DF07E8F54A815B819E014115510513
:10540000B1F7E901FB83EA8349915991C40FD51F94
:10541000EC17FD0761F4808191810296840F951F3E
:10542000E90199838883828193819B838A83F0E059
:10543000E0E012968D919C9113970097B9F52D910C
:105440003C911197CD010296820F931F2091BC05CC
:105450003091BD052817390739F6309751F510926C
:10546000BF051092BE05B093BD05A093BC05BCCF8F
:10547000D383C28340815181840F951FC817D907F8
:1054800061F44E5F5F4F88819981480F591F5183A6
:1054900040838A819B81938382832115310509F0A2
:1054A000B0CFF093BF05E093BE059ECFFD01DC01B8
:1054B000C0CF13821282D7CFB0E0A0E0E2E6FAE2DA
:1054C0000C9465278C01009751F4CB010E94372979
:1054D0008C01C801CDB7DEB7E0E10C948127FC0157
:1054E000E60FF71F9C0122503109E217F30708F479
:1054F0009DC0D901CD91DC911197C617D70798F0BF
:10550000C530D10530F3CE0104978617970708F30D
:10551000C61BD70B2297C193D1936D937C93CF0178
:105520000E94D329D6CF5B01AC1ABD0A4C018C0E68
:105530009D1EA091BE05B091BF05512C412CF12CB0
:10554000E12C109731F58091BC059091BD0588152F
:10555000990509F05CC04616570608F058C08091BE
:10556000490190914A01009741F48DB79EB740914F
:105570004D0150914E01841B950BE817F90708F077
:1055800055C0F093BD05E093BC05F90171836083BC
:10559000A0CF8D919C91119712966C9012971396B3
:1055A0007C901397A815B90559F56C0142E0C40E1B
:1055B000D11CCA14DB0420F1AC014A195B09DA01E1
:1055C0001296159780F06282738251834083D901CD
:1055D0006D937C93E114F10471F0D7011396FC9361
:1055E000EE93129776CF22968C0F9D1FF90191832F
:1055F0008083F301EFCFF093BF05E093BE0569CF41
:105600004816590608F42C017D01D3019ACFCB012D
:105610000E9437297C01009749F0AE01B8010E9431
:10562000212BC8010E94D329870153CF10E000E04D
:1056300050CF9111089581568A5108F480528558AF
:105640000895FB01DC0102C001900D9241505040D1
:10565000D8F70895FB01DC0101900D920020E1F7DD
:105660000895AEE0B0E0E7E3FBE20C9471270D890A
:105670001E8986E08C831A8309838FEF9FE79E83C0
:105680008D83AE01475E5F4F6F89788DCE010196A5
:105690000E94542B2F813885020F131FF8011082AE
:1056A0002E96E4E00C948D27ABE0B0E0EAE5FBE257
:1056B0000C9463277C013B018A01FC01178216824E
:1056C000838181FFC8C1CE0101965C01F7019381FE
:1056D000F30193FD859193FF81913F01882309F4A4
:1056E00053C1853239F493FD859193FF81913F0138
:1056F000853229F4B70190E00E94442DE7CF912C28
:10570000212C312CFFE1F31538F08B3211F190F49C
:10571000803209F1833229F137FC3CC020ED280F9B
:105720002A3050F536FE20C08AE0989E200D1124C4
:10573000922E06C08D3291F0803371F7689430F864
:10574000F30193FD859193FF81913F018111DACFA0
:1057500021C0689431F8689432F8F2CF689433F835
:10576000EFCF689434F8ECCFEAE02E9E200D1124A0
:10577000222E689435F8E4CF8E3229F436FC04C129
:10578000689436F8DDCF8C3619F4689437F8D8CFA2
:105790008836B1F2982F9F7D95549330E0F0833690
:1057A000A1F18337C1F1833509F063C02801F2E02C
:1057B0004F0E511CF801C080D180692D70E036FC7D
:1057C00002C06FEF7FEFC6010E942E2D4C0168943E
:1057D00037F882010AC00C5F1F4FFFE3F98388246A
:1057E0008394912C6501E89437F833FE2DC0522C38
:1057F0008114910471F5552009F468CFB70180E256
:1058000090E00E94442D5A94F6CFF801808189835C
:105810000E5F1F4FE4CF2801F2E04F0E511CF8013C
:10582000C080D180692D70E036FC02C06FEF7FEF41
:10583000C6010E94392D4C018201D5CFB70180E20B
:1058400090E00E94442D2A942814190409F0B0F71E
:10585000CECFF60137FC859137FE81916F01B701FC
:1058600090E00E94442D51105A94F1E08F1A910853
:10587000BFCF843619F0893609F077C0F80137FEBA
:105880006BC060817181828193810C5F1F4FF32D0A
:10589000FF763F2E97FF09C0909580957095619592
:1058A0007F4F8F4F9F4F689437F82AE030E0A50173
:1058B0000E94742DC82ECA188C2C432C36FE0CC0A6
:1058C000E89440F8C91440F434FE05C032FC03C02B
:1058D000F32DFE7E4F2E892C44FE95C0FE01EC0D6B
:1058E000F11D8081803309F087C0242D297E422E4E
:1058F000842D8870582E43FC95C040FE8FC09C2C90
:10590000821418F42C0C922C981844FE91C0B70104
:1059100080E390E00E94442D42FE09C088E790E0B9
:1059200041FE02C088E590E0B7010E94442DC914F1
:1059300008F48AC0CA94D12C9FEFC91AD90ACA0C9C
:10594000DB1CF60182916F01B70190E00E94442DAB
:10595000AC14BD04B1F74FCF60817181072E000CEC
:10596000880B990B0E5F1F4F92CFD32CE894D4F87D
:105970002AE030E0853739F1232D297FD22E8F366A
:1059800001F148F48835A9F0F701868197812B96BB
:10599000E2E10C947F27803749F08837A9F7D4FEDD
:1059A00002C06894D2F820E130E00DC06894D4F8C9
:1059B000F6CF34FE03C0822F8660D82E20E132E07D
:1059C00002C028E030E0F801D7FE0FC0608171818D
:1059D000828193810C5F1F4FA5010E94742DC82EF8
:1059E000CA183D2CE89437F867CF6081718190E048
:1059F00080E00E5F1F4FF0CF42FC02C0839478CF4F
:105A00008394839475CF842D867809F471CFF6CF73
:105A1000B70180E290E00E94442D83948214C0F389
:105A2000512C73CF522C5818821408F46ECFF8CF33
:105A3000842D867809F47BCF8BE241FE80E247FC1F
:105A40008DE2B70190E071CFB70180E390E00E9452
:105A5000442D9A946CCF8FEF9FEF99CFFC01059066
:105A6000615070400110D8F7809590958E0F9F1F60
:105A70000895FC016150704001900110D8F78095A5
:105A800090958E0F9F1F08950F931F93CF93DF93D1
:105A9000182F092FEB018B8181FD09C01FEF0FEF3C
:105AA000812F902FDF91CF911F910F91089582FF49
:105AB00014C02E813F818C819D81281739073CF4C9
:105AC000E881F981CF0101969983888310838E81C3
:105AD0009F8101969F838E83E3CFE885F985812F8F
