:100000000C9427040C944F040C944F040C944F044C
:100010000C944F040C944F040C944F040C946A19E4
:100020000C944F040C944F040C944F040C944F0404
:100030000C944F040C944F040C944F040C944F04F4
:100040000C941E1A0C944F040C94EC190C94C619C1
:100050000C944F040C944F040C944F040C944F04D4
:100060000C94681A0C944F0400407A10F35A00A0C4
:10007000724E18090010A5D4E80000E87648170071
:1000800000E40B54020000CA9A3B000000E1F505B1
:10009000000080969800000040420F000000A086FB
:1000A00001000000102700000000E803000000002D
:1000B0006400000000000A000000000001000000D1
:1000C00000002C76D888DC674F0823DFC1DFAE59EB
:1000D000E1B1B796E5E3E453C63AE651997696E87E
:1000E000E6C28426EB898C9B62ED407C6FFCEFBC02
:1000F0009C9F40F2BAA56FA5F490055A2AF75C932D
:100100006B6CF9676DC11BFCE0E40D47FEF520E662
:10011000B500D0ED902E0300943577050080841E45
:10012000080000204E0A000000C80C333333330FA0
:10013000986E12831141EF8D2114893BE65516CF3D
:10014000FEE6DB18D1844B381BF77C1D901DA4BB49
:10015000E424203284725E228100C9F124ECA1E5FE
:100160003D27200047697520537520204573632083
:100170004F6B20002D2D2D202D2D2D20457363201C
:10018000566169002D2D2D202D2D2D204E787420A7
:10019000566169002D2D2D202D2D2D2045736320B6
:1001A000566961002D2D2D202D2D2D204E6F2020E4
:1001B000536920002D2D2D20446570204E6F202086
:1001C000536920002D2D2D202D2D2D2045736320CA
:1001D000456E64002D2A2D202D2A2D202D2A2D201C
:1001E0002D2A2D00524546494C4C20204573632052
:1001F0005661690045736567756F3F202020202098
:10020000202020200052697065746F2050726F6347
:100210006573736F3F002020466174746F726520B0
:10022000466C6F77202000204E554F564F2050527D
:100230004F434553534F200020417474656E6465ED
:10024000726520707265676F002020202050524F29
:10025000434553534F2020202000202020494E5456
:100260004552524F54544F2020200050524F434586
:1002700053534F202046494E49544F002053434585
:100280004C544120464F524D41544F200020466F60
:10029000726D61746F202020202020202000424FAA
:1002A000545449474C494120202020202020004917
:1002B0004E495A49414C495A5A4F204441544900E9
:1002C000494E495A49414C495A5A415A494F4E455B
:1002D0000020202020434F4E434C555341202020E6
:1002E000200041747469766F20466173653A20205E
:1002F000202000204D656D6F72697A7A617A696F8E
:100300006E65200020202020436F6E636C75736142
:10031000202020200020204E6F6E2020416D6D6532
:1003200073736F2020004E756D65726F2043696393
:100330006C69202020200020546F676C6920426F78
:10034000747469676C6961005072656D692020750D
:100350006E2020746173746F002041747465736142
:100360002020526566696C6C2000203132350020F7
:100370003235300020333330002035303000203625
:1003800036300020373530003130303000313530F4
:10039000300000000000005072696E636970616C8B
:1003A000650000000000000050726F6772616D6DA3
:1003B000690000000000000000546F6F6C730000C3
:1003C00000000000000000000000436F6E666967D7
:1003D0007572617A696F6E6500000052696E6772AE
:1003E000617A69616D656E74690000004D616E75BA
:1003F000616C650000000000000000000054656DA5
:10040000706F72697A7A61746F0000000000546541
:100410006D706F202B204C6976656C6C6F0000410D
:1004200075746F6D617469636F00000000000000F7
:1004300050756C697A6961000000000000000000DE
:100440000046617369000000000000000000000029
:100450000000426F747469676C69650000000000F9
:1004600000000053656E732E5072657373696F6E72
:1004700065000000496E697A69616C697A7A617A0F
:10048000696F6E65004369636C69205075726765BA
:1004900000000000000056616375756D00000000EB
:1004A00000000000000000526566696C6C000000EE
:1004B000000000000000000056756F746F0000001F
:1004C0000000000000000000005361747572617A42
:1004D000696F6E650000000000005269656D70690B
:1004E0006D656E746F0000000000004465707265F9
:1004F0007373696F6E65000000000000506F7369D0
:10050000746976610000000000000000004E65671D
:1005100061746976610000000000000000004D6514
:10052000746F646F000000000000000000000054C1
:10053000656D706F20417474657361000000000088
:10054000442E2043616E746F6E690000000000004D
:100550000000006368657272797068696C69700088
:100560000000000000004D2E4E657669000000007E
:100570000000000000000000004D2E526F6D6974F5
:100580006900000000000000000000004D2E204720
:10059000656E74696C696E69000000000000004CB3
:1005A0002E2043617A7A616E69000000000000002D
:1005B00000004F2E4E617374726F00000000000047
:1005C0000000000000502E2050697261730000008E
:1005D0000000000000000000452E56696E63656E45
:1005E0007A690000000000000000004D2E204E65DA
:1005F0007669202020202020284954412900636862
:10060000657272797068696C69702028454E472957
:10061000004D2E204E65766920202020202028497C
:10062000544129004D2E204E65766920202020203F
:100630002028454E472900636865727279706869A1
:100640006C69702028454E472900436F6E636570C2
:100650007400000000000053747275637475726555
:1006600000000000504342000000000000000000B5
:1006700000536F6674776172650000000000416C82
:1006800070686120546573740000004265746120D5
:10069000205465737400000046696E616C205465D7
:1006A00073740000004C6F63616C697A6174696FE8
:1006B0006E004D616E75616C7300000000000033C8
:1006C000442052656E646572696E6700466F756E90
:1006D000646572205465616D0000000000240027ED
:1006E000002A00000000002300260029000000006E
:1006F00008000201000003040700000000000000E1
:1007000000726573737572650072642000507265C3
:100710006D69203E20202020204D454E550050720E
:10072000656D6920203E202020204D454E5500500B
:1007300072656D692020203E2020204D454E5500D9
:100740005072656D69202020203E20204D454E5579
:10075000005072656D6920202020203E204D454EBE
:1007600055004E657373756E6F0000000000536591
:1007700070617261746F00000000446973636F6E92
:1007800074696E756F00436F6E74696E756F0000EB
:1007900000004E6F200053692000202020202020E0
:1007A0002020202020200056554F544F202020206C
:1007B000202020005341545552415A494F4E452064
:1007C000005249454D50494D454E544F2000444537
:1007D0005052455353494F4E4520004A45545449C1
:1007E0004E4720202020200057415348494E4720A3
:1007F0002020202000434C45414E494E47202020D8
:1008000020004D414E550054494D4500464C4F5730
:10081000004155544F00010204081020408001029D
:100820000408102001020408102000000000250028
:1008300028002B000404040404040404020202023D
:1008400002020303030303030200871B9123112405
:100850001FBECFEFD8E0DEBFCDBF25E0A4E9B3E0F7
:1008600001C01D92A439B207E1F713E0A0E0B1E0A6
:10087000E0E7FBE502C005900D92A439B107D9F776
:1008800014E0C6E2D4E004C02197FE010E940A29C8
:10089000C532D107C9F70E94DA1B0C94AB2D0C941A
:1008A000000008950895AF92BF92CF92DF92EF9229
:1008B000FF920F931F93CF93DF936C017B018B010A
:1008C000040F151FEB015E01AE18BF08C017D1075A
:1008D00059F06991D601ED91FC910190F081E02DE4
:1008E000C6010995892B79F7C501DF91CF911F9139
:1008F0000F91FF90EF90DF90CF90BF90AF90089551
:10090000FC01448155816081718184E895E00C94FB
:100910005304FC01538D448D252F30E0842F90E04B
:10092000821B930B541710F0CF96089501970895EA
:10093000FC01918D828D981761F0A28DAE0FBF2FB3
:10094000B11D5D968C91928D9F5F9F73928F90E009
:1009500008958FEF9FEF0895FC01918D828D981778
:1009600031F0828DE80FF11D858D90E008958FEFB5
:100970009FEF0895FC01918D228D892F90E0805C7E
:100980009F4F821B91098F73992708958FEC94E0F4
:100990000E94BA0421E0892B09F420E0822F0895F7
:1009A00080E090E0892B29F00E94C60481110C940C
:1009B00000000895FC01A48DA80FB92FB11DA35A02
:1009C000BF4F2C91848D90E001968F739927848F6F
:1009D000A689B7892C93A089B1898C918370806492
:1009E0008C93938D848D981306C00288F389E02D33
:1009F00080818F7D80830895EF92FF920F931F93E4
:100A0000CF93DF93EC0181E0888F9B8D8C8D9813C1
:100A10001AC0E889F989808185FF15C09FB7F894CD
:100A2000EE89FF896083E889F98980818370806419
:100A300080839FBF81E090E0DF91CF911F910F9164
:100A4000FF90EF900895F62E0B8D10E00F5F1F4F73
:100A50000F731127E02E8C8D8E110CC00FB607FC82
:100A6000FACFE889F989808185FFF5CFCE010E9410
:100A7000DA04F1CFEB8DEC0FFD2FF11DE35AFF4FA0
:100A8000F0829FB7F8940B8FEA89FB89808180629E
:100A9000CFCFCF93DF93EC01888D8823B9F0AA895B
:100AA000BB89E889F9898C9185FD03C0808186FD29
:100AB0000DC00FB607FCF7CF8C9185FFF2CF808178
:100AC00085FFEDCFCE010E94DA04E9CFDF91CF910F
:100AD0000895833081F028F4813099F08230A9F0B4
:100AE00008958730A9F08830C9F08430B1F480913E
:100AF00080008F7D03C0809180008F77809380007D
:100B0000089584B58F7784BD089584B58F7DFBCF1C
:100B10008091B0008F778093B00008958091B000ED
:100B20008F7DF9CFCF93DF93282F30E0F901E35188
:100B3000F94F8491F901EA5EF74FD491F901EC5C29
:100B4000F74FC491CC23A1F081110E946905EC2FCD
:100B5000F0E0EE0FFF1FED51F94FA591B491EC912C
:100B6000ED2381E090E009F480E0DF91CF910895DA
:100B700080E090E0FACF1F93CF93DF93282F30E0EF
:100B8000F901E351F94F8491F901EA5EF74FD491ED
:100B9000F901EC5CF74FC491CC23A9F0162F811119
:100BA0000E946905EC2FF0E0EE0FFF1FE65DF74FA6
:100BB000A591B4918FB7F894EC91111108C0D0951C
:100BC000DE23DC938FBFDF91CF911F910895DE2B41
:100BD000F8CF9091480189130BC0E8E4F8E0E49164
:100BE0009FEF90934801E13049F028F0E23061F046
:100BF00060E00C94BB0510926E00FACF90916F00EC
:100C00009D7F90936F00F4CF909170009D7F9093A3
:100C1000700091E09093B0009091B100987F946043
:100C20009093B1001092B300E3CFCF93DF9390E0A5
:100C3000FC01EA5EF74F24918C5C974FFC01849194
:100C40008823C9F090E0880F991FFC01E752F94F03
:100C5000A591B491FC01E65DF74FC591D491611166
:100C60000DC09FB7F8948C91209582238C93888136
:100C7000282328839FBFDF91CF910895623051F4DC
:100C80009FB7F8943C91822F809583238C93E881C1
:100C90002E2BEFCF8FB7F894EC912E2B2C938FBF88
:100CA000EACF4F925F926F927F928F929F92AF9214
:100CB000BF92CF92DF92EF92FF920F931F93CF9349
:100CC0008C014A015B01809148018A3099F08F3F85
:100CD00009F455C0CF911F910F91FF90EF90DF90D5
:100CE000CF90BF90AF909F908F907F906F905F90CC
:100CF0004F900895E8E4F8E0C491C7FDEBCF61E0C0
:100D00008AE00E941506CC2319F0C23009F0E9C030
:100D10002801712C612C68E478EE81E090E0A30159
:100D200098010E94EB2869017A0181E0C81AD10874
:100D3000E108F108CC2309F40FC1C23009F08EC0DC
:100D40008FEFC816D104E104F10409F00CF4C7C018
:100D500064E274EF80E090E0A30198010E94EB2828
:100D600069017A0181E0C81AD108E108F10895E02B
:100D70008091B100887F892B8093B1008DC08AE07B
:100D800080934801E8E4F8E0C491CF3F09F4A2CF92
:100D9000C13021F150F0C23009F43EC0C7FD9ACFF6
:100DA00061E08AE00E941506B0CF14BC15BC84B582
:100DB000826084BD85B5816085BDEEE3F8E0E49195
:100DC000F0E0EE0FFF1FE65DF74F85919491E0E2B2
:100DD000F8E0E491E093C204C0E091CF109280006B
:100DE00010928100809181008860809381008091C1
:100DF0008100816080938100EEE3F8E0E491F0E00F
:100E0000EE0FFF1FE65DF74F85919491E0E2F8E069
:100E1000E491E093C10473CF1092B0001092B1003E
:100E20008091B00082608093B0008091B1008160B9
:100E30008093B100EEE3F8E0E491F0E0EE0FFF1FE5
:100E4000E65DF74F859194919093C0048093BF0421
:100E5000E0E2F8E0E491E093BE0451CF8FEFC816D2
:100E6000D104E104F104D9F1D4F162E17AE780E040
:100E700090E0A30192010E94EB2869017A0181E0D0
:100E8000C81AD108E108F108C11170C094E085B515
:100E9000887F892B85BDC0E0D801AA0FBB1FA501A3
:100EA00094010E94312728EE33E040E050E00E9498
:100EB000C928C13079F1C23009F43EC0C1110ACF4E
:100EC000C7BC2093CB043093CC044093CD04509303
:100ED000CE0480916E00826080936E00FBCE94E021
:100EE00047CF980150E040E060E072E18AE790E08F
:100EF0000E94EB2869017A0181E0C81AD108E10853
:100F0000F108C13049F680918100887F816080932B
:100F10008100C2CFD0928900C09288002093C7047C
:100F20003093C8044093C9045093CA0480916F0061
:100F3000826080936F00CECEC092B3002093C30432
:100F40003093C4044093C5045093C604809170004C
:100F5000826080937000BECE93E08FEFC816D104FC
:100F6000E104F10411F00CF080CF91CF96E000CFB6
:100F70003FB7F8948091580490915904A0915A0475
:100F8000B0915B0426B5A89B05C02F3F19F00196D0
:100F9000A11DB11D3FBFBA2FA92F982F8827BC01D3
:100FA000CD01620F711D811D911D42E0660F771FFB
:100FB000881F991F4A95D1F708958F929F92AF92FB
:100FC000BF92CF92DF92EF92FF926B017C010E9461
:100FD000B8074B015C01C114D104E104F104B9F07C
:100FE0000E94B807681979098A099B09683E73400D
:100FF0008105910580F321E0C21AD108E108F108CA
:1010000088EE880E83E0981EA11CB11CE4CFFF90EF
:10101000EF90DF90CF90BF90AF909F908F9008950A
:101020002FB7F89460915404709155048091560440
:10103000909157042FBF089585ED8093BC00809157
:10104000BC0084FDFCCF10926204089520910C0432
:10105000260F3327331F21323105ECF4209162042F
:10106000FC0190E080E0243069F082E00895A091D6
:101070000C042191AC0144515C4FA40FB52FB11D5C
:101080002C930196861798F380910C04680F609357
:101090000C0480E0089581E008950895E0916604CD
:1010A00080916504E81730F4F0E0E453FC4F808150
:1010B00090E008958FEF9FEF0895909166048091DE
:1010C00065042FEF3FEF981748F4E92FF0E0E45361
:1010D000FC4F208130E09F5F90936604C901089522
:1010E0008091650490916604891B990B0895CF92B5
:1010F000DF92EF92FF920F931F93CF93DF937C01C8
:10110000CB018A012091CB03222389F0EB016B01F3
:10111000C40ED51ECC15DD0569F06991D701ED919E
:10112000FC910190F081E02DC7010995F3CF642F68
:101130000E942608C801DF91CF911F910F91FF9067
:10114000EF90DF90CF900895CF93DF931F92CDB7AC
:10115000DEB769832091CB032223F9F02091630449
:10116000203258F021E030E0FC013383228390E00C
:1011700080E00F90DF91CF91089580916404E82F73
:10118000F0E0E555FC4F998190838F5F8093640474
:101190008093630481E090E0ECCF61E0CE010196A2
:1011A0000E942608F7CFCF93FC01C48121E0209351
:1011B000CB03C093AA031092640410926304838546
:1011C000682B8CE695E00E94A4089091630491320C
:1011D00008F03FC0809162048111FCCF82E08093CF
:1011E000620481E0809361048FEF80932F0410925A
:1011F000510490935004ABEAB3E0E0E3F4E080E004
:1012000098132FC01092520480915204CC0FC82B17
:10121000C093520480916004813039F510926004CB
:10122000809152048093BB008091BC0083FDF8CF75
:1012300085EC8093BC00809162048230E1F3809160
:101240002F048F3F31F080912F04803211F0809174
:101250002F0410926404109263041092CB03CF9178
:1012600008952D9121938F5FCBCF85EEE2CF089526
:1012700090E080E00895CF93C4E060E08C2F0E945E
:10128000BB05CF5FCA30C9F7CF910895CF9383E0F4
:101290000E949205C1E0009709F4C0E0892B59F43F
:1012A0004EEE52E060E070E084EF91E00E94510663
:1012B0008C2FCF9108958AE00E94E905F9CFCF9253
:1012C000DF92EF92FF92CF93DF93EB0169017A01F6
:1012D000BC01990F880B990B0E94FE2560939D0419
:1012E00070939E0480939F049093A004BE01DD0F31
:1012F000880B990B0E94FE256093990470939A04C1
:1013000080939B0490939C04C0924401D092450129
:10131000E0924601F09247011092A904DF91CF912B
:10132000FF90EF90DF90CF9008951092AB04109251
:10133000A1041092A2041092A3041092A40410928B
:10134000A9041092AA0408954F925F926F927F921F
:101350008F929F92AF92BF92CF92DF92EF92FF92C5
:101360000F931F93CF93DF93782E07E911E0C8E91D
:10137000D3E0F12CE12C812C912C54018394CC24CA
:10138000C394D12C4E2CF80151908F01852D0E94D1
:1013900092056090A904892B09F059C00E94100899
:1013A0006093A5047093A6048093A7049093A80467
:1013B00088819981009709F416C1019699838883E1
:1013C00061100AC00E941008609394037093950303
:1013D000809396039093970388819981892B71F468
:1013E000D501C40104C0880F991FAA1FBB1F4A94CE
:1013F000D2F786298093A904D982C882F1E07F12AE
:1014000036C0852D0E949205892BD9F30E941008C1
:101410002091940330919503CB01821B930B68EECE
:1014200073E00E94A128C1E0C60F8C2FDF91CF91FD
:101430001F910F91FF90EF90DF90CF90BF90AF90F2
:101440009F908F907F906F905F904F90089519823A
:101450001882D501C4010E2C04C0880F991FAA1F41
:10146000BB1F0A94D2F7809586218093A9048FEF41
:10147000E81AF80A2296E4E0EE16F10409F082CFA9
:10148000C091A904F2E07F129EC08FEF8C0F8230D2
:1014900008F099C00E9410080091940310919503E0
:1014A0002091960330919703601B710B820B930B75
:1014B00028EE33E040E050E00E94C9284901C09086
:1014C0009904D0909A04E0909B04F0909C04229F91
:1014D0008001239F100D100D112420E030E543EC16
:1014E00056E4C701B6010E94F72587FF48C0B8013E
:1014F00090E080E00E94FC2520E030E040E250E4F3
:101500000E94EF270E9461286F5F7F4F072E000C1B
:10151000880B990B0E94FE252091440130914501D2
:1015200040914601509147010E945D268090A104A0
:101530009090A204A090A304B090A404C13039F507
:101540009B01AC01C501B4010E9482276B017C01A3
:1015500080909D0490909E04A0909F04B090A00461
:10156000A50194010E94F72587FF1FC08092A10466
:101570009092A204A092A304B092A4041EC0089D5D
:10158000B001099D700D189D700D1124BDCFA501EE
:1015900094010E9483274B015C01AC019B01C701B0
:1015A000B6010E94F72587FFE1CFC092A104D09237
:1015B000A204E092A304F092A40461E470E080E04D
:1015C00090E00E94DD0761E470E080E090E00E941E
:1015D000DD07CC2309F429CF6CE370E080E090E0D4
:1015E0000E94DD0722CF6110FBCEECCE0F931F933C
:1015F000CF938C01C62F0E94D3086C2F6460C80162
:101600000E94D3086C2F6B7FC8010E94D30883EC23
:1016100090E00197F1F7CF911F910F9108950F93EB
:101620001F93CF93DF938C01D62FC42F607F642B41
:101630000E94F60A80E1D89FB00111246C2BC801EA
:10164000DF91CF911F910F910C94F60ACF93DF9306
:10165000CDB7DEB728970FB6F894DEBF0FBECDBF6B
:1016600098E0EFE4F1E0DE01119601900D929A9579
:10167000E1F790918C05961710F46FEF690F262F04
:1016800030E0220F331F41E050E04C0F5D1F240F6C
:10169000351FF9016081680F606840E084E895E0DB
:1016A00028960FB6F894DEBF0FBECDBFDF91CF9165
:1016B0000C940F0B41E00E940F0B81E090E0089525
:1016C000CF93C82F862F642F0E94260B6C2F84E89F
:1016D00095E0CF910C945A0B0F931F93CF93DF9308
:1016E0008C01D0E0C0E0F801EC0FFD1F649166238F
:1016F00039F041E084E895E00E940F0B2196F3CF8A
:10170000CE01DF91CF911F910F910895CF93DF9379
:10171000D82F862F642F0E94260BC0E0CD1731F002
:1017200082E691E00E946C0BCF5FF8CFDF91CF9102
:1017300008950F931F93CF93DF930E94EF2720E02C
:1017400030E040E252E40E945D260E946128CB0115
:1017500065E070E00E94B528C62FD82F011110C097
:10176000D5E0D81BC7E0C61BD53019F4C8E0C61BAE
:10177000D0E042E068E06C0F88E08C1B0E94860B92
:10178000CC2351F010E067E0610F42E086E00E9458
:10179000600B1F5FC113F7CFDD2359F067E06C0FBB
:1017A00042E081E08D0FDF91CF911F910F910C945A
:1017B000600BDF91CF911F910F9108958F929F92AF
:1017C000AF92BF92EF92FF920F93CF93DF9385304A
:1017D00090F57B01C09168048150990B24E0C29F71
:1017E000E0011124C759DB4FC80FD91F688170E091
:1017F00090E080E00E94FC254B015C01B7010F2CBA
:10180000000C880B990B0E94FE2501E0A5019401B4
:101810000E94990B988181E09E151F0409F00CF439
:1018200080E0DF91CF910F91FF90EF90BF90AF904C
:101830009F908F90089581E0F4CF41E061E083E1D3
:101840000E94860B42E061E083E10E94860B43E048
:1018500061E083E10C94860B482F60E084E10C94F6
:10186000860B82E00E942C0C6091AB0470E090E04B
:1018700080E00E94FC256093A1047093A2048093F1
:10188000A3049093A4040E9410086093A50470938D
:10189000A6048093A7049093A804089582E00E9470
:1018A0002C0C83E00C942C0C0F931F93CF93DF939D
:1018B0008B0198E0899FB0011124606440E084E8C6
:1018C00095E00E940F0BE801085F1F4F699184E8C3
:1018D00095E00E945A0BC017D107C1F7DF91CF9155
:1018E0001F910F9108951F93CF93DF93CDB7DEB76C
:1018F00028970FB6F894DEBF0FBECDBF182F88E033
:10190000E7E5F1E0DE01119601900D928A95E1F78D
:10191000BE016F5F7F4F87E00E94540C60E0812F13
:101920000E94260B67E084E895E00E945A0B2896F7
:101930000FB6F894DEBF0FBECDBFDF91CF911F91E0
:10194000089540E061E084E895E00E940F0B8BE38E
:101950009FE10197F1F7089591E1899FB00111246A
:1019600069567C4F42E150E08CEA94E00C94B72336
:10197000EF92FF920F931F93CF93DF938B010C5F36
:101980001F4FEB017C01E61AF70AC7018C0F9D1F60
:101990000E941B278993C017D107B9F784E090E014
:1019A000DF91CF911F910F91FF90EF9008950F93CA
:1019B0001F93CF93DF9301E914E0C8E2D0E0CE019A
:1019C0000E941B27F80181938F012196C033D10516
:1019D000B1F788E090E0DF91CF911F910F910895CA
:1019E000EF92FF920F931F93CF93DF937C018B01B4
:1019F000D0E0C0E0F80161918F01C7018C0F9D1FFD
:101A00000E9423272196C430D105A1F784E090E0FD
:101A1000DF91CF911F910F91FF90EF9008950F9359
:101A20001F93CF93DF9301E914E0C8E2D0E0F801FF
:101A300061918F01CE010E9423272196C033D105E9
:101A4000B1F788E090E0DF91CF911F910F91089559
:101A50000F931F93CF93DF930AE814E0C2E3D0E023
:101A6000F80161918F01CE010E9423272196C9338D
:101A7000D105B1F787E090E0DF91CF911F910F91F1
:101A80000895FB0101900020E9F73197AF01461B53
:101A9000570BDC01ED91FC910280F381E02D09945C
:101AA0008F929F92AF92BF92EF92FF920F931F93EC
:101AB000CF93DF93CDB7DEB7A1970FB6F894DEBF13
:101AC0000FBECDBF7C01FA01CB0119A2223008F470
:101AD0002AE08E010F5D1F4F822E912CB12CA12C7C
:101AE000BF01A50194010E94C928F901CA016A3009
:101AF0000CF5605DD8016E938D01232B242B252BD3
:101B000079F790E080E0109721F0BD01C7010E94B5
:101B1000410DA1960FB6F894DEBF0FBECDBFDF9189
:101B2000CF911F910F91FF90EF90BF90AF909F903A
:101B30008F900895695CDECFCF92DF92EF92FF9293
:101B40006C01990FEE08FF08F7FE18C041E06DE246
:101B500084E895E00E940F0B44275527BA014C19E1
:101B60005D096E097F092AE084E895E00E94500D26
:101B70000196FF90EF90DF90CF9008952AE0B70193
:101B8000A60184E895E0FF90EF90DF90CF900C9451
:101B9000500D4F925F926F927F928F929F92AF9271
:101BA000BF92CF92DF92EF92FF920F931F93CF934A
:101BB0006B017C01742EAC019B010E949C2861EB9F
:101BC00072E0811126C046015701E894B7F82FEF63
:101BD0003FEF4FE75FE7C501B4010E949C288111E8
:101BE0000CC02FEF3FEF4FE75FE7C501B4010E9444
:101BF000F72565EB72E0181664F02FEF3FEF4FE723
:101C00005FE4C701B6010E9497281816ACF469EB8F
:101C100072E084E895E0CF911F910F91FF90EF90D3
:101C2000DF90CF90BF90AF909F908F907F906F90FC
:101C30005F904F900C94410D2FEF3FEF4FE75FEC1B
:101C4000C701B6010E94F72587FDE1CF20E030E013
:101C5000A901C701B6010E94F72510E000E087FF47
:101C60000CC041E06DE284E895E00E940F0BF7FAAA
:101C7000F094F7F8F09401E010E0C0E060E070E06C
:101C800080E09FE37C1641F020E030E040E251E448
:101C90000E94EF27CF5FF6CFA70196010E9483270E
:101CA0004B015C010E9468282B013C012AE0BC0129
:101CB000A20184E895E00E94500D080F191FCC2363
:101CC000D9F1C301B2010E94FC259B01AC01C50101
:101CD000B4010E9482274B015C0141E06EE284E87E
:101CE00095E00E940F0B0F5F1F4FC15028F120E0BD
:101CF00030E040E251E4C501B4010E945D262B01B1
:101D00003C010E9468284B01B12CA12C2AE0B501AE
:101D1000A40184E895E00E94500D080F191FC50129
:101D2000B4010E94FC259B01AC01C301B2010E94D9
:101D300082274B015C01D9CFC801CF911F910F9130
:101D4000FF90EF90DF90CF90BF90AF909F908F90DB
:101D50007F906F905F904F9008950C94410DCF93BA
:101D6000DF93EC01862F642F0E94260BBE0184E8CE
:101D700095E0DF91CF910C94AD0ECF93C82F42E048
:101D800066E08AE00E94860B8DE0C89FB0011124B6
:101D90006656784F42E150E08CEA94E00E94B72307
:101DA00041E062E08CEA94E0CF910C94AF0EFF9298
:101DB0000F931F93CF93DF9300D000D000D0CDB707
:101DC000DEB7F42E1A821982FE01339624E0DF0179
:101DD0001D922A95E9F72CE330E040E050E00E94A4
:101DE000C9289F938F937F936F933F932F938DEB8E
:101DF00092E09F938F938E010F5F1F4F1F930F935E
:101E00000E940A2B42E06F2DC8010E94AF0E0FB650
:101E1000F894DEBF0FBECDBF26960FB6F894DEBF96
:101E20000FBECDBFDF91CF911F910F91FF9008950D
:101E300040E062E088E391E00E94AF0E40E06DE098
:101E400081E391E00E94AF0E83E10C94730C4F92FA
:101E50005F926F927F928F929F92AF92BF92DF922A
:101E6000EF92FF920F931F93CF93DF93D82E42E010
:101E700066E08AE00E94860B41E062E086EC92E038
:101E80000E94AF0E0E9410087B0161E086E00E9474
:101E9000BB05D0E0C0E088EE882E83E0982EA12C10
:101EA000B12C0E9410088B010E191F090E94100806
:101EB0004090A5035090A6036090A7037090A803DC
:101EC0006419750986099709A50194010E94C9281A
:101ED000B901330F880B990B4FE00E94D70EDD201C
:101EE00081F043E065E0C130D105F1F481ED92E08D
:101EF0000E94AF0E6EE571E080E090E00E94DD0789
:101F00002196003D174068F2DF91CF911F910F910C
:101F1000FF90EF90DF90BF90AF909F908F907F9059
:101F20006F905F904F9008958EED92E00E94AF0EFB
:101F3000D0E0C0E0DFCFCF92DF92EF92FF920F931D
:101F40001F93CF93DF93D82E61110E94BD0E809115
:101F50008C0441E061E081113BC081E0D81238C0BF
:101F60008BEE92E00E94AF0EC6E0DC9E8001112451
:101F7000F12CE12CE80182E1C82E84E08E0D92E084
:101F80009D1548F190918C04911125C020918D04EC
:101F90002150330BC29EF001C39EF00D1124EC0FB3
:101FA000FD1FE754FE4FEE0DFF1D60810E94BB0533
:101FB0008FEFE81AF80A96E0E916F104F1F6DF91DE
:101FC000CF911F910F91FF90EF90DF90CF900895E8
:101FD00089EE92E0C7CFF801EE0DFF1DE556FE4FEA
:101FE000E4CF0E94AC0C83E00E942C0C43E061E043
:101FF0008CEA94E00C94AF0ECF93DF93C82FD62FCA
:102000006091680485E0689FB001112466597C4F97
:1020100042E150E08CEA94E00E94B7234D2F6C2FF0
:102020008CEA94E00E94AF0E6DEE72E084E895E0D9
:10203000DF91CF910C94AD0ECF93DF93C82FD42FA7
:102040008230B9F0833011F181E1689FB001112431
:10205000675B7D4F42E150E08CEA94E00E94B72339
:10206000C2E04D2F6C2F8CEA94E0DF91CF910C945D
:10207000AF0E81E1689FB00111246C507E4F42E1A8
:1020800050E08CEA94E00E94B723EBCF80E1689F98
:10209000B00111246C597E4FF2CF42E06CE081E038
:1020A0000E941C106CED75E080E090E00E94DD075E
:1020B00082E00C942C0C0E941D0C86E00E94BD0E48
:1020C00043E064E082E00E941C1060E081E00E9436
:1020D0009B0F68E873E180E090E00E94DD0743E039
:1020E00061E083E00C941C10CF93DF930E943B09C6
:1020F0000E941D0C86E00E94BD0E43E064E082E079
:102100000E941C108091A403882319F18091A903D7
:10211000CCE3D0E0882351F0E091680484E0E89FAC
:10212000F0011124E759FB4FC381D0E061E084E066
:102130000E949B0F88EE93E0C89FB001C99F700D6D
:10214000D89F700D112490E080E00E94DD070E946E
:102150003B0980918A04813011F40E945B100E9437
:102160003B091092A403DF91CF910C941D0C609158
:10217000680470E090E080E00E94FC256093A10478
:102180007093A2048093A3049093A40441E063E0BD
:1021900081E00E941C1043E060E083E00E941C107C
:1021A00020E030E040E85FE367E070E090E080E04E
:1021B0000E945F096091A1047091A2048091A30420
:1021C0009091A4040E9468286093680462E087E00C
:1021D0000E94FC0F82E00E94A4098091A904882338
:1021E00049F38830B9F48091680490E0BC01660F2F
:1021F000771F660F771F67597B4F880F991FFC0168
:10220000EB50FE4F808191810E94B80C81E0809359
:1022100089040895843071F642E062E082E10E9410
:10222000860B80E00895CF92DF92EF92FF920F939A
:102230001F93CF931092A9030E94A10C0E94180F24
:1022400087E00E94BD0E43E061E083E00E941C1025
:102250000E943B0980E00E94A4098091A904882380
:10226000C9F360EF72E08FEC94E00E94AD0E4091F4
:10227000A90450E070E060E02AE08FEC94E00E9456
:10228000500D60E173E08FEC94E00E94410D80916D
:10229000A9048150823010F41092A9048091A904FD
:1022A000843009F490C08830A9F663E173E08FECC4
:1022B00094E00E94410D60E173E08FEC94E00E9495
:1022C000410D0FEE11E0C4E0F80161918F018C2FF8
:1022D0000E94BB0580918C04813021F461E089E08B
:1022E0000E94BB05CF5FC93079F70E941008609348
:1022F000A5037093A6038093A7039093A80388EE89
:10230000C82E83E0D82EE12CF12C43E066E083E078
:102310000E941C100E9410080091A5031091A603B2
:102320002091A7033091A803601B710B820B930BC4
:10233000A70196010E94C928B901330F880B990B98
:102340004FE00E94D70E1092A90480E00E94A409D9
:102350008091A9048823C9F266E273E08FEC94E0CF
:102360000E94AD0E4091A90450E070E060E02AE0C8
:102370008FEC94E00E94500D60E173E08FEC94E0EC
:102380000E94410D8091A9048150823010F4109276
:10239000A9048091A904843009F1883009F0B5CFEF
:1023A0000E943B09C0E01092A90442E060E184E091
:1023B0000E94860B43E061E083E00E941C10C11183
:1023C00002C00E9413110E943B09CF911F910F91EF
:1023D000FF90EF90DF90CF900C949509C1E0E3CF90
:1023E000BF92CF92DF92EF92FF920F931F93CF9302
:1023F000DF93B82E6A01EA0109900020E9F72197DE
:102400007E01E41AF50A262F30E089010E19110920
:1024100017FF02C00F5F1F4F159507951E2D1170F6
:10242000100FC4E1D0E0C21BD30BD595C7954B2D3F
:102430006C2F802F0E94860BB60184E895E00E94E5
:10244000AD0E6C2F6E0D600F4B2D812FDF91CF9154
:102450001F910F91FF90EF90DF90CF90BF900C9461
:10246000860B40E062E088E391E00E94AF0E81E1DC
:102470000E94730C41E064E086E493E00E94AF0E9A
:1024800061E371E084E895E00E94AD0E40E051E028
:1024900064E182E00C94F0111F93CF93DF93182F27
:1024A000EA01882399F023E1629FC00111241230D0
:1024B00049F1133059F1BC016F5E794F42E150E0B0
:1024C0008CEA94E00E94B72313E00DC08DE0689F72
:1024D000B0011124665B794F42E150E08CEA94E050
:1024E0000E94B72312E04CEA54E064E1812F0E947D
:1024F000F011BE01DD0F880B990BDF91CF911F9179
:102500000C94DD07BC0165517A4FD8CFBC01605CEB
:102510007A4F42E150E08CEA94E00E94B723E3CF87
:10252000CF930E944E0C42E150E063EF72E08CEAE0
:1025300094E00E94B7234CEA54E064E182E00E94F8
:10254000F011C3E043E06C2F8AED92E00E94AF0EE1
:102550006EE571E080E090E00E94DD07CD5FC23162
:1025600089F742E150E064E073E08CEA94E00E9475
:10257000B7234CEA54E064E183E00E94F01166E482
:1025800075E080E090E0CF910C94DD074F925F9270
:102590006F927F928F929F92AF92BF92CF92DF9273
:1025A000EF92FF920F931F93CF93DF93CDB7DEB7D8
:1025B000982E862EE42EADB6BEB6F82EF60E4090BE
:1025C000A1045090A2046090A3047090A40420E0A1
:1025D00030E0A901C301B2010E94F72587FD57C071
:1025E000F3948DB79EB78F1991090FB6F8949EBFDB
:1025F0000FBE8DBFEDB7FEB731966F0162E173E09C
:10260000CF010E94032BF60101900020E9F78F0112
:1026100001501109282D492DC301B2010E949923AF
:10262000F60101900020E9F73197EC19FD09FE1A37
:1026300020E030E0A9016091A1047091A204809192
:10264000A3049091A4040E94972887FFF39442E08A
:102650006E2D8F2D0E94860BB60184E895E00E94B6
:10266000AD0E0FB6F894BEBE0FBEADBEDF91CF91DA
:102670001F910F91FF90EF90DF90CF90BF90AF90A0
:102680009F908F907F906F905F904F900895F394FC
:10269000F394A7CFCF93DF93EC01888199810097C2
:1026A00011F00E94AC29198218821D821C821B82A3
:1026B0001A82DF91CF910895EF92FF920F931F93AB
:1026C000CF93DF93EC017B018A0188819981009788
:1026D00029F02A813B812417350788F4B8016F5F00
:1026E0007F4F0E94352A0097C9F0998388831B8306
:1026F0000A832C813D81232B11F4FC0110821D8360
:102700000C83B701888199810E94032BCE01DF9150
:10271000CF911F910F91FF90EF900895CE010E94ED
:102720004A13F4CFFB0101900020E9F73197AF0184
:10273000461B570B0C945C13CF93DF93EC01FB010A
:102740008617970749F0608171816115710541F025
:10275000448155810E945C13CE01DF91CF91089591
:102760000E944A13F9CFFC01118210821382128257
:1027700015821482FB0101900020E9F73197AF0127
:10278000461B570B0C945C13FC01808191810097D0
:1027900011F00C94AC290895AF92BF92CF92DF92C2
:1027A000EF92FF920F931F93CF93DF93CDB7DEB7D6
:1027B0002C970FB6F894DEBF0FBECDBF95E0899F72
:1027C000B00111246E5F774F42E150E08CEA94E053
:1027D0000E94B7236CEA74E0CE0107960E94B313FF
:1027E00010E000E0602F80E00E94260B6801EFEF10
:1027F000CE1ADE0A5601C016D10610F45801860121
:1028000062E173E0CE0101960E94B313EB84FC8475
:102810000E151F05D8F4AE14BF0408F47501EF813E
:10282000F885EE0DFF1DB08010826F817885600FF6
:10283000711FCE0101966115710551F10E9492132D
:102840008F819885E80EF91EF701B082CE010196BE
:102850000E948004CE0101960E94C41386010430B8
:10286000110509F0BFCFCE0107960E94C4132C9624
:102870000FB6F894DEBF0FBECDBFDF91CF911F9191
:102880000F91FF90EF90DF90CF90BF90AF900895A1
:102890000E944A13D5CF2F923F924F925F926F9230
:1028A0007F928F929F92AF92BF92CF92DF92EF92E0
:1028B000FF920F931F93CF93DF9300D000D000D0EF
:1028C000CDB7DEB7182F1092A4032BEF280F298362
:1028D0002093A9030E94A10C0E94180F89810E94D5
:1028E000CC1380E00E94BD0E8091A903882391F053
:1028F0008091890481110EC00E94B710882309F4C9
:102900002EC141E062E082E10E94860B61E08EE030
:102910000E94FC0F43E063E083E00E941C1081E012
:1029200090E020918C04222311F090E080E0EE24CE
:10293000FF24E81AF90A61E080E00E949B0F42E060
:1029400063E082E00E941C1000E031E03E831D82C3
:1029500094EF292E332433940E9410082B013C015C
:102960008091A5039091A603A091A703B091A8031D
:1029700089839A83AB83BC830E9410088090A00354
:102980009090A103A090A203B090A30368197909C5
:102990008A099B0928EE33E040E050E00E94C928F4
:1029A00049015A018091A903882389F09D819730BC
:1029B00089F0C90165E070E00E94A128039718F42E
:1029C000AD81A33020F061E08EE00E94FC0FBD815C
:1029D000B11103C0BB24B39438C02D812730D0F788
:1029E000C301B20129813A814B815C81621B730B67
:1029F000840B950B28EE33E040E050E00E94C9289C
:102A0000CA01B901882799274FE00E94D70E3D815E
:102A1000353000F741E0C501B401882799270E94AD
:102A2000D70E8091A903823051F0833009F48AC017
:102A3000813081F6B4018D810E94DE0B05C04D818D
:102A40004330C1F70E944609B82E81E00E94A409D4
:102A50008091A90481117DC0B1107ECF80918C043A
:102A6000811104C0011102C081E08D8343E061E067
:102A700083E00E941C109E81992351F041E06EE09A
:102A80008DE493E00E94AF0EC70101960E949C0D59
:102A900001110AC00E9410086093A5037093A60359
:102AA0008093A7039093A803AD81A13051F4809146
:102AB0008B048150990BE816F9061CF480E00E9403
:102AC000270F81E08093A403BD81BF5FBD830E9477
:102AD00010086093A0037093A1038093A2039093C6
:102AE000A30342E067E088E00E94860B2E81222348
:102AF00009F462C080918B0490E0E816F9060CF0AE
:102B000059C03D81333009F052C057014FEFA41A2C
:102B1000B40A41E06EE0A816B906DCF186E00E9436
:102B2000860B75011E8280918C04811145C08091B5
:102B30008D04833009F040C0AD81A130E9F532E069
:102B40003D83B4C05D81533009F47CCFB401852F3F
:102B500073CF843021F0883009F480CFFDCE2696E3
:102B60000FB6F894DEBF0FBECDBFDF91CF911F919E
:102B70000F91FF90EF90DF90CF90BF90AF909F901C
:102B80008F907F906F905F904F903F902F900C941C
:102B900074108DE493E00E94AF0EC70102960E946C
:102BA0009C0D750151E05E8381E08D83BCCF91E087
:102BB0009E83B9CFB1E0BE832D81243009F076C069
:102BC0000E943B090E941D0C0E9410082B0180915D
:102BD0008E04882309F459C0A0908F04B09090040B
:102BE000812CC601B1010E94B528861617064CF447
:102BF00046E950E060E070E084EF91E00E94510609
:102C0000839441E060E181E00E941C1043E068E0B1
:102C100083E00E941C101092A90480E00E94A40985
:102C20008091A904882341F0843009F498CF38F4C6
:102C30008150823008F457C09924939403C0912C9A
:102C40008830D1F70E9410086B01C418D508CA1447
:102C5000DB04DCF4B5010B2C000C880B990B0E94F3
:102C6000FE2569837A838B839C83B6010D2C000C2F
:102C7000880B990B0E94FE2500E029813A814B8147
:102C80005C810E94990B9110ACCF0E941D0C81E0D9
:102C90000E94270F0E943B090E9410086093A00326
:102CA0007093A1038093A2039093A30343E061E098
:102CB00083E00E941C104D81453098F580918C0472
:102CC00081112CC080918D04833041F580918B045B
:102CD0008150990B8E159F0509F561E081E00E94F6
:102CE0009B0F01E039CE0E941D0C61E083E00E9441
:102CF0009B0F8EE00E949205892BD9F38FE00E94F2
:102D00009205892BB1F30E943B090E9410082B0108
:102D1000812C8CEAA82E8DE0B82E8ECF61E08D81BB
:102D2000DECF0E943B095091A90359830E94A10C58
:102D30000E94180F89810E94CC130E941008C09035
:102D4000A503D090A603E090A703F090A8036C1908
:102D50007D098E099F0928EE33E040E050E00E9493
:102D6000C928B901330F880B990B4FE00E94D70E89
:102D70000E941D0C41E062E081E00E941C1042E0D4
:102D800061E082E00E941C1043E065E083E00E9465
:102D90001C1083E089834BEB50E060E070E087E833
:102DA00091E00E94510668EC70E080E090E00E94A3
:102DB000DD079981915099839111EDCF4AEF50E051
:102DC00060E070E086E291E00E94510641E062E03E
:102DD00081E00E941C1042E061E082E00E941C1031
:102DE00043E065E083E00E941C1080E00E94A4099B
:102DF0008091A904882351F38430C1F08830D1F147
:102E0000823021F70E941D0C84E00E94BD0E8FE0ED
:102E10000E949205892B29F461E088E00E94BB059D
:102E2000F6CF0E943B090E941D0CD0CF80918A04EE
:102E3000813011F40E945B100E943B0910928904BA
:102E400026960FB6F894DEBF0FBECDBFDF91CF91AF
:102E50001F910F91FF90EF90DF90CF90BF90AF90B8
:102E60009F908F907F906F905F904F903F902F90AA
:102E70000C9495098091A903882339F081E00E9480
:102E8000A409833010F010928904812F0E944B1402
:102E9000D5CFFF920F931F93CF93DF93CDB7DEB7BC
:102EA0002C970FB6F894DEBF0FBECDBF0E94AC0CBE
:102EB0006CEA74E0CE0107960E94B3130F81188567
:102EC0000115110571F0F80181918F01882349F0F6
:102ED000082E000C990B0E94F22AF801319780838A
:102EE000F2CF1A8219821C821B821E821D82BE01B1
:102EF000695F7F4FCE0101960E949C13FD8084E1A3
:102F000090E08F19910997FD01968C011595079511
:102F10001F2D1170100F41E060E0802F0E94860B82
:102F2000CE0101960E948004602F6F0D41E0812F39
:102F30000E94860BCE0101960E94C4131A82198248
:102F40001C821B821E821D82BE01695F7F4FCE01E3
:102F500001960E949C13CE0101960E94C413CE01DB
:102F600007960E94C4132C960FB6F894DEBF0FBECE
:102F7000CDBFDF91CF911F910F91FF900895CF9317
:102F8000DF93CDB7DEB762970FB6F894DEBF0FBE02
:102F9000CDBF0E9449171A8219821C821B821E8291
:102FA0001D8268E775E0CE0101960E949C13188689
:102FB0001F821A8619861C861B866EE775E0CE0175
:102FC00007960E949C136CEA74E0CE010D960E9455
:102FD000B313CE010D960E94C413CE0107960E9432
:102FE000C413CE0101960E94C41362960FB6F894E2
:102FF000DEBF0FBECDBFDF91CF910895CF92DF929C
:10300000EF92FF92CF93DF93E091AB0424E0E29F35
:10301000F0011124EB5DFD4F82810E94BF1781E01A
:103020008093AA048091AA04882309F447C163E02D
:1030300081E00E94260B20E030E040E85FE36091F1
:10304000A1047091A2048091A3049091A4040E9411
:10305000822720919D0430919E0440919F045091BD
:10306000A0040E94F72563E573E087FD02C065E5D3
:1030700073E08EE795E00E9492138EE795E00E9440
:1030800080046091A1047091A2048091A3049091A6
:10309000A4040E946128862F0E94AC0C4CEA54E0E4
:1030A00060E183E00E94F01163E082E10E94260B60
:1030B00020E030E040E85FE36091A1047091A20459
:1030C0008091A3049091A4040E94832720919904E5
:1030D00030919A0440919B0450919C040E9497283F
:1030E00063E573E0181614F067E573E088E795E090
:1030F0000E94921388E795E00E948004C091AB047F
:1031000084E0C89FE0011124CB5DDD4F688170E051
:1031100090E080E00E94FC2560939D0470939E04E3
:1031200080939F049093A004698170E090E080E018
:103130000E94FC256093990470939A0480939B04E9
:1031400090939C0480E090E0A0E8BFE3809344016A
:1031500090934501A0934601B09347011092A904B2
:1031600082E00E94A4090E941008C090A504D0909B
:10317000A604E090A704F090A8046C197D098E09BC
:103180009F09693873418105910510F00E949509E6
:103190008091A904882309F445CF843039F188301F
:1031A00009F040CFC090A104D090A204E090A30405
:1031B000F090A404C701B6010E946128E091AB041D
:1031C00024E0E29FF0011124EB5DFD4F23812617DF
:1031D0001706B9F5C701B6010E946828862FDF914E
:1031E000CF91FF90EF90DF90CF900895E091AB04E6
:1031F00024E0E29FF0011124EB5DFD4FC281C093FA
:10320000AB046C2F70E090E080E00E94FC2560939E
:10321000A1047093A2048093A3049093A404C11109
:1032200003C00E949509FECE82E00E942C0C84E02F
:10323000C89FF0011124EB5DFD4F82810E94BF17F2
:10324000F1CE660F771F660F771F6B5D7D4FFB0119
:10325000C381C093AB046C2F70E090E080E00E94CB
:10326000FC256093A1047093A2048093A30490931F
:10327000A4048C2F90E0EC01CC0FDD1FCC0FDD1FE0
:10328000FE01EB5DFD4F60816817190699F094F01F
:1032900021812817190671F06CF070E090E080E051
:1032A0000E94FC256093A1047093A2048093A30460
:1032B0009093A404CB5DDD4F8A81C0CF90CF8091E5
:1032C000AB040E94BF170E944E0C43E060E083E015
:1032D0000C941C101F920F920FB60F9211242F9373
:1032E0003F934F935F936F937F938F939F93AF938E
:1032F000BF93EF93FF938091C3049091C404A09176
:10330000C504B091C604892B8A2B8B2BD1F19091E7
:10331000BE04E091BF04F091C004808189278083BE
:103320008091C3049091C404A091C504B091C604D7
:10333000181619061A061B069CF48091C304909176
:10334000C404A091C504B091C6040197A109B109B4
:103350008093C3049093C404A093C504B093C6049F
:10336000FF91EF91BF91AF919F918F917F916F915D
:103370005F914F913F912F910F900FBE0F901F9033
:103380001895809148010E94E905EACF1F920F929B
:103390000FB60F9211242F933F934F935F936F9328
:1033A0007F938F939F93AF93BF93EF93FF938FEC94
:1033B00094E00E94DA04FF91EF91BF91AF919F9149
:1033C0008F917F916F915F914F913F912F910F90CE
:1033D0000FBE0F901F9018951F920F920FB60F926D
:1033E00011242F938F939F93EF93FF93E091DF042A
:1033F000F091E0048081E091E504F091E60482FD23
:103400001BC090818091E8048F5F8F732091E90445
:10341000821741F0E091E804F0E0E153FB4F958F13
:103420008093E804FF91EF919F918F912F910F90DE
:103430000FBE0F901F9018958081F4CF1F920F92AE
:103440000FB60F9211242F933F938F939F93AF93B7
:10345000BF938091540490915504A0915604B0916B
:1034600057043091530423E0230F2D3758F501966C
:10347000A11DB11D209353048093540490935504CF
:10348000A0935604B0935704809158049091590426
:10349000A0915A04B0915B040196A11DB11D8093C7
:1034A000580490935904A0935A04B0935B04BF91BD
:1034B000AF919F918F913F912F910F900FBE0F90E1
:1034C0001F90189526E8230F0296A11DB11DD2CF9B
:1034D0001F920F920FB60F9211242F933F934F9389
:1034E0005F936F937F938F939F93AF93BF93EF936C
:1034F000FF938091B900887F803609F44AC0F0F5C7
:10350000883209F4A7C018F5803109F49BC0B8F4DB
:10351000882309F4F9C0883009F494C0FF91EF9131
:10352000BF91AF919F918F917F916F915F914F91DB
:103530003F912F910F900FBE0F901F9018958831DB
:1035400009F488C0803251F780932F0414C080346E
:1035500009F49DC040F48033B9F38833F9F68093C1
:103560002F0485ECB0C0803509F485C0883509F496
:1035700096C0883499F60E941C08D0CF883909F487
:103580008CC038F5883729F050F4883611F0803730
:1035900029F683E08093620410922E0457C0883885
:1035A00009F47BC0803919F0803809F0B7CF8091D9
:1035B0002E04803208F071C0E0912E0481E08E0F5D
:1035C00080932E048091BB00F0E0E25FFB4F80838C
:1035D0003DC0803B39F0E0F4803A09F479C0883A84
:1035E00009F09CCF84E08093620410920D04109245
:1035F0000C04E0915E04F0915F04099580910C0445
:1036000081110FC081E080930C041092EC0309C07B
:10361000803C09F4A6CF883C09F4A3CF883B09F08D
:103620007DCFE0910D0481E08E0F80930D04F0E0DA
:10363000E451FC4F80818093BB0090910D048091F8
:103640000C0429C0809152048093BB0085EC8093C8
:10365000BC0064CF9091510480915004981758F5A4
:10366000E091510481E08E0F80935104F0E0E05D21
:10367000FB4F8081E9CFE091510481E08E0F809370
:1036800051048091BB00F0E0E05DFB4F808390919E
:103690005104809150049817C8F285E8D8CFE09182
:1036A000510481E08E0F809351048091BB00F0E0C3
:1036B000E05DFB4F80838091610481115CCF81E0EC
:1036C0008093600484EA8093BC001092620426CF49
:1036D00085EC8093BC001092620480912E048032AD
:1036E00030F4E0912E04F0E0E25FFB4F1082609135
:1036F0002E0470E0E0915C04F0915D048EE094E0B3
:10370000099510922E040ACF10922F0434CFEFECBB
:10371000F4E01382128288EE93E0A0E0B0E08483AC
:103720009583A683B78325E832E03183208325EC97
:1037300030E03587248724EC30E03787268720EC7B
:1037400030E0318B208B21EC30E0338B228B22EC6C
:1037500030E0358B248B26EC30E0378B268B118EB6
:10376000128E138E148EECE6F5E01382128284839F
:103770009583A683B78387E992E091838083E4E809
:10378000F5E01382128289EA92E09183808387E2D6
:10379000848384E1818784E08287138662E173E019
:1037A0008EE795E00E94B31362E173E088E795E04D
:1037B0000C94B313CF93DF93CDB7DEB7C054D109C8
:1037C0000FB6F894DEBF0FBECDBF789484B582608B
:1037D00084BD84B5816084BD85B5826085BD85B5B5
:1037E000816085BD80916E00816080936E00109233
:1037F00081008091810082608093810080918100AE
:10380000816080938100809180008160809380003E
:103810008091B10084608093B1008091B00081609C
:103820008093B00080917A00846080937A008091C8
:103830007A00826080937A0080917A008160809320
:103840007A0080917A00806880937A001092C1009B
:10385000F9E6EF2EF4E0FF2E05EF11E0B701F801D5
:10386000819191918F010E94B80CF4E0EF0EF11C50
:1038700042E00530140791F70E94D70CEAE8EE2EDB
:10388000E4E0FE2E02E310E0C8010E941B27F701CE
:1038900081937F010F5F1F4F09331105A9F7109224
:1038A00066041092650410926404109263041092EE
:1038B000620481E0809361041092600461E082E11F
:1038C0000E94BB0561E083E10E94BB058091B900C5
:1038D0008E7F8093B9008091B9008D7F8093B9006D
:1038E00088E48093B80085E48093BC0081E594E08F
:1038F00090935F0480935E0482E594E090935D046E
:1039000080935C041092890580918E05823018F0B6
:1039100098E09093890580938C0562E370E080E0E5
:1039200090E00E94DD0760918F0584E895E00E9499
:10393000D30868EE73E080E090E00E94DD0760E36A
:1039400084E895E00E94F60A0BE416E4C8010197AA
:10395000F1F760E384E895E00E94F60AC801019758
:10396000F1F760E384E895E00E94F60A83E592E0CF
:103970000197F1F760E284E895E00E94F60A609111
:103980008905606240E084E895E00E940F0B84E0C6
:1039900080938A0540E06CE084E895E00E940F0B7C
:1039A0000E94A10C82E080938B0540E066E084E8F1
:1039B00095E00E940F0B40E062E084E895E00E94F1
:1039C0000F0B8BE39FE10197F1F718E010938F0540
:1039D00060E084E895E00E94D3086AEF70E080E040
:1039E00090E00E94DD0710928F0560E084E895E08A
:1039F0000E94D3086AEF70E080E090E00E94DD074B
:103A000010938F0560E084E895E00E94D30862E09F
:103A100083E00E94150661E084E00E94150661E0E3
:103A200085E00E94150661E086E00E94150661E0CF
:103A300087E00E94150661E088E00E94150661E0BB
:103A400089E00E94150661E08AE00E94150662E0A6
:103A50008EE00E94150662E08FE00E94150662E08B
:103A600080E10E94150662E081E10E94150660E097
:103A700084E10E94150660E085E10E941506EFE5ED
:103A8000F1E0DE01D996812F01900D928A95E1F740
:103A9000E7E6F1E0DE01D196812F01900D928A9543
:103AA000E1F7EFE6F1E0DE019996812F01900D92AA
:103AB0008A95E1F7E7E7F1E0DE019196812F019029
:103AC0000D928A95E1F7EFE7F1E0DE015996812F3B
:103AD00001900D928A95E1F7E7E8F1E0DE01519659
:103AE000812F01900D928A95E1F7EFE8F1E0DE0178
:103AF0001996812F01900D928A95E1F7CE010196DA
:103B00007C01FC0111921A95E9F78CE18983BE01D1
:103B1000675C7F4F80E00E94540CBE016F5C7F4F5A
:103B200081E00E94540CBE01675D7F4F82E00E94DD
:103B3000540CBE016F5D7F4F83E00E94540CBE01A8
:103B4000675E7F4F84E00E94540CBE016F5E7F4F22
:103B500085E00E94540CBE01675F7F4F86E00E94A3
:103B6000540CB70187E00E94540C40E063E080E011
:103B70000E94600B61E084E895E00E945A0B40E0EF
:103B800068E084E00E94600B65E084E895E00E94B4
:103B90005A0B41E063E082E00E94600B63E084E83E
:103BA00095E00E945A0B89E097E00E946C0B66E05A
:103BB00084E895E00E945A0B67E084E895E00E9453
:103BC0005A0B81E097E00E946C0B42E060E089E5CF
:103BD00093E00E94AF0E43E060E08EE693E00E9427
:103BE000AF0E60EA7FE080E090E00E94DD070E9477
:103BF000A10C69E271E082E00E94540C61E271E084
:103C000083E00E94540C69E171E084E00E94540C4E
:103C100061E171E085E00E94540C69E071E086E0AA
:103C20000E94540C812C912C50E8A52E5FE3B52EF8
:103C3000412C512C612C6FEB762E7CEA272E7DE0F7
:103C4000372E0E94311280916704843008F41BC122
:103C50001092670460916704F1E16F9FB001112435
:103C6000635F784F42E150E08CEA94E00E94B72312
:103C70004CEA54E062E183E00E94F01166E970E0F2
:103C800080E090E00E94DD070E94950980E00E949C
:103C9000A4098091A904813009F0C4C00E941D0CC0
:103CA00083E00E94BF178CE00E94AC0C4CEA54E009
:103CB00064E182E00E94F01185E10E94F10F63E06F
:103CC0008FE00E94260B6091910470919204809184
:103CD00093049091940442E00E94C90D64EC79E051
:103CE00080E090E00E94DD0786E10E94F10F63E032
:103CF0008EE00E94260B609195047091960480914D
:103D000097049091980442E00E94C90D64EC79E018
:103D100080E090E00E94DD078AE00E94AC0C4CEA53
:103D200054E064E182E00E94F01183E00E942C0CD8
:103D300043E061E083E893E00E94AF0E80918A0443
:103D400043E061E18111A3C08BE893E00E94AF0ED4
:103D500064EC79E080E090E00E94DD078EE00E9454
:103D6000F10F63E082E10E94260B40918B0450E04A
:103D700070E060E02AE084E895E00E94500D64EC79
:103D800079E080E090E00E94DD078FE00E94F10F73
:103D900063E081E10E94260B80918C0481117AC03E
:103DA0006BE873E084E895E00E94AD0E64EC79E086
:103DB00080E090E00E94DD0787E10E94F10F6091B2
:103DC0008D044CE0649FB00111246E59784F42E19C
:103DD00050E08CEA94E00E94B72343E068E08CEA6C
:103DE00094E00E94AF0E64EC79E080E090E00E94E5
:103DF000DD0780E10E94F10F63E081E10E94260B64
:103E000080918E0481114DC06BE873E084E895E0E9
:103E10000E94AD0E64EC79E080E090E00E94DD0746
:103E20000E941D0C8091A904883009F068C481E0CB
:103E30008093AB048092A1049092A204A092A30468
:103E4000B092A4040E94FE17ECEFE80FE53108F0F1
:103E50007CC0F0E0E25DF04E0C940A296B1F052057
:103E6000052005200A200D20A51F1020A51F0B21CD
:103E7000AE21F821F821A51FA51FA51FA51F1923F5
:103E80001923A51F0A208F5F80936704E3CE8EE875
:103E900093E05CCF6EE873E084E895E00E94AD0E9D
:103EA000A2CF6EE873E084E895E00E94AD0E64EC6A
:103EB00079E080E090E00E94DD0788E10E94F10F48
:103EC00063E08FE00E94260B80918F049091900414
:103ED0000E949C0D9FCF0E94A10C0E94180F84E0AD
:103EE0000E94491768EE73E080E090E00E94DD07D1
:103EF00010E044EF51E0612F80E00E944C12EFEFA0
:103F0000E10FEA3050F5F0E0E857F04E0C940A2942
:103F1000B71FB71FB31FBC1FC51FD31FE11F921FC1
:103F2000F41FF81F4CED55E060E082E00E944C1257
:103F30004CED55E061E082E00E944C120E944E0C74
:103F40001F5F1B30B1F60E9495098091AB04882356
:103F500009F4D3C30E94311275CF40ED57E061E000
:103F600083E00E944C1240ED57E062E003C040ED58
:103F700057E061E083E0E0CF4CED55E061E083E0A5
:103F80000E944C124CED55E0F0CF00E04CED55E0B6
:103F9000602F83E00E944C120F5F0430B9F70E943B
:103FA0004E0C1F5FA6CF00E0043009F405E04CED95
:103FB00055E0602F83E00E944C120F5F0830A1F79C
:103FC000EECF4CED55E060E081E00E944C124CEDEC
:103FD00055E061E081E00E944C124CED55E062E05A
:103FE00081E00E944C12DBCF4CED55E065E0C2CF82
:103FF00010E048EE53E0612F83E00E944C121F5FF7
:104000001530B9F70E944E0C9ECF109289040E9481
:104010004B1499CF0E944D1098CF0E94131195CF49
:1040200082E00E942C0C0E94B710182F82E00E94A0
:104030002C0CF12CE12C01E10E0D84E0E816F104CA
:1040400009F4CEC0112309F479C043E060E083E0B5
:104050000E941C1020E030E040E85FE392E0E916A7
:10406000F10409F47EC0E3E0EE16F10409F489C01E
:104070006CE370E090E080E0F1E0EF16F10409F409
:1040800064C00E945F09E091680444E0E49FF0018D
:104090001124E759FB4F608170E090E080E00E94BE
:1040A000FC256093A1047093A2048093A3049093D1
:1040B000A404802F0E94AC0C42E061E08CEA94E002
:1040C0000E94AF0E6091A1047091A2048091A3049C
:1040D0009091A4040E9468284DE00E94D70E82E0CF
:1040E0000E94A4098091A904882361F3883009F013
:1040F00013C300916804F4E00F9F80011124075955
:104100001B4F82E0E816F10409F450C093E0E91671
:10411000F10409F458C06091A1047091A204809147
:10412000A3049091A404E1E0EE16F104D1F10E9401
:104130006828F801608311E00E94310C82E00E943F
:104140002C0CFFEFEF1AFF0A76CF0E945F09E09177
:10415000680484E0E89FF0011124E759FB4F618176
:104160009BCF6CE271E090E080E00E945F09E091FB
:10417000680494E0E99FF0011124E759FB4F628144
:104180008BCF64EB70E090E080E00E945F09E091EB
:10419000680444E0E49FF0011124E759FB4F638178
:1041A0007BCF0E946828F8016183C5CF6091A1048C
:1041B0007091A2048091A3049091A4040E946828A5
:1041C000F8016283B8CF6091A1047091A20480913C
:1041D000A3049091A4040E946828F8016383ABCFE4
:1041E0001123B1F0109168040E949012812F90E089
:1041F000BC01660F771F660F771F67597B4F880FCB
:10420000991FFC01EB50FE4F808191810E94F00CC0
:104210000E94310C9ACE83E00E942C0C41E066E0B3
:1042200081E00E941C1063E081E00E94260B05E003
:1042300012E095EFC92E91E0D92E29E6E22E24E076
:10424000F22EF8018081F7018083F8018181F70166
:104250008183F8018281F7018283F8018381F7016C
:104260008383B701F601819191916F010E94F00C57
:1042700061E973E084E895E00E94AD0E6AE872E0BF
:1042800080E090E00E94DD070C5F1F4FF4E0EF0E2E
:10429000F11C85E292E08017910799F61092910443
:1042A00010929204109293041092940440929504F8
:1042B0005092960460929704709298040E940F0D99
:1042C00062E973E084E895E00E94AD0E6AE872E06E
:1042D00080E090E00E94DD0791E090938A0482E004
:1042E00080938B0490938C0410928D0490938E0491
:1042F0003092900420928F040E94280D62E973E0AE
:1043000084E895E00E94AD0E6AE872E080E090E0FB
:104310000E94DD0741E067E081E00E941C1042E05E
:1043200068E081E00E941C1083E00E942C0C6CED80
:1043300075E080E090E00E94DD0781E00E942C0C97
:1043400082E00E942C0C0E9410086093A5047093D8
:10435000A6048093A7049093A804F7CD0E945F1948
:1043600042E06DE081E00E941C1020E030E040E877
:104370005FE365E070E081E090E00E945F0960919A
:104380008B0470E090E080E00E94FE256093A10421
:104390007093A2048093A3049093A4044FE060E080
:1043A00081E00E94C61282E00E94A4098091A904C3
:1043B0008823A1F38830D1F46091A1047091A20404
:1043C0008091A3049091A4040E94682860938B04B8
:1043D0000E9490120E94280D80E09091A9049430D0
:1043E00009F416CF882309F413CFD8CF81E0F5CF95
:1043F00011EF180F60918C04113011F460918E044C
:1044000070E090E080E00E94FE256093A10470932C
:10441000A2048093A3049093A4040E945F1942E035
:1044200069E081E00E941C1020E030E040E85FE39A
:1044300061E070E090E080E00E945F096091A1047B
:104440007091A2048091A3049091A4040E94612819
:10445000660F771F660F771F6E56784F42E150E068
:104460008CEA94E00E94B72342E060E18CEA94E099
:104470000E94AF0E82E00E94A4098091A9048823C3
:10448000E9F2883009F0D3C06091A1047091A204D0
:104490008091A3049091A4040E946828113009F42B
:1044A00083C060938C04662389F080918C04809390
:1044B0008A040E9490120E94280D80E09091A90425
:1044C000943009F4A5CE8111B9CFA2CE0E945F1914
:1044D00020E030E040E85FE363E070E081E090E0FE
:1044E0000E945F0960918D0470E090E080E00E947E
:1044F000FE256B017C0120E030E0A9010E94F72538
:10450000882309F443C0C092A104D092A204E0928F
:10451000A304F092A4046091A1047091A20480917C
:10452000A3049091A4040E946128ECE0E69F90010E
:10453000E79F300D1124B9016E59784F42E150E0E8
:104540008CEA94E00E94B7234CEA54E064E182E0F4
:104550000E94F01182E00E94A4098091A90488239E
:10456000D1F28830E1F46091A1047091A2048091AD
:10457000A3049091A4040E94682860938D0401E034
:104580000E94310C002309F498CF8FCF8092A104B0
:104590009092A204A092A304B092A404BCCF843051
:1045A00009F0B9CF00E0ECCF60938E04613009F0E0
:1045B0007CCF0E945F1920E030E04AEF53E460E4D2
:1045C0007FE188EB9BE00E945F0960918F0470910E
:1045D0009004072E000C880B990B0E94FE25609317
:1045E000A1047093A2048093A3049093A4044DE0CB
:1045F00060E084E00E94C61282E00E94A4098091DB
:10460000A9048823A1F3883079F46091A104709102
:10461000A2048091A3049091A4040E946128709345
:10462000900460938F04ABCF843009F7BBCF81E057
:1046300045CF1BEE180F0E945F192DEC3CEC4CECA3
:104640005DE370E060E08FEF9FEF0E945F09113043
:1046500009F43FC08091910490919204A091930439
:10466000B09194048093A1049093A204A093A30416
:10467000B093A40447E062E081E00E94C61282E0A9
:104680000E94A4098091A9048823A1F3883099F598
:104690008091A1049091A204A091A304B091A404DC
:1046A000113001F18093910490939204A0939304AC
:1046B000B09394040E9490120E940F0D0E94D70C98
:1046C00080E09091A904943009F4A2CD8111D2CF59
:1046D0009FCD8091950490919604A0919704B091FC
:1046E0009804C0CF8093950490939604A093970468
:1046F000B0939804DFCF81E0E4CF0E94A10C80E06A
:1047000090E0892B09F49DCA0E94C604882309F40D
:1047100098CA0E94000095CA843009F0D3CC10E0FA
:104720000BCD88E795E00E94C4138EE795E00C94CA
:10473000C413EF920F931F93CF93DF93E80134E0FC
:1047400047FD34E1042E000C550B57FF03C0519573
:1047500041955109E32E022F242FAE010E94C02360
:10476000CE01DF91CF911F910F91EF900895FB0142
:10477000DC0102C005900D9241505040D8F70895D9
:10478000A9E0B0E0E6ECF3E20C9442276A01F22ED5
:10479000B02E102FFBE3AF2EA01608F41BE31F5F13
:1047A000012F27E0AE014F5F5F4F0E941F25BC0124
:1047B0008981982F9970913009F43FC09BE2E1FC08
:1047C00004C09E2D9170E0FC3AC05E2D5071E82F20
:1047D000E87083FF46C084E0911101C083E0EF2DB3
:1047E000E81B8F1508F0E0E0D6018E2F20E255235C
:1047F00051F1992329F0D6019C93C60101966C01D1
:1048000096012D5F3F4FE2FE24C08EE4D6018C93CB
:1048100091E411969C93119712968C93D9018E2F47
:1048200090E281111BC0E20FF32FF11D10828EEF79
:104830009FEF2996ECE00C945E279DE2C6CF90E2B4
:10484000C4CF2D9381508111FCCFCE0ED11CE0E05E
:10485000D0CF8EE6D6018C9391E6DBCF9D9381502D
:10486000E0CF482F447082FF3DC084E0911101C029
:1048700083E08F1510F4EF2DE81BD6018E2F20E278
:10488000552309F1992329F0D6019C93C60101967D
:104890006C0196012D5F3F4FE2FE1BC089E4D601FB
:1048A0008C938EE411968C93119786E412968C93D8
:1048B000D9018E2F90E2882309F4B5CF9D938150C2
:1048C000FACF2D9381508111FCCFCE0ED11CE0E0A8
:1048D000D9CF89E6D6018C938EE611968C931197E9
:1048E00086E6E4CF9B0177FF02C030E020E0A1E044
:1048F000B0E0911102C0B0E0A0E0F9013196AE0F36
:10490000BF1F8B2C912CBB2009F461C05401EFEF29
:10491000AE1ABE0AAA0DBB1DFA161B0619F014F03A
:104920004F2D4A1B511188C0E3FC59C07601A42FBA
:10493000B0E2A1114FC0C40ED11C992309F45BC091
:1049400040E0D6011196F60190836D01552309F4DC
:1049500048C0012F060F9A81582F507184FF03C061
:10496000913309F4015010160CF047C0093008F0DB
:1049700008E0EEE2FE2E5B01A01AB10885019194D9
:10498000819491082F3F320729F4D601FC92F60159
:1049900031966F016217730794F1021713077CF5C4
:1049A000DB01A21BB30BAA24A394B12CAC0EBD1E39
:1049B000AA0DBB1D11968C9121503109D60111967B
:1049C00028153905F4F0F60180836D01DBCFB12C99
:1049D000A12CA0CFF701B1937F01A150AACF9111D3
:1049E000B0CFD601942F50E302C05D939150911146
:1049F000FCCFC40ED11C40E0ACCF01E0BACF80E3C5
:104A0000DBCF6217730731F4963388F4953311F4D2
:104A1000552369F0F6018083FD01842F90E2811116
:104A200008C0A40FB11D1C9290E080E002CF81E38A
:104A3000F1CF91938150F3CF911183CF8ACF28305A
:104A400008F027E03327DA01990F311D87FD9160C7
:104A500000966105710539F432602E5F3D9330E3B5
:104A60002A95E1F708959F3F30F080387105610580
:104A700009F03C5F3C5F3D93913008F08068911DE8
:104A8000DF93CF931F930F93FF92EF92192F987F8D
:104A90009695E92F96959695E90FFF27EE53FF4FD0
:104AA00099273327EE24FF24A701E70105900894F6
:104AB000079428F4360FE71EF81E491F511D660F94
:104AC000771F881F991F0694A1F70590079428F473
:104AD000E70EF81E491F561FC11D770F881F991F2B
:104AE000661F0694A1F70590079428F4F80E491F55
:104AF000561FC71FD11D880F991F661F771F069469
:104B0000A1F70590079420F4490F561FC71FD81F1F
:104B1000990F661F771F881F0694A9F78491109537
:104B2000177041F0D695C79557954795F794E79438
:104B30001A95C1F7E8E6F0E0689415901591359163
:104B40006591959105907FE27395E118F10A430B09
:104B5000560BC90BD009C0F7E10CF11E431F561FBD
:104B6000C91FD01D7EF4703311F48A95E6CFE89406
:104B7000015030F0080F0AF40027021708F4202F24
:104B80002395022F7A3328F079E37D932A95E9F76C
:104B900010C07D932A9589F6069497956795379569
:104BA00017951794E118F10A430B560BC90BD0095E
:104BB00098F023957E9173957A3308F070E37C9397
:104BC0002013B8F77E9170617D9330F0839571E387
:104BD0007D9370E32A95E1F71124EF90FF900F91F8
:104BE0001F91CF91DF91992787FD909508950E949D
:104BF000392608F481E00895E89409C097FB3EF453
:104C000090958095709561957F4F8F4F9F4F992319
:104C1000A9F0F92F96E9BB279395F6958795779597
:104C20006795B795F111F8CFFAF4BB0F11F460FF57
:104C30001BC06F5F7F4F8F4F9F4F16C0882311F0AF
:104C400096E911C0772321F09EE8872F762F05C0C3
:104C5000662371F096E8862F70E060E02AF09A955E
:104C6000660F771F881FDAF7880F9695879597F953
:104C70000895990F0008550FAA0BE0E8FEEF1616ED
:104C80001706E807F907C0F012161306E407F50740
:104C900098F0621B730B840B950B39F40A2661F0B4
:104CA000232B242B252B21F408950A2609F4A14057
:104CB000A6958FEF811D811D08950E9470260C948A
:104CC000E1260E94D32638F00E94DA2620F09523B0
:104CD00011F00C94CA260C94D02611240C9415279C
:104CE0000E94F22670F3959FC1F3950F50E0551F77
:104CF000629FF001729FBB27F00DB11D639FAA2731
:104D0000F00DB11DAA1F649F6627B00DA11D661F7F
:104D1000829F2227B00DA11D621F739FB00DA11DA0
:104D2000621F839FA00D611D221F749F3327A00D5A
:104D3000611D231F849F600D211D822F762F6A2FF6
:104D400011249F5750409AF0F1F088234AF0EE0F5B
:104D5000FF1FBB1F661F771F881F91505040A9F788
:104D60009E3F510580F00C94CA260C9415275F3F96
:104D7000E4F3983ED4F3869577956795B795F795C4
:104D8000E7959F5FC1F7FE2B880F911D969587953C
:104D900097F9089597F99F6780E870E060E00895BB
:104DA0009FEF80EC089500240A9416161706180643
:104DB0000906089500240A9412161306140605061F
:104DC0000895092E0394000C11F4882352F0BB0FB0
:104DD00040F4BF2B11F460FF04C06F5F7F4F8F4F13
:104DE0009F4F089557FD9058440F551F59F05F3F4E
:104DF00071F04795880F97FB991F61F09F3F79F0FD
:104E000087950895121613061406551FF2CF46957E
:104E1000F1DF08C0161617061806991FF1CF869500
:104E20007105610508940895E894BB2766277727E4
:104E3000CB0197F90895F999FECF92BD81BDF89AFB
:104E4000992780B50895262FF999FECF1FBA92BDF4
:104E500081BD20BD0FB6F894FA9AF99A0FBE01965B
:104E600008950E947327A59F900DB49F900DA49F55
:104E7000800D911D112408952F923F924F925F92C1
:104E80006F927F928F929F92AF92BF92CF92DF925A
:104E9000EF92FF920F931F93CF93DF93CDB7DEB7BF
:104EA000CA1BDB0B0FB6F894DEBF0FBECDBF099453
:104EB0002A88398848885F846E847D848C849B84AA
:104EC000AA84B984C884DF80EE80FD800C811B81B8
:104ED000AA81B981CE0FD11D0FB6F894DEBF0FBEE7
:104EE000CDBFED010895A29FB001B39FC001A39F64
:104EF000700D811D1124911DB29F700D811D112413
:104F0000911D08955058BB27AA270E949A270C94F8
:104F1000E1260E94D32638F00E94DA2620F039F4E8
:104F20009F3F19F426F40C94D0260EF4E095E7FB8D
:104F30000C94CA26E92F0E94F22658F3BA1762078A
:104F400073078407950720F079F4A6F50C941427CD
:104F50000EF4E0950B2EBA2FA02D0B01B901900194
:104F60000C01CA01A0011124FF27591B99F0593FD8
:104F700050F4503E68F11A16F040A22F232F342F20
:104F80004427585FF3CF469537952795A795F0406E
:104F90005395C9F77EF41F16BA0B620B730B840B83
:104FA000BAF09150A1F0FF0FBB1F661F771F881F3B
:104FB000C2F70EC0BA0F621F731F841F48F4879593
:104FC00077956795B795F7959E3F08F0B0CF939585
:104FD000880F08F09927EE0F9795879508950E94FE
:104FE00003280C94E1260E94DA2658F00E94D3266A
:104FF00040F029F45F3F29F00C94CA2651110C941B
:1050000015270C94D0260E94F22668F39923B1F359
:10501000552391F3951B550BBB27AA2762177307DE
:10502000840738F09F5F5F4F220F331F441FAA1F72
:10503000A9F335D00E2E3AF0E0E832D0915050402E
:10504000E695001CCAF72BD0FE2F29D0660F771FDC
:10505000881FBB1F261737074807AB07B0E809F0C2
:10506000BB0B802DBF01FF2793585F4F3AF09E3F47
:10507000510578F00C94CA260C9415275F3FE4F391
:10508000983ED4F3869577956795B795F7959F5F8A
:10509000C9F7880F911D9695879597F90895E1E0D6
:1050A000660F771F881FBB1F621773078407BA0735
:1050B00020F0621B730B840BBA0BEE1F88F7E09590
:1050C00008950E9468286894B1110C9415270895DA
:1050D0000E94FA2688F09F5798F0B92F9927B75168
:1050E000B0F0E1F0660F771F881F991F1AF0BA958C
:1050F000C9F714C0B13091F00E941427B1E00895AF
:105100000C941427672F782F8827B85F39F0B93FA0
:10511000CCF3869577956795B395D9F73EF490953E
:105120008095709561957F4F8F4F9F4F08950E9496
:10513000392608F48FEF08950E943926880B990BC1
:105140000895AA1BBB1B51E107C0AA1FBB1FA617CE
:10515000B70710F0A61BB70B881F991F5A95A9F720
:1051600080959095BC01CD01089597FB072E16F40C
:10517000009407D077FD09D00E94A12807FC05D034
:105180003EF4909581959F4F0895709561957F4F5E
:105190000895A1E21A2EAA1BBB1BFD010DC0AA1F78
:1051A000BB1FEE1FFF1FA217B307E407F50720F090
:1051B000A21BB30BE40BF50B661F771F881F991F0B
:1051C0001A9469F760957095809590959B01AC0154
:1051D000BD01CF010895052E97FB1EF400940E9497
:1051E000022957FD07D00E94C92807FC03D04EF4BE
:1051F0000C94022950954095309521953F4F4F4F83
:105200005F4F089590958095709561957F4F8F4F72
:105210009F4F0895EE0FFF1F0590F491E02D099424
:105220000F931F93CF93DF938230910510F482E0A8
:1052300090E0E0919205F091930530E020E0B0E03D
:10524000A0E0309799F42115310509F44AC0281BD4
:10525000390B24303105D8F58A819B8161157105A0
:1052600089F1FB0193838283FE0111C0408151814A
:105270000281138148175907E0F04817590799F43C
:10528000109761F012960C93129713961C93329616
:10529000CF01DF91CF911F910F9108950093920557
:1052A00010939305F4CF2115310551F042175307A0
:1052B00038F0A901DB019A01BD01DF01F801C1CF7E
:1052C000EF01F9CF9093930580939205CDCFFE0126
:1052D000E20FF31F81939193225031093983288380
:1052E000D7CF2091900530919105232B41F4209147
:1052F0004B0130914C013093910520939005209102
:10530000490130914A012115310541F42DB73EB7CD
:1053100040914D0150914E01241B350BE0919005B9
:10532000F0919105E217F307A0F42E1B3F0B28170D
:10533000390778F0AC014E5F5F4F2417350748F00E
:105340004E0F5F1F50939105409390058193919369
:105350009FCFF0E0E0E09CCFCF93DF930097E9F0A0
:10536000FC01329713821282A0919205B0919305AD
:10537000ED0130E020E01097A1F420813181820F0F
:10538000931F20919005309191052817390709F056
:1053900061C0F0939105E0939005DF91CF9108955E
:1053A000EA01CE17DF07E8F54A815B819E014115CE
:1053B0005105B1F7E901FB83EA8349915991C40F83
:1053C000D51FEC17FD0761F4808191810296840F4F
:1053D000951FE90199838883828193819B838A83C6
:1053E000F0E0E0E012968D919C9113970097B9F54B
:1053F0002D913C911197CD010296820F931F209120
:105400009005309191052817390739F6309751F5F5
:105410001092930510929205B0939105A093900578
:10542000BCCFD383C28340815181840F951FC8179D
:10543000D90761F44E5F5F4F88819981480F591FEA
:10544000518340838A819B81938382832115310517
:1054500009F0B0CFF0939305E09392059ECFFD0144
:10546000DC01C0CF13821282D7CFB0E0A0E0EBE323
:10547000FAE20C943E278C01009751F4CB010E9474
:1054800010298C01C801CDB7DEB7E0E10C945A2792
:10549000FC01E60FF71F9C0122503109E217F307C8
:1054A00008F49DC0D901CD91DC911197C617D7079B
:1054B00098F0C530D10530F3CE01049786179707D1
:1054C00008F3C61BD70B2297C193D1936D937C939E
:1054D000CF010E94AC29D6CF5B01AC1ABD0A4C01AA
:1054E0008C0E9D1EA0919205B0919305512C412CDC
:1054F000F12CE12C109731F5809190059091910558
:105500008815990509F05CC04616570608F058C082
:105510008091490190914A01009741F48DB79EB75F
:1055200040914D0150914E01841B950BE817F907EE
:1055300008F055C0F0939105E0939005F90171834F
:105540006083A0CF8D919C91119712966C901297C9
:1055500013967C901397A815B90559F56C0142E094
:10556000C40ED11CCA14DB0420F1AC014A195B093A
:10557000DA011296159780F062827382518340831C
:10558000D9016D937C93E114F10471F0D701139666
:10559000FC93EE93129776CF22968C0F9D1FF90104
:1055A00091838083F301EFCFF0939305E09392050D
:1055B00069CF4816590608F42C017D01D3019ACF12
:1055C000CB010E9410297C01009749F0AE01B8017F
:1055D0000E94FA2AC8010E94AC29870153CF10E02B
:1055E00000E050CF9111089581568A5108F48052FD
:1055F00085580895FB01DC0102C001900D924150D5
:105600005040D8F70895FB01DC0101900D92002075
:10561000E1F70895AEE0B0E0E0E1FBE20C944A2748
:105620000D891E8986E08C831A8309838FEF9FE79B
:105630009E838D83AE01475E5F4F6F89788DCE016B
:1056400001960E942D2B2F813885020F131FF80120
:1056500010822E96E4E00C946627ABE0B0E0E3E322
:10566000FBE20C943C277C013B018A01FC01178280
:105670001682838181FFC8C1CE0101965C01F701CA
:105680009381F30193FD859193FF81913F018823DD
:1056900009F453C1853239F493FD859193FF8191CB
:1056A0003F01853229F4B70190E00E941D2DE7CF1C
:1056B000912C212C312CFFE1F31538F08B3211F1B4
:1056C00090F4803209F1833229F137FC3CC020ED9F
:1056D000280F2A3050F536FE20C08AE0989E200D13
:1056E0001124922E06C08D3291F0803371F76894A8
:1056F00030F8F30193FD859193FF81913F01811172
:10570000DACF21C0689431F8689432F8F2CF689407
:1057100033F8EFCF689434F8ECCFEAE02E9E200DFA
:105720001124222E689435F8E4CF8E3229F436FC09
:1057300004C1689436F8DDCF8C3619F4689437F8D4
:10574000D8CF8836B1F2982F9F7D95549330E0F0F2
:105750008336A1F18337C1F1833509F063C0280195
:10576000F2E04F0E511CF801C080D180692D70E02D
:1057700036FC02C06FEF7FEFC6010E94072D4C017F
:10578000689437F882010AC00C5F1F4FFFE3F9836A
:1057900088248394912C6501E89437F833FE2DC05A
:1057A000522C8114910471F5552009F468CFB7018A
:1057B00080E290E00E941D2D5A94F6CFF80180817E
:1057C00089830E5F1F4FE4CF2801F2E04F0E511C7A
:1057D000F801C080D180692D70E036FC02C06FEF07
:1057E0007FEFC6010E94122D4C018201D5CFB70177
:1057F00080E290E00E941D2D2A942814190409F0DB
:10580000B0F7CECFF60137FC859137FE81916F015D
:10581000B70190E00E941D2D51105A94F1E08F1AAB
:105820009108BFCF843619F0893609F077C0F801A6
:1058300037FE6BC060817181828193810C5F1F4F45
:10584000F32DFF763F2E97FF09C0909580957095B8
:1058500061957F4F8F4F9F4F689437F82AE030E073
:10586000A5010E944D2DC82ECA188C2C432C36FE43
:105870000CC0E89440F8C91440F434FE05C032FC72
:1058800003C0F32DFE7E4F2E892C44FE95C0FE01F1
:10589000EC0DF11D8081803309F087C0242D297E15
:1058A000422E842D8870582E43FC95C040FE8FC038
:1058B0009C2C821418F42C0C922C981844FE91C045
:1058C000B70180E390E00E941D2D42FE09C088E7E9
:1058D00090E041FE02C088E590E0B7010E941D2DD6
:1058E000C91408F48AC0CA94D12C9FEFC91AD90AE6
:1058F000CA0CDB1CF60182916F01B70190E00E9497
:105900001D2DAC14BD04B1F74FCF60817181072EFE
:10591000000C880B990B0E5F1F4F92CFD32CE8948D
:10592000D4F82AE030E0853739F1232D297FD22EB3
:105930008F3601F148F48835A9F0F7018681978107
:105940002B96E2E10C945827803749F08837A9F765
:10595000D4FE02C06894D2F820E130E00DC0689413
:10596000D4F8F6CF34FE03C0822F8660D82E20E113
:1059700032E002C028E030E0F801D7FE0FC06081BD
:105980007181828193810C5F1F4FA5010E944D2D73
:10599000C82ECA183D2CE89437F867CF6081718112
:1059A00090E080E00E5F1F4FF0CF42FC02C0839476
:1059B00078CF8394839475CF842D867809F471CF42
:1059C000F6CFB70180E290E00E941D2D83948214EF
:1059D000C0F3512C73CF522C5818821408F46ECF98
:1059E000F8CF842D867809F47BCF8BE241FE80E2EC
:1059F00047FC8DE2B70190E071CFB70180E390E002
:105A00000E941D2D9A946CCF8FEF9FEF99CFFC01D0
:105A10000590615070400110D8F7809590958E0FD9
:105A20009F1F0895FC016150704001900110D8F74C
:105A3000809590958E0F9F1F08950F931F93CF937E
:105A4000DF93182F092FEB018B8181FD09C01FEF18
:105A50000FEF812F902FDF91CF911F910F9108951C
:105A600082FF14C02E813F818C819D8128173907C8
:105A70003CF4E881F981CF010196998388831083F2
:105A80008E819F8101969F838E83E3CFE885F98580
:105A9000812F0995892BA1F3DACFFA01AA272830A3
:105AA00051F1203181F1E8946F936E7F6E5F7F4FEB
:105AB0008F4F9F4FAF4FB1E03ED0B4E03CD0670F67
:105AC000781F891F9A1FA11D680F791F8A1F911DBA
:105AD000A11D6A0F711D811D911DA11D20D009F40A
